{
	"data": {
		"bytecode": {
			"linkReferences": {},
			"object": "6080604052336000806101000a81548173ffffffffffffffffffffffffffffffffffffffff021916908373ffffffffffffffffffffffffffffffffffffffff160217905550735b38da6a701c568545dcfcb03fcb875f56beddc4600160006101000a81548173ffffffffffffffffffffffffffffffffffffffff021916908373ffffffffffffffffffffffffffffffffffffffff16021790555060008054906101000a900473ffffffffffffffffffffffffffffffffffffffff1673ffffffffffffffffffffffffffffffffffffffff16316003553480156100e057600080fd5b50612a23806100f06000396000f3fe6080604052600436106100865760003560e01c806347a828b31161005957806347a828b31461014b5780635b3929cb146101885780638c59a085146101b3578063957bdf60146101dc578063c91e2dcf1461020757610086565b80630c2517bf1461008b5780631e279a37146100bc57806330449c80146100f957806338ae8be414610122575b600080fd5b6100a560048036038101906100a09190611dfd565b610230565b6040516100b3929190612414565b60405180910390f35b3480156100c857600080fd5b506100e360048036038101906100de9190611cc2565b610485565b6040516100f091906124c6565b60405180910390f35b34801561010557600080fd5b50610120600480360381019061011b9190611cc2565b610535565b005b34801561012e57600080fd5b5061014960048036038101906101449190611dd0565b610607565b005b34801561015757600080fd5b50610172600480360381019061016d9190611dd0565b61076b565b60405161017f91906124a4565b60405180910390f35b34801561019457600080fd5b5061019d610b11565b6040516101aa91906123d0565b60405180910390f35b3480156101bf57600080fd5b506101da60048036038101906101d59190611dd0565b610e37565b005b3480156101e857600080fd5b506101f1610f9b565b6040516101fe91906123f2565b60405180910390f35b34801561021357600080fd5b5061022e60048036038101906102299190611cef565b6111f6565b005b606060008061023e8761076b565b905060008160a0015114156102735760006040518060600160405280602781526020016129c76027913990925092505061047c565b604051602001610282906123a6565b604051602081830303815290604052805190602001208160e001516040516020016102ad919061238f565b60405160208183030381529060405280519060200120148061031c57506040516020016102d9906123bb565b604051602081830303815290604052805190602001208160e00151604051602001610304919061238f565b60405160208183030381529060405280519060200120145b156103645760006040518060400160405280602081526020017f4c276576656e746f20652720636f6e636c75736f206f20616e6e756c6c61746f81525090925092505061047c565b8060c0015161037287610485565b10156103bb5760006040518060400160405280601481526020017f466f6e6469206e6f6e20737566666963656e746900000000000000000000000081525090925092505061047c565b8573ffffffffffffffffffffffffffffffffffffffff166108fc8260c001519081150290604051600060405180830381858888f19350505050158015610405573d6000803e3d6000fd5b506000610411886114fb565b9050610420816040015161174b565b5085816000018190525084816020018190525061043c88611833565b60016040518060400160405280601481526020017f4269676c696574746f206163717569737461746f000000000000000000000000815250909350935050505b94509492505050565b60008060009054906101000a900473ffffffffffffffffffffffffffffffffffffffff1673ffffffffffffffffffffffffffffffffffffffff163373ffffffffffffffffffffffffffffffffffffffff1614610516576040517f08c379a000000000000000000000000000000000000000000000000000000000815260040161050d90612464565b60405180910390fd5b8173ffffffffffffffffffffffffffffffffffffffff16319050919050565b60008054906101000a900473ffffffffffffffffffffffffffffffffffffffff1673ffffffffffffffffffffffffffffffffffffffff163373ffffffffffffffffffffffffffffffffffffffff16146105c3576040517f08c379a00000000000000000000000000000000000000000000000000000000081526004016105ba90612464565b60405180910390fd5b80600160006101000a81548173ffffffffffffffffffffffffffffffffffffffff021916908373ffffffffffffffffffffffffffffffffffffffff16021790555050565b60008054906101000a900473ffffffffffffffffffffffffffffffffffffffff1673ffffffffffffffffffffffffffffffffffffffff163373ffffffffffffffffffffffffffffffffffffffff1614610695576040517f08c379a000000000000000000000000000000000000000000000000000000000815260040161068c90612464565b60405180910390fd5b6040518060400160405280600881526020017f436f6e636c75736f000000000000000000000000000000000000000000000000815250600482815481106106df576106de6127e5565b5b90600052602060002090600902016007019080519060200190610703929190611ad4565b5060008054906101000a900473ffffffffffffffffffffffffffffffffffffffff1673ffffffffffffffffffffffffffffffffffffffff16817fb15d3899a0a77e20f0c368865d76be846e277b8cac84cddf244f45748709720a60405160405180910390a350565b610773611b5a565b61077b611871565b82106107bc576040517f08c379a00000000000000000000000000000000000000000000000000000000081526004016107b390612484565b60405180910390fd5b60005b6107c7611871565b811015610b0a5782600482815481106107e3576107e26127e5565b5b9060005260206000209060090201600001541415610af7576004818154811061080f5761080e6127e5565b5b90600052602060002090600902016040518061012001604052908160008201548152602001600182018054610843906126db565b80601f016020809104026020016040519081016040528092919081815260200182805461086f906126db565b80156108bc5780601f10610891576101008083540402835291602001916108bc565b820191906000526020600020905b81548152906001019060200180831161089f57829003601f168201915b505050505081526020016002820180546108d5906126db565b80601f0160208091040260200160405190810160405280929190818152602001828054610901906126db565b801561094e5780601f106109235761010080835404028352916020019161094e565b820191906000526020600020905b81548152906001019060200180831161093157829003601f168201915b50505050508152602001600382018054610967906126db565b80601f0160208091040260200160405190810160405280929190818152602001828054610993906126db565b80156109e05780601f106109b5576101008083540402835291602001916109e0565b820191906000526020600020905b8154815290600101906020018083116109c357829003601f168201915b50505050508152602001600482015481526020016005820154815260200160068201548152602001600782018054610a17906126db565b80601f0160208091040260200160405190810160405280929190818152602001828054610a43906126db565b8015610a905780601f10610a6557610100808354040283529160200191610a90565b820191906000526020600020905b815481529060010190602001808311610a7357829003601f168201915b505050505081526020016008820160009054906101000a900473ffffffffffffffffffffffffffffffffffffffff1673ffffffffffffffffffffffffffffffffffffffff1673ffffffffffffffffffffffffffffffffffffffff1681525050915050610b0c565b8080610b029061273e565b9150506107bf565b505b919050565b60606004805480602002602001604051908101604052809291908181526020016000905b82821015610e2e57838290600052602060002090600902016040518061012001604052908160008201548152602001600182018054610b73906126db565b80601f0160208091040260200160405190810160405280929190818152602001828054610b9f906126db565b8015610bec5780601f10610bc157610100808354040283529160200191610bec565b820191906000526020600020905b815481529060010190602001808311610bcf57829003601f168201915b50505050508152602001600282018054610c05906126db565b80601f0160208091040260200160405190810160405280929190818152602001828054610c31906126db565b8015610c7e5780601f10610c5357610100808354040283529160200191610c7e565b820191906000526020600020905b815481529060010190602001808311610c6157829003601f168201915b50505050508152602001600382018054610c97906126db565b80601f0160208091040260200160405190810160405280929190818152602001828054610cc3906126db565b8015610d105780601f10610ce557610100808354040283529160200191610d10565b820191906000526020600020905b815481529060010190602001808311610cf357829003601f168201915b50505050508152602001600482015481526020016005820154815260200160068201548152602001600782018054610d47906126db565b80601f0160208091040260200160405190810160405280929190818152602001828054610d73906126db565b8015610dc05780601f10610d9557610100808354040283529160200191610dc0565b820191906000526020600020905b815481529060010190602001808311610da357829003601f168201915b505050505081526020016008820160009054906101000a900473ffffffffffffffffffffffffffffffffffffffff1673ffffffffffffffffffffffffffffffffffffffff1673ffffffffffffffffffffffffffffffffffffffff168152505081526020019060010190610b35565b50505050905090565b60008054906101000a900473ffffffffffffffffffffffffffffffffffffffff1673ffffffffffffffffffffffffffffffffffffffff163373ffffffffffffffffffffffffffffffffffffffff1614610ec5576040517f08c379a0000000000000000000000000000000000000000000000000000000008152600401610ebc90612464565b60405180910390fd5b6040518060400160405280600981526020017f416e6e756c6c61746f000000000000000000000000000000000000000000000081525060048281548110610f0f57610f0e6127e5565b5b90600052602060002090600902016007019080519060200190610f33929190611ad4565b5060008054906101000a900473ffffffffffffffffffffffffffffffffffffffff1673ffffffffffffffffffffffffffffffffffffffff16817f9ab588958c126cb0274213719f45aca396603352447383188a81e29c1269029a60405160405180910390a350565b606060008054906101000a900473ffffffffffffffffffffffffffffffffffffffff1673ffffffffffffffffffffffffffffffffffffffff163373ffffffffffffffffffffffffffffffffffffffff161461102b576040517f08c379a000000000000000000000000000000000000000000000000000000000815260040161102290612464565b60405180910390fd5b6005805480602002602001604051908101604052809291908181526020016000905b828210156111ed57838290600052602060002090600502016040518060c0016040529081600082018054611080906126db565b80601f01602080910402602001604051908101604052809291908181526020018280546110ac906126db565b80156110f95780601f106110ce576101008083540402835291602001916110f9565b820191906000526020600020905b8154815290600101906020018083116110dc57829003601f168201915b50505050508152602001600182018054611112906126db565b80601f016020809104026020016040519081016040528092919081815260200182805461113e906126db565b801561118b5780601f106111605761010080835404028352916020019161118b565b820191906000526020600020905b81548152906001019060200180831161116e57829003601f168201915b5050505050815260200160028201548152602001600382015481526020016004820160009054906101000a900460ff161515151581526020016004820160019054906101000a900460ff1615151515815250508152602001906001019061104d565b50505050905090565b60008054906101000a900473ffffffffffffffffffffffffffffffffffffffff1673ffffffffffffffffffffffffffffffffffffffff163373ffffffffffffffffffffffffffffffffffffffff1614611284576040517f08c379a000000000000000000000000000000000000000000000000000000000815260040161127b90612464565b60405180910390fd5b6004604051806101200160405280600081526020018881526020018781526020018681526020018581526020018581526020018481526020016040518060400160405280600c81526020017f4e6f6e20636f6e636c75736f0000000000000000000000000000000000000000815250815260200160008054906101000a900473ffffffffffffffffffffffffffffffffffffffff1673ffffffffffffffffffffffffffffffffffffffff168152509080600181540180825580915050600190039060005260206000209060090201600090919091909150600082015181600001556020820151816001019080519060200190611381929190611ad4565b50604082015181600201908051906020019061139e929190611ad4565b5060608201518160030190805190602001906113bb929190611ad4565b506080820151816004015560a0820151816005015560c0820151816006015560e08201518160070190805190602001906113f6929190611ad4565b506101008201518160080160006101000a81548173ffffffffffffffffffffffffffffffffffffffff021916908373ffffffffffffffffffffffffffffffffffffffff16021790555050506000600161144d611871565b61145791906125e1565b9050806004828154811061146e5761146d6127e5565b5b90600052602060002090600902016000018190555060008054906101000a900473ffffffffffffffffffffffffffffffffffffffff1673ffffffffffffffffffffffffffffffffffffffff16817fe43349c008949cf6b65249356e6f918d4aaa0ca79f2b1166df4a4a98c9c16de260405160405180910390a36114f281858461187e565b50505050505050565b611503611bbc565b61150b611bbc565b60005b611516611ac7565b811015611741578360058281548110611532576115316127e5565b5b90600052602060002090600502016003015414801561158757506000151560058281548110611564576115636127e5565b5b906000526020600020906005020160040160009054906101000a900460ff161515145b1561172e57600581815481106115a05761159f6127e5565b5b90600052602060002090600502016040518060c00160405290816000820180546115c9906126db565b80601f01602080910402602001604051908101604052809291908181526020018280546115f5906126db565b80156116425780601f1061161757610100808354040283529160200191611642565b820191906000526020600020905b81548152906001019060200180831161162557829003601f168201915b5050505050815260200160018201805461165b906126db565b80601f0160208091040260200160405190810160405280929190818152602001828054611687906126db565b80156116d45780601f106116a9576101008083540402835291602001916116d4565b820191906000526020600020905b8154815290600101906020018083116116b757829003601f168201915b5050505050815260200160028201548152602001600382015481526020016004820160009054906101000a900460ff161515151581526020016004820160019054906101000a900460ff1615151515815250509150611741565b80806117399061273e565b91505061150e565b5080915050919050565b6000806000905060005b61175d611ac7565b811015611829578360058281548110611779576117786127e5565b5b9060005260206000209060050201600201541480156117ce575060001515600582815481106117ab576117aa6127e5565b5b906000526020600020906005020160040160009054906101000a900460ff161515145b15611816576001600582815481106117e9576117e86127e5565b5b906000526020600020906005020160040160006101000a81548160ff021916908315150217905550600191505b80806118219061273e565b915050611755565b5080915050919050565b60048181548110611847576118466127e5565b5b90600052602060002090600902016005016000815480929190611869906126b1565b919050555050565b6000600480549050905090565b80600160009054906101000a900473ffffffffffffffffffffffffffffffffffffffff1673ffffffffffffffffffffffffffffffffffffffff168173ffffffffffffffffffffffffffffffffffffffff161461190f576040517f08c379a000000000000000000000000000000000000000000000000000000000815260040161190690612444565b60405180910390fd5b60005b83811015611a7b5760056040518060c001604052806040518060200160405280600081525081526020016040518060200160405280600081525081526020016000815260200187815260200160001515815260200160001515815250908060018154018082558091505060019003906000526020600020906005020160009091909190915060008201518160000190805190602001906119b3929190611ad4565b5060208201518160010190805190602001906119d0929190611ad4565b50604082015181600201556060820151816003015560808201518160040160006101000a81548160ff02191690831515021790555060a08201518160040160016101000a81548160ff021916908315150217905550505060006001600580549050611a3b91906125e1565b90508060058381548110611a5257611a516127e5565b5b906000526020600020906005020160020181905550508080611a739061273e565b915050611912565b508173ffffffffffffffffffffffffffffffffffffffff1683857f6567ab497f12a760d234e0684de86536dce884c904386957d5877e165bfb32fa60405160405180910390a450505050565b6000600580549050905090565b828054611ae0906126db565b90600052602060002090601f016020900481019282611b025760008555611b49565b82601f10611b1b57805160ff1916838001178555611b49565b82800160010185558215611b49579182015b82811115611b48578251825591602001919060010190611b2d565b5b509050611b569190611bf6565b5090565b6040518061012001604052806000815260200160608152602001606081526020016060815260200160008152602001600081526020016000815260200160608152602001600073ffffffffffffffffffffffffffffffffffffffff1681525090565b6040518060c00160405280606081526020016060815260200160008152602001600081526020016000151581526020016000151581525090565b5b80821115611c0f576000816000905550600101611bf7565b5090565b6000611c26611c2184612506565b6124e1565b905082815260208101848484011115611c4257611c41612848565b5b611c4d84828561266f565b509392505050565b600081359050611c6481612981565b92915050565b600081359050611c7981612998565b92915050565b600082601f830112611c9457611c93612843565b5b8135611ca4848260208601611c13565b91505092915050565b600081359050611cbc816129af565b92915050565b600060208284031215611cd857611cd7612852565b5b6000611ce684828501611c55565b91505092915050565b60008060008060008060c08789031215611d0c57611d0b612852565b5b600087013567ffffffffffffffff811115611d2a57611d2961284d565b5b611d3689828a01611c7f565b965050602087013567ffffffffffffffff811115611d5757611d5661284d565b5b611d6389828a01611c7f565b955050604087013567ffffffffffffffff811115611d8457611d8361284d565b5b611d9089828a01611c7f565b9450506060611da189828a01611cad565b9350506080611db289828a01611cad565b92505060a0611dc389828a01611c55565b9150509295509295509295565b600060208284031215611de657611de5612852565b5b6000611df484828501611cad565b91505092915050565b60008060008060808587031215611e1757611e16612852565b5b6000611e2587828801611cad565b9450506020611e3687828801611c6a565b935050604085013567ffffffffffffffff811115611e5757611e5661284d565b5b611e6387828801611c7f565b925050606085013567ffffffffffffffff811115611e8457611e8361284d565b5b611e9087828801611c7f565b91505092959194509250565b6000611ea8838361212d565b905092915050565b6000611ebc83836122e1565b905092915050565b611ecd81612615565b82525050565b6000611ede82612557565b611ee88185612592565b935083602082028501611efa85612537565b8060005b85811015611f365784840389528151611f178582611e9c565b9450611f2283612578565b925060208a01995050600181019050611efe565b50829750879550505050505092915050565b6000611f5382612562565b611f5d81856125a3565b935083602082028501611f6f85612547565b8060005b85811015611fab5784840389528151611f8c8582611eb0565b9450611f9783612585565b925060208a01995050600181019050611f73565b50829750879550505050505092915050565b611fc681612639565b82525050565b611fd581612639565b82525050565b6000611fe68261256d565b611ff081856125b4565b935061200081856020860161267e565b61200981612857565b840191505092915050565b600061201f8261256d565b61202981856125c5565b935061203981856020860161267e565b61204281612857565b840191505092915050565b60006120588261256d565b61206281856125d6565b935061207281856020860161267e565b80840191505092915050565b600061208b6021836125c5565b915061209682612868565b604082019050919050565b60006120ae6008836125d6565b91506120b9826128b7565b600882019050919050565b60006120d1602d836125c5565b91506120dc826128e0565b604082019050919050565b60006120f46009836125d6565b91506120ff8261292f565b600982019050919050565b60006121176013836125c5565b915061212282612958565b602082019050919050565b6000610120830160008301516121466000860182612371565b506020830151848203602086015261215e8282611fdb565b915050604083015184820360408601526121788282611fdb565b915050606083015184820360608601526121928282611fdb565b91505060808301516121a76080860182612371565b5060a08301516121ba60a0860182612371565b5060c08301516121cd60c0860182612371565b5060e083015184820360e08601526121e58282611fdb565b9150506101008301516121fc610100860182611ec4565b508091505092915050565b6000610120830160008301516122206000860182612371565b50602083015184820360208601526122388282611fdb565b915050604083015184820360408601526122528282611fdb565b9150506060830151848203606086015261226c8282611fdb565b91505060808301516122816080860182612371565b5060a083015161229460a0860182612371565b5060c08301516122a760c0860182612371565b5060e083015184820360e08601526122bf8282611fdb565b9150506101008301516122d6610100860182611ec4565b508091505092915050565b600060c08301600083015184820360008601526122fe8282611fdb565b915050602083015184820360208601526123188282611fdb565b915050604083015161232d6040860182612371565b5060608301516123406060860182612371565b5060808301516123536080860182611fbd565b5060a083015161236660a0860182611fbd565b508091505092915050565b61237a81612665565b82525050565b61238981612665565b82525050565b600061239b828461204d565b915081905092915050565b60006123b1826120a1565b9150819050919050565b60006123c6826120e7565b9150819050919050565b600060208201905081810360008301526123ea8184611ed3565b905092915050565b6000602082019050818103600083015261240c8184611f48565b905092915050565b6000604082019050818103600083015261242e8185612014565b905061243d6020830184611fcc565b9392505050565b6000602082019050818103600083015261245d8161207e565b9050919050565b6000602082019050818103600083015261247d816120c4565b9050919050565b6000602082019050818103600083015261249d8161210a565b9050919050565b600060208201905081810360008301526124be8184612207565b905092915050565b60006020820190506124db6000830184612380565b92915050565b60006124eb6124fc565b90506124f7828261270d565b919050565b6000604051905090565b600067ffffffffffffffff82111561252157612520612814565b5b61252a82612857565b9050602081019050919050565b6000819050602082019050919050565b6000819050602082019050919050565b600081519050919050565b600081519050919050565b600081519050919050565b6000602082019050919050565b6000602082019050919050565b600082825260208201905092915050565b600082825260208201905092915050565b600082825260208201905092915050565b600082825260208201905092915050565b600081905092915050565b60006125ec82612665565b91506125f783612665565b92508282101561260a57612609612787565b5b828203905092915050565b600061262082612645565b9050919050565b600061263282612645565b9050919050565b60008115159050919050565b600073ffffffffffffffffffffffffffffffffffffffff82169050919050565b6000819050919050565b82818337600083830152505050565b60005b8381101561269c578082015181840152602081019050612681565b838111156126ab576000848401525b50505050565b60006126bc82612665565b915060008214156126d0576126cf612787565b5b600182039050919050565b600060028204905060018216806126f357607f821691505b60208210811415612707576127066127b6565b5b50919050565b61271682612857565b810181811067ffffffffffffffff8211171561273557612734612814565b5b80604052505050565b600061274982612665565b91507fffffffffffffffffffffffffffffffffffffffffffffffffffffffffffffffff82141561277c5761277b612787565b5b600182019050919050565b7f4e487b7100000000000000000000000000000000000000000000000000000000600052601160045260246000fd5b7f4e487b7100000000000000000000000000000000000000000000000000000000600052602260045260246000fd5b7f4e487b7100000000000000000000000000000000000000000000000000000000600052603260045260246000fd5b7f4e487b7100000000000000000000000000000000000000000000000000000000600052604160045260246000fd5b600080fd5b600080fd5b600080fd5b600080fd5b6000601f19601f8301169050919050565b7f496c20726573656c6c657220737065636966696361746f20652720657272617460008201527f6f00000000000000000000000000000000000000000000000000000000000000602082015250565b7f436f6e636c75736f000000000000000000000000000000000000000000000000600082015250565b7f4e6f6e20736569206175746f72697a7a61746f2061642065736567756972652060008201527f71756573746120617a696f6e6500000000000000000000000000000000000000602082015250565b7f416e6e756c6c61746f0000000000000000000000000000000000000000000000600082015250565b7f4c276576656e746f206e6f6e2065736973746500000000000000000000000000600082015250565b61298a81612615565b811461299557600080fd5b50565b6129a181612627565b81146129ac57600080fd5b50565b6129b881612665565b81146129c357600080fd5b5056fe4e6f6e20636920736f6e6f2070697527206269676c69657474692064697370706f6e6962696c69a26469706673582212208951d59bccf5a60a9ed0fc6d5d6813e67b881c9308b28c01f74f94805ede219d64736f6c63430008070033",
			"opcodes": "PUSH1 0x80 PUSH1 0x40 MSTORE CALLER PUSH1 0x0 DUP1 PUSH2 0x100 EXP DUP2 SLOAD DUP2 PUSH20 0xFFFFFFFFFFFFFFFFFFFFFFFFFFFFFFFFFFFFFFFF MUL NOT AND SWAP1 DUP4 PUSH20 0xFFFFFFFFFFFFFFFFFFFFFFFFFFFFFFFFFFFFFFFF AND MUL OR SWAP1 SSTORE POP PUSH20 0x5B38DA6A701C568545DCFCB03FCB875F56BEDDC4 PUSH1 0x1 PUSH1 0x0 PUSH2 0x100 EXP DUP2 SLOAD DUP2 PUSH20 0xFFFFFFFFFFFFFFFFFFFFFFFFFFFFFFFFFFFFFFFF MUL NOT AND SWAP1 DUP4 PUSH20 0xFFFFFFFFFFFFFFFFFFFFFFFFFFFFFFFFFFFFFFFF AND MUL OR SWAP1 SSTORE POP PUSH1 0x0 DUP1 SLOAD SWAP1 PUSH2 0x100 EXP SWAP1 DIV PUSH20 0xFFFFFFFFFFFFFFFFFFFFFFFFFFFFFFFFFFFFFFFF AND PUSH20 0xFFFFFFFFFFFFFFFFFFFFFFFFFFFFFFFFFFFFFFFF AND BALANCE PUSH1 0x3 SSTORE CALLVALUE DUP1 ISZERO PUSH2 0xE0 JUMPI PUSH1 0x0 DUP1 REVERT JUMPDEST POP PUSH2 0x2A23 DUP1 PUSH2 0xF0 PUSH1 0x0 CODECOPY PUSH1 0x0 RETURN INVALID PUSH1 0x80 PUSH1 0x40 MSTORE PUSH1 0x4 CALLDATASIZE LT PUSH2 0x86 JUMPI PUSH1 0x0 CALLDATALOAD PUSH1 0xE0 SHR DUP1 PUSH4 0x47A828B3 GT PUSH2 0x59 JUMPI DUP1 PUSH4 0x47A828B3 EQ PUSH2 0x14B JUMPI DUP1 PUSH4 0x5B3929CB EQ PUSH2 0x188 JUMPI DUP1 PUSH4 0x8C59A085 EQ PUSH2 0x1B3 JUMPI DUP1 PUSH4 0x957BDF60 EQ PUSH2 0x1DC JUMPI DUP1 PUSH4 0xC91E2DCF EQ PUSH2 0x207 JUMPI PUSH2 0x86 JUMP JUMPDEST DUP1 PUSH4 0xC2517BF EQ PUSH2 0x8B JUMPI DUP1 PUSH4 0x1E279A37 EQ PUSH2 0xBC JUMPI DUP1 PUSH4 0x30449C80 EQ PUSH2 0xF9 JUMPI DUP1 PUSH4 0x38AE8BE4 EQ PUSH2 0x122 JUMPI JUMPDEST PUSH1 0x0 DUP1 REVERT JUMPDEST PUSH2 0xA5 PUSH1 0x4 DUP1 CALLDATASIZE SUB DUP2 ADD SWAP1 PUSH2 0xA0 SWAP2 SWAP1 PUSH2 0x1DFD JUMP JUMPDEST PUSH2 0x230 JUMP JUMPDEST PUSH1 0x40 MLOAD PUSH2 0xB3 SWAP3 SWAP2 SWAP1 PUSH2 0x2414 JUMP JUMPDEST PUSH1 0x40 MLOAD DUP1 SWAP2 SUB SWAP1 RETURN JUMPDEST CALLVALUE DUP1 ISZERO PUSH2 0xC8 JUMPI PUSH1 0x0 DUP1 REVERT JUMPDEST POP PUSH2 0xE3 PUSH1 0x4 DUP1 CALLDATASIZE SUB DUP2 ADD SWAP1 PUSH2 0xDE SWAP2 SWAP1 PUSH2 0x1CC2 JUMP JUMPDEST PUSH2 0x485 JUMP JUMPDEST PUSH1 0x40 MLOAD PUSH2 0xF0 SWAP2 SWAP1 PUSH2 0x24C6 JUMP JUMPDEST PUSH1 0x40 MLOAD DUP1 SWAP2 SUB SWAP1 RETURN JUMPDEST CALLVALUE DUP1 ISZERO PUSH2 0x105 JUMPI PUSH1 0x0 DUP1 REVERT JUMPDEST POP PUSH2 0x120 PUSH1 0x4 DUP1 CALLDATASIZE SUB DUP2 ADD SWAP1 PUSH2 0x11B SWAP2 SWAP1 PUSH2 0x1CC2 JUMP JUMPDEST PUSH2 0x535 JUMP JUMPDEST STOP JUMPDEST CALLVALUE DUP1 ISZERO PUSH2 0x12E JUMPI PUSH1 0x0 DUP1 REVERT JUMPDEST POP PUSH2 0x149 PUSH1 0x4 DUP1 CALLDATASIZE SUB DUP2 ADD SWAP1 PUSH2 0x144 SWAP2 SWAP1 PUSH2 0x1DD0 JUMP JUMPDEST PUSH2 0x607 JUMP JUMPDEST STOP JUMPDEST CALLVALUE DUP1 ISZERO PUSH2 0x157 JUMPI PUSH1 0x0 DUP1 REVERT JUMPDEST POP PUSH2 0x172 PUSH1 0x4 DUP1 CALLDATASIZE SUB DUP2 ADD SWAP1 PUSH2 0x16D SWAP2 SWAP1 PUSH2 0x1DD0 JUMP JUMPDEST PUSH2 0x76B JUMP JUMPDEST PUSH1 0x40 MLOAD PUSH2 0x17F SWAP2 SWAP1 PUSH2 0x24A4 JUMP JUMPDEST PUSH1 0x40 MLOAD DUP1 SWAP2 SUB SWAP1 RETURN JUMPDEST CALLVALUE DUP1 ISZERO PUSH2 0x194 JUMPI PUSH1 0x0 DUP1 REVERT JUMPDEST POP PUSH2 0x19D PUSH2 0xB11 JUMP JUMPDEST PUSH1 0x40 MLOAD PUSH2 0x1AA SWAP2 SWAP1 PUSH2 0x23D0 JUMP JUMPDEST PUSH1 0x40 MLOAD DUP1 SWAP2 SUB SWAP1 RETURN JUMPDEST CALLVALUE DUP1 ISZERO PUSH2 0x1BF JUMPI PUSH1 0x0 DUP1 REVERT JUMPDEST POP PUSH2 0x1DA PUSH1 0x4 DUP1 CALLDATASIZE SUB DUP2 ADD SWAP1 PUSH2 0x1D5 SWAP2 SWAP1 PUSH2 0x1DD0 JUMP JUMPDEST PUSH2 0xE37 JUMP JUMPDEST STOP JUMPDEST CALLVALUE DUP1 ISZERO PUSH2 0x1E8 JUMPI PUSH1 0x0 DUP1 REVERT JUMPDEST POP PUSH2 0x1F1 PUSH2 0xF9B JUMP JUMPDEST PUSH1 0x40 MLOAD PUSH2 0x1FE SWAP2 SWAP1 PUSH2 0x23F2 JUMP JUMPDEST PUSH1 0x40 MLOAD DUP1 SWAP2 SUB SWAP1 RETURN JUMPDEST CALLVALUE DUP1 ISZERO PUSH2 0x213 JUMPI PUSH1 0x0 DUP1 REVERT JUMPDEST POP PUSH2 0x22E PUSH1 0x4 DUP1 CALLDATASIZE SUB DUP2 ADD SWAP1 PUSH2 0x229 SWAP2 SWAP1 PUSH2 0x1CEF JUMP JUMPDEST PUSH2 0x11F6 JUMP JUMPDEST STOP JUMPDEST PUSH1 0x60 PUSH1 0x0 DUP1 PUSH2 0x23E DUP8 PUSH2 0x76B JUMP JUMPDEST SWAP1 POP PUSH1 0x0 DUP2 PUSH1 0xA0 ADD MLOAD EQ ISZERO PUSH2 0x273 JUMPI PUSH1 0x0 PUSH1 0x40 MLOAD DUP1 PUSH1 0x60 ADD PUSH1 0x40 MSTORE DUP1 PUSH1 0x27 DUP2 MSTORE PUSH1 0x20 ADD PUSH2 0x29C7 PUSH1 0x27 SWAP2 CODECOPY SWAP1 SWAP3 POP SWAP3 POP POP PUSH2 0x47C JUMP JUMPDEST PUSH1 0x40 MLOAD PUSH1 0x20 ADD PUSH2 0x282 SWAP1 PUSH2 0x23A6 JUMP JUMPDEST PUSH1 0x40 MLOAD PUSH1 0x20 DUP2 DUP4 SUB SUB DUP2 MSTORE SWAP1 PUSH1 0x40 MSTORE DUP1 MLOAD SWAP1 PUSH1 0x20 ADD KECCAK256 DUP2 PUSH1 0xE0 ADD MLOAD PUSH1 0x40 MLOAD PUSH1 0x20 ADD PUSH2 0x2AD SWAP2 SWAP1 PUSH2 0x238F JUMP JUMPDEST PUSH1 0x40 MLOAD PUSH1 0x20 DUP2 DUP4 SUB SUB DUP2 MSTORE SWAP1 PUSH1 0x40 MSTORE DUP1 MLOAD SWAP1 PUSH1 0x20 ADD KECCAK256 EQ DUP1 PUSH2 0x31C JUMPI POP PUSH1 0x40 MLOAD PUSH1 0x20 ADD PUSH2 0x2D9 SWAP1 PUSH2 0x23BB JUMP JUMPDEST PUSH1 0x40 MLOAD PUSH1 0x20 DUP2 DUP4 SUB SUB DUP2 MSTORE SWAP1 PUSH1 0x40 MSTORE DUP1 MLOAD SWAP1 PUSH1 0x20 ADD KECCAK256 DUP2 PUSH1 0xE0 ADD MLOAD PUSH1 0x40 MLOAD PUSH1 0x20 ADD PUSH2 0x304 SWAP2 SWAP1 PUSH2 0x238F JUMP JUMPDEST PUSH1 0x40 MLOAD PUSH1 0x20 DUP2 DUP4 SUB SUB DUP2 MSTORE SWAP1 PUSH1 0x40 MSTORE DUP1 MLOAD SWAP1 PUSH1 0x20 ADD KECCAK256 EQ JUMPDEST ISZERO PUSH2 0x364 JUMPI PUSH1 0x0 PUSH1 0x40 MLOAD DUP1 PUSH1 0x40 ADD PUSH1 0x40 MSTORE DUP1 PUSH1 0x20 DUP2 MSTORE PUSH1 0x20 ADD PUSH32 0x4C276576656E746F20652720636F6E636C75736F206F20616E6E756C6C61746F DUP2 MSTORE POP SWAP1 SWAP3 POP SWAP3 POP POP PUSH2 0x47C JUMP JUMPDEST DUP1 PUSH1 0xC0 ADD MLOAD PUSH2 0x372 DUP8 PUSH2 0x485 JUMP JUMPDEST LT ISZERO PUSH2 0x3BB JUMPI PUSH1 0x0 PUSH1 0x40 MLOAD DUP1 PUSH1 0x40 ADD PUSH1 0x40 MSTORE DUP1 PUSH1 0x14 DUP2 MSTORE PUSH1 0x20 ADD PUSH32 0x466F6E6469206E6F6E20737566666963656E7469000000000000000000000000 DUP2 MSTORE POP SWAP1 SWAP3 POP SWAP3 POP POP PUSH2 0x47C JUMP JUMPDEST DUP6 PUSH20 0xFFFFFFFFFFFFFFFFFFFFFFFFFFFFFFFFFFFFFFFF AND PUSH2 0x8FC DUP3 PUSH1 0xC0 ADD MLOAD SWAP1 DUP2 ISZERO MUL SWAP1 PUSH1 0x40 MLOAD PUSH1 0x0 PUSH1 0x40 MLOAD DUP1 DUP4 SUB DUP2 DUP6 DUP9 DUP9 CALL SWAP4 POP POP POP POP ISZERO DUP1 ISZERO PUSH2 0x405 JUMPI RETURNDATASIZE PUSH1 0x0 DUP1 RETURNDATACOPY RETURNDATASIZE PUSH1 0x0 REVERT JUMPDEST POP PUSH1 0x0 PUSH2 0x411 DUP9 PUSH2 0x14FB JUMP JUMPDEST SWAP1 POP PUSH2 0x420 DUP2 PUSH1 0x40 ADD MLOAD PUSH2 0x174B JUMP JUMPDEST POP DUP6 DUP2 PUSH1 0x0 ADD DUP2 SWAP1 MSTORE POP DUP5 DUP2 PUSH1 0x20 ADD DUP2 SWAP1 MSTORE POP PUSH2 0x43C DUP9 PUSH2 0x1833 JUMP JUMPDEST PUSH1 0x1 PUSH1 0x40 MLOAD DUP1 PUSH1 0x40 ADD PUSH1 0x40 MSTORE DUP1 PUSH1 0x14 DUP2 MSTORE PUSH1 0x20 ADD PUSH32 0x4269676C696574746F206163717569737461746F000000000000000000000000 DUP2 MSTORE POP SWAP1 SWAP4 POP SWAP4 POP POP POP JUMPDEST SWAP5 POP SWAP5 SWAP3 POP POP POP JUMP JUMPDEST PUSH1 0x0 DUP1 PUSH1 0x0 SWAP1 SLOAD SWAP1 PUSH2 0x100 EXP SWAP1 DIV PUSH20 0xFFFFFFFFFFFFFFFFFFFFFFFFFFFFFFFFFFFFFFFF AND PUSH20 0xFFFFFFFFFFFFFFFFFFFFFFFFFFFFFFFFFFFFFFFF AND CALLER PUSH20 0xFFFFFFFFFFFFFFFFFFFFFFFFFFFFFFFFFFFFFFFF AND EQ PUSH2 0x516 JUMPI PUSH1 0x40 MLOAD PUSH32 0x8C379A000000000000000000000000000000000000000000000000000000000 DUP2 MSTORE PUSH1 0x4 ADD PUSH2 0x50D SWAP1 PUSH2 0x2464 JUMP JUMPDEST PUSH1 0x40 MLOAD DUP1 SWAP2 SUB SWAP1 REVERT JUMPDEST DUP2 PUSH20 0xFFFFFFFFFFFFFFFFFFFFFFFFFFFFFFFFFFFFFFFF AND BALANCE SWAP1 POP SWAP2 SWAP1 POP JUMP JUMPDEST PUSH1 0x0 DUP1 SLOAD SWAP1 PUSH2 0x100 EXP SWAP1 DIV PUSH20 0xFFFFFFFFFFFFFFFFFFFFFFFFFFFFFFFFFFFFFFFF AND PUSH20 0xFFFFFFFFFFFFFFFFFFFFFFFFFFFFFFFFFFFFFFFF AND CALLER PUSH20 0xFFFFFFFFFFFFFFFFFFFFFFFFFFFFFFFFFFFFFFFF AND EQ PUSH2 0x5C3 JUMPI PUSH1 0x40 MLOAD PUSH32 0x8C379A000000000000000000000000000000000000000000000000000000000 DUP2 MSTORE PUSH1 0x4 ADD PUSH2 0x5BA SWAP1 PUSH2 0x2464 JUMP JUMPDEST PUSH1 0x40 MLOAD DUP1 SWAP2 SUB SWAP1 REVERT JUMPDEST DUP1 PUSH1 0x1 PUSH1 0x0 PUSH2 0x100 EXP DUP2 SLOAD DUP2 PUSH20 0xFFFFFFFFFFFFFFFFFFFFFFFFFFFFFFFFFFFFFFFF MUL NOT AND SWAP1 DUP4 PUSH20 0xFFFFFFFFFFFFFFFFFFFFFFFFFFFFFFFFFFFFFFFF AND MUL OR SWAP1 SSTORE POP POP JUMP JUMPDEST PUSH1 0x0 DUP1 SLOAD SWAP1 PUSH2 0x100 EXP SWAP1 DIV PUSH20 0xFFFFFFFFFFFFFFFFFFFFFFFFFFFFFFFFFFFFFFFF AND PUSH20 0xFFFFFFFFFFFFFFFFFFFFFFFFFFFFFFFFFFFFFFFF AND CALLER PUSH20 0xFFFFFFFFFFFFFFFFFFFFFFFFFFFFFFFFFFFFFFFF AND EQ PUSH2 0x695 JUMPI PUSH1 0x40 MLOAD PUSH32 0x8C379A000000000000000000000000000000000000000000000000000000000 DUP2 MSTORE PUSH1 0x4 ADD PUSH2 0x68C SWAP1 PUSH2 0x2464 JUMP JUMPDEST PUSH1 0x40 MLOAD DUP1 SWAP2 SUB SWAP1 REVERT JUMPDEST PUSH1 0x40 MLOAD DUP1 PUSH1 0x40 ADD PUSH1 0x40 MSTORE DUP1 PUSH1 0x8 DUP2 MSTORE PUSH1 0x20 ADD PUSH32 0x436F6E636C75736F000000000000000000000000000000000000000000000000 DUP2 MSTORE POP PUSH1 0x4 DUP3 DUP2 SLOAD DUP2 LT PUSH2 0x6DF JUMPI PUSH2 0x6DE PUSH2 0x27E5 JUMP JUMPDEST JUMPDEST SWAP1 PUSH1 0x0 MSTORE PUSH1 0x20 PUSH1 0x0 KECCAK256 SWAP1 PUSH1 0x9 MUL ADD PUSH1 0x7 ADD SWAP1 DUP1 MLOAD SWAP1 PUSH1 0x20 ADD SWAP1 PUSH2 0x703 SWAP3 SWAP2 SWAP1 PUSH2 0x1AD4 JUMP JUMPDEST POP PUSH1 0x0 DUP1 SLOAD SWAP1 PUSH2 0x100 EXP SWAP1 DIV PUSH20 0xFFFFFFFFFFFFFFFFFFFFFFFFFFFFFFFFFFFFFFFF AND PUSH20 0xFFFFFFFFFFFFFFFFFFFFFFFFFFFFFFFFFFFFFFFF AND DUP2 PUSH32 0xB15D3899A0A77E20F0C368865D76BE846E277B8CAC84CDDF244F45748709720A PUSH1 0x40 MLOAD PUSH1 0x40 MLOAD DUP1 SWAP2 SUB SWAP1 LOG3 POP JUMP JUMPDEST PUSH2 0x773 PUSH2 0x1B5A JUMP JUMPDEST PUSH2 0x77B PUSH2 0x1871 JUMP JUMPDEST DUP3 LT PUSH2 0x7BC JUMPI PUSH1 0x40 MLOAD PUSH32 0x8C379A000000000000000000000000000000000000000000000000000000000 DUP2 MSTORE PUSH1 0x4 ADD PUSH2 0x7B3 SWAP1 PUSH2 0x2484 JUMP JUMPDEST PUSH1 0x40 MLOAD DUP1 SWAP2 SUB SWAP1 REVERT JUMPDEST PUSH1 0x0 JUMPDEST PUSH2 0x7C7 PUSH2 0x1871 JUMP JUMPDEST DUP2 LT ISZERO PUSH2 0xB0A JUMPI DUP3 PUSH1 0x4 DUP3 DUP2 SLOAD DUP2 LT PUSH2 0x7E3 JUMPI PUSH2 0x7E2 PUSH2 0x27E5 JUMP JUMPDEST JUMPDEST SWAP1 PUSH1 0x0 MSTORE PUSH1 0x20 PUSH1 0x0 KECCAK256 SWAP1 PUSH1 0x9 MUL ADD PUSH1 0x0 ADD SLOAD EQ ISZERO PUSH2 0xAF7 JUMPI PUSH1 0x4 DUP2 DUP2 SLOAD DUP2 LT PUSH2 0x80F JUMPI PUSH2 0x80E PUSH2 0x27E5 JUMP JUMPDEST JUMPDEST SWAP1 PUSH1 0x0 MSTORE PUSH1 0x20 PUSH1 0x0 KECCAK256 SWAP1 PUSH1 0x9 MUL ADD PUSH1 0x40 MLOAD DUP1 PUSH2 0x120 ADD PUSH1 0x40 MSTORE SWAP1 DUP2 PUSH1 0x0 DUP3 ADD SLOAD DUP2 MSTORE PUSH1 0x20 ADD PUSH1 0x1 DUP3 ADD DUP1 SLOAD PUSH2 0x843 SWAP1 PUSH2 0x26DB JUMP JUMPDEST DUP1 PUSH1 0x1F ADD PUSH1 0x20 DUP1 SWAP2 DIV MUL PUSH1 0x20 ADD PUSH1 0x40 MLOAD SWAP1 DUP2 ADD PUSH1 0x40 MSTORE DUP1 SWAP3 SWAP2 SWAP1 DUP2 DUP2 MSTORE PUSH1 0x20 ADD DUP3 DUP1 SLOAD PUSH2 0x86F SWAP1 PUSH2 0x26DB JUMP JUMPDEST DUP1 ISZERO PUSH2 0x8BC JUMPI DUP1 PUSH1 0x1F LT PUSH2 0x891 JUMPI PUSH2 0x100 DUP1 DUP4 SLOAD DIV MUL DUP4 MSTORE SWAP2 PUSH1 0x20 ADD SWAP2 PUSH2 0x8BC JUMP JUMPDEST DUP3 ADD SWAP2 SWAP1 PUSH1 0x0 MSTORE PUSH1 0x20 PUSH1 0x0 KECCAK256 SWAP1 JUMPDEST DUP2 SLOAD DUP2 MSTORE SWAP1 PUSH1 0x1 ADD SWAP1 PUSH1 0x20 ADD DUP1 DUP4 GT PUSH2 0x89F JUMPI DUP3 SWAP1 SUB PUSH1 0x1F AND DUP3 ADD SWAP2 JUMPDEST POP POP POP POP POP DUP2 MSTORE PUSH1 0x20 ADD PUSH1 0x2 DUP3 ADD DUP1 SLOAD PUSH2 0x8D5 SWAP1 PUSH2 0x26DB JUMP JUMPDEST DUP1 PUSH1 0x1F ADD PUSH1 0x20 DUP1 SWAP2 DIV MUL PUSH1 0x20 ADD PUSH1 0x40 MLOAD SWAP1 DUP2 ADD PUSH1 0x40 MSTORE DUP1 SWAP3 SWAP2 SWAP1 DUP2 DUP2 MSTORE PUSH1 0x20 ADD DUP3 DUP1 SLOAD PUSH2 0x901 SWAP1 PUSH2 0x26DB JUMP JUMPDEST DUP1 ISZERO PUSH2 0x94E JUMPI DUP1 PUSH1 0x1F LT PUSH2 0x923 JUMPI PUSH2 0x100 DUP1 DUP4 SLOAD DIV MUL DUP4 MSTORE SWAP2 PUSH1 0x20 ADD SWAP2 PUSH2 0x94E JUMP JUMPDEST DUP3 ADD SWAP2 SWAP1 PUSH1 0x0 MSTORE PUSH1 0x20 PUSH1 0x0 KECCAK256 SWAP1 JUMPDEST DUP2 SLOAD DUP2 MSTORE SWAP1 PUSH1 0x1 ADD SWAP1 PUSH1 0x20 ADD DUP1 DUP4 GT PUSH2 0x931 JUMPI DUP3 SWAP1 SUB PUSH1 0x1F AND DUP3 ADD SWAP2 JUMPDEST POP POP POP POP POP DUP2 MSTORE PUSH1 0x20 ADD PUSH1 0x3 DUP3 ADD DUP1 SLOAD PUSH2 0x967 SWAP1 PUSH2 0x26DB JUMP JUMPDEST DUP1 PUSH1 0x1F ADD PUSH1 0x20 DUP1 SWAP2 DIV MUL PUSH1 0x20 ADD PUSH1 0x40 MLOAD SWAP1 DUP2 ADD PUSH1 0x40 MSTORE DUP1 SWAP3 SWAP2 SWAP1 DUP2 DUP2 MSTORE PUSH1 0x20 ADD DUP3 DUP1 SLOAD PUSH2 0x993 SWAP1 PUSH2 0x26DB JUMP JUMPDEST DUP1 ISZERO PUSH2 0x9E0 JUMPI DUP1 PUSH1 0x1F LT PUSH2 0x9B5 JUMPI PUSH2 0x100 DUP1 DUP4 SLOAD DIV MUL DUP4 MSTORE SWAP2 PUSH1 0x20 ADD SWAP2 PUSH2 0x9E0 JUMP JUMPDEST DUP3 ADD SWAP2 SWAP1 PUSH1 0x0 MSTORE PUSH1 0x20 PUSH1 0x0 KECCAK256 SWAP1 JUMPDEST DUP2 SLOAD DUP2 MSTORE SWAP1 PUSH1 0x1 ADD SWAP1 PUSH1 0x20 ADD DUP1 DUP4 GT PUSH2 0x9C3 JUMPI DUP3 SWAP1 SUB PUSH1 0x1F AND DUP3 ADD SWAP2 JUMPDEST POP POP POP POP POP DUP2 MSTORE PUSH1 0x20 ADD PUSH1 0x4 DUP3 ADD SLOAD DUP2 MSTORE PUSH1 0x20 ADD PUSH1 0x5 DUP3 ADD SLOAD DUP2 MSTORE PUSH1 0x20 ADD PUSH1 0x6 DUP3 ADD SLOAD DUP2 MSTORE PUSH1 0x20 ADD PUSH1 0x7 DUP3 ADD DUP1 SLOAD PUSH2 0xA17 SWAP1 PUSH2 0x26DB JUMP JUMPDEST DUP1 PUSH1 0x1F ADD PUSH1 0x20 DUP1 SWAP2 DIV MUL PUSH1 0x20 ADD PUSH1 0x40 MLOAD SWAP1 DUP2 ADD PUSH1 0x40 MSTORE DUP1 SWAP3 SWAP2 SWAP1 DUP2 DUP2 MSTORE PUSH1 0x20 ADD DUP3 DUP1 SLOAD PUSH2 0xA43 SWAP1 PUSH2 0x26DB JUMP JUMPDEST DUP1 ISZERO PUSH2 0xA90 JUMPI DUP1 PUSH1 0x1F LT PUSH2 0xA65 JUMPI PUSH2 0x100 DUP1 DUP4 SLOAD DIV MUL DUP4 MSTORE SWAP2 PUSH1 0x20 ADD SWAP2 PUSH2 0xA90 JUMP JUMPDEST DUP3 ADD SWAP2 SWAP1 PUSH1 0x0 MSTORE PUSH1 0x20 PUSH1 0x0 KECCAK256 SWAP1 JUMPDEST DUP2 SLOAD DUP2 MSTORE SWAP1 PUSH1 0x1 ADD SWAP1 PUSH1 0x20 ADD DUP1 DUP4 GT PUSH2 0xA73 JUMPI DUP3 SWAP1 SUB PUSH1 0x1F AND DUP3 ADD SWAP2 JUMPDEST POP POP POP POP POP DUP2 MSTORE PUSH1 0x20 ADD PUSH1 0x8 DUP3 ADD PUSH1 0x0 SWAP1 SLOAD SWAP1 PUSH2 0x100 EXP SWAP1 DIV PUSH20 0xFFFFFFFFFFFFFFFFFFFFFFFFFFFFFFFFFFFFFFFF AND PUSH20 0xFFFFFFFFFFFFFFFFFFFFFFFFFFFFFFFFFFFFFFFF AND PUSH20 0xFFFFFFFFFFFFFFFFFFFFFFFFFFFFFFFFFFFFFFFF AND DUP2 MSTORE POP POP SWAP2 POP POP PUSH2 0xB0C JUMP JUMPDEST DUP1 DUP1 PUSH2 0xB02 SWAP1 PUSH2 0x273E JUMP JUMPDEST SWAP2 POP POP PUSH2 0x7BF JUMP JUMPDEST POP JUMPDEST SWAP2 SWAP1 POP JUMP JUMPDEST PUSH1 0x60 PUSH1 0x4 DUP1 SLOAD DUP1 PUSH1 0x20 MUL PUSH1 0x20 ADD PUSH1 0x40 MLOAD SWAP1 DUP2 ADD PUSH1 0x40 MSTORE DUP1 SWAP3 SWAP2 SWAP1 DUP2 DUP2 MSTORE PUSH1 0x20 ADD PUSH1 0x0 SWAP1 JUMPDEST DUP3 DUP3 LT ISZERO PUSH2 0xE2E JUMPI DUP4 DUP3 SWAP1 PUSH1 0x0 MSTORE PUSH1 0x20 PUSH1 0x0 KECCAK256 SWAP1 PUSH1 0x9 MUL ADD PUSH1 0x40 MLOAD DUP1 PUSH2 0x120 ADD PUSH1 0x40 MSTORE SWAP1 DUP2 PUSH1 0x0 DUP3 ADD SLOAD DUP2 MSTORE PUSH1 0x20 ADD PUSH1 0x1 DUP3 ADD DUP1 SLOAD PUSH2 0xB73 SWAP1 PUSH2 0x26DB JUMP JUMPDEST DUP1 PUSH1 0x1F ADD PUSH1 0x20 DUP1 SWAP2 DIV MUL PUSH1 0x20 ADD PUSH1 0x40 MLOAD SWAP1 DUP2 ADD PUSH1 0x40 MSTORE DUP1 SWAP3 SWAP2 SWAP1 DUP2 DUP2 MSTORE PUSH1 0x20 ADD DUP3 DUP1 SLOAD PUSH2 0xB9F SWAP1 PUSH2 0x26DB JUMP JUMPDEST DUP1 ISZERO PUSH2 0xBEC JUMPI DUP1 PUSH1 0x1F LT PUSH2 0xBC1 JUMPI PUSH2 0x100 DUP1 DUP4 SLOAD DIV MUL DUP4 MSTORE SWAP2 PUSH1 0x20 ADD SWAP2 PUSH2 0xBEC JUMP JUMPDEST DUP3 ADD SWAP2 SWAP1 PUSH1 0x0 MSTORE PUSH1 0x20 PUSH1 0x0 KECCAK256 SWAP1 JUMPDEST DUP2 SLOAD DUP2 MSTORE SWAP1 PUSH1 0x1 ADD SWAP1 PUSH1 0x20 ADD DUP1 DUP4 GT PUSH2 0xBCF JUMPI DUP3 SWAP1 SUB PUSH1 0x1F AND DUP3 ADD SWAP2 JUMPDEST POP POP POP POP POP DUP2 MSTORE PUSH1 0x20 ADD PUSH1 0x2 DUP3 ADD DUP1 SLOAD PUSH2 0xC05 SWAP1 PUSH2 0x26DB JUMP JUMPDEST DUP1 PUSH1 0x1F ADD PUSH1 0x20 DUP1 SWAP2 DIV MUL PUSH1 0x20 ADD PUSH1 0x40 MLOAD SWAP1 DUP2 ADD PUSH1 0x40 MSTORE DUP1 SWAP3 SWAP2 SWAP1 DUP2 DUP2 MSTORE PUSH1 0x20 ADD DUP3 DUP1 SLOAD PUSH2 0xC31 SWAP1 PUSH2 0x26DB JUMP JUMPDEST DUP1 ISZERO PUSH2 0xC7E JUMPI DUP1 PUSH1 0x1F LT PUSH2 0xC53 JUMPI PUSH2 0x100 DUP1 DUP4 SLOAD DIV MUL DUP4 MSTORE SWAP2 PUSH1 0x20 ADD SWAP2 PUSH2 0xC7E JUMP JUMPDEST DUP3 ADD SWAP2 SWAP1 PUSH1 0x0 MSTORE PUSH1 0x20 PUSH1 0x0 KECCAK256 SWAP1 JUMPDEST DUP2 SLOAD DUP2 MSTORE SWAP1 PUSH1 0x1 ADD SWAP1 PUSH1 0x20 ADD DUP1 DUP4 GT PUSH2 0xC61 JUMPI DUP3 SWAP1 SUB PUSH1 0x1F AND DUP3 ADD SWAP2 JUMPDEST POP POP POP POP POP DUP2 MSTORE PUSH1 0x20 ADD PUSH1 0x3 DUP3 ADD DUP1 SLOAD PUSH2 0xC97 SWAP1 PUSH2 0x26DB JUMP JUMPDEST DUP1 PUSH1 0x1F ADD PUSH1 0x20 DUP1 SWAP2 DIV MUL PUSH1 0x20 ADD PUSH1 0x40 MLOAD SWAP1 DUP2 ADD PUSH1 0x40 MSTORE DUP1 SWAP3 SWAP2 SWAP1 DUP2 DUP2 MSTORE PUSH1 0x20 ADD DUP3 DUP1 SLOAD PUSH2 0xCC3 SWAP1 PUSH2 0x26DB JUMP JUMPDEST DUP1 ISZERO PUSH2 0xD10 JUMPI DUP1 PUSH1 0x1F LT PUSH2 0xCE5 JUMPI PUSH2 0x100 DUP1 DUP4 SLOAD DIV MUL DUP4 MSTORE SWAP2 PUSH1 0x20 ADD SWAP2 PUSH2 0xD10 JUMP JUMPDEST DUP3 ADD SWAP2 SWAP1 PUSH1 0x0 MSTORE PUSH1 0x20 PUSH1 0x0 KECCAK256 SWAP1 JUMPDEST DUP2 SLOAD DUP2 MSTORE SWAP1 PUSH1 0x1 ADD SWAP1 PUSH1 0x20 ADD DUP1 DUP4 GT PUSH2 0xCF3 JUMPI DUP3 SWAP1 SUB PUSH1 0x1F AND DUP3 ADD SWAP2 JUMPDEST POP POP POP POP POP DUP2 MSTORE PUSH1 0x20 ADD PUSH1 0x4 DUP3 ADD SLOAD DUP2 MSTORE PUSH1 0x20 ADD PUSH1 0x5 DUP3 ADD SLOAD DUP2 MSTORE PUSH1 0x20 ADD PUSH1 0x6 DUP3 ADD SLOAD DUP2 MSTORE PUSH1 0x20 ADD PUSH1 0x7 DUP3 ADD DUP1 SLOAD PUSH2 0xD47 SWAP1 PUSH2 0x26DB JUMP JUMPDEST DUP1 PUSH1 0x1F ADD PUSH1 0x20 DUP1 SWAP2 DIV MUL PUSH1 0x20 ADD PUSH1 0x40 MLOAD SWAP1 DUP2 ADD PUSH1 0x40 MSTORE DUP1 SWAP3 SWAP2 SWAP1 DUP2 DUP2 MSTORE PUSH1 0x20 ADD DUP3 DUP1 SLOAD PUSH2 0xD73 SWAP1 PUSH2 0x26DB JUMP JUMPDEST DUP1 ISZERO PUSH2 0xDC0 JUMPI DUP1 PUSH1 0x1F LT PUSH2 0xD95 JUMPI PUSH2 0x100 DUP1 DUP4 SLOAD DIV MUL DUP4 MSTORE SWAP2 PUSH1 0x20 ADD SWAP2 PUSH2 0xDC0 JUMP JUMPDEST DUP3 ADD SWAP2 SWAP1 PUSH1 0x0 MSTORE PUSH1 0x20 PUSH1 0x0 KECCAK256 SWAP1 JUMPDEST DUP2 SLOAD DUP2 MSTORE SWAP1 PUSH1 0x1 ADD SWAP1 PUSH1 0x20 ADD DUP1 DUP4 GT PUSH2 0xDA3 JUMPI DUP3 SWAP1 SUB PUSH1 0x1F AND DUP3 ADD SWAP2 JUMPDEST POP POP POP POP POP DUP2 MSTORE PUSH1 0x20 ADD PUSH1 0x8 DUP3 ADD PUSH1 0x0 SWAP1 SLOAD SWAP1 PUSH2 0x100 EXP SWAP1 DIV PUSH20 0xFFFFFFFFFFFFFFFFFFFFFFFFFFFFFFFFFFFFFFFF AND PUSH20 0xFFFFFFFFFFFFFFFFFFFFFFFFFFFFFFFFFFFFFFFF AND PUSH20 0xFFFFFFFFFFFFFFFFFFFFFFFFFFFFFFFFFFFFFFFF AND DUP2 MSTORE POP POP DUP2 MSTORE PUSH1 0x20 ADD SWAP1 PUSH1 0x1 ADD SWAP1 PUSH2 0xB35 JUMP JUMPDEST POP POP POP POP SWAP1 POP SWAP1 JUMP JUMPDEST PUSH1 0x0 DUP1 SLOAD SWAP1 PUSH2 0x100 EXP SWAP1 DIV PUSH20 0xFFFFFFFFFFFFFFFFFFFFFFFFFFFFFFFFFFFFFFFF AND PUSH20 0xFFFFFFFFFFFFFFFFFFFFFFFFFFFFFFFFFFFFFFFF AND CALLER PUSH20 0xFFFFFFFFFFFFFFFFFFFFFFFFFFFFFFFFFFFFFFFF AND EQ PUSH2 0xEC5 JUMPI PUSH1 0x40 MLOAD PUSH32 0x8C379A000000000000000000000000000000000000000000000000000000000 DUP2 MSTORE PUSH1 0x4 ADD PUSH2 0xEBC SWAP1 PUSH2 0x2464 JUMP JUMPDEST PUSH1 0x40 MLOAD DUP1 SWAP2 SUB SWAP1 REVERT JUMPDEST PUSH1 0x40 MLOAD DUP1 PUSH1 0x40 ADD PUSH1 0x40 MSTORE DUP1 PUSH1 0x9 DUP2 MSTORE PUSH1 0x20 ADD PUSH32 0x416E6E756C6C61746F0000000000000000000000000000000000000000000000 DUP2 MSTORE POP PUSH1 0x4 DUP3 DUP2 SLOAD DUP2 LT PUSH2 0xF0F JUMPI PUSH2 0xF0E PUSH2 0x27E5 JUMP JUMPDEST JUMPDEST SWAP1 PUSH1 0x0 MSTORE PUSH1 0x20 PUSH1 0x0 KECCAK256 SWAP1 PUSH1 0x9 MUL ADD PUSH1 0x7 ADD SWAP1 DUP1 MLOAD SWAP1 PUSH1 0x20 ADD SWAP1 PUSH2 0xF33 SWAP3 SWAP2 SWAP1 PUSH2 0x1AD4 JUMP JUMPDEST POP PUSH1 0x0 DUP1 SLOAD SWAP1 PUSH2 0x100 EXP SWAP1 DIV PUSH20 0xFFFFFFFFFFFFFFFFFFFFFFFFFFFFFFFFFFFFFFFF AND PUSH20 0xFFFFFFFFFFFFFFFFFFFFFFFFFFFFFFFFFFFFFFFF AND DUP2 PUSH32 0x9AB588958C126CB0274213719F45ACA396603352447383188A81E29C1269029A PUSH1 0x40 MLOAD PUSH1 0x40 MLOAD DUP1 SWAP2 SUB SWAP1 LOG3 POP JUMP JUMPDEST PUSH1 0x60 PUSH1 0x0 DUP1 SLOAD SWAP1 PUSH2 0x100 EXP SWAP1 DIV PUSH20 0xFFFFFFFFFFFFFFFFFFFFFFFFFFFFFFFFFFFFFFFF AND PUSH20 0xFFFFFFFFFFFFFFFFFFFFFFFFFFFFFFFFFFFFFFFF AND CALLER PUSH20 0xFFFFFFFFFFFFFFFFFFFFFFFFFFFFFFFFFFFFFFFF AND EQ PUSH2 0x102B JUMPI PUSH1 0x40 MLOAD PUSH32 0x8C379A000000000000000000000000000000000000000000000000000000000 DUP2 MSTORE PUSH1 0x4 ADD PUSH2 0x1022 SWAP1 PUSH2 0x2464 JUMP JUMPDEST PUSH1 0x40 MLOAD DUP1 SWAP2 SUB SWAP1 REVERT JUMPDEST PUSH1 0x5 DUP1 SLOAD DUP1 PUSH1 0x20 MUL PUSH1 0x20 ADD PUSH1 0x40 MLOAD SWAP1 DUP2 ADD PUSH1 0x40 MSTORE DUP1 SWAP3 SWAP2 SWAP1 DUP2 DUP2 MSTORE PUSH1 0x20 ADD PUSH1 0x0 SWAP1 JUMPDEST DUP3 DUP3 LT ISZERO PUSH2 0x11ED JUMPI DUP4 DUP3 SWAP1 PUSH1 0x0 MSTORE PUSH1 0x20 PUSH1 0x0 KECCAK256 SWAP1 PUSH1 0x5 MUL ADD PUSH1 0x40 MLOAD DUP1 PUSH1 0xC0 ADD PUSH1 0x40 MSTORE SWAP1 DUP2 PUSH1 0x0 DUP3 ADD DUP1 SLOAD PUSH2 0x1080 SWAP1 PUSH2 0x26DB JUMP JUMPDEST DUP1 PUSH1 0x1F ADD PUSH1 0x20 DUP1 SWAP2 DIV MUL PUSH1 0x20 ADD PUSH1 0x40 MLOAD SWAP1 DUP2 ADD PUSH1 0x40 MSTORE DUP1 SWAP3 SWAP2 SWAP1 DUP2 DUP2 MSTORE PUSH1 0x20 ADD DUP3 DUP1 SLOAD PUSH2 0x10AC SWAP1 PUSH2 0x26DB JUMP JUMPDEST DUP1 ISZERO PUSH2 0x10F9 JUMPI DUP1 PUSH1 0x1F LT PUSH2 0x10CE JUMPI PUSH2 0x100 DUP1 DUP4 SLOAD DIV MUL DUP4 MSTORE SWAP2 PUSH1 0x20 ADD SWAP2 PUSH2 0x10F9 JUMP JUMPDEST DUP3 ADD SWAP2 SWAP1 PUSH1 0x0 MSTORE PUSH1 0x20 PUSH1 0x0 KECCAK256 SWAP1 JUMPDEST DUP2 SLOAD DUP2 MSTORE SWAP1 PUSH1 0x1 ADD SWAP1 PUSH1 0x20 ADD DUP1 DUP4 GT PUSH2 0x10DC JUMPI DUP3 SWAP1 SUB PUSH1 0x1F AND DUP3 ADD SWAP2 JUMPDEST POP POP POP POP POP DUP2 MSTORE PUSH1 0x20 ADD PUSH1 0x1 DUP3 ADD DUP1 SLOAD PUSH2 0x1112 SWAP1 PUSH2 0x26DB JUMP JUMPDEST DUP1 PUSH1 0x1F ADD PUSH1 0x20 DUP1 SWAP2 DIV MUL PUSH1 0x20 ADD PUSH1 0x40 MLOAD SWAP1 DUP2 ADD PUSH1 0x40 MSTORE DUP1 SWAP3 SWAP2 SWAP1 DUP2 DUP2 MSTORE PUSH1 0x20 ADD DUP3 DUP1 SLOAD PUSH2 0x113E SWAP1 PUSH2 0x26DB JUMP JUMPDEST DUP1 ISZERO PUSH2 0x118B JUMPI DUP1 PUSH1 0x1F LT PUSH2 0x1160 JUMPI PUSH2 0x100 DUP1 DUP4 SLOAD DIV MUL DUP4 MSTORE SWAP2 PUSH1 0x20 ADD SWAP2 PUSH2 0x118B JUMP JUMPDEST DUP3 ADD SWAP2 SWAP1 PUSH1 0x0 MSTORE PUSH1 0x20 PUSH1 0x0 KECCAK256 SWAP1 JUMPDEST DUP2 SLOAD DUP2 MSTORE SWAP1 PUSH1 0x1 ADD SWAP1 PUSH1 0x20 ADD DUP1 DUP4 GT PUSH2 0x116E JUMPI DUP3 SWAP1 SUB PUSH1 0x1F AND DUP3 ADD SWAP2 JUMPDEST POP POP POP POP POP DUP2 MSTORE PUSH1 0x20 ADD PUSH1 0x2 DUP3 ADD SLOAD DUP2 MSTORE PUSH1 0x20 ADD PUSH1 0x3 DUP3 ADD SLOAD DUP2 MSTORE PUSH1 0x20 ADD PUSH1 0x4 DUP3 ADD PUSH1 0x0 SWAP1 SLOAD SWAP1 PUSH2 0x100 EXP SWAP1 DIV PUSH1 0xFF AND ISZERO ISZERO ISZERO ISZERO DUP2 MSTORE PUSH1 0x20 ADD PUSH1 0x4 DUP3 ADD PUSH1 0x1 SWAP1 SLOAD SWAP1 PUSH2 0x100 EXP SWAP1 DIV PUSH1 0xFF AND ISZERO ISZERO ISZERO ISZERO DUP2 MSTORE POP POP DUP2 MSTORE PUSH1 0x20 ADD SWAP1 PUSH1 0x1 ADD SWAP1 PUSH2 0x104D JUMP JUMPDEST POP POP POP POP SWAP1 POP SWAP1 JUMP JUMPDEST PUSH1 0x0 DUP1 SLOAD SWAP1 PUSH2 0x100 EXP SWAP1 DIV PUSH20 0xFFFFFFFFFFFFFFFFFFFFFFFFFFFFFFFFFFFFFFFF AND PUSH20 0xFFFFFFFFFFFFFFFFFFFFFFFFFFFFFFFFFFFFFFFF AND CALLER PUSH20 0xFFFFFFFFFFFFFFFFFFFFFFFFFFFFFFFFFFFFFFFF AND EQ PUSH2 0x1284 JUMPI PUSH1 0x40 MLOAD PUSH32 0x8C379A000000000000000000000000000000000000000000000000000000000 DUP2 MSTORE PUSH1 0x4 ADD PUSH2 0x127B SWAP1 PUSH2 0x2464 JUMP JUMPDEST PUSH1 0x40 MLOAD DUP1 SWAP2 SUB SWAP1 REVERT JUMPDEST PUSH1 0x4 PUSH1 0x40 MLOAD DUP1 PUSH2 0x120 ADD PUSH1 0x40 MSTORE DUP1 PUSH1 0x0 DUP2 MSTORE PUSH1 0x20 ADD DUP9 DUP2 MSTORE PUSH1 0x20 ADD DUP8 DUP2 MSTORE PUSH1 0x20 ADD DUP7 DUP2 MSTORE PUSH1 0x20 ADD DUP6 DUP2 MSTORE PUSH1 0x20 ADD DUP6 DUP2 MSTORE PUSH1 0x20 ADD DUP5 DUP2 MSTORE PUSH1 0x20 ADD PUSH1 0x40 MLOAD DUP1 PUSH1 0x40 ADD PUSH1 0x40 MSTORE DUP1 PUSH1 0xC DUP2 MSTORE PUSH1 0x20 ADD PUSH32 0x4E6F6E20636F6E636C75736F0000000000000000000000000000000000000000 DUP2 MSTORE POP DUP2 MSTORE PUSH1 0x20 ADD PUSH1 0x0 DUP1 SLOAD SWAP1 PUSH2 0x100 EXP SWAP1 DIV PUSH20 0xFFFFFFFFFFFFFFFFFFFFFFFFFFFFFFFFFFFFFFFF AND PUSH20 0xFFFFFFFFFFFFFFFFFFFFFFFFFFFFFFFFFFFFFFFF AND DUP2 MSTORE POP SWAP1 DUP1 PUSH1 0x1 DUP2 SLOAD ADD DUP1 DUP3 SSTORE DUP1 SWAP2 POP POP PUSH1 0x1 SWAP1 SUB SWAP1 PUSH1 0x0 MSTORE PUSH1 0x20 PUSH1 0x0 KECCAK256 SWAP1 PUSH1 0x9 MUL ADD PUSH1 0x0 SWAP1 SWAP2 SWAP1 SWAP2 SWAP1 SWAP2 POP PUSH1 0x0 DUP3 ADD MLOAD DUP2 PUSH1 0x0 ADD SSTORE PUSH1 0x20 DUP3 ADD MLOAD DUP2 PUSH1 0x1 ADD SWAP1 DUP1 MLOAD SWAP1 PUSH1 0x20 ADD SWAP1 PUSH2 0x1381 SWAP3 SWAP2 SWAP1 PUSH2 0x1AD4 JUMP JUMPDEST POP PUSH1 0x40 DUP3 ADD MLOAD DUP2 PUSH1 0x2 ADD SWAP1 DUP1 MLOAD SWAP1 PUSH1 0x20 ADD SWAP1 PUSH2 0x139E SWAP3 SWAP2 SWAP1 PUSH2 0x1AD4 JUMP JUMPDEST POP PUSH1 0x60 DUP3 ADD MLOAD DUP2 PUSH1 0x3 ADD SWAP1 DUP1 MLOAD SWAP1 PUSH1 0x20 ADD SWAP1 PUSH2 0x13BB SWAP3 SWAP2 SWAP1 PUSH2 0x1AD4 JUMP JUMPDEST POP PUSH1 0x80 DUP3 ADD MLOAD DUP2 PUSH1 0x4 ADD SSTORE PUSH1 0xA0 DUP3 ADD MLOAD DUP2 PUSH1 0x5 ADD SSTORE PUSH1 0xC0 DUP3 ADD MLOAD DUP2 PUSH1 0x6 ADD SSTORE PUSH1 0xE0 DUP3 ADD MLOAD DUP2 PUSH1 0x7 ADD SWAP1 DUP1 MLOAD SWAP1 PUSH1 0x20 ADD SWAP1 PUSH2 0x13F6 SWAP3 SWAP2 SWAP1 PUSH2 0x1AD4 JUMP JUMPDEST POP PUSH2 0x100 DUP3 ADD MLOAD DUP2 PUSH1 0x8 ADD PUSH1 0x0 PUSH2 0x100 EXP DUP2 SLOAD DUP2 PUSH20 0xFFFFFFFFFFFFFFFFFFFFFFFFFFFFFFFFFFFFFFFF MUL NOT AND SWAP1 DUP4 PUSH20 0xFFFFFFFFFFFFFFFFFFFFFFFFFFFFFFFFFFFFFFFF AND MUL OR SWAP1 SSTORE POP POP POP PUSH1 0x0 PUSH1 0x1 PUSH2 0x144D PUSH2 0x1871 JUMP JUMPDEST PUSH2 0x1457 SWAP2 SWAP1 PUSH2 0x25E1 JUMP JUMPDEST SWAP1 POP DUP1 PUSH1 0x4 DUP3 DUP2 SLOAD DUP2 LT PUSH2 0x146E JUMPI PUSH2 0x146D PUSH2 0x27E5 JUMP JUMPDEST JUMPDEST SWAP1 PUSH1 0x0 MSTORE PUSH1 0x20 PUSH1 0x0 KECCAK256 SWAP1 PUSH1 0x9 MUL ADD PUSH1 0x0 ADD DUP2 SWAP1 SSTORE POP PUSH1 0x0 DUP1 SLOAD SWAP1 PUSH2 0x100 EXP SWAP1 DIV PUSH20 0xFFFFFFFFFFFFFFFFFFFFFFFFFFFFFFFFFFFFFFFF AND PUSH20 0xFFFFFFFFFFFFFFFFFFFFFFFFFFFFFFFFFFFFFFFF AND DUP2 PUSH32 0xE43349C008949CF6B65249356E6F918D4AAA0CA79F2B1166DF4A4A98C9C16DE2 PUSH1 0x40 MLOAD PUSH1 0x40 MLOAD DUP1 SWAP2 SUB SWAP1 LOG3 PUSH2 0x14F2 DUP2 DUP6 DUP5 PUSH2 0x187E JUMP JUMPDEST POP POP POP POP POP POP POP JUMP JUMPDEST PUSH2 0x1503 PUSH2 0x1BBC JUMP JUMPDEST PUSH2 0x150B PUSH2 0x1BBC JUMP JUMPDEST PUSH1 0x0 JUMPDEST PUSH2 0x1516 PUSH2 0x1AC7 JUMP JUMPDEST DUP2 LT ISZERO PUSH2 0x1741 JUMPI DUP4 PUSH1 0x5 DUP3 DUP2 SLOAD DUP2 LT PUSH2 0x1532 JUMPI PUSH2 0x1531 PUSH2 0x27E5 JUMP JUMPDEST JUMPDEST SWAP1 PUSH1 0x0 MSTORE PUSH1 0x20 PUSH1 0x0 KECCAK256 SWAP1 PUSH1 0x5 MUL ADD PUSH1 0x3 ADD SLOAD EQ DUP1 ISZERO PUSH2 0x1587 JUMPI POP PUSH1 0x0 ISZERO ISZERO PUSH1 0x5 DUP3 DUP2 SLOAD DUP2 LT PUSH2 0x1564 JUMPI PUSH2 0x1563 PUSH2 0x27E5 JUMP JUMPDEST JUMPDEST SWAP1 PUSH1 0x0 MSTORE PUSH1 0x20 PUSH1 0x0 KECCAK256 SWAP1 PUSH1 0x5 MUL ADD PUSH1 0x4 ADD PUSH1 0x0 SWAP1 SLOAD SWAP1 PUSH2 0x100 EXP SWAP1 DIV PUSH1 0xFF AND ISZERO ISZERO EQ JUMPDEST ISZERO PUSH2 0x172E JUMPI PUSH1 0x5 DUP2 DUP2 SLOAD DUP2 LT PUSH2 0x15A0 JUMPI PUSH2 0x159F PUSH2 0x27E5 JUMP JUMPDEST JUMPDEST SWAP1 PUSH1 0x0 MSTORE PUSH1 0x20 PUSH1 0x0 KECCAK256 SWAP1 PUSH1 0x5 MUL ADD PUSH1 0x40 MLOAD DUP1 PUSH1 0xC0 ADD PUSH1 0x40 MSTORE SWAP1 DUP2 PUSH1 0x0 DUP3 ADD DUP1 SLOAD PUSH2 0x15C9 SWAP1 PUSH2 0x26DB JUMP JUMPDEST DUP1 PUSH1 0x1F ADD PUSH1 0x20 DUP1 SWAP2 DIV MUL PUSH1 0x20 ADD PUSH1 0x40 MLOAD SWAP1 DUP2 ADD PUSH1 0x40 MSTORE DUP1 SWAP3 SWAP2 SWAP1 DUP2 DUP2 MSTORE PUSH1 0x20 ADD DUP3 DUP1 SLOAD PUSH2 0x15F5 SWAP1 PUSH2 0x26DB JUMP JUMPDEST DUP1 ISZERO PUSH2 0x1642 JUMPI DUP1 PUSH1 0x1F LT PUSH2 0x1617 JUMPI PUSH2 0x100 DUP1 DUP4 SLOAD DIV MUL DUP4 MSTORE SWAP2 PUSH1 0x20 ADD SWAP2 PUSH2 0x1642 JUMP JUMPDEST DUP3 ADD SWAP2 SWAP1 PUSH1 0x0 MSTORE PUSH1 0x20 PUSH1 0x0 KECCAK256 SWAP1 JUMPDEST DUP2 SLOAD DUP2 MSTORE SWAP1 PUSH1 0x1 ADD SWAP1 PUSH1 0x20 ADD DUP1 DUP4 GT PUSH2 0x1625 JUMPI DUP3 SWAP1 SUB PUSH1 0x1F AND DUP3 ADD SWAP2 JUMPDEST POP POP POP POP POP DUP2 MSTORE PUSH1 0x20 ADD PUSH1 0x1 DUP3 ADD DUP1 SLOAD PUSH2 0x165B SWAP1 PUSH2 0x26DB JUMP JUMPDEST DUP1 PUSH1 0x1F ADD PUSH1 0x20 DUP1 SWAP2 DIV MUL PUSH1 0x20 ADD PUSH1 0x40 MLOAD SWAP1 DUP2 ADD PUSH1 0x40 MSTORE DUP1 SWAP3 SWAP2 SWAP1 DUP2 DUP2 MSTORE PUSH1 0x20 ADD DUP3 DUP1 SLOAD PUSH2 0x1687 SWAP1 PUSH2 0x26DB JUMP JUMPDEST DUP1 ISZERO PUSH2 0x16D4 JUMPI DUP1 PUSH1 0x1F LT PUSH2 0x16A9 JUMPI PUSH2 0x100 DUP1 DUP4 SLOAD DIV MUL DUP4 MSTORE SWAP2 PUSH1 0x20 ADD SWAP2 PUSH2 0x16D4 JUMP JUMPDEST DUP3 ADD SWAP2 SWAP1 PUSH1 0x0 MSTORE PUSH1 0x20 PUSH1 0x0 KECCAK256 SWAP1 JUMPDEST DUP2 SLOAD DUP2 MSTORE SWAP1 PUSH1 0x1 ADD SWAP1 PUSH1 0x20 ADD DUP1 DUP4 GT PUSH2 0x16B7 JUMPI DUP3 SWAP1 SUB PUSH1 0x1F AND DUP3 ADD SWAP2 JUMPDEST POP POP POP POP POP DUP2 MSTORE PUSH1 0x20 ADD PUSH1 0x2 DUP3 ADD SLOAD DUP2 MSTORE PUSH1 0x20 ADD PUSH1 0x3 DUP3 ADD SLOAD DUP2 MSTORE PUSH1 0x20 ADD PUSH1 0x4 DUP3 ADD PUSH1 0x0 SWAP1 SLOAD SWAP1 PUSH2 0x100 EXP SWAP1 DIV PUSH1 0xFF AND ISZERO ISZERO ISZERO ISZERO DUP2 MSTORE PUSH1 0x20 ADD PUSH1 0x4 DUP3 ADD PUSH1 0x1 SWAP1 SLOAD SWAP1 PUSH2 0x100 EXP SWAP1 DIV PUSH1 0xFF AND ISZERO ISZERO ISZERO ISZERO DUP2 MSTORE POP POP SWAP2 POP PUSH2 0x1741 JUMP JUMPDEST DUP1 DUP1 PUSH2 0x1739 SWAP1 PUSH2 0x273E JUMP JUMPDEST SWAP2 POP POP PUSH2 0x150E JUMP JUMPDEST POP DUP1 SWAP2 POP POP SWAP2 SWAP1 POP JUMP JUMPDEST PUSH1 0x0 DUP1 PUSH1 0x0 SWAP1 POP PUSH1 0x0 JUMPDEST PUSH2 0x175D PUSH2 0x1AC7 JUMP JUMPDEST DUP2 LT ISZERO PUSH2 0x1829 JUMPI DUP4 PUSH1 0x5 DUP3 DUP2 SLOAD DUP2 LT PUSH2 0x1779 JUMPI PUSH2 0x1778 PUSH2 0x27E5 JUMP JUMPDEST JUMPDEST SWAP1 PUSH1 0x0 MSTORE PUSH1 0x20 PUSH1 0x0 KECCAK256 SWAP1 PUSH1 0x5 MUL ADD PUSH1 0x2 ADD SLOAD EQ DUP1 ISZERO PUSH2 0x17CE JUMPI POP PUSH1 0x0 ISZERO ISZERO PUSH1 0x5 DUP3 DUP2 SLOAD DUP2 LT PUSH2 0x17AB JUMPI PUSH2 0x17AA PUSH2 0x27E5 JUMP JUMPDEST JUMPDEST SWAP1 PUSH1 0x0 MSTORE PUSH1 0x20 PUSH1 0x0 KECCAK256 SWAP1 PUSH1 0x5 MUL ADD PUSH1 0x4 ADD PUSH1 0x0 SWAP1 SLOAD SWAP1 PUSH2 0x100 EXP SWAP1 DIV PUSH1 0xFF AND ISZERO ISZERO EQ JUMPDEST ISZERO PUSH2 0x1816 JUMPI PUSH1 0x1 PUSH1 0x5 DUP3 DUP2 SLOAD DUP2 LT PUSH2 0x17E9 JUMPI PUSH2 0x17E8 PUSH2 0x27E5 JUMP JUMPDEST JUMPDEST SWAP1 PUSH1 0x0 MSTORE PUSH1 0x20 PUSH1 0x0 KECCAK256 SWAP1 PUSH1 0x5 MUL ADD PUSH1 0x4 ADD PUSH1 0x0 PUSH2 0x100 EXP DUP2 SLOAD DUP2 PUSH1 0xFF MUL NOT AND SWAP1 DUP4 ISZERO ISZERO MUL OR SWAP1 SSTORE POP PUSH1 0x1 SWAP2 POP JUMPDEST DUP1 DUP1 PUSH2 0x1821 SWAP1 PUSH2 0x273E JUMP JUMPDEST SWAP2 POP POP PUSH2 0x1755 JUMP JUMPDEST POP DUP1 SWAP2 POP POP SWAP2 SWAP1 POP JUMP JUMPDEST PUSH1 0x4 DUP2 DUP2 SLOAD DUP2 LT PUSH2 0x1847 JUMPI PUSH2 0x1846 PUSH2 0x27E5 JUMP JUMPDEST JUMPDEST SWAP1 PUSH1 0x0 MSTORE PUSH1 0x20 PUSH1 0x0 KECCAK256 SWAP1 PUSH1 0x9 MUL ADD PUSH1 0x5 ADD PUSH1 0x0 DUP2 SLOAD DUP1 SWAP3 SWAP2 SWAP1 PUSH2 0x1869 SWAP1 PUSH2 0x26B1 JUMP JUMPDEST SWAP2 SWAP1 POP SSTORE POP POP JUMP JUMPDEST PUSH1 0x0 PUSH1 0x4 DUP1 SLOAD SWAP1 POP SWAP1 POP SWAP1 JUMP JUMPDEST DUP1 PUSH1 0x1 PUSH1 0x0 SWAP1 SLOAD SWAP1 PUSH2 0x100 EXP SWAP1 DIV PUSH20 0xFFFFFFFFFFFFFFFFFFFFFFFFFFFFFFFFFFFFFFFF AND PUSH20 0xFFFFFFFFFFFFFFFFFFFFFFFFFFFFFFFFFFFFFFFF AND DUP2 PUSH20 0xFFFFFFFFFFFFFFFFFFFFFFFFFFFFFFFFFFFFFFFF AND EQ PUSH2 0x190F JUMPI PUSH1 0x40 MLOAD PUSH32 0x8C379A000000000000000000000000000000000000000000000000000000000 DUP2 MSTORE PUSH1 0x4 ADD PUSH2 0x1906 SWAP1 PUSH2 0x2444 JUMP JUMPDEST PUSH1 0x40 MLOAD DUP1 SWAP2 SUB SWAP1 REVERT JUMPDEST PUSH1 0x0 JUMPDEST DUP4 DUP2 LT ISZERO PUSH2 0x1A7B JUMPI PUSH1 0x5 PUSH1 0x40 MLOAD DUP1 PUSH1 0xC0 ADD PUSH1 0x40 MSTORE DUP1 PUSH1 0x40 MLOAD DUP1 PUSH1 0x20 ADD PUSH1 0x40 MSTORE DUP1 PUSH1 0x0 DUP2 MSTORE POP DUP2 MSTORE PUSH1 0x20 ADD PUSH1 0x40 MLOAD DUP1 PUSH1 0x20 ADD PUSH1 0x40 MSTORE DUP1 PUSH1 0x0 DUP2 MSTORE POP DUP2 MSTORE PUSH1 0x20 ADD PUSH1 0x0 DUP2 MSTORE PUSH1 0x20 ADD DUP8 DUP2 MSTORE PUSH1 0x20 ADD PUSH1 0x0 ISZERO ISZERO DUP2 MSTORE PUSH1 0x20 ADD PUSH1 0x0 ISZERO ISZERO DUP2 MSTORE POP SWAP1 DUP1 PUSH1 0x1 DUP2 SLOAD ADD DUP1 DUP3 SSTORE DUP1 SWAP2 POP POP PUSH1 0x1 SWAP1 SUB SWAP1 PUSH1 0x0 MSTORE PUSH1 0x20 PUSH1 0x0 KECCAK256 SWAP1 PUSH1 0x5 MUL ADD PUSH1 0x0 SWAP1 SWAP2 SWAP1 SWAP2 SWAP1 SWAP2 POP PUSH1 0x0 DUP3 ADD MLOAD DUP2 PUSH1 0x0 ADD SWAP1 DUP1 MLOAD SWAP1 PUSH1 0x20 ADD SWAP1 PUSH2 0x19B3 SWAP3 SWAP2 SWAP1 PUSH2 0x1AD4 JUMP JUMPDEST POP PUSH1 0x20 DUP3 ADD MLOAD DUP2 PUSH1 0x1 ADD SWAP1 DUP1 MLOAD SWAP1 PUSH1 0x20 ADD SWAP1 PUSH2 0x19D0 SWAP3 SWAP2 SWAP1 PUSH2 0x1AD4 JUMP JUMPDEST POP PUSH1 0x40 DUP3 ADD MLOAD DUP2 PUSH1 0x2 ADD SSTORE PUSH1 0x60 DUP3 ADD MLOAD DUP2 PUSH1 0x3 ADD SSTORE PUSH1 0x80 DUP3 ADD MLOAD DUP2 PUSH1 0x4 ADD PUSH1 0x0 PUSH2 0x100 EXP DUP2 SLOAD DUP2 PUSH1 0xFF MUL NOT AND SWAP1 DUP4 ISZERO ISZERO MUL OR SWAP1 SSTORE POP PUSH1 0xA0 DUP3 ADD MLOAD DUP2 PUSH1 0x4 ADD PUSH1 0x1 PUSH2 0x100 EXP DUP2 SLOAD DUP2 PUSH1 0xFF MUL NOT AND SWAP1 DUP4 ISZERO ISZERO MUL OR SWAP1 SSTORE POP POP POP PUSH1 0x0 PUSH1 0x1 PUSH1 0x5 DUP1 SLOAD SWAP1 POP PUSH2 0x1A3B SWAP2 SWAP1 PUSH2 0x25E1 JUMP JUMPDEST SWAP1 POP DUP1 PUSH1 0x5 DUP4 DUP2 SLOAD DUP2 LT PUSH2 0x1A52 JUMPI PUSH2 0x1A51 PUSH2 0x27E5 JUMP JUMPDEST JUMPDEST SWAP1 PUSH1 0x0 MSTORE PUSH1 0x20 PUSH1 0x0 KECCAK256 SWAP1 PUSH1 0x5 MUL ADD PUSH1 0x2 ADD DUP2 SWAP1 SSTORE POP POP DUP1 DUP1 PUSH2 0x1A73 SWAP1 PUSH2 0x273E JUMP JUMPDEST SWAP2 POP POP PUSH2 0x1912 JUMP JUMPDEST POP DUP2 PUSH20 0xFFFFFFFFFFFFFFFFFFFFFFFFFFFFFFFFFFFFFFFF AND DUP4 DUP6 PUSH32 0x6567AB497F12A760D234E0684DE86536DCE884C904386957D5877E165BFB32FA PUSH1 0x40 MLOAD PUSH1 0x40 MLOAD DUP1 SWAP2 SUB SWAP1 LOG4 POP POP POP POP JUMP JUMPDEST PUSH1 0x0 PUSH1 0x5 DUP1 SLOAD SWAP1 POP SWAP1 POP SWAP1 JUMP JUMPDEST DUP3 DUP1 SLOAD PUSH2 0x1AE0 SWAP1 PUSH2 0x26DB JUMP JUMPDEST SWAP1 PUSH1 0x0 MSTORE PUSH1 0x20 PUSH1 0x0 KECCAK256 SWAP1 PUSH1 0x1F ADD PUSH1 0x20 SWAP1 DIV DUP2 ADD SWAP3 DUP3 PUSH2 0x1B02 JUMPI PUSH1 0x0 DUP6 SSTORE PUSH2 0x1B49 JUMP JUMPDEST DUP3 PUSH1 0x1F LT PUSH2 0x1B1B JUMPI DUP1 MLOAD PUSH1 0xFF NOT AND DUP4 DUP1 ADD OR DUP6 SSTORE PUSH2 0x1B49 JUMP JUMPDEST DUP3 DUP1 ADD PUSH1 0x1 ADD DUP6 SSTORE DUP3 ISZERO PUSH2 0x1B49 JUMPI SWAP2 DUP3 ADD JUMPDEST DUP3 DUP2 GT ISZERO PUSH2 0x1B48 JUMPI DUP3 MLOAD DUP3 SSTORE SWAP2 PUSH1 0x20 ADD SWAP2 SWAP1 PUSH1 0x1 ADD SWAP1 PUSH2 0x1B2D JUMP JUMPDEST JUMPDEST POP SWAP1 POP PUSH2 0x1B56 SWAP2 SWAP1 PUSH2 0x1BF6 JUMP JUMPDEST POP SWAP1 JUMP JUMPDEST PUSH1 0x40 MLOAD DUP1 PUSH2 0x120 ADD PUSH1 0x40 MSTORE DUP1 PUSH1 0x0 DUP2 MSTORE PUSH1 0x20 ADD PUSH1 0x60 DUP2 MSTORE PUSH1 0x20 ADD PUSH1 0x60 DUP2 MSTORE PUSH1 0x20 ADD PUSH1 0x60 DUP2 MSTORE PUSH1 0x20 ADD PUSH1 0x0 DUP2 MSTORE PUSH1 0x20 ADD PUSH1 0x0 DUP2 MSTORE PUSH1 0x20 ADD PUSH1 0x0 DUP2 MSTORE PUSH1 0x20 ADD PUSH1 0x60 DUP2 MSTORE PUSH1 0x20 ADD PUSH1 0x0 PUSH20 0xFFFFFFFFFFFFFFFFFFFFFFFFFFFFFFFFFFFFFFFF AND DUP2 MSTORE POP SWAP1 JUMP JUMPDEST PUSH1 0x40 MLOAD DUP1 PUSH1 0xC0 ADD PUSH1 0x40 MSTORE DUP1 PUSH1 0x60 DUP2 MSTORE PUSH1 0x20 ADD PUSH1 0x60 DUP2 MSTORE PUSH1 0x20 ADD PUSH1 0x0 DUP2 MSTORE PUSH1 0x20 ADD PUSH1 0x0 DUP2 MSTORE PUSH1 0x20 ADD PUSH1 0x0 ISZERO ISZERO DUP2 MSTORE PUSH1 0x20 ADD PUSH1 0x0 ISZERO ISZERO DUP2 MSTORE POP SWAP1 JUMP JUMPDEST JUMPDEST DUP1 DUP3 GT ISZERO PUSH2 0x1C0F JUMPI PUSH1 0x0 DUP2 PUSH1 0x0 SWAP1 SSTORE POP PUSH1 0x1 ADD PUSH2 0x1BF7 JUMP JUMPDEST POP SWAP1 JUMP JUMPDEST PUSH1 0x0 PUSH2 0x1C26 PUSH2 0x1C21 DUP5 PUSH2 0x2506 JUMP JUMPDEST PUSH2 0x24E1 JUMP JUMPDEST SWAP1 POP DUP3 DUP2 MSTORE PUSH1 0x20 DUP2 ADD DUP5 DUP5 DUP5 ADD GT ISZERO PUSH2 0x1C42 JUMPI PUSH2 0x1C41 PUSH2 0x2848 JUMP JUMPDEST JUMPDEST PUSH2 0x1C4D DUP5 DUP3 DUP6 PUSH2 0x266F JUMP JUMPDEST POP SWAP4 SWAP3 POP POP POP JUMP JUMPDEST PUSH1 0x0 DUP2 CALLDATALOAD SWAP1 POP PUSH2 0x1C64 DUP2 PUSH2 0x2981 JUMP JUMPDEST SWAP3 SWAP2 POP POP JUMP JUMPDEST PUSH1 0x0 DUP2 CALLDATALOAD SWAP1 POP PUSH2 0x1C79 DUP2 PUSH2 0x2998 JUMP JUMPDEST SWAP3 SWAP2 POP POP JUMP JUMPDEST PUSH1 0x0 DUP3 PUSH1 0x1F DUP4 ADD SLT PUSH2 0x1C94 JUMPI PUSH2 0x1C93 PUSH2 0x2843 JUMP JUMPDEST JUMPDEST DUP2 CALLDATALOAD PUSH2 0x1CA4 DUP5 DUP3 PUSH1 0x20 DUP7 ADD PUSH2 0x1C13 JUMP JUMPDEST SWAP2 POP POP SWAP3 SWAP2 POP POP JUMP JUMPDEST PUSH1 0x0 DUP2 CALLDATALOAD SWAP1 POP PUSH2 0x1CBC DUP2 PUSH2 0x29AF JUMP JUMPDEST SWAP3 SWAP2 POP POP JUMP JUMPDEST PUSH1 0x0 PUSH1 0x20 DUP3 DUP5 SUB SLT ISZERO PUSH2 0x1CD8 JUMPI PUSH2 0x1CD7 PUSH2 0x2852 JUMP JUMPDEST JUMPDEST PUSH1 0x0 PUSH2 0x1CE6 DUP5 DUP3 DUP6 ADD PUSH2 0x1C55 JUMP JUMPDEST SWAP2 POP POP SWAP3 SWAP2 POP POP JUMP JUMPDEST PUSH1 0x0 DUP1 PUSH1 0x0 DUP1 PUSH1 0x0 DUP1 PUSH1 0xC0 DUP8 DUP10 SUB SLT ISZERO PUSH2 0x1D0C JUMPI PUSH2 0x1D0B PUSH2 0x2852 JUMP JUMPDEST JUMPDEST PUSH1 0x0 DUP8 ADD CALLDATALOAD PUSH8 0xFFFFFFFFFFFFFFFF DUP2 GT ISZERO PUSH2 0x1D2A JUMPI PUSH2 0x1D29 PUSH2 0x284D JUMP JUMPDEST JUMPDEST PUSH2 0x1D36 DUP10 DUP3 DUP11 ADD PUSH2 0x1C7F JUMP JUMPDEST SWAP7 POP POP PUSH1 0x20 DUP8 ADD CALLDATALOAD PUSH8 0xFFFFFFFFFFFFFFFF DUP2 GT ISZERO PUSH2 0x1D57 JUMPI PUSH2 0x1D56 PUSH2 0x284D JUMP JUMPDEST JUMPDEST PUSH2 0x1D63 DUP10 DUP3 DUP11 ADD PUSH2 0x1C7F JUMP JUMPDEST SWAP6 POP POP PUSH1 0x40 DUP8 ADD CALLDATALOAD PUSH8 0xFFFFFFFFFFFFFFFF DUP2 GT ISZERO PUSH2 0x1D84 JUMPI PUSH2 0x1D83 PUSH2 0x284D JUMP JUMPDEST JUMPDEST PUSH2 0x1D90 DUP10 DUP3 DUP11 ADD PUSH2 0x1C7F JUMP JUMPDEST SWAP5 POP POP PUSH1 0x60 PUSH2 0x1DA1 DUP10 DUP3 DUP11 ADD PUSH2 0x1CAD JUMP JUMPDEST SWAP4 POP POP PUSH1 0x80 PUSH2 0x1DB2 DUP10 DUP3 DUP11 ADD PUSH2 0x1CAD JUMP JUMPDEST SWAP3 POP POP PUSH1 0xA0 PUSH2 0x1DC3 DUP10 DUP3 DUP11 ADD PUSH2 0x1C55 JUMP JUMPDEST SWAP2 POP POP SWAP3 SWAP6 POP SWAP3 SWAP6 POP SWAP3 SWAP6 JUMP JUMPDEST PUSH1 0x0 PUSH1 0x20 DUP3 DUP5 SUB SLT ISZERO PUSH2 0x1DE6 JUMPI PUSH2 0x1DE5 PUSH2 0x2852 JUMP JUMPDEST JUMPDEST PUSH1 0x0 PUSH2 0x1DF4 DUP5 DUP3 DUP6 ADD PUSH2 0x1CAD JUMP JUMPDEST SWAP2 POP POP SWAP3 SWAP2 POP POP JUMP JUMPDEST PUSH1 0x0 DUP1 PUSH1 0x0 DUP1 PUSH1 0x80 DUP6 DUP8 SUB SLT ISZERO PUSH2 0x1E17 JUMPI PUSH2 0x1E16 PUSH2 0x2852 JUMP JUMPDEST JUMPDEST PUSH1 0x0 PUSH2 0x1E25 DUP8 DUP3 DUP9 ADD PUSH2 0x1CAD JUMP JUMPDEST SWAP5 POP POP PUSH1 0x20 PUSH2 0x1E36 DUP8 DUP3 DUP9 ADD PUSH2 0x1C6A JUMP JUMPDEST SWAP4 POP POP PUSH1 0x40 DUP6 ADD CALLDATALOAD PUSH8 0xFFFFFFFFFFFFFFFF DUP2 GT ISZERO PUSH2 0x1E57 JUMPI PUSH2 0x1E56 PUSH2 0x284D JUMP JUMPDEST JUMPDEST PUSH2 0x1E63 DUP8 DUP3 DUP9 ADD PUSH2 0x1C7F JUMP JUMPDEST SWAP3 POP POP PUSH1 0x60 DUP6 ADD CALLDATALOAD PUSH8 0xFFFFFFFFFFFFFFFF DUP2 GT ISZERO PUSH2 0x1E84 JUMPI PUSH2 0x1E83 PUSH2 0x284D JUMP JUMPDEST JUMPDEST PUSH2 0x1E90 DUP8 DUP3 DUP9 ADD PUSH2 0x1C7F JUMP JUMPDEST SWAP2 POP POP SWAP3 SWAP6 SWAP2 SWAP5 POP SWAP3 POP JUMP JUMPDEST PUSH1 0x0 PUSH2 0x1EA8 DUP4 DUP4 PUSH2 0x212D JUMP JUMPDEST SWAP1 POP SWAP3 SWAP2 POP POP JUMP JUMPDEST PUSH1 0x0 PUSH2 0x1EBC DUP4 DUP4 PUSH2 0x22E1 JUMP JUMPDEST SWAP1 POP SWAP3 SWAP2 POP POP JUMP JUMPDEST PUSH2 0x1ECD DUP2 PUSH2 0x2615 JUMP JUMPDEST DUP3 MSTORE POP POP JUMP JUMPDEST PUSH1 0x0 PUSH2 0x1EDE DUP3 PUSH2 0x2557 JUMP JUMPDEST PUSH2 0x1EE8 DUP2 DUP6 PUSH2 0x2592 JUMP JUMPDEST SWAP4 POP DUP4 PUSH1 0x20 DUP3 MUL DUP6 ADD PUSH2 0x1EFA DUP6 PUSH2 0x2537 JUMP JUMPDEST DUP1 PUSH1 0x0 JUMPDEST DUP6 DUP2 LT ISZERO PUSH2 0x1F36 JUMPI DUP5 DUP5 SUB DUP10 MSTORE DUP2 MLOAD PUSH2 0x1F17 DUP6 DUP3 PUSH2 0x1E9C JUMP JUMPDEST SWAP5 POP PUSH2 0x1F22 DUP4 PUSH2 0x2578 JUMP JUMPDEST SWAP3 POP PUSH1 0x20 DUP11 ADD SWAP10 POP POP PUSH1 0x1 DUP2 ADD SWAP1 POP PUSH2 0x1EFE JUMP JUMPDEST POP DUP3 SWAP8 POP DUP8 SWAP6 POP POP POP POP POP POP SWAP3 SWAP2 POP POP JUMP JUMPDEST PUSH1 0x0 PUSH2 0x1F53 DUP3 PUSH2 0x2562 JUMP JUMPDEST PUSH2 0x1F5D DUP2 DUP6 PUSH2 0x25A3 JUMP JUMPDEST SWAP4 POP DUP4 PUSH1 0x20 DUP3 MUL DUP6 ADD PUSH2 0x1F6F DUP6 PUSH2 0x2547 JUMP JUMPDEST DUP1 PUSH1 0x0 JUMPDEST DUP6 DUP2 LT ISZERO PUSH2 0x1FAB JUMPI DUP5 DUP5 SUB DUP10 MSTORE DUP2 MLOAD PUSH2 0x1F8C DUP6 DUP3 PUSH2 0x1EB0 JUMP JUMPDEST SWAP5 POP PUSH2 0x1F97 DUP4 PUSH2 0x2585 JUMP JUMPDEST SWAP3 POP PUSH1 0x20 DUP11 ADD SWAP10 POP POP PUSH1 0x1 DUP2 ADD SWAP1 POP PUSH2 0x1F73 JUMP JUMPDEST POP DUP3 SWAP8 POP DUP8 SWAP6 POP POP POP POP POP POP SWAP3 SWAP2 POP POP JUMP JUMPDEST PUSH2 0x1FC6 DUP2 PUSH2 0x2639 JUMP JUMPDEST DUP3 MSTORE POP POP JUMP JUMPDEST PUSH2 0x1FD5 DUP2 PUSH2 0x2639 JUMP JUMPDEST DUP3 MSTORE POP POP JUMP JUMPDEST PUSH1 0x0 PUSH2 0x1FE6 DUP3 PUSH2 0x256D JUMP JUMPDEST PUSH2 0x1FF0 DUP2 DUP6 PUSH2 0x25B4 JUMP JUMPDEST SWAP4 POP PUSH2 0x2000 DUP2 DUP6 PUSH1 0x20 DUP7 ADD PUSH2 0x267E JUMP JUMPDEST PUSH2 0x2009 DUP2 PUSH2 0x2857 JUMP JUMPDEST DUP5 ADD SWAP2 POP POP SWAP3 SWAP2 POP POP JUMP JUMPDEST PUSH1 0x0 PUSH2 0x201F DUP3 PUSH2 0x256D JUMP JUMPDEST PUSH2 0x2029 DUP2 DUP6 PUSH2 0x25C5 JUMP JUMPDEST SWAP4 POP PUSH2 0x2039 DUP2 DUP6 PUSH1 0x20 DUP7 ADD PUSH2 0x267E JUMP JUMPDEST PUSH2 0x2042 DUP2 PUSH2 0x2857 JUMP JUMPDEST DUP5 ADD SWAP2 POP POP SWAP3 SWAP2 POP POP JUMP JUMPDEST PUSH1 0x0 PUSH2 0x2058 DUP3 PUSH2 0x256D JUMP JUMPDEST PUSH2 0x2062 DUP2 DUP6 PUSH2 0x25D6 JUMP JUMPDEST SWAP4 POP PUSH2 0x2072 DUP2 DUP6 PUSH1 0x20 DUP7 ADD PUSH2 0x267E JUMP JUMPDEST DUP1 DUP5 ADD SWAP2 POP POP SWAP3 SWAP2 POP POP JUMP JUMPDEST PUSH1 0x0 PUSH2 0x208B PUSH1 0x21 DUP4 PUSH2 0x25C5 JUMP JUMPDEST SWAP2 POP PUSH2 0x2096 DUP3 PUSH2 0x2868 JUMP JUMPDEST PUSH1 0x40 DUP3 ADD SWAP1 POP SWAP2 SWAP1 POP JUMP JUMPDEST PUSH1 0x0 PUSH2 0x20AE PUSH1 0x8 DUP4 PUSH2 0x25D6 JUMP JUMPDEST SWAP2 POP PUSH2 0x20B9 DUP3 PUSH2 0x28B7 JUMP JUMPDEST PUSH1 0x8 DUP3 ADD SWAP1 POP SWAP2 SWAP1 POP JUMP JUMPDEST PUSH1 0x0 PUSH2 0x20D1 PUSH1 0x2D DUP4 PUSH2 0x25C5 JUMP JUMPDEST SWAP2 POP PUSH2 0x20DC DUP3 PUSH2 0x28E0 JUMP JUMPDEST PUSH1 0x40 DUP3 ADD SWAP1 POP SWAP2 SWAP1 POP JUMP JUMPDEST PUSH1 0x0 PUSH2 0x20F4 PUSH1 0x9 DUP4 PUSH2 0x25D6 JUMP JUMPDEST SWAP2 POP PUSH2 0x20FF DUP3 PUSH2 0x292F JUMP JUMPDEST PUSH1 0x9 DUP3 ADD SWAP1 POP SWAP2 SWAP1 POP JUMP JUMPDEST PUSH1 0x0 PUSH2 0x2117 PUSH1 0x13 DUP4 PUSH2 0x25C5 JUMP JUMPDEST SWAP2 POP PUSH2 0x2122 DUP3 PUSH2 0x2958 JUMP JUMPDEST PUSH1 0x20 DUP3 ADD SWAP1 POP SWAP2 SWAP1 POP JUMP JUMPDEST PUSH1 0x0 PUSH2 0x120 DUP4 ADD PUSH1 0x0 DUP4 ADD MLOAD PUSH2 0x2146 PUSH1 0x0 DUP7 ADD DUP3 PUSH2 0x2371 JUMP JUMPDEST POP PUSH1 0x20 DUP4 ADD MLOAD DUP5 DUP3 SUB PUSH1 0x20 DUP7 ADD MSTORE PUSH2 0x215E DUP3 DUP3 PUSH2 0x1FDB JUMP JUMPDEST SWAP2 POP POP PUSH1 0x40 DUP4 ADD MLOAD DUP5 DUP3 SUB PUSH1 0x40 DUP7 ADD MSTORE PUSH2 0x2178 DUP3 DUP3 PUSH2 0x1FDB JUMP JUMPDEST SWAP2 POP POP PUSH1 0x60 DUP4 ADD MLOAD DUP5 DUP3 SUB PUSH1 0x60 DUP7 ADD MSTORE PUSH2 0x2192 DUP3 DUP3 PUSH2 0x1FDB JUMP JUMPDEST SWAP2 POP POP PUSH1 0x80 DUP4 ADD MLOAD PUSH2 0x21A7 PUSH1 0x80 DUP7 ADD DUP3 PUSH2 0x2371 JUMP JUMPDEST POP PUSH1 0xA0 DUP4 ADD MLOAD PUSH2 0x21BA PUSH1 0xA0 DUP7 ADD DUP3 PUSH2 0x2371 JUMP JUMPDEST POP PUSH1 0xC0 DUP4 ADD MLOAD PUSH2 0x21CD PUSH1 0xC0 DUP7 ADD DUP3 PUSH2 0x2371 JUMP JUMPDEST POP PUSH1 0xE0 DUP4 ADD MLOAD DUP5 DUP3 SUB PUSH1 0xE0 DUP7 ADD MSTORE PUSH2 0x21E5 DUP3 DUP3 PUSH2 0x1FDB JUMP JUMPDEST SWAP2 POP POP PUSH2 0x100 DUP4 ADD MLOAD PUSH2 0x21FC PUSH2 0x100 DUP7 ADD DUP3 PUSH2 0x1EC4 JUMP JUMPDEST POP DUP1 SWAP2 POP POP SWAP3 SWAP2 POP POP JUMP JUMPDEST PUSH1 0x0 PUSH2 0x120 DUP4 ADD PUSH1 0x0 DUP4 ADD MLOAD PUSH2 0x2220 PUSH1 0x0 DUP7 ADD DUP3 PUSH2 0x2371 JUMP JUMPDEST POP PUSH1 0x20 DUP4 ADD MLOAD DUP5 DUP3 SUB PUSH1 0x20 DUP7 ADD MSTORE PUSH2 0x2238 DUP3 DUP3 PUSH2 0x1FDB JUMP JUMPDEST SWAP2 POP POP PUSH1 0x40 DUP4 ADD MLOAD DUP5 DUP3 SUB PUSH1 0x40 DUP7 ADD MSTORE PUSH2 0x2252 DUP3 DUP3 PUSH2 0x1FDB JUMP JUMPDEST SWAP2 POP POP PUSH1 0x60 DUP4 ADD MLOAD DUP5 DUP3 SUB PUSH1 0x60 DUP7 ADD MSTORE PUSH2 0x226C DUP3 DUP3 PUSH2 0x1FDB JUMP JUMPDEST SWAP2 POP POP PUSH1 0x80 DUP4 ADD MLOAD PUSH2 0x2281 PUSH1 0x80 DUP7 ADD DUP3 PUSH2 0x2371 JUMP JUMPDEST POP PUSH1 0xA0 DUP4 ADD MLOAD PUSH2 0x2294 PUSH1 0xA0 DUP7 ADD DUP3 PUSH2 0x2371 JUMP JUMPDEST POP PUSH1 0xC0 DUP4 ADD MLOAD PUSH2 0x22A7 PUSH1 0xC0 DUP7 ADD DUP3 PUSH2 0x2371 JUMP JUMPDEST POP PUSH1 0xE0 DUP4 ADD MLOAD DUP5 DUP3 SUB PUSH1 0xE0 DUP7 ADD MSTORE PUSH2 0x22BF DUP3 DUP3 PUSH2 0x1FDB JUMP JUMPDEST SWAP2 POP POP PUSH2 0x100 DUP4 ADD MLOAD PUSH2 0x22D6 PUSH2 0x100 DUP7 ADD DUP3 PUSH2 0x1EC4 JUMP JUMPDEST POP DUP1 SWAP2 POP POP SWAP3 SWAP2 POP POP JUMP JUMPDEST PUSH1 0x0 PUSH1 0xC0 DUP4 ADD PUSH1 0x0 DUP4 ADD MLOAD DUP5 DUP3 SUB PUSH1 0x0 DUP7 ADD MSTORE PUSH2 0x22FE DUP3 DUP3 PUSH2 0x1FDB JUMP JUMPDEST SWAP2 POP POP PUSH1 0x20 DUP4 ADD MLOAD DUP5 DUP3 SUB PUSH1 0x20 DUP7 ADD MSTORE PUSH2 0x2318 DUP3 DUP3 PUSH2 0x1FDB JUMP JUMPDEST SWAP2 POP POP PUSH1 0x40 DUP4 ADD MLOAD PUSH2 0x232D PUSH1 0x40 DUP7 ADD DUP3 PUSH2 0x2371 JUMP JUMPDEST POP PUSH1 0x60 DUP4 ADD MLOAD PUSH2 0x2340 PUSH1 0x60 DUP7 ADD DUP3 PUSH2 0x2371 JUMP JUMPDEST POP PUSH1 0x80 DUP4 ADD MLOAD PUSH2 0x2353 PUSH1 0x80 DUP7 ADD DUP3 PUSH2 0x1FBD JUMP JUMPDEST POP PUSH1 0xA0 DUP4 ADD MLOAD PUSH2 0x2366 PUSH1 0xA0 DUP7 ADD DUP3 PUSH2 0x1FBD JUMP JUMPDEST POP DUP1 SWAP2 POP POP SWAP3 SWAP2 POP POP JUMP JUMPDEST PUSH2 0x237A DUP2 PUSH2 0x2665 JUMP JUMPDEST DUP3 MSTORE POP POP JUMP JUMPDEST PUSH2 0x2389 DUP2 PUSH2 0x2665 JUMP JUMPDEST DUP3 MSTORE POP POP JUMP JUMPDEST PUSH1 0x0 PUSH2 0x239B DUP3 DUP5 PUSH2 0x204D JUMP JUMPDEST SWAP2 POP DUP2 SWAP1 POP SWAP3 SWAP2 POP POP JUMP JUMPDEST PUSH1 0x0 PUSH2 0x23B1 DUP3 PUSH2 0x20A1 JUMP JUMPDEST SWAP2 POP DUP2 SWAP1 POP SWAP2 SWAP1 POP JUMP JUMPDEST PUSH1 0x0 PUSH2 0x23C6 DUP3 PUSH2 0x20E7 JUMP JUMPDEST SWAP2 POP DUP2 SWAP1 POP SWAP2 SWAP1 POP JUMP JUMPDEST PUSH1 0x0 PUSH1 0x20 DUP3 ADD SWAP1 POP DUP2 DUP2 SUB PUSH1 0x0 DUP4 ADD MSTORE PUSH2 0x23EA DUP2 DUP5 PUSH2 0x1ED3 JUMP JUMPDEST SWAP1 POP SWAP3 SWAP2 POP POP JUMP JUMPDEST PUSH1 0x0 PUSH1 0x20 DUP3 ADD SWAP1 POP DUP2 DUP2 SUB PUSH1 0x0 DUP4 ADD MSTORE PUSH2 0x240C DUP2 DUP5 PUSH2 0x1F48 JUMP JUMPDEST SWAP1 POP SWAP3 SWAP2 POP POP JUMP JUMPDEST PUSH1 0x0 PUSH1 0x40 DUP3 ADD SWAP1 POP DUP2 DUP2 SUB PUSH1 0x0 DUP4 ADD MSTORE PUSH2 0x242E DUP2 DUP6 PUSH2 0x2014 JUMP JUMPDEST SWAP1 POP PUSH2 0x243D PUSH1 0x20 DUP4 ADD DUP5 PUSH2 0x1FCC JUMP JUMPDEST SWAP4 SWAP3 POP POP POP JUMP JUMPDEST PUSH1 0x0 PUSH1 0x20 DUP3 ADD SWAP1 POP DUP2 DUP2 SUB PUSH1 0x0 DUP4 ADD MSTORE PUSH2 0x245D DUP2 PUSH2 0x207E JUMP JUMPDEST SWAP1 POP SWAP2 SWAP1 POP JUMP JUMPDEST PUSH1 0x0 PUSH1 0x20 DUP3 ADD SWAP1 POP DUP2 DUP2 SUB PUSH1 0x0 DUP4 ADD MSTORE PUSH2 0x247D DUP2 PUSH2 0x20C4 JUMP JUMPDEST SWAP1 POP SWAP2 SWAP1 POP JUMP JUMPDEST PUSH1 0x0 PUSH1 0x20 DUP3 ADD SWAP1 POP DUP2 DUP2 SUB PUSH1 0x0 DUP4 ADD MSTORE PUSH2 0x249D DUP2 PUSH2 0x210A JUMP JUMPDEST SWAP1 POP SWAP2 SWAP1 POP JUMP JUMPDEST PUSH1 0x0 PUSH1 0x20 DUP3 ADD SWAP1 POP DUP2 DUP2 SUB PUSH1 0x0 DUP4 ADD MSTORE PUSH2 0x24BE DUP2 DUP5 PUSH2 0x2207 JUMP JUMPDEST SWAP1 POP SWAP3 SWAP2 POP POP JUMP JUMPDEST PUSH1 0x0 PUSH1 0x20 DUP3 ADD SWAP1 POP PUSH2 0x24DB PUSH1 0x0 DUP4 ADD DUP5 PUSH2 0x2380 JUMP JUMPDEST SWAP3 SWAP2 POP POP JUMP JUMPDEST PUSH1 0x0 PUSH2 0x24EB PUSH2 0x24FC JUMP JUMPDEST SWAP1 POP PUSH2 0x24F7 DUP3 DUP3 PUSH2 0x270D JUMP JUMPDEST SWAP2 SWAP1 POP JUMP JUMPDEST PUSH1 0x0 PUSH1 0x40 MLOAD SWAP1 POP SWAP1 JUMP JUMPDEST PUSH1 0x0 PUSH8 0xFFFFFFFFFFFFFFFF DUP3 GT ISZERO PUSH2 0x2521 JUMPI PUSH2 0x2520 PUSH2 0x2814 JUMP JUMPDEST JUMPDEST PUSH2 0x252A DUP3 PUSH2 0x2857 JUMP JUMPDEST SWAP1 POP PUSH1 0x20 DUP2 ADD SWAP1 POP SWAP2 SWAP1 POP JUMP JUMPDEST PUSH1 0x0 DUP2 SWAP1 POP PUSH1 0x20 DUP3 ADD SWAP1 POP SWAP2 SWAP1 POP JUMP JUMPDEST PUSH1 0x0 DUP2 SWAP1 POP PUSH1 0x20 DUP3 ADD SWAP1 POP SWAP2 SWAP1 POP JUMP JUMPDEST PUSH1 0x0 DUP2 MLOAD SWAP1 POP SWAP2 SWAP1 POP JUMP JUMPDEST PUSH1 0x0 DUP2 MLOAD SWAP1 POP SWAP2 SWAP1 POP JUMP JUMPDEST PUSH1 0x0 DUP2 MLOAD SWAP1 POP SWAP2 SWAP1 POP JUMP JUMPDEST PUSH1 0x0 PUSH1 0x20 DUP3 ADD SWAP1 POP SWAP2 SWAP1 POP JUMP JUMPDEST PUSH1 0x0 PUSH1 0x20 DUP3 ADD SWAP1 POP SWAP2 SWAP1 POP JUMP JUMPDEST PUSH1 0x0 DUP3 DUP3 MSTORE PUSH1 0x20 DUP3 ADD SWAP1 POP SWAP3 SWAP2 POP POP JUMP JUMPDEST PUSH1 0x0 DUP3 DUP3 MSTORE PUSH1 0x20 DUP3 ADD SWAP1 POP SWAP3 SWAP2 POP POP JUMP JUMPDEST PUSH1 0x0 DUP3 DUP3 MSTORE PUSH1 0x20 DUP3 ADD SWAP1 POP SWAP3 SWAP2 POP POP JUMP JUMPDEST PUSH1 0x0 DUP3 DUP3 MSTORE PUSH1 0x20 DUP3 ADD SWAP1 POP SWAP3 SWAP2 POP POP JUMP JUMPDEST PUSH1 0x0 DUP2 SWAP1 POP SWAP3 SWAP2 POP POP JUMP JUMPDEST PUSH1 0x0 PUSH2 0x25EC DUP3 PUSH2 0x2665 JUMP JUMPDEST SWAP2 POP PUSH2 0x25F7 DUP4 PUSH2 0x2665 JUMP JUMPDEST SWAP3 POP DUP3 DUP3 LT ISZERO PUSH2 0x260A JUMPI PUSH2 0x2609 PUSH2 0x2787 JUMP JUMPDEST JUMPDEST DUP3 DUP3 SUB SWAP1 POP SWAP3 SWAP2 POP POP JUMP JUMPDEST PUSH1 0x0 PUSH2 0x2620 DUP3 PUSH2 0x2645 JUMP JUMPDEST SWAP1 POP SWAP2 SWAP1 POP JUMP JUMPDEST PUSH1 0x0 PUSH2 0x2632 DUP3 PUSH2 0x2645 JUMP JUMPDEST SWAP1 POP SWAP2 SWAP1 POP JUMP JUMPDEST PUSH1 0x0 DUP2 ISZERO ISZERO SWAP1 POP SWAP2 SWAP1 POP JUMP JUMPDEST PUSH1 0x0 PUSH20 0xFFFFFFFFFFFFFFFFFFFFFFFFFFFFFFFFFFFFFFFF DUP3 AND SWAP1 POP SWAP2 SWAP1 POP JUMP JUMPDEST PUSH1 0x0 DUP2 SWAP1 POP SWAP2 SWAP1 POP JUMP JUMPDEST DUP3 DUP2 DUP4 CALLDATACOPY PUSH1 0x0 DUP4 DUP4 ADD MSTORE POP POP POP JUMP JUMPDEST PUSH1 0x0 JUMPDEST DUP4 DUP2 LT ISZERO PUSH2 0x269C JUMPI DUP1 DUP3 ADD MLOAD DUP2 DUP5 ADD MSTORE PUSH1 0x20 DUP2 ADD SWAP1 POP PUSH2 0x2681 JUMP JUMPDEST DUP4 DUP2 GT ISZERO PUSH2 0x26AB JUMPI PUSH1 0x0 DUP5 DUP5 ADD MSTORE JUMPDEST POP POP POP POP JUMP JUMPDEST PUSH1 0x0 PUSH2 0x26BC DUP3 PUSH2 0x2665 JUMP JUMPDEST SWAP2 POP PUSH1 0x0 DUP3 EQ ISZERO PUSH2 0x26D0 JUMPI PUSH2 0x26CF PUSH2 0x2787 JUMP JUMPDEST JUMPDEST PUSH1 0x1 DUP3 SUB SWAP1 POP SWAP2 SWAP1 POP JUMP JUMPDEST PUSH1 0x0 PUSH1 0x2 DUP3 DIV SWAP1 POP PUSH1 0x1 DUP3 AND DUP1 PUSH2 0x26F3 JUMPI PUSH1 0x7F DUP3 AND SWAP2 POP JUMPDEST PUSH1 0x20 DUP3 LT DUP2 EQ ISZERO PUSH2 0x2707 JUMPI PUSH2 0x2706 PUSH2 0x27B6 JUMP JUMPDEST JUMPDEST POP SWAP2 SWAP1 POP JUMP JUMPDEST PUSH2 0x2716 DUP3 PUSH2 0x2857 JUMP JUMPDEST DUP2 ADD DUP2 DUP2 LT PUSH8 0xFFFFFFFFFFFFFFFF DUP3 GT OR ISZERO PUSH2 0x2735 JUMPI PUSH2 0x2734 PUSH2 0x2814 JUMP JUMPDEST JUMPDEST DUP1 PUSH1 0x40 MSTORE POP POP POP JUMP JUMPDEST PUSH1 0x0 PUSH2 0x2749 DUP3 PUSH2 0x2665 JUMP JUMPDEST SWAP2 POP PUSH32 0xFFFFFFFFFFFFFFFFFFFFFFFFFFFFFFFFFFFFFFFFFFFFFFFFFFFFFFFFFFFFFFFF DUP3 EQ ISZERO PUSH2 0x277C JUMPI PUSH2 0x277B PUSH2 0x2787 JUMP JUMPDEST JUMPDEST PUSH1 0x1 DUP3 ADD SWAP1 POP SWAP2 SWAP1 POP JUMP JUMPDEST PUSH32 0x4E487B7100000000000000000000000000000000000000000000000000000000 PUSH1 0x0 MSTORE PUSH1 0x11 PUSH1 0x4 MSTORE PUSH1 0x24 PUSH1 0x0 REVERT JUMPDEST PUSH32 0x4E487B7100000000000000000000000000000000000000000000000000000000 PUSH1 0x0 MSTORE PUSH1 0x22 PUSH1 0x4 MSTORE PUSH1 0x24 PUSH1 0x0 REVERT JUMPDEST PUSH32 0x4E487B7100000000000000000000000000000000000000000000000000000000 PUSH1 0x0 MSTORE PUSH1 0x32 PUSH1 0x4 MSTORE PUSH1 0x24 PUSH1 0x0 REVERT JUMPDEST PUSH32 0x4E487B7100000000000000000000000000000000000000000000000000000000 PUSH1 0x0 MSTORE PUSH1 0x41 PUSH1 0x4 MSTORE PUSH1 0x24 PUSH1 0x0 REVERT JUMPDEST PUSH1 0x0 DUP1 REVERT JUMPDEST PUSH1 0x0 DUP1 REVERT JUMPDEST PUSH1 0x0 DUP1 REVERT JUMPDEST PUSH1 0x0 DUP1 REVERT JUMPDEST PUSH1 0x0 PUSH1 0x1F NOT PUSH1 0x1F DUP4 ADD AND SWAP1 POP SWAP2 SWAP1 POP JUMP JUMPDEST PUSH32 0x496C20726573656C6C657220737065636966696361746F206527206572726174 PUSH1 0x0 DUP3 ADD MSTORE PUSH32 0x6F00000000000000000000000000000000000000000000000000000000000000 PUSH1 0x20 DUP3 ADD MSTORE POP JUMP JUMPDEST PUSH32 0x436F6E636C75736F000000000000000000000000000000000000000000000000 PUSH1 0x0 DUP3 ADD MSTORE POP JUMP JUMPDEST PUSH32 0x4E6F6E20736569206175746F72697A7A61746F20616420657365677569726520 PUSH1 0x0 DUP3 ADD MSTORE PUSH32 0x71756573746120617A696F6E6500000000000000000000000000000000000000 PUSH1 0x20 DUP3 ADD MSTORE POP JUMP JUMPDEST PUSH32 0x416E6E756C6C61746F0000000000000000000000000000000000000000000000 PUSH1 0x0 DUP3 ADD MSTORE POP JUMP JUMPDEST PUSH32 0x4C276576656E746F206E6F6E2065736973746500000000000000000000000000 PUSH1 0x0 DUP3 ADD MSTORE POP JUMP JUMPDEST PUSH2 0x298A DUP2 PUSH2 0x2615 JUMP JUMPDEST DUP2 EQ PUSH2 0x2995 JUMPI PUSH1 0x0 DUP1 REVERT JUMPDEST POP JUMP JUMPDEST PUSH2 0x29A1 DUP2 PUSH2 0x2627 JUMP JUMPDEST DUP2 EQ PUSH2 0x29AC JUMPI PUSH1 0x0 DUP1 REVERT JUMPDEST POP JUMP JUMPDEST PUSH2 0x29B8 DUP2 PUSH2 0x2665 JUMP JUMPDEST DUP2 EQ PUSH2 0x29C3 JUMPI PUSH1 0x0 DUP1 REVERT JUMPDEST POP JUMP INVALID 0x4E PUSH16 0x6E20636920736F6E6F20706975272062 PUSH10 0x676C6965747469206469 PUSH20 0x70706F6E6962696C69A264697066735822122089 MLOAD 0xD5 SWAP12 0xCC CREATE2 0xA6 EXP SWAP15 0xD0 0xFC PUSH14 0x5D6813E67B881C9308B28C01F74F SWAP5 DUP1 0x5E 0xDE 0x21 SWAP14 PUSH5 0x736F6C6343 STOP ADDMOD SMOD STOP CALLER "
		},
		"gasEstimates": {
			"creation": {
				"codeDepositCost": "2157400",
				"executionCost": "77680",
				"totalCost": "2235080"
			},
			"external": {
				"buy_ticket(uint256,address,string,string)": "infinite",
				"create_event(string,string,string,uint256,uint256,address)": "infinite",
				"finish_event(uint256)": "infinite",
				"get_balance(address)": "5450",
				"get_event(uint256)": "infinite",
				"get_events()": "infinite",
				"get_tickets()": "infinite",
				"overrlue_event(uint256)": "infinite",
				"set_reseller(address)": "26934"
			},
			"internal": {
				"generate_tickets(uint256,uint256,address)": "infinite",
				"get_event_length()": "2131",
				"get_event_ticket(uint256)": "infinite",
				"get_ticket_lenght()": "2131",
				"reduce_remaining_tickets(uint256)": "26571",
				"set_ticket_sold(uint256)": "infinite"
			}
		},
		"methodIdentifiers": {
			"buy_ticket(uint256,address,string,string)": "0c2517bf",
			"create_event(string,string,string,uint256,uint256,address)": "c91e2dcf",
			"finish_event(uint256)": "38ae8be4",
			"get_balance(address)": "1e279a37",
			"get_event(uint256)": "47a828b3",
			"get_events()": "5b3929cb",
			"get_tickets()": "957bdf60",
			"overrlue_event(uint256)": "8c59a085",
			"set_reseller(address)": "30449c80"
		}
	},
	"abi": [
		{
			"anonymous": false,
			"inputs": [
				{
					"indexed": true,
					"internalType": "uint256",
					"name": "eventid",
					"type": "uint256"
				},
				{
					"indexed": true,
					"internalType": "address",
					"name": "creator",
					"type": "address"
				}
			],
			"name": "EventCreated",
			"type": "event"
		},
		{
			"anonymous": false,
			"inputs": [
				{
					"indexed": true,
					"internalType": "uint256",
					"name": "eventid",
					"type": "uint256"
				},
				{
					"indexed": true,
					"internalType": "address",
					"name": "creator",
					"type": "address"
				}
			],
			"name": "EventFinished",
			"type": "event"
		},
		{
			"anonymous": false,
			"inputs": [
				{
					"indexed": true,
					"internalType": "uint256",
					"name": "eventid",
					"type": "uint256"
				},
				{
					"indexed": true,
					"internalType": "address",
					"name": "creator",
					"type": "address"
				}
			],
			"name": "EventOverrlue",
			"type": "event"
		},
		{
			"anonymous": false,
			"inputs": [
				{
					"indexed": true,
					"internalType": "uint256",
					"name": "eventid",
					"type": "uint256"
				},
				{
					"indexed": true,
					"internalType": "uint256",
					"name": "totalticket",
					"type": "uint256"
				},
				{
					"indexed": true,
					"internalType": "address",
					"name": "creator",
					"type": "address"
				}
			],
			"name": "TicketsGenerated",
			"type": "event"
		},
		{
			"inputs": [
				{
					"internalType": "uint256",
					"name": "eventid",
					"type": "uint256"
				},
				{
					"internalType": "address payable",
					"name": "customer",
					"type": "address"
				},
				{
					"internalType": "string",
					"name": "name",
					"type": "string"
				},
				{
					"internalType": "string",
					"name": "surname",
					"type": "string"
				}
			],
			"name": "buy_ticket",
			"outputs": [
				{
					"internalType": "string",
					"name": "",
					"type": "string"
				},
				{
					"internalType": "bool",
					"name": "",
					"type": "bool"
				}
			],
			"stateMutability": "payable",
			"type": "function"
		},
		{
			"inputs": [
				{
					"internalType": "string",
					"name": "title",
					"type": "string"
				},
				{
					"internalType": "string",
					"name": "luogo",
					"type": "string"
				},
				{
					"internalType": "string",
					"name": "date",
					"type": "string"
				},
				{
					"internalType": "uint256",
					"name": "seats",
					"type": "uint256"
				},
				{
					"internalType": "uint256",
					"name": "price",
					"type": "uint256"
				},
				{
					"internalType": "address",
					"name": "res",
					"type": "address"
				}
			],
			"name": "create_event",
			"outputs": [],
			"stateMutability": "nonpayable",
			"type": "function"
		},
		{
			"inputs": [
				{
					"internalType": "uint256",
					"name": "id",
					"type": "uint256"
				}
			],
			"name": "finish_event",
			"outputs": [],
			"stateMutability": "nonpayable",
			"type": "function"
		},
		{
			"inputs": [
				{
					"internalType": "address",
					"name": "indir",
					"type": "address"
				}
			],
			"name": "get_balance",
			"outputs": [
				{
					"internalType": "uint256",
					"name": "",
					"type": "uint256"
				}
			],
			"stateMutability": "view",
			"type": "function"
		},
		{
			"inputs": [
				{
					"internalType": "uint256",
					"name": "id",
					"type": "uint256"
				}
			],
			"name": "get_event",
			"outputs": [
				{
					"components": [
						{
							"internalType": "uint256",
							"name": "id",
							"type": "uint256"
						},
						{
							"internalType": "string",
							"name": "title",
							"type": "string"
						},
						{
							"internalType": "string",
							"name": "luogo",
							"type": "string"
						},
						{
							"internalType": "string",
							"name": "date",
							"type": "string"
						},
						{
							"internalType": "uint256",
							"name": "seats",
							"type": "uint256"
						},
						{
							"internalType": "uint256",
							"name": "remaining_tickets",
							"type": "uint256"
						},
						{
							"internalType": "uint256",
							"name": "price",
							"type": "uint256"
						},
						{
							"internalType": "string",
							"name": "state",
							"type": "string"
						},
						{
							"internalType": "address",
							"name": "owner",
							"type": "address"
						}
					],
					"internalType": "struct Event.EventData",
					"name": "evento",
					"type": "tuple"
				}
			],
			"stateMutability": "view",
			"type": "function"
		},
		{
			"inputs": [],
			"name": "get_events",
			"outputs": [
				{
					"components": [
						{
							"internalType": "uint256",
							"name": "id",
							"type": "uint256"
						},
						{
							"internalType": "string",
							"name": "title",
							"type": "string"
						},
						{
							"internalType": "string",
							"name": "luogo",
							"type": "string"
						},
						{
							"internalType": "string",
							"name": "date",
							"type": "string"
						},
						{
							"internalType": "uint256",
							"name": "seats",
							"type": "uint256"
						},
						{
							"internalType": "uint256",
							"name": "remaining_tickets",
							"type": "uint256"
						},
						{
							"internalType": "uint256",
							"name": "price",
							"type": "uint256"
						},
						{
							"internalType": "string",
							"name": "state",
							"type": "string"
						},
						{
							"internalType": "address",
							"name": "owner",
							"type": "address"
						}
					],
					"internalType": "struct Event.EventData[]",
					"name": "",
					"type": "tuple[]"
				}
			],
			"stateMutability": "view",
			"type": "function"
		},
		{
			"inputs": [],
			"name": "get_tickets",
			"outputs": [
				{
					"components": [
						{
							"internalType": "string",
							"name": "name",
							"type": "string"
						},
						{
							"internalType": "string",
							"name": "surname",
							"type": "string"
						},
						{
							"internalType": "uint256",
							"name": "ticketid",
							"type": "uint256"
						},
						{
							"internalType": "uint256",
							"name": "eventid",
							"type": "uint256"
						},
						{
							"internalType": "bool",
							"name": "sell",
							"type": "bool"
						},
						{
							"internalType": "bool",
							"name": "validate",
							"type": "bool"
						}
					],
					"internalType": "struct Event.TicketData[]",
					"name": "",
					"type": "tuple[]"
				}
			],
			"stateMutability": "view",
			"type": "function"
		},
		{
			"inputs": [
				{
					"internalType": "uint256",
					"name": "id",
					"type": "uint256"
				}
			],
			"name": "overrlue_event",
			"outputs": [],
			"stateMutability": "nonpayable",
			"type": "function"
		},
		{
			"inputs": [
				{
					"internalType": "address",
					"name": "r",
					"type": "address"
				}
			],
			"name": "set_reseller",
			"outputs": [],
			"stateMutability": "nonpayable",
			"type": "function"
		}
	]
}