{
	"data": {
		"bytecode": {
			"linkReferences": {},
			"object": "608060405260008054906101000a900473ffffffffffffffffffffffffffffffffffffffff1673ffffffffffffffffffffffffffffffffffffffff163160015534801561004b57600080fd5b506040516108cb3803806108cb833981810160405281019061006d9190610109565b80600260006101000a81548173ffffffffffffffffffffffffffffffffffffffff021916908373ffffffffffffffffffffffffffffffffffffffff160217905550336000806101000a81548173ffffffffffffffffffffffffffffffffffffffff021916908373ffffffffffffffffffffffffffffffffffffffff16021790555050610184565b6000815190506101038161016d565b92915050565b60006020828403121561011f5761011e610168565b5b600061012d848285016100f4565b91505092915050565b600061014182610148565b9050919050565b600073ffffffffffffffffffffffffffffffffffffffff82169050919050565b600080fd5b61017681610136565b811461018157600080fd5b50565b610738806101936000396000f3fe608060405234801561001057600080fd5b506004361061004c5760003560e01c80630131222f146100515780633d48204e1461006f578063c1cfb99a146100a0578063fad56779146100be575b600080fd5b6100596100dc565b6040516100669190610488565b60405180910390f35b61008960048036038101906100849190610388565b610105565b6040516100979291906104a3565b60405180910390f35b6100a86101f2565b6040516100b591906104d3565b60405180910390f35b6100c66101fc565b6040516100d39190610488565b60405180910390f35b60008060009054906101000a900473ffffffffffffffffffffffffffffffffffffffff16905090565b6060600080600260009054906101000a900473ffffffffffffffffffffffffffffffffffffffff1690508073ffffffffffffffffffffffffffffffffffffffff16630c2517bf8760008054906101000a900473ffffffffffffffffffffffffffffffffffffffff1688886040518563ffffffff1660e01b815260040161018e94939291906104ee565b600060405180830381600087803b1580156101a857600080fd5b505af11580156101bc573d6000803e3d6000fd5b505050506040513d6000823e3d601f19601f820116820180604052508101906101e5919061032c565b9250925050935093915050565b6000600154905090565b600260009054906101000a900473ffffffffffffffffffffffffffffffffffffffff1681565b600061023561023084610566565b610541565b905082815260208101848484011115610251576102506106b4565b5b61025c84828561060d565b509392505050565b600061027761027284610566565b610541565b905082815260208101848484011115610293576102926106b4565b5b61029e84828561061c565b509392505050565b6000815190506102b5816106d4565b92915050565b600082601f8301126102d0576102cf6106af565b5b81356102e0848260208601610222565b91505092915050565b600082601f8301126102fe576102fd6106af565b5b815161030e848260208601610264565b91505092915050565b600081359050610326816106eb565b92915050565b60008060408385031215610343576103426106be565b5b600083015167ffffffffffffffff811115610361576103606106b9565b5b61036d858286016102e9565b925050602061037e858286016102a6565b9150509250929050565b6000806000606084860312156103a1576103a06106be565b5b60006103af86828701610317565b935050602084013567ffffffffffffffff8111156103d0576103cf6106b9565b5b6103dc868287016102bb565b925050604084013567ffffffffffffffff8111156103fd576103fc6106b9565b5b610409868287016102bb565b9150509250925092565b61041c816105c5565b82525050565b61042b816105b3565b82525050565b61043a816105d7565b82525050565b600061044b82610597565b61045581856105a2565b935061046581856020860161061c565b61046e816106c3565b840191505092915050565b61048281610603565b82525050565b600060208201905061049d6000830184610422565b92915050565b600060408201905081810360008301526104bd8185610440565b90506104cc6020830184610431565b9392505050565b60006020820190506104e86000830184610479565b92915050565b60006080820190506105036000830187610479565b6105106020830186610413565b81810360408301526105228185610440565b905081810360608301526105368184610440565b905095945050505050565b600061054b61055c565b9050610557828261064f565b919050565b6000604051905090565b600067ffffffffffffffff82111561058157610580610680565b5b61058a826106c3565b9050602081019050919050565b600081519050919050565b600082825260208201905092915050565b60006105be826105e3565b9050919050565b60006105d0826105e3565b9050919050565b60008115159050919050565b600073ffffffffffffffffffffffffffffffffffffffff82169050919050565b6000819050919050565b82818337600083830152505050565b60005b8381101561063a57808201518184015260208101905061061f565b83811115610649576000848401525b50505050565b610658826106c3565b810181811067ffffffffffffffff8211171561067757610676610680565b5b80604052505050565b7f4e487b7100000000000000000000000000000000000000000000000000000000600052604160045260246000fd5b600080fd5b600080fd5b600080fd5b600080fd5b6000601f19601f8301169050919050565b6106dd816105d7565b81146106e857600080fd5b50565b6106f481610603565b81146106ff57600080fd5b5056fea2646970667358221220abc030b746aed6e970a6b95dddfda688dd3672213dec10517d19de69c3a0c52064736f6c63430008070033",
			"opcodes": "PUSH1 0x80 PUSH1 0x40 MSTORE PUSH1 0x0 DUP1 SLOAD SWAP1 PUSH2 0x100 EXP SWAP1 DIV PUSH20 0xFFFFFFFFFFFFFFFFFFFFFFFFFFFFFFFFFFFFFFFF AND PUSH20 0xFFFFFFFFFFFFFFFFFFFFFFFFFFFFFFFFFFFFFFFF AND BALANCE PUSH1 0x1 SSTORE CALLVALUE DUP1 ISZERO PUSH2 0x4B JUMPI PUSH1 0x0 DUP1 REVERT JUMPDEST POP PUSH1 0x40 MLOAD PUSH2 0x8CB CODESIZE SUB DUP1 PUSH2 0x8CB DUP4 CODECOPY DUP2 DUP2 ADD PUSH1 0x40 MSTORE DUP2 ADD SWAP1 PUSH2 0x6D SWAP2 SWAP1 PUSH2 0x109 JUMP JUMPDEST DUP1 PUSH1 0x2 PUSH1 0x0 PUSH2 0x100 EXP DUP2 SLOAD DUP2 PUSH20 0xFFFFFFFFFFFFFFFFFFFFFFFFFFFFFFFFFFFFFFFF MUL NOT AND SWAP1 DUP4 PUSH20 0xFFFFFFFFFFFFFFFFFFFFFFFFFFFFFFFFFFFFFFFF AND MUL OR SWAP1 SSTORE POP CALLER PUSH1 0x0 DUP1 PUSH2 0x100 EXP DUP2 SLOAD DUP2 PUSH20 0xFFFFFFFFFFFFFFFFFFFFFFFFFFFFFFFFFFFFFFFF MUL NOT AND SWAP1 DUP4 PUSH20 0xFFFFFFFFFFFFFFFFFFFFFFFFFFFFFFFFFFFFFFFF AND MUL OR SWAP1 SSTORE POP POP PUSH2 0x184 JUMP JUMPDEST PUSH1 0x0 DUP2 MLOAD SWAP1 POP PUSH2 0x103 DUP2 PUSH2 0x16D JUMP JUMPDEST SWAP3 SWAP2 POP POP JUMP JUMPDEST PUSH1 0x0 PUSH1 0x20 DUP3 DUP5 SUB SLT ISZERO PUSH2 0x11F JUMPI PUSH2 0x11E PUSH2 0x168 JUMP JUMPDEST JUMPDEST PUSH1 0x0 PUSH2 0x12D DUP5 DUP3 DUP6 ADD PUSH2 0xF4 JUMP JUMPDEST SWAP2 POP POP SWAP3 SWAP2 POP POP JUMP JUMPDEST PUSH1 0x0 PUSH2 0x141 DUP3 PUSH2 0x148 JUMP JUMPDEST SWAP1 POP SWAP2 SWAP1 POP JUMP JUMPDEST PUSH1 0x0 PUSH20 0xFFFFFFFFFFFFFFFFFFFFFFFFFFFFFFFFFFFFFFFF DUP3 AND SWAP1 POP SWAP2 SWAP1 POP JUMP JUMPDEST PUSH1 0x0 DUP1 REVERT JUMPDEST PUSH2 0x176 DUP2 PUSH2 0x136 JUMP JUMPDEST DUP2 EQ PUSH2 0x181 JUMPI PUSH1 0x0 DUP1 REVERT JUMPDEST POP JUMP JUMPDEST PUSH2 0x738 DUP1 PUSH2 0x193 PUSH1 0x0 CODECOPY PUSH1 0x0 RETURN INVALID PUSH1 0x80 PUSH1 0x40 MSTORE CALLVALUE DUP1 ISZERO PUSH2 0x10 JUMPI PUSH1 0x0 DUP1 REVERT JUMPDEST POP PUSH1 0x4 CALLDATASIZE LT PUSH2 0x4C JUMPI PUSH1 0x0 CALLDATALOAD PUSH1 0xE0 SHR DUP1 PUSH4 0x131222F EQ PUSH2 0x51 JUMPI DUP1 PUSH4 0x3D48204E EQ PUSH2 0x6F JUMPI DUP1 PUSH4 0xC1CFB99A EQ PUSH2 0xA0 JUMPI DUP1 PUSH4 0xFAD56779 EQ PUSH2 0xBE JUMPI JUMPDEST PUSH1 0x0 DUP1 REVERT JUMPDEST PUSH2 0x59 PUSH2 0xDC JUMP JUMPDEST PUSH1 0x40 MLOAD PUSH2 0x66 SWAP2 SWAP1 PUSH2 0x488 JUMP JUMPDEST PUSH1 0x40 MLOAD DUP1 SWAP2 SUB SWAP1 RETURN JUMPDEST PUSH2 0x89 PUSH1 0x4 DUP1 CALLDATASIZE SUB DUP2 ADD SWAP1 PUSH2 0x84 SWAP2 SWAP1 PUSH2 0x388 JUMP JUMPDEST PUSH2 0x105 JUMP JUMPDEST PUSH1 0x40 MLOAD PUSH2 0x97 SWAP3 SWAP2 SWAP1 PUSH2 0x4A3 JUMP JUMPDEST PUSH1 0x40 MLOAD DUP1 SWAP2 SUB SWAP1 RETURN JUMPDEST PUSH2 0xA8 PUSH2 0x1F2 JUMP JUMPDEST PUSH1 0x40 MLOAD PUSH2 0xB5 SWAP2 SWAP1 PUSH2 0x4D3 JUMP JUMPDEST PUSH1 0x40 MLOAD DUP1 SWAP2 SUB SWAP1 RETURN JUMPDEST PUSH2 0xC6 PUSH2 0x1FC JUMP JUMPDEST PUSH1 0x40 MLOAD PUSH2 0xD3 SWAP2 SWAP1 PUSH2 0x488 JUMP JUMPDEST PUSH1 0x40 MLOAD DUP1 SWAP2 SUB SWAP1 RETURN JUMPDEST PUSH1 0x0 DUP1 PUSH1 0x0 SWAP1 SLOAD SWAP1 PUSH2 0x100 EXP SWAP1 DIV PUSH20 0xFFFFFFFFFFFFFFFFFFFFFFFFFFFFFFFFFFFFFFFF AND SWAP1 POP SWAP1 JUMP JUMPDEST PUSH1 0x60 PUSH1 0x0 DUP1 PUSH1 0x2 PUSH1 0x0 SWAP1 SLOAD SWAP1 PUSH2 0x100 EXP SWAP1 DIV PUSH20 0xFFFFFFFFFFFFFFFFFFFFFFFFFFFFFFFFFFFFFFFF AND SWAP1 POP DUP1 PUSH20 0xFFFFFFFFFFFFFFFFFFFFFFFFFFFFFFFFFFFFFFFF AND PUSH4 0xC2517BF DUP8 PUSH1 0x0 DUP1 SLOAD SWAP1 PUSH2 0x100 EXP SWAP1 DIV PUSH20 0xFFFFFFFFFFFFFFFFFFFFFFFFFFFFFFFFFFFFFFFF AND DUP9 DUP9 PUSH1 0x40 MLOAD DUP6 PUSH4 0xFFFFFFFF AND PUSH1 0xE0 SHL DUP2 MSTORE PUSH1 0x4 ADD PUSH2 0x18E SWAP5 SWAP4 SWAP3 SWAP2 SWAP1 PUSH2 0x4EE JUMP JUMPDEST PUSH1 0x0 PUSH1 0x40 MLOAD DUP1 DUP4 SUB DUP2 PUSH1 0x0 DUP8 DUP1 EXTCODESIZE ISZERO DUP1 ISZERO PUSH2 0x1A8 JUMPI PUSH1 0x0 DUP1 REVERT JUMPDEST POP GAS CALL ISZERO DUP1 ISZERO PUSH2 0x1BC JUMPI RETURNDATASIZE PUSH1 0x0 DUP1 RETURNDATACOPY RETURNDATASIZE PUSH1 0x0 REVERT JUMPDEST POP POP POP POP PUSH1 0x40 MLOAD RETURNDATASIZE PUSH1 0x0 DUP3 RETURNDATACOPY RETURNDATASIZE PUSH1 0x1F NOT PUSH1 0x1F DUP3 ADD AND DUP3 ADD DUP1 PUSH1 0x40 MSTORE POP DUP2 ADD SWAP1 PUSH2 0x1E5 SWAP2 SWAP1 PUSH2 0x32C JUMP JUMPDEST SWAP3 POP SWAP3 POP POP SWAP4 POP SWAP4 SWAP2 POP POP JUMP JUMPDEST PUSH1 0x0 PUSH1 0x1 SLOAD SWAP1 POP SWAP1 JUMP JUMPDEST PUSH1 0x2 PUSH1 0x0 SWAP1 SLOAD SWAP1 PUSH2 0x100 EXP SWAP1 DIV PUSH20 0xFFFFFFFFFFFFFFFFFFFFFFFFFFFFFFFFFFFFFFFF AND DUP2 JUMP JUMPDEST PUSH1 0x0 PUSH2 0x235 PUSH2 0x230 DUP5 PUSH2 0x566 JUMP JUMPDEST PUSH2 0x541 JUMP JUMPDEST SWAP1 POP DUP3 DUP2 MSTORE PUSH1 0x20 DUP2 ADD DUP5 DUP5 DUP5 ADD GT ISZERO PUSH2 0x251 JUMPI PUSH2 0x250 PUSH2 0x6B4 JUMP JUMPDEST JUMPDEST PUSH2 0x25C DUP5 DUP3 DUP6 PUSH2 0x60D JUMP JUMPDEST POP SWAP4 SWAP3 POP POP POP JUMP JUMPDEST PUSH1 0x0 PUSH2 0x277 PUSH2 0x272 DUP5 PUSH2 0x566 JUMP JUMPDEST PUSH2 0x541 JUMP JUMPDEST SWAP1 POP DUP3 DUP2 MSTORE PUSH1 0x20 DUP2 ADD DUP5 DUP5 DUP5 ADD GT ISZERO PUSH2 0x293 JUMPI PUSH2 0x292 PUSH2 0x6B4 JUMP JUMPDEST JUMPDEST PUSH2 0x29E DUP5 DUP3 DUP6 PUSH2 0x61C JUMP JUMPDEST POP SWAP4 SWAP3 POP POP POP JUMP JUMPDEST PUSH1 0x0 DUP2 MLOAD SWAP1 POP PUSH2 0x2B5 DUP2 PUSH2 0x6D4 JUMP JUMPDEST SWAP3 SWAP2 POP POP JUMP JUMPDEST PUSH1 0x0 DUP3 PUSH1 0x1F DUP4 ADD SLT PUSH2 0x2D0 JUMPI PUSH2 0x2CF PUSH2 0x6AF JUMP JUMPDEST JUMPDEST DUP2 CALLDATALOAD PUSH2 0x2E0 DUP5 DUP3 PUSH1 0x20 DUP7 ADD PUSH2 0x222 JUMP JUMPDEST SWAP2 POP POP SWAP3 SWAP2 POP POP JUMP JUMPDEST PUSH1 0x0 DUP3 PUSH1 0x1F DUP4 ADD SLT PUSH2 0x2FE JUMPI PUSH2 0x2FD PUSH2 0x6AF JUMP JUMPDEST JUMPDEST DUP2 MLOAD PUSH2 0x30E DUP5 DUP3 PUSH1 0x20 DUP7 ADD PUSH2 0x264 JUMP JUMPDEST SWAP2 POP POP SWAP3 SWAP2 POP POP JUMP JUMPDEST PUSH1 0x0 DUP2 CALLDATALOAD SWAP1 POP PUSH2 0x326 DUP2 PUSH2 0x6EB JUMP JUMPDEST SWAP3 SWAP2 POP POP JUMP JUMPDEST PUSH1 0x0 DUP1 PUSH1 0x40 DUP4 DUP6 SUB SLT ISZERO PUSH2 0x343 JUMPI PUSH2 0x342 PUSH2 0x6BE JUMP JUMPDEST JUMPDEST PUSH1 0x0 DUP4 ADD MLOAD PUSH8 0xFFFFFFFFFFFFFFFF DUP2 GT ISZERO PUSH2 0x361 JUMPI PUSH2 0x360 PUSH2 0x6B9 JUMP JUMPDEST JUMPDEST PUSH2 0x36D DUP6 DUP3 DUP7 ADD PUSH2 0x2E9 JUMP JUMPDEST SWAP3 POP POP PUSH1 0x20 PUSH2 0x37E DUP6 DUP3 DUP7 ADD PUSH2 0x2A6 JUMP JUMPDEST SWAP2 POP POP SWAP3 POP SWAP3 SWAP1 POP JUMP JUMPDEST PUSH1 0x0 DUP1 PUSH1 0x0 PUSH1 0x60 DUP5 DUP7 SUB SLT ISZERO PUSH2 0x3A1 JUMPI PUSH2 0x3A0 PUSH2 0x6BE JUMP JUMPDEST JUMPDEST PUSH1 0x0 PUSH2 0x3AF DUP7 DUP3 DUP8 ADD PUSH2 0x317 JUMP JUMPDEST SWAP4 POP POP PUSH1 0x20 DUP5 ADD CALLDATALOAD PUSH8 0xFFFFFFFFFFFFFFFF DUP2 GT ISZERO PUSH2 0x3D0 JUMPI PUSH2 0x3CF PUSH2 0x6B9 JUMP JUMPDEST JUMPDEST PUSH2 0x3DC DUP7 DUP3 DUP8 ADD PUSH2 0x2BB JUMP JUMPDEST SWAP3 POP POP PUSH1 0x40 DUP5 ADD CALLDATALOAD PUSH8 0xFFFFFFFFFFFFFFFF DUP2 GT ISZERO PUSH2 0x3FD JUMPI PUSH2 0x3FC PUSH2 0x6B9 JUMP JUMPDEST JUMPDEST PUSH2 0x409 DUP7 DUP3 DUP8 ADD PUSH2 0x2BB JUMP JUMPDEST SWAP2 POP POP SWAP3 POP SWAP3 POP SWAP3 JUMP JUMPDEST PUSH2 0x41C DUP2 PUSH2 0x5C5 JUMP JUMPDEST DUP3 MSTORE POP POP JUMP JUMPDEST PUSH2 0x42B DUP2 PUSH2 0x5B3 JUMP JUMPDEST DUP3 MSTORE POP POP JUMP JUMPDEST PUSH2 0x43A DUP2 PUSH2 0x5D7 JUMP JUMPDEST DUP3 MSTORE POP POP JUMP JUMPDEST PUSH1 0x0 PUSH2 0x44B DUP3 PUSH2 0x597 JUMP JUMPDEST PUSH2 0x455 DUP2 DUP6 PUSH2 0x5A2 JUMP JUMPDEST SWAP4 POP PUSH2 0x465 DUP2 DUP6 PUSH1 0x20 DUP7 ADD PUSH2 0x61C JUMP JUMPDEST PUSH2 0x46E DUP2 PUSH2 0x6C3 JUMP JUMPDEST DUP5 ADD SWAP2 POP POP SWAP3 SWAP2 POP POP JUMP JUMPDEST PUSH2 0x482 DUP2 PUSH2 0x603 JUMP JUMPDEST DUP3 MSTORE POP POP JUMP JUMPDEST PUSH1 0x0 PUSH1 0x20 DUP3 ADD SWAP1 POP PUSH2 0x49D PUSH1 0x0 DUP4 ADD DUP5 PUSH2 0x422 JUMP JUMPDEST SWAP3 SWAP2 POP POP JUMP JUMPDEST PUSH1 0x0 PUSH1 0x40 DUP3 ADD SWAP1 POP DUP2 DUP2 SUB PUSH1 0x0 DUP4 ADD MSTORE PUSH2 0x4BD DUP2 DUP6 PUSH2 0x440 JUMP JUMPDEST SWAP1 POP PUSH2 0x4CC PUSH1 0x20 DUP4 ADD DUP5 PUSH2 0x431 JUMP JUMPDEST SWAP4 SWAP3 POP POP POP JUMP JUMPDEST PUSH1 0x0 PUSH1 0x20 DUP3 ADD SWAP1 POP PUSH2 0x4E8 PUSH1 0x0 DUP4 ADD DUP5 PUSH2 0x479 JUMP JUMPDEST SWAP3 SWAP2 POP POP JUMP JUMPDEST PUSH1 0x0 PUSH1 0x80 DUP3 ADD SWAP1 POP PUSH2 0x503 PUSH1 0x0 DUP4 ADD DUP8 PUSH2 0x479 JUMP JUMPDEST PUSH2 0x510 PUSH1 0x20 DUP4 ADD DUP7 PUSH2 0x413 JUMP JUMPDEST DUP2 DUP2 SUB PUSH1 0x40 DUP4 ADD MSTORE PUSH2 0x522 DUP2 DUP6 PUSH2 0x440 JUMP JUMPDEST SWAP1 POP DUP2 DUP2 SUB PUSH1 0x60 DUP4 ADD MSTORE PUSH2 0x536 DUP2 DUP5 PUSH2 0x440 JUMP JUMPDEST SWAP1 POP SWAP6 SWAP5 POP POP POP POP POP JUMP JUMPDEST PUSH1 0x0 PUSH2 0x54B PUSH2 0x55C JUMP JUMPDEST SWAP1 POP PUSH2 0x557 DUP3 DUP3 PUSH2 0x64F JUMP JUMPDEST SWAP2 SWAP1 POP JUMP JUMPDEST PUSH1 0x0 PUSH1 0x40 MLOAD SWAP1 POP SWAP1 JUMP JUMPDEST PUSH1 0x0 PUSH8 0xFFFFFFFFFFFFFFFF DUP3 GT ISZERO PUSH2 0x581 JUMPI PUSH2 0x580 PUSH2 0x680 JUMP JUMPDEST JUMPDEST PUSH2 0x58A DUP3 PUSH2 0x6C3 JUMP JUMPDEST SWAP1 POP PUSH1 0x20 DUP2 ADD SWAP1 POP SWAP2 SWAP1 POP JUMP JUMPDEST PUSH1 0x0 DUP2 MLOAD SWAP1 POP SWAP2 SWAP1 POP JUMP JUMPDEST PUSH1 0x0 DUP3 DUP3 MSTORE PUSH1 0x20 DUP3 ADD SWAP1 POP SWAP3 SWAP2 POP POP JUMP JUMPDEST PUSH1 0x0 PUSH2 0x5BE DUP3 PUSH2 0x5E3 JUMP JUMPDEST SWAP1 POP SWAP2 SWAP1 POP JUMP JUMPDEST PUSH1 0x0 PUSH2 0x5D0 DUP3 PUSH2 0x5E3 JUMP JUMPDEST SWAP1 POP SWAP2 SWAP1 POP JUMP JUMPDEST PUSH1 0x0 DUP2 ISZERO ISZERO SWAP1 POP SWAP2 SWAP1 POP JUMP JUMPDEST PUSH1 0x0 PUSH20 0xFFFFFFFFFFFFFFFFFFFFFFFFFFFFFFFFFFFFFFFF DUP3 AND SWAP1 POP SWAP2 SWAP1 POP JUMP JUMPDEST PUSH1 0x0 DUP2 SWAP1 POP SWAP2 SWAP1 POP JUMP JUMPDEST DUP3 DUP2 DUP4 CALLDATACOPY PUSH1 0x0 DUP4 DUP4 ADD MSTORE POP POP POP JUMP JUMPDEST PUSH1 0x0 JUMPDEST DUP4 DUP2 LT ISZERO PUSH2 0x63A JUMPI DUP1 DUP3 ADD MLOAD DUP2 DUP5 ADD MSTORE PUSH1 0x20 DUP2 ADD SWAP1 POP PUSH2 0x61F JUMP JUMPDEST DUP4 DUP2 GT ISZERO PUSH2 0x649 JUMPI PUSH1 0x0 DUP5 DUP5 ADD MSTORE JUMPDEST POP POP POP POP JUMP JUMPDEST PUSH2 0x658 DUP3 PUSH2 0x6C3 JUMP JUMPDEST DUP2 ADD DUP2 DUP2 LT PUSH8 0xFFFFFFFFFFFFFFFF DUP3 GT OR ISZERO PUSH2 0x677 JUMPI PUSH2 0x676 PUSH2 0x680 JUMP JUMPDEST JUMPDEST DUP1 PUSH1 0x40 MSTORE POP POP POP JUMP JUMPDEST PUSH32 0x4E487B7100000000000000000000000000000000000000000000000000000000 PUSH1 0x0 MSTORE PUSH1 0x41 PUSH1 0x4 MSTORE PUSH1 0x24 PUSH1 0x0 REVERT JUMPDEST PUSH1 0x0 DUP1 REVERT JUMPDEST PUSH1 0x0 DUP1 REVERT JUMPDEST PUSH1 0x0 DUP1 REVERT JUMPDEST PUSH1 0x0 DUP1 REVERT JUMPDEST PUSH1 0x0 PUSH1 0x1F NOT PUSH1 0x1F DUP4 ADD AND SWAP1 POP SWAP2 SWAP1 POP JUMP JUMPDEST PUSH2 0x6DD DUP2 PUSH2 0x5D7 JUMP JUMPDEST DUP2 EQ PUSH2 0x6E8 JUMPI PUSH1 0x0 DUP1 REVERT JUMPDEST POP JUMP JUMPDEST PUSH2 0x6F4 DUP2 PUSH2 0x603 JUMP JUMPDEST DUP2 EQ PUSH2 0x6FF JUMPI PUSH1 0x0 DUP1 REVERT JUMPDEST POP JUMP INVALID LOG2 PUSH5 0x6970667358 0x22 SLT KECCAK256 0xAB 0xC0 ADDRESS 0xB7 CHAINID 0xAE 0xD6 0xE9 PUSH17 0xA6B95DDDFDA688DD3672213DEC10517D19 0xDE PUSH10 0xC3A0C52064736F6C6343 STOP ADDMOD SMOD STOP CALLER "
		},
		"gasEstimates": {
			"creation": {
				"codeDepositCost": "369600",
				"executionCost": "infinite",
				"totalCost": "infinite"
			},
			"external": {
				"buy_ticket(uint256,string,string)": "infinite",
				"eventAddress()": "2558",
				"get_address()": "2500",
				"get_balance()": "2459"
			}
		},
		"methodIdentifiers": {
			"buy_ticket(uint256,string,string)": "3d48204e",
			"eventAddress()": "fad56779",
			"get_address()": "0131222f",
			"get_balance()": "c1cfb99a"
		}
	},
	"abi": [
		{
			"inputs": [
				{
					"internalType": "address",
					"name": "_eventAddress",
					"type": "address"
				}
			],
			"stateMutability": "nonpayable",
			"type": "constructor"
		},
		{
			"inputs": [
				{
					"internalType": "uint256",
					"name": "eventid",
					"type": "uint256"
				},
				{
					"internalType": "string",
					"name": "nome",
					"type": "string"
				},
				{
					"internalType": "string",
					"name": "cognome",
					"type": "string"
				}
			],
			"name": "buy_ticket",
			"outputs": [
				{
					"internalType": "string",
					"name": "",
					"type": "string"
				},
				{
					"internalType": "bool",
					"name": "",
					"type": "bool"
				}
			],
			"stateMutability": "nonpayable",
			"type": "function"
		},
		{
			"inputs": [],
			"name": "eventAddress",
			"outputs": [
				{
					"internalType": "address",
					"name": "",
					"type": "address"
				}
			],
			"stateMutability": "view",
			"type": "function"
		},
		{
			"inputs": [],
			"name": "get_address",
			"outputs": [
				{
					"internalType": "address",
					"name": "",
					"type": "address"
				}
			],
			"stateMutability": "view",
			"type": "function"
		},
		{
			"inputs": [],
			"name": "get_balance",
			"outputs": [
				{
					"internalType": "uint256",
					"name": "",
					"type": "uint256"
				}
			],
			"stateMutability": "view",
			"type": "function"
		}
	]
}