{
  "contractName": "Event",
  "abi": [
    {
      "anonymous": false,
      "inputs": [
        {
          "indexed": true,
          "internalType": "uint256",
          "name": "eventid",
          "type": "uint256"
        },
        {
          "indexed": true,
          "internalType": "address",
          "name": "creator",
          "type": "address"
        }
      ],
      "name": "EventCreated",
      "type": "event"
    },
    {
      "anonymous": false,
      "inputs": [
        {
          "indexed": true,
          "internalType": "uint256",
          "name": "eventid",
          "type": "uint256"
        },
        {
          "indexed": true,
          "internalType": "address",
          "name": "creator",
          "type": "address"
        }
      ],
      "name": "EventFinished",
      "type": "event"
    },
    {
      "anonymous": false,
      "inputs": [
        {
          "indexed": true,
          "internalType": "uint256",
          "name": "eventid",
          "type": "uint256"
        },
        {
          "indexed": true,
          "internalType": "address",
          "name": "creator",
          "type": "address"
        }
      ],
      "name": "EventOverrlue",
      "type": "event"
    },
    {
      "anonymous": false,
      "inputs": [
        {
          "indexed": true,
          "internalType": "uint256",
          "name": "eventid",
          "type": "uint256"
        },
        {
          "indexed": true,
          "internalType": "uint256",
          "name": "totalticket",
          "type": "uint256"
        },
        {
          "indexed": true,
          "internalType": "address",
          "name": "creator",
          "type": "address"
        }
      ],
      "name": "TicketsGenerated",
      "type": "event"
    },
    {
      "inputs": [
        {
          "internalType": "string",
          "name": "title",
          "type": "string"
        },
        {
          "internalType": "string",
          "name": "luogo",
          "type": "string"
        },
        {
          "internalType": "string",
          "name": "date",
          "type": "string"
        },
        {
          "internalType": "uint256",
          "name": "seats",
          "type": "uint256"
        },
        {
          "internalType": "uint256",
          "name": "price",
          "type": "uint256"
        },
        {
          "internalType": "address",
          "name": "res",
          "type": "address"
        }
      ],
      "name": "create_event",
      "outputs": [],
      "stateMutability": "nonpayable",
      "type": "function"
    },
    {
      "inputs": [
        {
          "internalType": "uint256",
          "name": "id",
          "type": "uint256"
        }
      ],
      "name": "overrlue_event",
      "outputs": [],
      "stateMutability": "nonpayable",
      "type": "function"
    },
    {
      "inputs": [
        {
          "internalType": "uint256",
          "name": "id",
          "type": "uint256"
        }
      ],
      "name": "finish_event",
      "outputs": [],
      "stateMutability": "nonpayable",
      "type": "function"
    },
    {
      "inputs": [],
      "name": "get_events",
      "outputs": [
        {
          "components": [
            {
              "internalType": "uint256",
              "name": "id",
              "type": "uint256"
            },
            {
              "internalType": "string",
              "name": "title",
              "type": "string"
            },
            {
              "internalType": "string",
              "name": "luogo",
              "type": "string"
            },
            {
              "internalType": "string",
              "name": "date",
              "type": "string"
            },
            {
              "internalType": "uint256",
              "name": "seats",
              "type": "uint256"
            },
            {
              "internalType": "uint256",
              "name": "remaining_tickets",
              "type": "uint256"
            },
            {
              "internalType": "uint256",
              "name": "price",
              "type": "uint256"
            },
            {
              "internalType": "string",
              "name": "state",
              "type": "string"
            },
            {
              "internalType": "address",
              "name": "owner",
              "type": "address"
            }
          ],
          "internalType": "struct Event.EventData[]",
          "name": "",
          "type": "tuple[]"
        }
      ],
      "stateMutability": "view",
      "type": "function",
      "constant": true
    },
    {
      "inputs": [
        {
          "internalType": "uint256",
          "name": "eventid",
          "type": "uint256"
        },
        {
          "internalType": "address payable",
          "name": "customer",
          "type": "address"
        },
        {
          "internalType": "string",
          "name": "name",
          "type": "string"
        },
        {
          "internalType": "string",
          "name": "surname",
          "type": "string"
        }
      ],
      "name": "buy_ticket",
      "outputs": [
        {
          "internalType": "string",
          "name": "",
          "type": "string"
        },
        {
          "internalType": "bool",
          "name": "",
          "type": "bool"
        }
      ],
      "stateMutability": "payable",
      "type": "function",
      "payable": true
    },
    {
      "inputs": [],
      "name": "get_tickets",
      "outputs": [
        {
          "components": [
            {
              "internalType": "string",
              "name": "name",
              "type": "string"
            },
            {
              "internalType": "string",
              "name": "surname",
              "type": "string"
            },
            {
              "internalType": "uint256",
              "name": "ticketid",
              "type": "uint256"
            },
            {
              "internalType": "uint256",
              "name": "eventid",
              "type": "uint256"
            },
            {
              "internalType": "bool",
              "name": "sell",
              "type": "bool"
            },
            {
              "internalType": "bool",
              "name": "validate",
              "type": "bool"
            }
          ],
          "internalType": "struct Event.TicketData[]",
          "name": "",
          "type": "tuple[]"
        }
      ],
      "stateMutability": "view",
      "type": "function",
      "constant": true
    },
    {
      "inputs": [
        {
          "internalType": "uint256",
          "name": "id",
          "type": "uint256"
        }
      ],
      "name": "get_event",
      "outputs": [
        {
          "components": [
            {
              "internalType": "uint256",
              "name": "id",
              "type": "uint256"
            },
            {
              "internalType": "string",
              "name": "title",
              "type": "string"
            },
            {
              "internalType": "string",
              "name": "luogo",
              "type": "string"
            },
            {
              "internalType": "string",
              "name": "date",
              "type": "string"
            },
            {
              "internalType": "uint256",
              "name": "seats",
              "type": "uint256"
            },
            {
              "internalType": "uint256",
              "name": "remaining_tickets",
              "type": "uint256"
            },
            {
              "internalType": "uint256",
              "name": "price",
              "type": "uint256"
            },
            {
              "internalType": "string",
              "name": "state",
              "type": "string"
            },
            {
              "internalType": "address",
              "name": "owner",
              "type": "address"
            }
          ],
          "internalType": "struct Event.EventData",
          "name": "evento",
          "type": "tuple"
        }
      ],
      "stateMutability": "view",
      "type": "function",
      "constant": true
    },
    {
      "inputs": [
        {
          "internalType": "address",
          "name": "r",
          "type": "address"
        }
      ],
      "name": "set_reseller",
      "outputs": [],
      "stateMutability": "nonpayable",
      "type": "function"
    },
    {
      "inputs": [
        {
          "internalType": "address",
          "name": "indir",
          "type": "address"
        }
      ],
      "name": "get_balance",
      "outputs": [
        {
          "internalType": "uint256",
          "name": "",
          "type": "uint256"
        }
      ],
      "stateMutability": "view",
      "type": "function",
      "constant": true
    }
  ],
  "bytecode": "0x6080604052336000806101000a81548173ffffffffffffffffffffffffffffffffffffffff021916908373ffffffffffffffffffffffffffffffffffffffff160217905550735b38da6a701c568545dcfcb03fcb875f56beddc4600160006101000a81548173ffffffffffffffffffffffffffffffffffffffff021916908373ffffffffffffffffffffffffffffffffffffffff16021790555060008054906101000a900473ffffffffffffffffffffffffffffffffffffffff1673ffffffffffffffffffffffffffffffffffffffff16316003553480156100e057600080fd5b50612a23806100f06000396000f3fe6080604052600436106100865760003560e01c806347a828b31161005957806347a828b31461014b5780635b3929cb146101885780638c59a085146101b3578063957bdf60146101dc578063c91e2dcf1461020757610086565b80630c2517bf1461008b5780631e279a37146100bc57806330449c80146100f957806338ae8be414610122575b600080fd5b6100a560048036038101906100a09190611e01565b610230565b6040516100b3929190611f43565b60405180910390f35b3480156100c857600080fd5b506100e360048036038101906100de9190611fb1565b610485565b6040516100f09190611fed565b60405180910390f35b34801561010557600080fd5b50610120600480360381019061011b9190611fb1565b610535565b005b34801561012e57600080fd5b5061014960048036038101906101449190612008565b610607565b005b34801561015757600080fd5b50610172600480360381019061016d9190612008565b61076b565b60405161017f9190612177565b60405180910390f35b34801561019457600080fd5b5061019d610b11565b6040516101aa9190612335565b60405180910390f35b3480156101bf57600080fd5b506101da60048036038101906101d59190612008565b610e37565b005b3480156101e857600080fd5b506101f1610f9b565b6040516101fe91906124b8565b60405180910390f35b34801561021357600080fd5b5061022e600480360381019061022991906124da565b6111f6565b005b606060008061023e8761076b565b905060008160a0015114156102735760006040518060600160405280602781526020016129c76027913990925092505061047c565b60405160200161028290612612565b604051602081830303815290604052805190602001208160e001516040516020016102ad9190612658565b60405160208183030381529060405280519060200120148061031c57506040516020016102d9906126bb565b604051602081830303815290604052805190602001208160e001516040516020016103049190612658565b60405160208183030381529060405280519060200120145b156103645760006040518060400160405280602081526020017f4c276576656e746f20652720636f6e636c75736f206f20616e6e756c6c61746f81525090925092505061047c565b8060c0015161037287610485565b10156103bb5760006040518060400160405280601481526020017f466f6e6469206e6f6e20737566666963656e746900000000000000000000000081525090925092505061047c565b8573ffffffffffffffffffffffffffffffffffffffff166108fc8260c001519081150290604051600060405180830381858888f19350505050158015610405573d6000803e3d6000fd5b506000610411886114fb565b9050610420816040015161174b565b5085816000018190525084816020018190525061043c88611833565b60016040518060400160405280601481526020017f4269676c696574746f206163717569737461746f000000000000000000000000815250909350935050505b94509492505050565b60008060009054906101000a900473ffffffffffffffffffffffffffffffffffffffff1673ffffffffffffffffffffffffffffffffffffffff163373ffffffffffffffffffffffffffffffffffffffff1614610516576040517f08c379a000000000000000000000000000000000000000000000000000000000815260040161050d90612742565b60405180910390fd5b8173ffffffffffffffffffffffffffffffffffffffff16319050919050565b60008054906101000a900473ffffffffffffffffffffffffffffffffffffffff1673ffffffffffffffffffffffffffffffffffffffff163373ffffffffffffffffffffffffffffffffffffffff16146105c3576040517f08c379a00000000000000000000000000000000000000000000000000000000081526004016105ba90612742565b60405180910390fd5b80600160006101000a81548173ffffffffffffffffffffffffffffffffffffffff021916908373ffffffffffffffffffffffffffffffffffffffff16021790555050565b60008054906101000a900473ffffffffffffffffffffffffffffffffffffffff1673ffffffffffffffffffffffffffffffffffffffff163373ffffffffffffffffffffffffffffffffffffffff1614610695576040517f08c379a000000000000000000000000000000000000000000000000000000000815260040161068c90612742565b60405180910390fd5b6040518060400160405280600881526020017f436f6e636c75736f000000000000000000000000000000000000000000000000815250600482815481106106df576106de612762565b5b90600052602060002090600902016007019080519060200190610703929190611ad4565b5060008054906101000a900473ffffffffffffffffffffffffffffffffffffffff1673ffffffffffffffffffffffffffffffffffffffff16817fb15d3899a0a77e20f0c368865d76be846e277b8cac84cddf244f45748709720a60405160405180910390a350565b610773611b5a565b61077b611871565b82106107bc576040517f08c379a00000000000000000000000000000000000000000000000000000000081526004016107b3906127dd565b60405180910390fd5b60005b6107c7611871565b811015610b0a5782600482815481106107e3576107e2612762565b5b9060005260206000209060090201600001541415610af7576004818154811061080f5761080e612762565b5b906000526020600020906009020160405180610120016040529081600082015481526020016001820180546108439061282c565b80601f016020809104026020016040519081016040528092919081815260200182805461086f9061282c565b80156108bc5780601f10610891576101008083540402835291602001916108bc565b820191906000526020600020905b81548152906001019060200180831161089f57829003601f168201915b505050505081526020016002820180546108d59061282c565b80601f01602080910402602001604051908101604052809291908181526020018280546109019061282c565b801561094e5780601f106109235761010080835404028352916020019161094e565b820191906000526020600020905b81548152906001019060200180831161093157829003601f168201915b505050505081526020016003820180546109679061282c565b80601f01602080910402602001604051908101604052809291908181526020018280546109939061282c565b80156109e05780601f106109b5576101008083540402835291602001916109e0565b820191906000526020600020905b8154815290600101906020018083116109c357829003601f168201915b50505050508152602001600482015481526020016005820154815260200160068201548152602001600782018054610a179061282c565b80601f0160208091040260200160405190810160405280929190818152602001828054610a439061282c565b8015610a905780601f10610a6557610100808354040283529160200191610a90565b820191906000526020600020905b815481529060010190602001808311610a7357829003601f168201915b505050505081526020016008820160009054906101000a900473ffffffffffffffffffffffffffffffffffffffff1673ffffffffffffffffffffffffffffffffffffffff1673ffffffffffffffffffffffffffffffffffffffff1681525050915050610b0c565b8080610b029061288d565b9150506107bf565b505b919050565b60606004805480602002602001604051908101604052809291908181526020016000905b82821015610e2e57838290600052602060002090600902016040518061012001604052908160008201548152602001600182018054610b739061282c565b80601f0160208091040260200160405190810160405280929190818152602001828054610b9f9061282c565b8015610bec5780601f10610bc157610100808354040283529160200191610bec565b820191906000526020600020905b815481529060010190602001808311610bcf57829003601f168201915b50505050508152602001600282018054610c059061282c565b80601f0160208091040260200160405190810160405280929190818152602001828054610c319061282c565b8015610c7e5780601f10610c5357610100808354040283529160200191610c7e565b820191906000526020600020905b815481529060010190602001808311610c6157829003601f168201915b50505050508152602001600382018054610c979061282c565b80601f0160208091040260200160405190810160405280929190818152602001828054610cc39061282c565b8015610d105780601f10610ce557610100808354040283529160200191610d10565b820191906000526020600020905b815481529060010190602001808311610cf357829003601f168201915b50505050508152602001600482015481526020016005820154815260200160068201548152602001600782018054610d479061282c565b80601f0160208091040260200160405190810160405280929190818152602001828054610d739061282c565b8015610dc05780601f10610d9557610100808354040283529160200191610dc0565b820191906000526020600020905b815481529060010190602001808311610da357829003601f168201915b505050505081526020016008820160009054906101000a900473ffffffffffffffffffffffffffffffffffffffff1673ffffffffffffffffffffffffffffffffffffffff1673ffffffffffffffffffffffffffffffffffffffff168152505081526020019060010190610b35565b50505050905090565b60008054906101000a900473ffffffffffffffffffffffffffffffffffffffff1673ffffffffffffffffffffffffffffffffffffffff163373ffffffffffffffffffffffffffffffffffffffff1614610ec5576040517f08c379a0000000000000000000000000000000000000000000000000000000008152600401610ebc90612742565b60405180910390fd5b6040518060400160405280600981526020017f416e6e756c6c61746f000000000000000000000000000000000000000000000081525060048281548110610f0f57610f0e612762565b5b90600052602060002090600902016007019080519060200190610f33929190611ad4565b5060008054906101000a900473ffffffffffffffffffffffffffffffffffffffff1673ffffffffffffffffffffffffffffffffffffffff16817f9ab588958c126cb0274213719f45aca396603352447383188a81e29c1269029a60405160405180910390a350565b606060008054906101000a900473ffffffffffffffffffffffffffffffffffffffff1673ffffffffffffffffffffffffffffffffffffffff163373ffffffffffffffffffffffffffffffffffffffff161461102b576040517f08c379a000000000000000000000000000000000000000000000000000000000815260040161102290612742565b60405180910390fd5b6005805480602002602001604051908101604052809291908181526020016000905b828210156111ed57838290600052602060002090600502016040518060c00160405290816000820180546110809061282c565b80601f01602080910402602001604051908101604052809291908181526020018280546110ac9061282c565b80156110f95780601f106110ce576101008083540402835291602001916110f9565b820191906000526020600020905b8154815290600101906020018083116110dc57829003601f168201915b505050505081526020016001820180546111129061282c565b80601f016020809104026020016040519081016040528092919081815260200182805461113e9061282c565b801561118b5780601f106111605761010080835404028352916020019161118b565b820191906000526020600020905b81548152906001019060200180831161116e57829003601f168201915b5050505050815260200160028201548152602001600382015481526020016004820160009054906101000a900460ff161515151581526020016004820160019054906101000a900460ff1615151515815250508152602001906001019061104d565b50505050905090565b60008054906101000a900473ffffffffffffffffffffffffffffffffffffffff1673ffffffffffffffffffffffffffffffffffffffff163373ffffffffffffffffffffffffffffffffffffffff1614611284576040517f08c379a000000000000000000000000000000000000000000000000000000000815260040161127b90612742565b60405180910390fd5b6004604051806101200160405280600081526020018881526020018781526020018681526020018581526020018581526020018481526020016040518060400160405280600c81526020017f4e6f6e20636f6e636c75736f0000000000000000000000000000000000000000815250815260200160008054906101000a900473ffffffffffffffffffffffffffffffffffffffff1673ffffffffffffffffffffffffffffffffffffffff168152509080600181540180825580915050600190039060005260206000209060090201600090919091909150600082015181600001556020820151816001019080519060200190611381929190611ad4565b50604082015181600201908051906020019061139e929190611ad4565b5060608201518160030190805190602001906113bb929190611ad4565b506080820151816004015560a0820151816005015560c0820151816006015560e08201518160070190805190602001906113f6929190611ad4565b506101008201518160080160006101000a81548173ffffffffffffffffffffffffffffffffffffffff021916908373ffffffffffffffffffffffffffffffffffffffff16021790555050506000600161144d611871565b61145791906128d6565b9050806004828154811061146e5761146d612762565b5b90600052602060002090600902016000018190555060008054906101000a900473ffffffffffffffffffffffffffffffffffffffff1673ffffffffffffffffffffffffffffffffffffffff16817fe43349c008949cf6b65249356e6f918d4aaa0ca79f2b1166df4a4a98c9c16de260405160405180910390a36114f281858461187e565b50505050505050565b611503611bbc565b61150b611bbc565b60005b611516611ac7565b81101561174157836005828154811061153257611531612762565b5b9060005260206000209060050201600301541480156115875750600015156005828154811061156457611563612762565b5b906000526020600020906005020160040160009054906101000a900460ff161515145b1561172e57600581815481106115a05761159f612762565b5b90600052602060002090600502016040518060c00160405290816000820180546115c99061282c565b80601f01602080910402602001604051908101604052809291908181526020018280546115f59061282c565b80156116425780601f1061161757610100808354040283529160200191611642565b820191906000526020600020905b81548152906001019060200180831161162557829003601f168201915b5050505050815260200160018201805461165b9061282c565b80601f01602080910402602001604051908101604052809291908181526020018280546116879061282c565b80156116d45780601f106116a9576101008083540402835291602001916116d4565b820191906000526020600020905b8154815290600101906020018083116116b757829003601f168201915b5050505050815260200160028201548152602001600382015481526020016004820160009054906101000a900460ff161515151581526020016004820160019054906101000a900460ff1615151515815250509150611741565b80806117399061288d565b91505061150e565b5080915050919050565b6000806000905060005b61175d611ac7565b81101561182957836005828154811061177957611778612762565b5b9060005260206000209060050201600201541480156117ce575060001515600582815481106117ab576117aa612762565b5b906000526020600020906005020160040160009054906101000a900460ff161515145b15611816576001600582815481106117e9576117e8612762565b5b906000526020600020906005020160040160006101000a81548160ff021916908315150217905550600191505b80806118219061288d565b915050611755565b5080915050919050565b6004818154811061184757611846612762565b5b906000526020600020906009020160050160008154809291906118699061290a565b919050555050565b6000600480549050905090565b80600160009054906101000a900473ffffffffffffffffffffffffffffffffffffffff1673ffffffffffffffffffffffffffffffffffffffff168173ffffffffffffffffffffffffffffffffffffffff161461190f576040517f08c379a0000000000000000000000000000000000000000000000000000000008152600401611906906129a6565b60405180910390fd5b60005b83811015611a7b5760056040518060c001604052806040518060200160405280600081525081526020016040518060200160405280600081525081526020016000815260200187815260200160001515815260200160001515815250908060018154018082558091505060019003906000526020600020906005020160009091909190915060008201518160000190805190602001906119b3929190611ad4565b5060208201518160010190805190602001906119d0929190611ad4565b50604082015181600201556060820151816003015560808201518160040160006101000a81548160ff02191690831515021790555060a08201518160040160016101000a81548160ff021916908315150217905550505060006001600580549050611a3b91906128d6565b90508060058381548110611a5257611a51612762565b5b906000526020600020906005020160020181905550508080611a739061288d565b915050611912565b508173ffffffffffffffffffffffffffffffffffffffff1683857f6567ab497f12a760d234e0684de86536dce884c904386957d5877e165bfb32fa60405160405180910390a450505050565b6000600580549050905090565b828054611ae09061282c565b90600052602060002090601f016020900481019282611b025760008555611b49565b82601f10611b1b57805160ff1916838001178555611b49565b82800160010185558215611b49579182015b82811115611b48578251825591602001919060010190611b2d565b5b509050611b569190611bf6565b5090565b6040518061012001604052806000815260200160608152602001606081526020016060815260200160008152602001600081526020016000815260200160608152602001600073ffffffffffffffffffffffffffffffffffffffff1681525090565b6040518060c00160405280606081526020016060815260200160008152602001600081526020016000151581526020016000151581525090565b5b80821115611c0f576000816000905550600101611bf7565b5090565b6000604051905090565b600080fd5b600080fd5b6000819050919050565b611c3a81611c27565b8114611c4557600080fd5b50565b600081359050611c5781611c31565b92915050565b600073ffffffffffffffffffffffffffffffffffffffff82169050919050565b6000611c8882611c5d565b9050919050565b611c9881611c7d565b8114611ca357600080fd5b50565b600081359050611cb581611c8f565b92915050565b600080fd5b600080fd5b6000601f19601f8301169050919050565b7f4e487b7100000000000000000000000000000000000000000000000000000000600052604160045260246000fd5b611d0e82611cc5565b810181811067ffffffffffffffff82111715611d2d57611d2c611cd6565b5b80604052505050565b6000611d40611c13565b9050611d4c8282611d05565b919050565b600067ffffffffffffffff821115611d6c57611d6b611cd6565b5b611d7582611cc5565b9050602081019050919050565b82818337600083830152505050565b6000611da4611d9f84611d51565b611d36565b905082815260208101848484011115611dc057611dbf611cc0565b5b611dcb848285611d82565b509392505050565b600082601f830112611de857611de7611cbb565b5b8135611df8848260208601611d91565b91505092915050565b60008060008060808587031215611e1b57611e1a611c1d565b5b6000611e2987828801611c48565b9450506020611e3a87828801611ca6565b935050604085013567ffffffffffffffff811115611e5b57611e5a611c22565b5b611e6787828801611dd3565b925050606085013567ffffffffffffffff811115611e8857611e87611c22565b5b611e9487828801611dd3565b91505092959194509250565b600081519050919050565b600082825260208201905092915050565b60005b83811015611eda578082015181840152602081019050611ebf565b83811115611ee9576000848401525b50505050565b6000611efa82611ea0565b611f048185611eab565b9350611f14818560208601611ebc565b611f1d81611cc5565b840191505092915050565b60008115159050919050565b611f3d81611f28565b82525050565b60006040820190508181036000830152611f5d8185611eef565b9050611f6c6020830184611f34565b9392505050565b6000611f7e82611c5d565b9050919050565b611f8e81611f73565b8114611f9957600080fd5b50565b600081359050611fab81611f85565b92915050565b600060208284031215611fc757611fc6611c1d565b5b6000611fd584828501611f9c565b91505092915050565b611fe781611c27565b82525050565b60006020820190506120026000830184611fde565b92915050565b60006020828403121561201e5761201d611c1d565b5b600061202c84828501611c48565b91505092915050565b61203e81611c27565b82525050565b600082825260208201905092915050565b600061206082611ea0565b61206a8185612044565b935061207a818560208601611ebc565b61208381611cc5565b840191505092915050565b61209781611f73565b82525050565b6000610120830160008301516120b66000860182612035565b50602083015184820360208601526120ce8282612055565b915050604083015184820360408601526120e88282612055565b915050606083015184820360608601526121028282612055565b91505060808301516121176080860182612035565b5060a083015161212a60a0860182612035565b5060c083015161213d60c0860182612035565b5060e083015184820360e08601526121558282612055565b91505061010083015161216c61010086018261208e565b508091505092915050565b60006020820190508181036000830152612191818461209d565b905092915050565b600081519050919050565b600082825260208201905092915050565b6000819050602082019050919050565b6000610120830160008301516121de6000860182612035565b50602083015184820360208601526121f68282612055565b915050604083015184820360408601526122108282612055565b9150506060830151848203606086015261222a8282612055565b915050608083015161223f6080860182612035565b5060a083015161225260a0860182612035565b5060c083015161226560c0860182612035565b5060e083015184820360e086015261227d8282612055565b91505061010083015161229461010086018261208e565b508091505092915050565b60006122ab83836121c5565b905092915050565b6000602082019050919050565b60006122cb82612199565b6122d581856121a4565b9350836020820285016122e7856121b5565b8060005b858110156123235784840389528151612304858261229f565b945061230f836122b3565b925060208a019950506001810190506122eb565b50829750879550505050505092915050565b6000602082019050818103600083015261234f81846122c0565b905092915050565b600081519050919050565b600082825260208201905092915050565b6000819050602082019050919050565b61238c81611f28565b82525050565b600060c08301600083015184820360008601526123af8282612055565b915050602083015184820360208601526123c98282612055565b91505060408301516123de6040860182612035565b5060608301516123f16060860182612035565b5060808301516124046080860182612383565b5060a083015161241760a0860182612383565b508091505092915050565b600061242e8383612392565b905092915050565b6000602082019050919050565b600061244e82612357565b6124588185612362565b93508360208202850161246a85612373565b8060005b858110156124a657848403895281516124878582612422565b945061249283612436565b925060208a0199505060018101905061246e565b50829750879550505050505092915050565b600060208201905081810360008301526124d28184612443565b905092915050565b60008060008060008060c087890312156124f7576124f6611c1d565b5b600087013567ffffffffffffffff81111561251557612514611c22565b5b61252189828a01611dd3565b965050602087013567ffffffffffffffff81111561254257612541611c22565b5b61254e89828a01611dd3565b955050604087013567ffffffffffffffff81111561256f5761256e611c22565b5b61257b89828a01611dd3565b945050606061258c89828a01611c48565b935050608061259d89828a01611c48565b92505060a06125ae89828a01611f9c565b9150509295509295509295565b600081905092915050565b7f436f6e636c75736f000000000000000000000000000000000000000000000000600082015250565b60006125fc6008836125bb565b9150612607826125c6565b600882019050919050565b600061261d826125ef565b9150819050919050565b600061263282611ea0565b61263c81856125bb565b935061264c818560208601611ebc565b80840191505092915050565b60006126648284612627565b915081905092915050565b7f416e6e756c6c61746f0000000000000000000000000000000000000000000000600082015250565b60006126a56009836125bb565b91506126b08261266f565b600982019050919050565b60006126c682612698565b9150819050919050565b7f4e6f6e20736569206175746f72697a7a61746f2061642065736567756972652060008201527f71756573746120617a696f6e6500000000000000000000000000000000000000602082015250565b600061272c602d83611eab565b9150612737826126d0565b604082019050919050565b6000602082019050818103600083015261275b8161271f565b9050919050565b7f4e487b7100000000000000000000000000000000000000000000000000000000600052603260045260246000fd5b7f4c276576656e746f206e6f6e2065736973746500000000000000000000000000600082015250565b60006127c7601383611eab565b91506127d282612791565b602082019050919050565b600060208201905081810360008301526127f6816127ba565b9050919050565b7f4e487b7100000000000000000000000000000000000000000000000000000000600052602260045260246000fd5b6000600282049050600182168061284457607f821691505b60208210811415612858576128576127fd565b5b50919050565b7f4e487b7100000000000000000000000000000000000000000000000000000000600052601160045260246000fd5b600061289882611c27565b91507fffffffffffffffffffffffffffffffffffffffffffffffffffffffffffffffff8214156128cb576128ca61285e565b5b600182019050919050565b60006128e182611c27565b91506128ec83611c27565b9250828210156128ff576128fe61285e565b5b828203905092915050565b600061291582611c27565b915060008214156129295761292861285e565b5b600182039050919050565b7f496c20726573656c6c657220737065636966696361746f20652720657272617460008201527f6f00000000000000000000000000000000000000000000000000000000000000602082015250565b6000612990602183611eab565b915061299b82612934565b604082019050919050565b600060208201905081810360008301526129bf81612983565b905091905056fe4e6f6e20636920736f6e6f2070697527206269676c69657474692064697370706f6e6962696c69a2646970667358221220111e32c2e3a0d5fcedbd2d9b40878d4d885b0a3002a181b38577d3ac84cf751464736f6c63430008090033",
  "immutableReferences": {},
  "source": "// SPDX-License-Identifier: GPL-3.0\r\npragma solidity >=0.7.0 <0.9.0;\r\n\r\n\r\n\r\ncontract Event {\r\n    \r\n    address private owner=msg.sender;\r\n    \r\n    address private reseller=0x5B38Da6a701c568545dCfcB03FcB875f56beddC4;\r\n    \r\n    address private payment_system;\r\n    \r\n    uint256 private balance= owner.balance;\r\n    \r\n    \r\n    struct EventData{ //event data structure\r\n    \r\n        uint id;\r\n    \r\n        string title;\r\n        \r\n        string luogo;\r\n        \r\n        string date;\r\n        \r\n        uint seats;\r\n        \r\n        uint remaining_tickets;\r\n        \r\n        uint256 price;\r\n        \r\n        string state;\r\n        \r\n        address owner;\r\n    } \r\n    \r\n    \r\n    \r\n    struct TicketData{ //ticket data structure\r\n        \r\n        string name;\r\n        \r\n        string surname;\r\n        \r\n        uint ticketid;\r\n        \r\n        uint eventid;\r\n        \r\n        bool sell;\r\n        \r\n        bool validate;\r\n    }\r\n    \r\n    \r\n    \r\n    EventData[] private events; //all events\r\n    TicketData[] private tickets; //all tickets\r\n    \r\n    modifier only_owner() {\r\n        require(msg.sender == owner, \"Non sei autorizzato ad eseguire questa azione\");\r\n        _;\r\n    }\r\n    \r\n    modifier only_reseller(address res) {\r\n        require(res == reseller, \"Il reseller specificato e' errato\");\r\n        _;\r\n    }\r\n    \r\n    modifier only_payment(address pay) {\r\n        require(pay == payment_system, \"Non sei autorizzato ad eseguire questa azione\");\r\n        _;\r\n    }\r\n\r\n    \r\n    event EventCreated(uint indexed eventid, address indexed creator);\r\n    event EventOverrlue(uint indexed eventid, address indexed creator);\r\n    event EventFinished(uint indexed eventid, address indexed creator);\r\n    event TicketsGenerated(uint indexed eventid, uint indexed totalticket, address indexed creator);\r\n    \r\n    \r\n    function  create_event(string memory title, string memory  luogo, string memory  date, uint seats, uint256 price, address res) public only_owner {\r\n        {\r\n            events.push(EventData(0, title, luogo,  date, seats, seats, price, \"Non concluso\" , owner));\r\n            uint id=get_event_length() - 1;\r\n            events[id].id=id;\r\n            emit EventCreated(id, owner);\r\n            generate_tickets(id, seats, res);\r\n        }\r\n    }\r\n    \r\n    function overrlue_event(uint id) public only_owner {\r\n            events[id].state=\"Annullato\";\r\n            emit EventOverrlue(id, owner);\r\n    }\r\n    \r\n    function finish_event(uint id) public only_owner {\r\n        events[id].state=\"Concluso\";\r\n        emit EventFinished(id, owner);\r\n    }\r\n    \r\n     function get_events() public view returns (EventData[] memory){\r\n         return events;\r\n     } \r\n\r\n\r\n    \r\n    function generate_tickets(uint eventid, uint totalticket , address res) internal only_reseller(res) {\r\n        for(uint i=0; i < totalticket; i++){\r\n            tickets.push(TicketData(\"\", \"\", 0, eventid, false, false));\r\n            uint ticketid=tickets.length - 1;\r\n            tickets[i].ticketid=ticketid;\r\n        }\r\n        emit TicketsGenerated(eventid, totalticket , res);\r\n    }\r\n    \r\n    function get_event_ticket(uint eventid) internal view returns (TicketData memory){\r\n        TicketData memory biglietto;\r\n        for(uint i=0; i < get_ticket_lenght(); i++){ \r\n            if(tickets[i].eventid==eventid && tickets[i].sell==false){\r\n                biglietto=tickets[i];\r\n                break;\r\n            }\r\n        }\r\n        return biglietto;\r\n    }\r\n    \r\n    function set_ticket_sold(uint ticketid) internal returns(bool){\r\n        bool flag=false;\r\n        for(uint i=0; i < get_ticket_lenght(); i++){\r\n            if(tickets[i].ticketid==ticketid && tickets[i].sell==false){\r\n                tickets[i].sell=true;\r\n                flag=true;\r\n            }\r\n            \r\n        }\r\n        return flag;\r\n        \r\n    }\r\n    \r\n    \r\n    function buy_ticket(uint eventid, address payable customer, string memory name, string memory surname) external payable returns(string memory, bool){\r\n        EventData memory evento= get_event(eventid);\r\n        if(evento.remaining_tickets == 0)\r\n            return (\"Non ci sono piu' biglietti dispponibili\", false);\r\n        else if(keccak256(abi.encodePacked(evento.state))==keccak256(abi.encodePacked(\"Concluso\")) || keccak256(abi.encodePacked(evento.state))==keccak256(abi.encodePacked(\"Annullato\")) )\r\n            return (\"L'evento e' concluso o annullato\", false);\r\n        if(get_balance(customer) < evento.price)\r\n            return (\"Fondi non sufficenti\", false);\r\n        else{\r\n            customer.transfer(evento.price);\r\n            TicketData memory biglietto=get_event_ticket(eventid);\r\n            set_ticket_sold(biglietto.ticketid);\r\n            biglietto.name = name;\r\n            biglietto.surname= surname;\r\n            reduce_remaining_tickets(eventid);\r\n            return (\"Biglietto acquistato\", true);\r\n        }\r\n    }\r\n    \r\n    function reduce_remaining_tickets(uint eventid) internal{\r\n        events[eventid].remaining_tickets --;\r\n    }\r\n    /*function set_event_sold(uint ticketid) internal returns (bool){\r\n        bool flag=false;\r\n        for(uint i=0; i < get_ticket_lenght(); i++){\r\n            if(tickets[i].ticketid==ticketid){\r\n                tickets[i].sell=true;\r\n                flag=true;\r\n            }\r\n        }\r\n        return flag;\r\n    } */\r\n    \r\n    \r\n    function get_tickets() public only_owner view returns(TicketData[] memory){\r\n        return tickets;\r\n    }\r\n    \r\n    /*function delete_event_list(uint id) public only_owner {\r\n        bool deletable=false;\r\n        string memory an=\"Annullato\";\r\n        string memory cn=\"Concluso\";\r\n        for(uint i=0; i < get_event_length(); i++){\r\n            if(keccak256(abi.encodePacked(events[i]))==keccak256(abi.encodePacked(an)))\r\n                deletable=true;\r\n        }\r\n        \r\n        if(deletable)\r\n            delete events;\r\n    } */\r\n  \r\n     \r\n     function get_event(uint id) public view returns(EventData memory evento){\r\n         require(id < get_event_length(), \"L'evento non esiste\");\r\n         for(uint i=0; i < get_event_length(); i++){\r\n             if(events[i].id==id)\r\n                return events[i];\r\n         }\r\n     }\r\n     \r\n     function get_event_length() internal view returns (uint){\r\n         return events.length;\r\n     }\r\n     \r\n     function get_ticket_lenght() internal view returns (uint){\r\n         return tickets.length;\r\n     }\r\n     \r\n     function set_reseller(address r) only_owner public{\r\n         reseller=r;\r\n     }\r\n     \r\n     function get_balance(address indir) public only_owner view returns (uint256) {\r\n        return indir.balance;\r\n    }\r\n\r\n    \r\n}  ",
  "sourcePath": "C:\\Users\\Utente\\Desktop\\Universita\\Laurea Magistrale\\Software Cybersecurity\\Progetto\\Repository\\Software-Cybersecurity-Project\\contracts\\Event.sol",
  "compiler": {
    "name": "solc",
    "version": "0.8.9+commit.e5eed63a.Emscripten.clang"
  },
  "schemaVersion": "3.4.3",
  "updatedAt": "2021-10-19T13:56:33.007Z",
  "networkType": "ethereum",
  "devdoc": {
    "kind": "dev",
    "methods": {},
    "version": 1
  },
  "userdoc": {
    "kind": "user",
    "methods": {},
    "version": 1
  }
}