{
  "contractName": "Event",
  "abi": [
    {
      "anonymous": false,
      "inputs": [
        {
          "indexed": true,
          "internalType": "uint256",
          "name": "eventid",
          "type": "uint256"
        },
        {
          "indexed": true,
          "internalType": "address",
          "name": "creator",
          "type": "address"
        }
      ],
      "name": "EventCreated",
      "type": "event"
    },
    {
      "anonymous": false,
      "inputs": [
        {
          "indexed": true,
          "internalType": "uint256",
          "name": "eventid",
          "type": "uint256"
        },
        {
          "indexed": true,
          "internalType": "address",
          "name": "creator",
          "type": "address"
        }
      ],
      "name": "EventFinished",
      "type": "event"
    },
    {
      "anonymous": false,
      "inputs": [
        {
          "indexed": true,
          "internalType": "uint256",
          "name": "eventid",
          "type": "uint256"
        },
        {
          "indexed": true,
          "internalType": "address",
          "name": "creator",
          "type": "address"
        }
      ],
      "name": "EventOverrlue",
      "type": "event"
    },
    {
      "anonymous": false,
      "inputs": [
        {
          "indexed": true,
          "internalType": "uint256",
          "name": "eventid",
          "type": "uint256"
        },
        {
          "indexed": false,
          "internalType": "uint256",
          "name": "ticketid",
          "type": "uint256"
        },
        {
          "indexed": true,
          "internalType": "address",
          "name": "customer",
          "type": "address"
        }
      ],
      "name": "TicketSold",
      "type": "event"
    },
    {
      "anonymous": false,
      "inputs": [
        {
          "indexed": true,
          "internalType": "uint256",
          "name": "eventid",
          "type": "uint256"
        },
        {
          "indexed": true,
          "internalType": "uint256",
          "name": "totalticket",
          "type": "uint256"
        },
        {
          "indexed": true,
          "internalType": "address",
          "name": "creator",
          "type": "address"
        }
      ],
      "name": "TicketsGenerated",
      "type": "event"
    },
    {
      "inputs": [],
      "name": "reseller",
      "outputs": [
        {
          "internalType": "address",
          "name": "",
          "type": "address"
        }
      ],
      "stateMutability": "view",
      "type": "function"
    },
    {
      "inputs": [
        {
          "internalType": "string",
          "name": "title",
          "type": "string"
        },
        {
          "internalType": "string",
          "name": "luogo",
          "type": "string"
        },
        {
          "internalType": "string",
          "name": "date",
          "type": "string"
        },
        {
          "internalType": "uint256",
          "name": "seats",
          "type": "uint256"
        },
        {
          "internalType": "uint256",
          "name": "price",
          "type": "uint256"
        },
        {
          "internalType": "address",
          "name": "res",
          "type": "address"
        },
        {
          "internalType": "address",
          "name": "val",
          "type": "address"
        }
      ],
      "name": "create_event",
      "outputs": [
        {
          "internalType": "uint256",
          "name": "",
          "type": "uint256"
        }
      ],
      "stateMutability": "nonpayable",
      "type": "function"
    },
    {
      "inputs": [
        {
          "internalType": "uint256",
          "name": "id",
          "type": "uint256"
        }
      ],
      "name": "overrlue_event",
      "outputs": [],
      "stateMutability": "nonpayable",
      "type": "function"
    },
    {
      "inputs": [
        {
          "internalType": "uint256",
          "name": "id",
          "type": "uint256"
        }
      ],
      "name": "finish_event",
      "outputs": [],
      "stateMutability": "nonpayable",
      "type": "function"
    },
    {
      "inputs": [],
      "name": "get_events",
      "outputs": [
        {
          "components": [
            {
              "internalType": "uint256",
              "name": "id",
              "type": "uint256"
            },
            {
              "internalType": "string",
              "name": "title",
              "type": "string"
            },
            {
              "internalType": "string",
              "name": "luogo",
              "type": "string"
            },
            {
              "internalType": "string",
              "name": "date",
              "type": "string"
            },
            {
              "internalType": "uint256",
              "name": "seats",
              "type": "uint256"
            },
            {
              "internalType": "uint256",
              "name": "remaining_tickets",
              "type": "uint256"
            },
            {
              "internalType": "uint256",
              "name": "price",
              "type": "uint256"
            },
            {
              "internalType": "string",
              "name": "state",
              "type": "string"
            },
            {
              "internalType": "address",
              "name": "owner",
              "type": "address"
            }
          ],
          "internalType": "struct Event.EventData[]",
          "name": "",
          "type": "tuple[]"
        }
      ],
      "stateMutability": "view",
      "type": "function"
    },
    {
      "inputs": [
        {
          "internalType": "uint256",
          "name": "eventid",
          "type": "uint256"
        }
      ],
      "name": "check_ticket",
      "outputs": [
        {
          "internalType": "bool",
          "name": "",
          "type": "bool"
        }
      ],
      "stateMutability": "view",
      "type": "function"
    },
    {
      "inputs": [
        {
          "internalType": "address",
          "name": "customer",
          "type": "address"
        },
        {
          "internalType": "uint256",
          "name": "eventid",
          "type": "uint256"
        },
        {
          "internalType": "string",
          "name": "name",
          "type": "string"
        },
        {
          "internalType": "string",
          "name": "surname",
          "type": "string"
        }
      ],
      "name": "buy_ticket",
      "outputs": [
        {
          "internalType": "string",
          "name": "",
          "type": "string"
        },
        {
          "internalType": "bool",
          "name": "",
          "type": "bool"
        },
        {
          "internalType": "address",
          "name": "",
          "type": "address"
        }
      ],
      "stateMutability": "nonpayable",
      "type": "function"
    },
    {
      "inputs": [
        {
          "internalType": "uint256",
          "name": "ticketid",
          "type": "uint256"
        },
        {
          "internalType": "address",
          "name": "val",
          "type": "address"
        }
      ],
      "name": "validate_ticket",
      "outputs": [
        {
          "internalType": "string",
          "name": "",
          "type": "string"
        },
        {
          "internalType": "address",
          "name": "",
          "type": "address"
        }
      ],
      "stateMutability": "nonpayable",
      "type": "function"
    },
    {
      "inputs": [],
      "name": "get_tickets",
      "outputs": [
        {
          "components": [
            {
              "internalType": "string",
              "name": "name",
              "type": "string"
            },
            {
              "internalType": "string",
              "name": "surname",
              "type": "string"
            },
            {
              "internalType": "uint256",
              "name": "ticketid",
              "type": "uint256"
            },
            {
              "internalType": "uint256",
              "name": "eventid",
              "type": "uint256"
            },
            {
              "internalType": "bool",
              "name": "sell",
              "type": "bool"
            },
            {
              "internalType": "bool",
              "name": "validate",
              "type": "bool"
            },
            {
              "internalType": "address",
              "name": "customer",
              "type": "address"
            }
          ],
          "internalType": "struct Event.TicketData[]",
          "name": "",
          "type": "tuple[]"
        }
      ],
      "stateMutability": "view",
      "type": "function"
    },
    {
      "inputs": [
        {
          "internalType": "address",
          "name": "customer",
          "type": "address"
        }
      ],
      "name": "get_personal_tickets",
      "outputs": [
        {
          "components": [
            {
              "internalType": "string",
              "name": "name",
              "type": "string"
            },
            {
              "internalType": "string",
              "name": "surname",
              "type": "string"
            },
            {
              "internalType": "uint256",
              "name": "ticketid",
              "type": "uint256"
            },
            {
              "internalType": "uint256",
              "name": "eventid",
              "type": "uint256"
            },
            {
              "internalType": "bool",
              "name": "sell",
              "type": "bool"
            },
            {
              "internalType": "bool",
              "name": "validate",
              "type": "bool"
            },
            {
              "internalType": "address",
              "name": "customer",
              "type": "address"
            }
          ],
          "internalType": "struct Event.TicketData[]",
          "name": "big",
          "type": "tuple[]"
        }
      ],
      "stateMutability": "view",
      "type": "function"
    },
    {
      "inputs": [
        {
          "internalType": "uint256",
          "name": "eventid",
          "type": "uint256"
        }
      ],
      "name": "get_event_price",
      "outputs": [
        {
          "internalType": "uint256",
          "name": "",
          "type": "uint256"
        }
      ],
      "stateMutability": "view",
      "type": "function"
    },
    {
      "inputs": [
        {
          "internalType": "uint256",
          "name": "id",
          "type": "uint256"
        }
      ],
      "name": "get_event",
      "outputs": [
        {
          "components": [
            {
              "internalType": "uint256",
              "name": "id",
              "type": "uint256"
            },
            {
              "internalType": "string",
              "name": "title",
              "type": "string"
            },
            {
              "internalType": "string",
              "name": "luogo",
              "type": "string"
            },
            {
              "internalType": "string",
              "name": "date",
              "type": "string"
            },
            {
              "internalType": "uint256",
              "name": "seats",
              "type": "uint256"
            },
            {
              "internalType": "uint256",
              "name": "remaining_tickets",
              "type": "uint256"
            },
            {
              "internalType": "uint256",
              "name": "price",
              "type": "uint256"
            },
            {
              "internalType": "string",
              "name": "state",
              "type": "string"
            },
            {
              "internalType": "address",
              "name": "owner",
              "type": "address"
            }
          ],
          "internalType": "struct Event.EventData",
          "name": "evento",
          "type": "tuple"
        }
      ],
      "stateMutability": "view",
      "type": "function"
    },
    {
      "inputs": [
        {
          "internalType": "address",
          "name": "r",
          "type": "address"
        }
      ],
      "name": "set_reseller",
      "outputs": [
        {
          "internalType": "string",
          "name": "",
          "type": "string"
        },
        {
          "internalType": "address",
          "name": "",
          "type": "address"
        }
      ],
      "stateMutability": "nonpayable",
      "type": "function"
    },
    {
      "inputs": [
        {
          "internalType": "address",
          "name": "v",
          "type": "address"
        }
      ],
      "name": "set_validator",
      "outputs": [
        {
          "internalType": "string",
          "name": "",
          "type": "string"
        },
        {
          "internalType": "address",
          "name": "",
          "type": "address"
        }
      ],
      "stateMutability": "nonpayable",
      "type": "function"
    },
    {
      "inputs": [],
      "name": "get_balance",
      "outputs": [
        {
          "internalType": "uint256",
          "name": "",
          "type": "uint256"
        }
      ],
      "stateMutability": "view",
      "type": "function"
    },
    {
      "inputs": [],
      "name": "get_address",
      "outputs": [
        {
          "internalType": "address",
          "name": "",
          "type": "address"
        }
      ],
      "stateMutability": "view",
      "type": "function"
    }
  ],
  "bytecode": "0x6080604052336000806101000a81548173ffffffffffffffffffffffffffffffffffffffff021916908373ffffffffffffffffffffffffffffffffffffffff16021790555034801561005057600080fd5b506136a7806100606000396000f3fe608060405234801561001057600080fd5b50600436106101005760003560e01c80635c34a5de11610097578063c1cfb99a11610066578063c1cfb99a146102ea578063c74d97cd14610308578063c9b46fef14610326578063f06f75cc1461035657610100565b80635c34a5de146102505780638c59a08514610280578063957bdf601461029c578063a15cb47b146102ba57610100565b806338ae8be4116100d357806338ae8be4146101b657806347a828b3146101d25780634c688245146102025780635b3929cb1461023257610100565b80630131222f14610105578063214638cc14610123578063226ee47c1461015457806330449c8014610185575b600080fd5b61010d610388565b60405161011a9190612769565b60405180910390f35b61013d600480360381019061013891906127fa565b6103b1565b60405161014b9291906128d3565b60405180910390f35b61016e60048036038101906101699190612903565b6105d2565b60405161017c9291906128d3565b60405180910390f35b61019f600480360381019061019a9190612903565b610709565b6040516101ad9291906128d3565b60405180910390f35b6101d060048036038101906101cb9190612930565b610840565b005b6101ec60048036038101906101e79190612930565b6109a4565b6040516101f99190612a9f565b60405180910390f35b61021c60048036038101906102179190612903565b610d4a565b6040516102299190612c41565b60405180910390f35b61023a611120565b6040516102479190612dff565b60405180910390f35b61026a60048036038101906102659190612930565b611446565b6040516102779190612e30565b60405180910390f35b61029a60048036038101906102959190612930565b61152e565b005b6102a4611692565b6040516102b19190612c41565b60405180910390f35b6102d460048036038101906102cf9190612930565b611943565b6040516102e19190612e5a565b60405180910390f35b6102f2611972565b6040516102ff9190612e5a565b60405180910390f35b6103106119b2565b60405161031d9190612769565b60405180910390f35b610340600480360381019061033b9190612faa565b6119d8565b60405161034d9190612e5a565b60405180910390f35b610370600480360381019061036b91906130a0565b611d69565b60405161037f9392919061313f565b60405180910390f35b60008060009054906101000a900473ffffffffffffffffffffffffffffffffffffffff16905090565b6060600082600260009054906101000a900473ffffffffffffffffffffffffffffffffffffffff1673ffffffffffffffffffffffffffffffffffffffff168173ffffffffffffffffffffffffffffffffffffffff1614610446576040517f08c379a000000000000000000000000000000000000000000000000000000000815260040161043d906131c9565b60405180910390fd5b6000805b610452611e34565b81101561056057866004828154811061046e5761046d6131e9565b5b9060005260206000209060050201600201541480156104c3575060001515600482815481106104a05761049f6131e9565b5b906000526020600020906005020160040160019054906101000a900460ff161515145b8015610505575060011515600482815481106104e2576104e16131e9565b5b906000526020600020906005020160040160009054906101000a900460ff161515145b1561054d576001600482815481106105205761051f6131e9565b5b906000526020600020906005020160040160016101000a81548160ff021916908315150217905550600191505b808061055890613247565b91505061044a565b5080156105a957846040518060400160405280601081526020017f4269676c696574746f2076616c69646f000000000000000000000000000000008152509093509350506105ca565b8460405180606001604052806027815260200161364b602791399093509350505b509250929050565b606060008060009054906101000a900473ffffffffffffffffffffffffffffffffffffffff1673ffffffffffffffffffffffffffffffffffffffff163373ffffffffffffffffffffffffffffffffffffffff1614610665576040517f08c379a000000000000000000000000000000000000000000000000000000000815260040161065c90613302565b60405180910390fd5b82600260006101000a81548173ffffffffffffffffffffffffffffffffffffffff021916908373ffffffffffffffffffffffffffffffffffffffff160217905550600260009054906101000a900473ffffffffffffffffffffffffffffffffffffffff166040518060400160405280601381526020017f56616c696461746f7220696d706f737461746f000000000000000000000000008152509091509150915091565b606060008060009054906101000a900473ffffffffffffffffffffffffffffffffffffffff1673ffffffffffffffffffffffffffffffffffffffff163373ffffffffffffffffffffffffffffffffffffffff161461079c576040517f08c379a000000000000000000000000000000000000000000000000000000000815260040161079390613302565b60405180910390fd5b82600160006101000a81548173ffffffffffffffffffffffffffffffffffffffff021916908373ffffffffffffffffffffffffffffffffffffffff160217905550600160009054906101000a900473ffffffffffffffffffffffffffffffffffffffff166040518060400160405280601281526020017f526573656c6c657220696d706f737461746f00000000000000000000000000008152509091509150915091565b60008054906101000a900473ffffffffffffffffffffffffffffffffffffffff1673ffffffffffffffffffffffffffffffffffffffff163373ffffffffffffffffffffffffffffffffffffffff16146108ce576040517f08c379a00000000000000000000000000000000000000000000000000000000081526004016108c590613302565b60405180910390fd5b6040518060400160405280600881526020017f436f6e636c75736f00000000000000000000000000000000000000000000000081525060038281548110610918576109176131e9565b5b9060005260206000209060090201600701908051906020019061093c9291906125cc565b5060008054906101000a900473ffffffffffffffffffffffffffffffffffffffff1673ffffffffffffffffffffffffffffffffffffffff16817fb15d3899a0a77e20f0c368865d76be846e277b8cac84cddf244f45748709720a60405160405180910390a350565b6109ac612652565b6109b4611e41565b82106109f5576040517f08c379a00000000000000000000000000000000000000000000000000000000081526004016109ec9061336e565b60405180910390fd5b60005b610a00611e41565b811015610d43578260038281548110610a1c57610a1b6131e9565b5b9060005260206000209060090201600001541415610d305760038181548110610a4857610a476131e9565b5b90600052602060002090600902016040518061012001604052908160008201548152602001600182018054610a7c906133bd565b80601f0160208091040260200160405190810160405280929190818152602001828054610aa8906133bd565b8015610af55780601f10610aca57610100808354040283529160200191610af5565b820191906000526020600020905b815481529060010190602001808311610ad857829003601f168201915b50505050508152602001600282018054610b0e906133bd565b80601f0160208091040260200160405190810160405280929190818152602001828054610b3a906133bd565b8015610b875780601f10610b5c57610100808354040283529160200191610b87565b820191906000526020600020905b815481529060010190602001808311610b6a57829003601f168201915b50505050508152602001600382018054610ba0906133bd565b80601f0160208091040260200160405190810160405280929190818152602001828054610bcc906133bd565b8015610c195780601f10610bee57610100808354040283529160200191610c19565b820191906000526020600020905b815481529060010190602001808311610bfc57829003601f168201915b50505050508152602001600482015481526020016005820154815260200160068201548152602001600782018054610c50906133bd565b80601f0160208091040260200160405190810160405280929190818152602001828054610c7c906133bd565b8015610cc95780601f10610c9e57610100808354040283529160200191610cc9565b820191906000526020600020905b815481529060010190602001808311610cac57829003601f168201915b505050505081526020016008820160009054906101000a900473ffffffffffffffffffffffffffffffffffffffff1673ffffffffffffffffffffffffffffffffffffffff1673ffffffffffffffffffffffffffffffffffffffff1681525050915050610d45565b8080610d3b90613247565b9150506109f8565b505b919050565b60606000610d56611e34565b67ffffffffffffffff811115610d6f57610d6e612e7f565b5b604051908082528060200260200182016040528015610da857816020015b610d956126b4565b815260200190600190039081610d8d5790505b509050600080600090505b610dbb611e34565b811015611115578473ffffffffffffffffffffffffffffffffffffffff1660048281548110610ded57610dec6131e9565b5b906000526020600020906005020160040160029054906101000a900473ffffffffffffffffffffffffffffffffffffffff1673ffffffffffffffffffffffffffffffffffffffff161415611102576040518060e0016040528060048381548110610e5a57610e596131e9565b5b90600052602060002090600502016000018054610e76906133bd565b80601f0160208091040260200160405190810160405280929190818152602001828054610ea2906133bd565b8015610eef5780601f10610ec457610100808354040283529160200191610eef565b820191906000526020600020905b815481529060010190602001808311610ed257829003601f168201915b5050505050815260200160048381548110610f0d57610f0c6131e9565b5b90600052602060002090600502016001018054610f29906133bd565b80601f0160208091040260200160405190810160405280929190818152602001828054610f55906133bd565b8015610fa25780601f10610f7757610100808354040283529160200191610fa2565b820191906000526020600020905b815481529060010190602001808311610f8557829003601f168201915b5050505050815260200160048381548110610fc057610fbf6131e9565b5b906000526020600020906005020160020154815260200160048381548110610feb57610fea6131e9565b5b906000526020600020906005020160030154815260200160048381548110611016576110156131e9565b5b906000526020600020906005020160040160009054906101000a900460ff1615158152602001600483815481106110505761104f6131e9565b5b906000526020600020906005020160040160019054906101000a900460ff16151581526020016004838154811061108a576110896131e9565b5b906000526020600020906005020160040160029054906101000a900473ffffffffffffffffffffffffffffffffffffffff1673ffffffffffffffffffffffffffffffffffffffff168152508383815181106110e8576110e76131e9565b5b602002602001018190525081806110fe90613247565b9250505b808061110d90613247565b915050610db3565b508192505050919050565b60606003805480602002602001604051908101604052809291908181526020016000905b8282101561143d57838290600052602060002090600902016040518061012001604052908160008201548152602001600182018054611182906133bd565b80601f01602080910402602001604051908101604052809291908181526020018280546111ae906133bd565b80156111fb5780601f106111d0576101008083540402835291602001916111fb565b820191906000526020600020905b8154815290600101906020018083116111de57829003601f168201915b50505050508152602001600282018054611214906133bd565b80601f0160208091040260200160405190810160405280929190818152602001828054611240906133bd565b801561128d5780601f106112625761010080835404028352916020019161128d565b820191906000526020600020905b81548152906001019060200180831161127057829003601f168201915b505050505081526020016003820180546112a6906133bd565b80601f01602080910402602001604051908101604052809291908181526020018280546112d2906133bd565b801561131f5780601f106112f45761010080835404028352916020019161131f565b820191906000526020600020905b81548152906001019060200180831161130257829003601f168201915b50505050508152602001600482015481526020016005820154815260200160068201548152602001600782018054611356906133bd565b80601f0160208091040260200160405190810160405280929190818152602001828054611382906133bd565b80156113cf5780601f106113a4576101008083540402835291602001916113cf565b820191906000526020600020905b8154815290600101906020018083116113b257829003601f168201915b505050505081526020016008820160009054906101000a900473ffffffffffffffffffffffffffffffffffffffff1673ffffffffffffffffffffffffffffffffffffffff1673ffffffffffffffffffffffffffffffffffffffff168152505081526020019060010190611144565b50505050905090565b600080611452836109a4565b905060008160a00151141561146b576000915050611529565b60405160200161147a90613446565b604051602081830303815290604052805190602001208160e001516040516020016114a5919061348c565b60405160208183030381529060405280519060200120148061151457506040516020016114d1906134ef565b604051602081830303815290604052805190602001208160e001516040516020016114fc919061348c565b60405160208183030381529060405280519060200120145b15611523576000915050611529565b60019150505b919050565b60008054906101000a900473ffffffffffffffffffffffffffffffffffffffff1673ffffffffffffffffffffffffffffffffffffffff163373ffffffffffffffffffffffffffffffffffffffff16146115bc576040517f08c379a00000000000000000000000000000000000000000000000000000000081526004016115b390613302565b60405180910390fd5b6040518060400160405280600981526020017f416e6e756c6c61746f000000000000000000000000000000000000000000000081525060038281548110611606576116056131e9565b5b9060005260206000209060090201600701908051906020019061162a9291906125cc565b5060008054906101000a900473ffffffffffffffffffffffffffffffffffffffff1673ffffffffffffffffffffffffffffffffffffffff16817f9ab588958c126cb0274213719f45aca396603352447383188a81e29c1269029a60405160405180910390a350565b606060008054906101000a900473ffffffffffffffffffffffffffffffffffffffff1673ffffffffffffffffffffffffffffffffffffffff163373ffffffffffffffffffffffffffffffffffffffff1614611722576040517f08c379a000000000000000000000000000000000000000000000000000000000815260040161171990613302565b60405180910390fd5b6004805480602002602001604051908101604052809291908181526020016000905b8282101561193a57838290600052602060002090600502016040518060e0016040529081600082018054611777906133bd565b80601f01602080910402602001604051908101604052809291908181526020018280546117a3906133bd565b80156117f05780601f106117c5576101008083540402835291602001916117f0565b820191906000526020600020905b8154815290600101906020018083116117d357829003601f168201915b50505050508152602001600182018054611809906133bd565b80601f0160208091040260200160405190810160405280929190818152602001828054611835906133bd565b80156118825780601f1061185757610100808354040283529160200191611882565b820191906000526020600020905b81548152906001019060200180831161186557829003601f168201915b5050505050815260200160028201548152602001600382015481526020016004820160009054906101000a900460ff161515151581526020016004820160019054906101000a900460ff161515151581526020016004820160029054906101000a900473ffffffffffffffffffffffffffffffffffffffff1673ffffffffffffffffffffffffffffffffffffffff1673ffffffffffffffffffffffffffffffffffffffff168152505081526020019060010190611744565b50505050905090565b600060038281548110611959576119586131e9565b5b9060005260206000209060090201600601549050919050565b60008060009054906101000a900473ffffffffffffffffffffffffffffffffffffffff1673ffffffffffffffffffffffffffffffffffffffff1631905090565b600160009054906101000a900473ffffffffffffffffffffffffffffffffffffffff1681565b60008060009054906101000a900473ffffffffffffffffffffffffffffffffffffffff1673ffffffffffffffffffffffffffffffffffffffff163373ffffffffffffffffffffffffffffffffffffffff1614611a69576040517f08c379a0000000000000000000000000000000000000000000000000000000008152600401611a6090613302565b60405180910390fd5b6003604051806101200160405280600081526020018a81526020018981526020018881526020018781526020018781526020018681526020016040518060400160405280600c81526020017f4e6f6e20636f6e636c75736f0000000000000000000000000000000000000000815250815260200160008054906101000a900473ffffffffffffffffffffffffffffffffffffffff1673ffffffffffffffffffffffffffffffffffffffff168152509080600181540180825580915050600190039060005260206000209060090201600090919091909150600082015181600001556020820151816001019080519060200190611b669291906125cc565b506040820151816002019080519060200190611b839291906125cc565b506060820151816003019080519060200190611ba09291906125cc565b506080820151816004015560a0820151816005015560c0820151816006015560e0820151816007019080519060200190611bdb9291906125cc565b506101008201518160080160006101000a81548173ffffffffffffffffffffffffffffffffffffffff021916908373ffffffffffffffffffffffffffffffffffffffff160217905550505060006001611c32611e41565b611c3c9190613504565b90508060038281548110611c5357611c526131e9565b5b90600052602060002090600902016000018190555060008054906101000a900473ffffffffffffffffffffffffffffffffffffffff1673ffffffffffffffffffffffffffffffffffffffff16817fe43349c008949cf6b65249356e6f918d4aaa0ca79f2b1166df4a4a98c9c16de260405160405180910390a383600160006101000a81548173ffffffffffffffffffffffffffffffffffffffff021916908373ffffffffffffffffffffffffffffffffffffffff16021790555082600260006101000a81548173ffffffffffffffffffffffffffffffffffffffff021916908373ffffffffffffffffffffffffffffffffffffffff160217905550611d59818786611e4e565b5080915050979650505050505050565b60606000806000611d7987612125565b9050611d8b816040015187878b6123cb565b50611d958761258e565b8773ffffffffffffffffffffffffffffffffffffffff16877fc41bbb54d04f2268c7895b9330f18468c306a3f92698a92c4c86b297873978488360400151604051611de09190612e5a565b60405180910390a36001886040518060400160405280601481526020017f4269676c696574746f206163717569737461746f0000000000000000000000008152509190935093509350509450945094915050565b6000600480549050905090565b6000600380549050905090565b600081600160009054906101000a900473ffffffffffffffffffffffffffffffffffffffff1673ffffffffffffffffffffffffffffffffffffffff168173ffffffffffffffffffffffffffffffffffffffff1614611ee1576040517f08c379a0000000000000000000000000000000000000000000000000000000008152600401611ed8906135aa565b60405180910390fd5b60008085611eed611e34565b611ef791906135ca565b90506000611f03611e34565b90505b818110156120d25760046040518060e00160405280604051806020016040528060008152508152602001604051806020016040528060008152508152602001600081526020018a8152602001600015158152602001600015158152602001600073ffffffffffffffffffffffffffffffffffffffff1681525090806001815401808255809150506001900390600052602060002090600502016000909190919091506000820151816000019080519060200190611fc49291906125cc565b506020820151816001019080519060200190611fe19291906125cc565b50604082015181600201556060820151816003015560808201518160040160006101000a81548160ff02191690831515021790555060a08201518160040160016101000a81548160ff02191690831515021790555060c08201518160040160026101000a81548173ffffffffffffffffffffffffffffffffffffffff021916908373ffffffffffffffffffffffffffffffffffffffff16021790555050506001612089611e34565b6120939190613504565b925082600482815481106120aa576120a96131e9565b5b90600052602060002090600502016002018190555080806120ca90613247565b915050611f06565b508473ffffffffffffffffffffffffffffffffffffffff1686887f6567ab497f12a760d234e0684de86536dce884c904386957d5877e165bfb32fa60405160405180910390a48593505050509392505050565b61212d6126b4565b6121356126b4565b60005b612140611e34565b8110156123c157836004828154811061215c5761215b6131e9565b5b9060005260206000209060050201600301541480156121b15750600015156004828154811061218e5761218d6131e9565b5b906000526020600020906005020160040160009054906101000a900460ff161515145b156123ae57600481815481106121ca576121c96131e9565b5b90600052602060002090600502016040518060e00160405290816000820180546121f3906133bd565b80601f016020809104026020016040519081016040528092919081815260200182805461221f906133bd565b801561226c5780601f106122415761010080835404028352916020019161226c565b820191906000526020600020905b81548152906001019060200180831161224f57829003601f168201915b50505050508152602001600182018054612285906133bd565b80601f01602080910402602001604051908101604052809291908181526020018280546122b1906133bd565b80156122fe5780601f106122d3576101008083540402835291602001916122fe565b820191906000526020600020905b8154815290600101906020018083116122e157829003601f168201915b5050505050815260200160028201548152602001600382015481526020016004820160009054906101000a900460ff161515151581526020016004820160019054906101000a900460ff161515151581526020016004820160029054906101000a900473ffffffffffffffffffffffffffffffffffffffff1673ffffffffffffffffffffffffffffffffffffffff1673ffffffffffffffffffffffffffffffffffffffff168152505091506123c1565b80806123b990613247565b915050612138565b5080915050919050565b6000806000905060005b6123dd611e34565b8110156125815786600482815481106123f9576123f86131e9565b5b90600052602060002090600502016002015414801561244e5750600015156004828154811061242b5761242a6131e9565b5b906000526020600020906005020160040160009054906101000a900460ff161515145b1561256e57600160048281548110612469576124686131e9565b5b906000526020600020906005020160040160006101000a81548160ff02191690831515021790555085600482815481106124a6576124a56131e9565b5b906000526020600020906005020160000190805190602001906124ca9291906125cc565b5084600482815481106124e0576124df6131e9565b5b906000526020600020906005020160010190805190602001906125049291906125cc565b50836004828154811061251a576125196131e9565b5b906000526020600020906005020160040160026101000a81548173ffffffffffffffffffffffffffffffffffffffff021916908373ffffffffffffffffffffffffffffffffffffffff160217905550600191505b808061257990613247565b9150506123d5565b5080915050949350505050565b600381815481106125a2576125a16131e9565b5b906000526020600020906009020160050160008154809291906125c490613620565b919050555050565b8280546125d8906133bd565b90600052602060002090601f0160209004810192826125fa5760008555612641565b82601f1061261357805160ff1916838001178555612641565b82800160010185558215612641579182015b82811115612640578251825591602001919060010190612625565b5b50905061264e919061270b565b5090565b6040518061012001604052806000815260200160608152602001606081526020016060815260200160008152602001600081526020016000815260200160608152602001600073ffffffffffffffffffffffffffffffffffffffff1681525090565b6040518060e0016040528060608152602001606081526020016000815260200160008152602001600015158152602001600015158152602001600073ffffffffffffffffffffffffffffffffffffffff1681525090565b5b8082111561272457600081600090555060010161270c565b5090565b600073ffffffffffffffffffffffffffffffffffffffff82169050919050565b600061275382612728565b9050919050565b61276381612748565b82525050565b600060208201905061277e600083018461275a565b92915050565b6000604051905090565b600080fd5b600080fd5b6000819050919050565b6127ab81612798565b81146127b657600080fd5b50565b6000813590506127c8816127a2565b92915050565b6127d781612748565b81146127e257600080fd5b50565b6000813590506127f4816127ce565b92915050565b600080604083850312156128115761281061278e565b5b600061281f858286016127b9565b9250506020612830858286016127e5565b9150509250929050565b600081519050919050565b600082825260208201905092915050565b60005b83811015612874578082015181840152602081019050612859565b83811115612883576000848401525b50505050565b6000601f19601f8301169050919050565b60006128a58261283a565b6128af8185612845565b93506128bf818560208601612856565b6128c881612889565b840191505092915050565b600060408201905081810360008301526128ed818561289a565b90506128fc602083018461275a565b9392505050565b6000602082840312156129195761291861278e565b5b6000612927848285016127e5565b91505092915050565b6000602082840312156129465761294561278e565b5b6000612954848285016127b9565b91505092915050565b61296681612798565b82525050565b600082825260208201905092915050565b60006129888261283a565b612992818561296c565b93506129a2818560208601612856565b6129ab81612889565b840191505092915050565b6129bf81612748565b82525050565b6000610120830160008301516129de600086018261295d565b50602083015184820360208601526129f6828261297d565b91505060408301518482036040860152612a10828261297d565b91505060608301518482036060860152612a2a828261297d565b9150506080830151612a3f608086018261295d565b5060a0830151612a5260a086018261295d565b5060c0830151612a6560c086018261295d565b5060e083015184820360e0860152612a7d828261297d565b915050610100830151612a946101008601826129b6565b508091505092915050565b60006020820190508181036000830152612ab981846129c5565b905092915050565b600081519050919050565b600082825260208201905092915050565b6000819050602082019050919050565b60008115159050919050565b612b0281612aed565b82525050565b600060e0830160008301518482036000860152612b25828261297d565b91505060208301518482036020860152612b3f828261297d565b9150506040830151612b54604086018261295d565b506060830151612b67606086018261295d565b506080830151612b7a6080860182612af9565b5060a0830151612b8d60a0860182612af9565b5060c0830151612ba060c08601826129b6565b508091505092915050565b6000612bb78383612b08565b905092915050565b6000602082019050919050565b6000612bd782612ac1565b612be18185612acc565b935083602082028501612bf385612add565b8060005b85811015612c2f5784840389528151612c108582612bab565b9450612c1b83612bbf565b925060208a01995050600181019050612bf7565b50829750879550505050505092915050565b60006020820190508181036000830152612c5b8184612bcc565b905092915050565b600081519050919050565b600082825260208201905092915050565b6000819050602082019050919050565b600061012083016000830151612ca8600086018261295d565b5060208301518482036020860152612cc0828261297d565b91505060408301518482036040860152612cda828261297d565b91505060608301518482036060860152612cf4828261297d565b9150506080830151612d09608086018261295d565b5060a0830151612d1c60a086018261295d565b5060c0830151612d2f60c086018261295d565b5060e083015184820360e0860152612d47828261297d565b915050610100830151612d5e6101008601826129b6565b508091505092915050565b6000612d758383612c8f565b905092915050565b6000602082019050919050565b6000612d9582612c63565b612d9f8185612c6e565b935083602082028501612db185612c7f565b8060005b85811015612ded5784840389528151612dce8582612d69565b9450612dd983612d7d565b925060208a01995050600181019050612db5565b50829750879550505050505092915050565b60006020820190508181036000830152612e198184612d8a565b905092915050565b612e2a81612aed565b82525050565b6000602082019050612e456000830184612e21565b92915050565b612e5481612798565b82525050565b6000602082019050612e6f6000830184612e4b565b92915050565b600080fd5b600080fd5b7f4e487b7100000000000000000000000000000000000000000000000000000000600052604160045260246000fd5b612eb782612889565b810181811067ffffffffffffffff82111715612ed657612ed5612e7f565b5b80604052505050565b6000612ee9612784565b9050612ef58282612eae565b919050565b600067ffffffffffffffff821115612f1557612f14612e7f565b5b612f1e82612889565b9050602081019050919050565b82818337600083830152505050565b6000612f4d612f4884612efa565b612edf565b905082815260208101848484011115612f6957612f68612e7a565b5b612f74848285612f2b565b509392505050565b600082601f830112612f9157612f90612e75565b5b8135612fa1848260208601612f3a565b91505092915050565b600080600080600080600060e0888a031215612fc957612fc861278e565b5b600088013567ffffffffffffffff811115612fe757612fe6612793565b5b612ff38a828b01612f7c565b975050602088013567ffffffffffffffff81111561301457613013612793565b5b6130208a828b01612f7c565b965050604088013567ffffffffffffffff81111561304157613040612793565b5b61304d8a828b01612f7c565b955050606061305e8a828b016127b9565b945050608061306f8a828b016127b9565b93505060a06130808a828b016127e5565b92505060c06130918a828b016127e5565b91505092959891949750929550565b600080600080608085870312156130ba576130b961278e565b5b60006130c8878288016127e5565b94505060206130d9878288016127b9565b935050604085013567ffffffffffffffff8111156130fa576130f9612793565b5b61310687828801612f7c565b925050606085013567ffffffffffffffff81111561312757613126612793565b5b61313387828801612f7c565b91505092959194509250565b60006060820190508181036000830152613159818661289a565b90506131686020830185612e21565b613175604083018461275a565b949350505050565b7f4e6f6e2073656920696c2076616c696461746f72000000000000000000000000600082015250565b60006131b3601483612845565b91506131be8261317d565b602082019050919050565b600060208201905081810360008301526131e2816131a6565b9050919050565b7f4e487b7100000000000000000000000000000000000000000000000000000000600052603260045260246000fd5b7f4e487b7100000000000000000000000000000000000000000000000000000000600052601160045260246000fd5b600061325282612798565b91507fffffffffffffffffffffffffffffffffffffffffffffffffffffffffffffffff82141561328557613284613218565b5b600182019050919050565b7f4e6f6e20736569206175746f72697a7a61746f2061642065736567756972652060008201527f71756573746120617a696f6e6500000000000000000000000000000000000000602082015250565b60006132ec602d83612845565b91506132f782613290565b604082019050919050565b6000602082019050818103600083015261331b816132df565b9050919050565b7f4c276576656e746f206e6f6e2065736973746500000000000000000000000000600082015250565b6000613358601383612845565b915061336382613322565b602082019050919050565b600060208201905081810360008301526133878161334b565b9050919050565b7f4e487b7100000000000000000000000000000000000000000000000000000000600052602260045260246000fd5b600060028204905060018216806133d557607f821691505b602082108114156133e9576133e861338e565b5b50919050565b600081905092915050565b7f436f6e636c75736f000000000000000000000000000000000000000000000000600082015250565b60006134306008836133ef565b915061343b826133fa565b600882019050919050565b600061345182613423565b9150819050919050565b60006134668261283a565b61347081856133ef565b9350613480818560208601612856565b80840191505092915050565b6000613498828461345b565b915081905092915050565b7f416e6e756c6c61746f0000000000000000000000000000000000000000000000600082015250565b60006134d96009836133ef565b91506134e4826134a3565b600982019050919050565b60006134fa826134cc565b9150819050919050565b600061350f82612798565b915061351a83612798565b92508282101561352d5761352c613218565b5b828203905092915050565b7f496c20726573656c6c657220737065636966696361746f20652720657272617460008201527f6f00000000000000000000000000000000000000000000000000000000000000602082015250565b6000613594602183612845565b915061359f82613538565b604082019050919050565b600060208201905081810360008301526135c381613587565b9050919050565b60006135d582612798565b91506135e083612798565b9250827fffffffffffffffffffffffffffffffffffffffffffffffffffffffffffffffff0382111561361557613614613218565b5b828201905092915050565b600061362b82612798565b9150600082141561363f5761363e613218565b5b60018203905091905056fe4269676c6974746f20676961272076616c696461746f206f206e6f6e2076616c69646162696c65a2646970667358221220b2a565a29c41a0dfc6eb7fc5f9ec5391ad05cfa9510305120234d376da3d0bf064736f6c63430008090033",
  "immutableReferences": {},
  "source": "// SPDX-License-Identifier: GPL-3.0\r\npragma solidity >=0.7.0 <0.9.0;\r\n\r\n\r\n\r\ncontract Event {\r\n    \r\n    address private owner=msg.sender;\r\n    \r\n    address public reseller;\r\n    \r\n    address private validator;\r\n    \r\n    \r\n    struct EventData{ //event data structure\r\n    \r\n        uint id;\r\n    \r\n        string title;\r\n        \r\n        string luogo;\r\n        \r\n        string date;\r\n        \r\n        uint seats;\r\n        \r\n        uint remaining_tickets;\r\n        \r\n        uint256 price;\r\n        \r\n        string state;\r\n        \r\n        address owner;\r\n    } \r\n    \r\n    \r\n    \r\n    struct TicketData{ //ticket data structure\r\n        \r\n        string name;\r\n        \r\n        string surname;\r\n        \r\n        uint ticketid;\r\n        \r\n        uint eventid;\r\n        \r\n        bool sell;\r\n        \r\n        bool validate;\r\n\r\n        address customer;\r\n    }\r\n    \r\n    \r\n    \r\n    EventData[] private events; //all events\r\n    TicketData[] private tickets; //all tickets\r\n    \r\n    modifier only_owner() {\r\n        require(msg.sender == owner, \"Non sei autorizzato ad eseguire questa azione\");\r\n        _;\r\n    }\r\n    \r\n    modifier only_reseller(address res) {\r\n        require(res == reseller, \"Il reseller specificato e' errato\");\r\n        _;\r\n    }\r\n    \r\n    modifier only_validator(address val) {\r\n        require(val == validator, \"Non sei il validator\");\r\n        _;\r\n    }\r\n\r\n    \r\n    event EventCreated(uint indexed eventid, address indexed creator);\r\n    event EventOverrlue(uint indexed eventid, address indexed creator);\r\n    event EventFinished(uint indexed eventid, address indexed creator);\r\n    event TicketsGenerated(uint indexed eventid, uint indexed totalticket, address indexed creator);\r\n    event TicketSold(uint indexed eventid, uint ticketid, address indexed customer);\r\n    \r\n    \r\n    function  create_event(string memory title, string memory  luogo, string memory  date, uint seats, uint256 price, address res, address val) public only_owner returns(uint) {\r\n        {\r\n            events.push(EventData(0, title, luogo,  date, seats, seats, price, \"Non concluso\" , owner));\r\n            uint id=get_event_length() - 1;\r\n            events[id].id=id;\r\n            emit EventCreated(id, owner);\r\n            reseller=res;\r\n            validator=val;\r\n            generate_tickets(id, seats, res);\r\n            return id;\r\n        }\r\n    }\r\n    \r\n    function overrlue_event(uint id) public only_owner {\r\n            events[id].state=\"Annullato\";\r\n            emit EventOverrlue(id, owner);\r\n    }\r\n    \r\n    function finish_event(uint id) public only_owner {\r\n        events[id].state=\"Concluso\";\r\n        emit EventFinished(id, owner);\r\n    }\r\n    \r\n     function get_events() public view returns (EventData[] memory){\r\n         return events;\r\n     } \r\n\r\n\r\n    \r\n    function generate_tickets(uint eventid, uint totalticket , address res) internal only_reseller(res) returns(uint){\r\n        uint ticketid=0;\r\n        uint array_len=get_ticket_lenght()+totalticket;\r\n        for(uint i=get_ticket_lenght(); i < array_len  ; i++){\r\n            tickets.push(TicketData(\"\", \"\", 0, eventid, false, false, 0x0000000000000000000000000000000000000000));\r\n            ticketid=get_ticket_lenght() - 1;\r\n            tickets[i].ticketid=ticketid;\r\n        }\r\n        emit TicketsGenerated(eventid, totalticket , res);\r\n        return totalticket;\r\n    }\r\n    \r\n    function get_event_ticket(uint eventid) internal view returns (TicketData memory){\r\n        TicketData memory biglietto;\r\n        for(uint i=0; i < get_ticket_lenght(); i++){ \r\n            if(tickets[i].eventid==eventid && tickets[i].sell==false){\r\n                biglietto=tickets[i];\r\n                break;\r\n            }\r\n        }\r\n        return biglietto;\r\n    }\r\n    \r\n    function set_ticket_sold(uint ticketid, string memory name, string memory surname, address customer) internal returns(bool){\r\n        bool flag=false;\r\n        for(uint i=0; i < get_ticket_lenght(); i++){\r\n            if(tickets[i].ticketid==ticketid && tickets[i].sell==false){\r\n                tickets[i].sell=true;\r\n                tickets[i].name=name;\r\n                tickets[i].surname=surname;\r\n                tickets[i].customer=customer;\r\n                flag=true;\r\n            }\r\n            \r\n        }\r\n        return flag;\r\n        \r\n    }\r\n    \r\n    function check_ticket(uint eventid) external view returns(bool){\r\n        EventData memory evento= get_event(eventid);\r\n        if(evento.remaining_tickets == 0)\r\n            return false;\r\n        else if(keccak256(abi.encodePacked(evento.state))==keccak256(abi.encodePacked(\"Concluso\")) || keccak256(abi.encodePacked(evento.state))==keccak256(abi.encodePacked(\"Annullato\")) )\r\n            return false;\r\n        else \r\n            return true;\r\n    }\r\n    \r\n    function buy_ticket( address customer, uint eventid, string memory name, string memory surname) external returns(string memory, bool, address){\r\n        TicketData memory biglietto=get_event_ticket(eventid);\r\n        set_ticket_sold(biglietto.ticketid, name, surname, customer);\r\n        reduce_remaining_tickets(eventid);\r\n        emit TicketSold(eventid, biglietto.ticketid, customer);\r\n        return (\"Biglietto acquistato\", true , customer);      \r\n    }\r\n    \r\n    function reduce_remaining_tickets(uint eventid) internal{\r\n        events[eventid].remaining_tickets --;\r\n    }\r\n\r\n\r\n    function validate_ticket(uint ticketid, address val) external only_validator(val)returns(string memory, address){\r\n        bool flag=false;\r\n        for(uint i=0; i < get_ticket_lenght(); i++){\r\n            if(tickets[i].ticketid==ticketid && tickets[i].validate==false && tickets[i].sell==true){\r\n                tickets[i].validate=true;\r\n                flag=true;\r\n            }\r\n        }\r\n        if(flag)\r\n            return(\"Biglietto valido\", val);\r\n        else\r\n            return(\"Biglitto gia' validato o non validabile\", val);\r\n\r\n   }\r\n    /*function set_event_sold(uint ticketid) internal returns (bool){\r\n        bool flag=false;\r\n        for(uint i=0; i < get_ticket_lenght(); i++){\r\n            if(tickets[i].ticketid==ticketid){\r\n                tickets[i].sell=true;\r\n                flag=true;\r\n            }\r\n        }\r\n        return flag;\r\n    } */\r\n    \r\n    \r\n    function get_tickets() public only_owner view returns(TicketData[] memory){\r\n        return tickets;\r\n    }\r\n\r\n    function get_personal_tickets(address customer) public view returns(TicketData[] memory big){\r\n        TicketData[] memory biglietti=new TicketData[](get_ticket_lenght());\r\n        uint j;\r\n        for(uint i=0; i < get_ticket_lenght(); i++){ \r\n            if(tickets[i].customer==customer){\r\n                biglietti[j]=TicketData(tickets[i].name,tickets[i].surname,tickets[i].ticketid,tickets[i].eventid,tickets[i].sell,tickets[i].validate,tickets[i].customer);\r\n                j++;\r\n            }\r\n        }\r\n        return biglietti;\r\n    }\r\n\r\n    \r\n\r\n    function get_event_price(uint eventid) public view returns(uint) {\r\n        return events[eventid].price;\r\n    }\r\n    /*function delete_event_list(uint id) public only_owner {\r\n        bool deletable=false;\r\n        string memory an=\"Annullato\";\r\n        string memory cn=\"Concluso\";\r\n        for(uint i=0; i < get_event_length(); i++){\r\n            if(keccak256(abi.encodePacked(events[i]))==keccak256(abi.encodePacked(an)))\r\n                deletable=true;\r\n        }\r\n        \r\n        if(deletable)\r\n            delete events;\r\n    } */\r\n  \r\n     \r\n     function get_event(uint id) public view returns(EventData memory evento){\r\n         require(id < get_event_length(), \"L'evento non esiste\");\r\n         for(uint i=0; i < get_event_length(); i++){\r\n             if(events[i].id==id)\r\n                return events[i];\r\n         }\r\n     }\r\n     \r\n     function get_event_length() internal view returns (uint){\r\n         return events.length;\r\n     }\r\n     \r\n     function get_ticket_lenght() internal view returns (uint){\r\n         return tickets.length;\r\n     }\r\n     \r\n     function set_reseller(address r) only_owner public returns(string memory, address){\r\n         reseller=r;\r\n         return(\"Reseller impostato\", reseller);\r\n     }\r\n\r\n     function set_validator(address v) only_owner public returns(string memory, address){\r\n         validator=v;\r\n         return(\"Validator impostato\", validator);\r\n     }\r\n     \r\n     function get_balance() public view returns (uint256){\r\n        return owner.balance;\r\n    }\r\n\r\n    function get_address() public view returns(address){\r\n        return owner;\r\n    }\r\n\r\n    \r\n}  ",
  "sourcePath": "C:\\Users\\Utente\\Desktop\\Universita\\Laurea Magistrale\\Software Cybersecurity\\Progetto\\Repository\\Software-Cybersecurity-Project\\contracts\\Event.sol",
  "compiler": {
    "name": "solc",
    "version": "0.8.9+commit.e5eed63a.Emscripten.clang"
  },
  "schemaVersion": "3.4.3",
  "updatedAt": "2021-11-02T16:32:57.752Z",
  "devdoc": {
    "kind": "dev",
    "methods": {},
    "version": 1
  },
  "userdoc": {
    "kind": "user",
    "methods": {},
    "version": 1
  }
}