{
  "contractName": "Event",
  "abi": [
    {
      "anonymous": false,
      "inputs": [
        {
          "indexed": true,
          "internalType": "uint256",
          "name": "eventid",
          "type": "uint256"
        },
        {
          "indexed": true,
          "internalType": "address",
          "name": "creator",
          "type": "address"
        }
      ],
      "name": "EventCreated",
      "type": "event"
    },
    {
      "anonymous": false,
      "inputs": [
        {
          "indexed": true,
          "internalType": "uint256",
          "name": "eventid",
          "type": "uint256"
        },
        {
          "indexed": true,
          "internalType": "address",
          "name": "creator",
          "type": "address"
        }
      ],
      "name": "EventFinished",
      "type": "event"
    },
    {
      "anonymous": false,
      "inputs": [
        {
          "indexed": true,
          "internalType": "uint256",
          "name": "eventid",
          "type": "uint256"
        },
        {
          "indexed": true,
          "internalType": "address",
          "name": "creator",
          "type": "address"
        }
      ],
      "name": "EventOverrlue",
      "type": "event"
    },
    {
      "anonymous": false,
      "inputs": [
        {
          "indexed": true,
          "internalType": "uint256",
          "name": "eventid",
          "type": "uint256"
        },
        {
          "indexed": false,
          "internalType": "uint256",
          "name": "ticketid",
          "type": "uint256"
        },
        {
          "indexed": true,
          "internalType": "address",
          "name": "customer",
          "type": "address"
        }
      ],
      "name": "TicketSold",
      "type": "event"
    },
    {
      "anonymous": false,
      "inputs": [
        {
          "indexed": true,
          "internalType": "uint256",
          "name": "eventid",
          "type": "uint256"
        },
        {
          "indexed": true,
          "internalType": "uint256",
          "name": "totalticket",
          "type": "uint256"
        },
        {
          "indexed": true,
          "internalType": "address",
          "name": "creator",
          "type": "address"
        }
      ],
      "name": "TicketsGenerated",
      "type": "event"
    },
    {
      "inputs": [],
      "name": "reseller",
      "outputs": [
        {
          "internalType": "address",
          "name": "",
          "type": "address"
        }
      ],
      "stateMutability": "view",
      "type": "function",
      "constant": true
    },
    {
      "inputs": [
        {
          "internalType": "string",
          "name": "title",
          "type": "string"
        },
        {
          "internalType": "string",
          "name": "luogo",
          "type": "string"
        },
        {
          "internalType": "string",
          "name": "date",
          "type": "string"
        },
        {
          "internalType": "uint256",
          "name": "seats",
          "type": "uint256"
        },
        {
          "internalType": "uint256",
          "name": "price",
          "type": "uint256"
        },
        {
          "internalType": "address",
          "name": "res",
          "type": "address"
        },
        {
          "internalType": "address",
          "name": "val",
          "type": "address"
        }
      ],
      "name": "create_event",
      "outputs": [
        {
          "internalType": "uint256",
          "name": "",
          "type": "uint256"
        }
      ],
      "stateMutability": "nonpayable",
      "type": "function"
    },
    {
      "inputs": [
        {
          "internalType": "uint256",
          "name": "id",
          "type": "uint256"
        }
      ],
      "name": "overrlue_event",
      "outputs": [],
      "stateMutability": "nonpayable",
      "type": "function"
    },
    {
      "inputs": [
        {
          "internalType": "uint256",
          "name": "id",
          "type": "uint256"
        }
      ],
      "name": "finish_event",
      "outputs": [],
      "stateMutability": "nonpayable",
      "type": "function"
    },
    {
      "inputs": [],
      "name": "get_events",
      "outputs": [
        {
          "components": [
            {
              "internalType": "uint256",
              "name": "id",
              "type": "uint256"
            },
            {
              "internalType": "string",
              "name": "title",
              "type": "string"
            },
            {
              "internalType": "string",
              "name": "luogo",
              "type": "string"
            },
            {
              "internalType": "string",
              "name": "date",
              "type": "string"
            },
            {
              "internalType": "uint256",
              "name": "seats",
              "type": "uint256"
            },
            {
              "internalType": "uint256",
              "name": "remaining_tickets",
              "type": "uint256"
            },
            {
              "internalType": "uint256",
              "name": "price",
              "type": "uint256"
            },
            {
              "internalType": "string",
              "name": "state",
              "type": "string"
            },
            {
              "internalType": "address",
              "name": "owner",
              "type": "address"
            }
          ],
          "internalType": "struct Event.EventData[]",
          "name": "",
          "type": "tuple[]"
        }
      ],
      "stateMutability": "view",
      "type": "function",
      "constant": true
    },
    {
      "inputs": [
        {
          "internalType": "uint256",
          "name": "eventid",
          "type": "uint256"
        }
      ],
      "name": "check_ticket",
      "outputs": [
        {
          "internalType": "bool",
          "name": "",
          "type": "bool"
        }
      ],
      "stateMutability": "view",
      "type": "function",
      "constant": true
    },
    {
      "inputs": [
        {
          "internalType": "address",
          "name": "customer",
          "type": "address"
        },
        {
          "internalType": "uint256",
          "name": "eventid",
          "type": "uint256"
        },
        {
          "internalType": "string",
          "name": "name",
          "type": "string"
        },
        {
          "internalType": "string",
          "name": "surname",
          "type": "string"
        }
      ],
      "name": "buy_ticket",
      "outputs": [
        {
          "internalType": "uint256",
          "name": "",
          "type": "uint256"
        }
      ],
      "stateMutability": "nonpayable",
      "type": "function"
    },
    {
      "inputs": [
        {
          "internalType": "address",
          "name": "val",
          "type": "address"
        }
      ],
      "name": "get_ticket_to_validate",
      "outputs": [
        {
          "components": [
            {
              "internalType": "string",
              "name": "name",
              "type": "string"
            },
            {
              "internalType": "string",
              "name": "surname",
              "type": "string"
            },
            {
              "internalType": "uint256",
              "name": "ticketid",
              "type": "uint256"
            },
            {
              "internalType": "uint256",
              "name": "eventid",
              "type": "uint256"
            },
            {
              "internalType": "bool",
              "name": "sell",
              "type": "bool"
            },
            {
              "internalType": "bool",
              "name": "validate",
              "type": "bool"
            },
            {
              "internalType": "address",
              "name": "customer",
              "type": "address"
            }
          ],
          "internalType": "struct Event.TicketData[]",
          "name": "",
          "type": "tuple[]"
        }
      ],
      "stateMutability": "view",
      "type": "function",
      "constant": true
    },
    {
      "inputs": [
        {
          "internalType": "uint256",
          "name": "ticketid",
          "type": "uint256"
        },
        {
          "internalType": "address",
          "name": "val",
          "type": "address"
        }
      ],
      "name": "validate_ticket",
      "outputs": [
        {
          "internalType": "bool",
          "name": "",
          "type": "bool"
        }
      ],
      "stateMutability": "nonpayable",
      "type": "function"
    },
    {
      "inputs": [],
      "name": "get_tickets",
      "outputs": [
        {
          "components": [
            {
              "internalType": "string",
              "name": "name",
              "type": "string"
            },
            {
              "internalType": "string",
              "name": "surname",
              "type": "string"
            },
            {
              "internalType": "uint256",
              "name": "ticketid",
              "type": "uint256"
            },
            {
              "internalType": "uint256",
              "name": "eventid",
              "type": "uint256"
            },
            {
              "internalType": "bool",
              "name": "sell",
              "type": "bool"
            },
            {
              "internalType": "bool",
              "name": "validate",
              "type": "bool"
            },
            {
              "internalType": "address",
              "name": "customer",
              "type": "address"
            }
          ],
          "internalType": "struct Event.TicketData[]",
          "name": "",
          "type": "tuple[]"
        }
      ],
      "stateMutability": "view",
      "type": "function",
      "constant": true
    },
    {
      "inputs": [
        {
          "internalType": "address",
          "name": "cliente",
          "type": "address"
        }
      ],
      "name": "get_personal_tickets",
      "outputs": [
        {
          "components": [
            {
              "internalType": "string",
              "name": "name",
              "type": "string"
            },
            {
              "internalType": "string",
              "name": "surname",
              "type": "string"
            },
            {
              "internalType": "uint256",
              "name": "ticketid",
              "type": "uint256"
            },
            {
              "internalType": "uint256",
              "name": "eventid",
              "type": "uint256"
            },
            {
              "internalType": "bool",
              "name": "sell",
              "type": "bool"
            },
            {
              "internalType": "bool",
              "name": "validate",
              "type": "bool"
            },
            {
              "internalType": "address",
              "name": "customer",
              "type": "address"
            }
          ],
          "internalType": "struct Event.TicketData[]",
          "name": "big",
          "type": "tuple[]"
        }
      ],
      "stateMutability": "view",
      "type": "function",
      "constant": true
    },
    {
      "inputs": [
        {
          "internalType": "uint256",
          "name": "eventid",
          "type": "uint256"
        }
      ],
      "name": "get_event_price",
      "outputs": [
        {
          "internalType": "uint256",
          "name": "",
          "type": "uint256"
        }
      ],
      "stateMutability": "view",
      "type": "function",
      "constant": true
    },
    {
      "inputs": [
        {
          "internalType": "uint256",
          "name": "id",
          "type": "uint256"
        }
      ],
      "name": "get_event",
      "outputs": [
        {
          "components": [
            {
              "internalType": "uint256",
              "name": "id",
              "type": "uint256"
            },
            {
              "internalType": "string",
              "name": "title",
              "type": "string"
            },
            {
              "internalType": "string",
              "name": "luogo",
              "type": "string"
            },
            {
              "internalType": "string",
              "name": "date",
              "type": "string"
            },
            {
              "internalType": "uint256",
              "name": "seats",
              "type": "uint256"
            },
            {
              "internalType": "uint256",
              "name": "remaining_tickets",
              "type": "uint256"
            },
            {
              "internalType": "uint256",
              "name": "price",
              "type": "uint256"
            },
            {
              "internalType": "string",
              "name": "state",
              "type": "string"
            },
            {
              "internalType": "address",
              "name": "owner",
              "type": "address"
            }
          ],
          "internalType": "struct Event.EventData",
          "name": "evento",
          "type": "tuple"
        }
      ],
      "stateMutability": "view",
      "type": "function",
      "constant": true
    },
    {
      "inputs": [
        {
          "internalType": "address",
          "name": "r",
          "type": "address"
        }
      ],
      "name": "set_reseller",
      "outputs": [
        {
          "internalType": "string",
          "name": "",
          "type": "string"
        },
        {
          "internalType": "address",
          "name": "",
          "type": "address"
        }
      ],
      "stateMutability": "nonpayable",
      "type": "function"
    },
    {
      "inputs": [
        {
          "internalType": "address",
          "name": "v",
          "type": "address"
        }
      ],
      "name": "set_validator",
      "outputs": [
        {
          "internalType": "string",
          "name": "",
          "type": "string"
        },
        {
          "internalType": "address",
          "name": "",
          "type": "address"
        }
      ],
      "stateMutability": "nonpayable",
      "type": "function"
    },
    {
      "inputs": [],
      "name": "get_balance",
      "outputs": [
        {
          "internalType": "uint256",
          "name": "",
          "type": "uint256"
        }
      ],
      "stateMutability": "view",
      "type": "function",
      "constant": true
    },
    {
      "inputs": [],
      "name": "get_address",
      "outputs": [
        {
          "internalType": "address",
          "name": "",
          "type": "address"
        }
      ],
      "stateMutability": "view",
      "type": "function",
      "constant": true
    }
  ],
  "bytecode": "0x6080604052336000806101000a81548173ffffffffffffffffffffffffffffffffffffffff021916908373ffffffffffffffffffffffffffffffffffffffff16021790555034801561005057600080fd5b50613c9c806100606000396000f3fe608060405234801561001057600080fd5b506004361061010b5760003560e01c80635c34a5de116100a2578063a15cb47b11610071578063a15cb47b146102f4578063c1cfb99a14610324578063c74d97cd14610342578063c9b46fef14610360578063f06f75cc146103905761010b565b80635c34a5de1461025a5780638c59a0851461028a578063957bdf60146102a6578063a143fc0b146102c45761010b565b806338ae8be4116100de57806338ae8be4146101c057806347a828b3146101dc5780634c6882451461020c5780635b3929cb1461023c5761010b565b80630131222f14610110578063214638cc1461012e578063226ee47c1461015e57806330449c801461018f575b600080fd5b6101186103c0565b6040516101259190612cc5565b60405180910390f35b61014860048036038101906101439190612d56565b6103e9565b6040516101559190612db1565b60405180910390f35b61017860048036038101906101739190612dcc565b6105e9565b604051610186929190612e92565b60405180910390f35b6101a960048036038101906101a49190612dcc565b610720565b6040516101b7929190612e92565b60405180910390f35b6101da60048036038101906101d59190612ec2565b610857565b005b6101f660048036038101906101f19190612ec2565b6109bb565b6040516102039190613031565b60405180910390f35b61022660048036038101906102219190612dcc565b610d61565b60405161023391906131c7565b60405180910390f35b6102446111dc565b6040516102519190613385565b60405180910390f35b610274600480360381019061026f9190612ec2565b611502565b6040516102819190612db1565b60405180910390f35b6102a4600480360381019061029f9190612ec2565b6115ea565b005b6102ae61174e565b6040516102bb91906131c7565b60405180910390f35b6102de60048036038101906102d99190612dcc565b6119ff565b6040516102eb91906131c7565b60405180910390f35b61030e60048036038101906103099190612ec2565b611e98565b60405161031b91906133b6565b60405180910390f35b61032c611ec7565b60405161033991906133b6565b60405180910390f35b61034a611f07565b6040516103579190612cc5565b60405180910390f35b61037a60048036038101906103759190613506565b611f2d565b60405161038791906133b6565b60405180910390f35b6103aa60048036038101906103a591906135fc565b6122be565b6040516103b791906133b6565b60405180910390f35b60008060009054906101000a900473ffffffffffffffffffffffffffffffffffffffff16905090565b600081600260009054906101000a900473ffffffffffffffffffffffffffffffffffffffff1673ffffffffffffffffffffffffffffffffffffffff168173ffffffffffffffffffffffffffffffffffffffff161461047c576040517f08c379a0000000000000000000000000000000000000000000000000000000008152600401610473906136e7565b60405180910390fd5b6000805b610488612349565b8110156105965785600482815481106104a4576104a3613707565b5b9060005260206000209060050201600201541480156104f9575060001515600482815481106104d6576104d5613707565b5b906000526020600020906005020160040160019054906101000a900460ff161515145b801561053b5750600115156004828154811061051857610517613707565b5b906000526020600020906005020160040160009054906101000a900460ff161515145b156105835760016004828154811061055657610555613707565b5b906000526020600020906005020160040160016101000a81548160ff021916908315150217905550600191505b808061058e90613765565b915050610480565b5060011515811515146105de576040517f08c379a00000000000000000000000000000000000000000000000000000000081526004016105d590613820565b60405180910390fd5b809250505092915050565b606060008060009054906101000a900473ffffffffffffffffffffffffffffffffffffffff1673ffffffffffffffffffffffffffffffffffffffff163373ffffffffffffffffffffffffffffffffffffffff161461067c576040517f08c379a0000000000000000000000000000000000000000000000000000000008152600401610673906138b2565b60405180910390fd5b82600260006101000a81548173ffffffffffffffffffffffffffffffffffffffff021916908373ffffffffffffffffffffffffffffffffffffffff160217905550600260009054906101000a900473ffffffffffffffffffffffffffffffffffffffff166040518060400160405280601381526020017f56616c696461746f7220696d706f737461746f000000000000000000000000008152509091509150915091565b606060008060009054906101000a900473ffffffffffffffffffffffffffffffffffffffff1673ffffffffffffffffffffffffffffffffffffffff163373ffffffffffffffffffffffffffffffffffffffff16146107b3576040517f08c379a00000000000000000000000000000000000000000000000000000000081526004016107aa906138b2565b60405180910390fd5b82600160006101000a81548173ffffffffffffffffffffffffffffffffffffffff021916908373ffffffffffffffffffffffffffffffffffffffff160217905550600160009054906101000a900473ffffffffffffffffffffffffffffffffffffffff166040518060400160405280601281526020017f526573656c6c657220696d706f737461746f00000000000000000000000000008152509091509150915091565b60008054906101000a900473ffffffffffffffffffffffffffffffffffffffff1673ffffffffffffffffffffffffffffffffffffffff163373ffffffffffffffffffffffffffffffffffffffff16146108e5576040517f08c379a00000000000000000000000000000000000000000000000000000000081526004016108dc906138b2565b60405180910390fd5b6040518060400160405280600881526020017f436f6e636c75736f0000000000000000000000000000000000000000000000008152506003828154811061092f5761092e613707565b5b90600052602060002090600902016007019080519060200190610953929190612b28565b5060008054906101000a900473ffffffffffffffffffffffffffffffffffffffff1673ffffffffffffffffffffffffffffffffffffffff16817fb15d3899a0a77e20f0c368865d76be846e277b8cac84cddf244f45748709720a60405160405180910390a350565b6109c3612bae565b6109cb612356565b8210610a0c576040517f08c379a0000000000000000000000000000000000000000000000000000000008152600401610a039061391e565b60405180910390fd5b60005b610a17612356565b811015610d5a578260038281548110610a3357610a32613707565b5b9060005260206000209060090201600001541415610d475760038181548110610a5f57610a5e613707565b5b90600052602060002090600902016040518061012001604052908160008201548152602001600182018054610a939061396d565b80601f0160208091040260200160405190810160405280929190818152602001828054610abf9061396d565b8015610b0c5780601f10610ae157610100808354040283529160200191610b0c565b820191906000526020600020905b815481529060010190602001808311610aef57829003601f168201915b50505050508152602001600282018054610b259061396d565b80601f0160208091040260200160405190810160405280929190818152602001828054610b519061396d565b8015610b9e5780601f10610b7357610100808354040283529160200191610b9e565b820191906000526020600020905b815481529060010190602001808311610b8157829003601f168201915b50505050508152602001600382018054610bb79061396d565b80601f0160208091040260200160405190810160405280929190818152602001828054610be39061396d565b8015610c305780601f10610c0557610100808354040283529160200191610c30565b820191906000526020600020905b815481529060010190602001808311610c1357829003601f168201915b50505050508152602001600482015481526020016005820154815260200160068201548152602001600782018054610c679061396d565b80601f0160208091040260200160405190810160405280929190818152602001828054610c939061396d565b8015610ce05780601f10610cb557610100808354040283529160200191610ce0565b820191906000526020600020905b815481529060010190602001808311610cc357829003601f168201915b505050505081526020016008820160009054906101000a900473ffffffffffffffffffffffffffffffffffffffff1673ffffffffffffffffffffffffffffffffffffffff1673ffffffffffffffffffffffffffffffffffffffff1681525050915050610d5c565b8080610d5290613765565b915050610a0f565b505b919050565b60606000805b610d6f612349565b811015610e11578373ffffffffffffffffffffffffffffffffffffffff1660048281548110610da157610da0613707565b5b906000526020600020906005020160040160029054906101000a900473ffffffffffffffffffffffffffffffffffffffff1673ffffffffffffffffffffffffffffffffffffffff161415610dfe578180610dfa90613765565b9250505b8080610e0990613765565b915050610d67565b5060008167ffffffffffffffff811115610e2e57610e2d6133db565b5b604051908082528060200260200182016040528015610e6757816020015b610e54612c10565b815260200190600190039081610e4c5790505b5090506000805b610e76612349565b8110156111d0578573ffffffffffffffffffffffffffffffffffffffff1660048281548110610ea857610ea7613707565b5b906000526020600020906005020160040160029054906101000a900473ffffffffffffffffffffffffffffffffffffffff1673ffffffffffffffffffffffffffffffffffffffff1614156111bd576040518060e0016040528060048381548110610f1557610f14613707565b5b90600052602060002090600502016000018054610f319061396d565b80601f0160208091040260200160405190810160405280929190818152602001828054610f5d9061396d565b8015610faa5780601f10610f7f57610100808354040283529160200191610faa565b820191906000526020600020905b815481529060010190602001808311610f8d57829003601f168201915b5050505050815260200160048381548110610fc857610fc7613707565b5b90600052602060002090600502016001018054610fe49061396d565b80601f01602080910402602001604051908101604052809291908181526020018280546110109061396d565b801561105d5780601f106110325761010080835404028352916020019161105d565b820191906000526020600020905b81548152906001019060200180831161104057829003601f168201915b505050505081526020016004838154811061107b5761107a613707565b5b9060005260206000209060050201600201548152602001600483815481106110a6576110a5613707565b5b9060005260206000209060050201600301548152602001600483815481106110d1576110d0613707565b5b906000526020600020906005020160040160009054906101000a900460ff16151581526020016004838154811061110b5761110a613707565b5b906000526020600020906005020160040160019054906101000a900460ff16151581526020016004838154811061114557611144613707565b5b906000526020600020906005020160040160029054906101000a900473ffffffffffffffffffffffffffffffffffffffff1673ffffffffffffffffffffffffffffffffffffffff168152508383815181106111a3576111a2613707565b5b602002602001018190525081806111b990613765565b9250505b80806111c890613765565b915050610e6e565b50819350505050919050565b60606003805480602002602001604051908101604052809291908181526020016000905b828210156114f95783829060005260206000209060090201604051806101200160405290816000820154815260200160018201805461123e9061396d565b80601f016020809104026020016040519081016040528092919081815260200182805461126a9061396d565b80156112b75780601f1061128c576101008083540402835291602001916112b7565b820191906000526020600020905b81548152906001019060200180831161129a57829003601f168201915b505050505081526020016002820180546112d09061396d565b80601f01602080910402602001604051908101604052809291908181526020018280546112fc9061396d565b80156113495780601f1061131e57610100808354040283529160200191611349565b820191906000526020600020905b81548152906001019060200180831161132c57829003601f168201915b505050505081526020016003820180546113629061396d565b80601f016020809104026020016040519081016040528092919081815260200182805461138e9061396d565b80156113db5780601f106113b0576101008083540402835291602001916113db565b820191906000526020600020905b8154815290600101906020018083116113be57829003601f168201915b505050505081526020016004820154815260200160058201548152602001600682015481526020016007820180546114129061396d565b80601f016020809104026020016040519081016040528092919081815260200182805461143e9061396d565b801561148b5780601f106114605761010080835404028352916020019161148b565b820191906000526020600020905b81548152906001019060200180831161146e57829003601f168201915b505050505081526020016008820160009054906101000a900473ffffffffffffffffffffffffffffffffffffffff1673ffffffffffffffffffffffffffffffffffffffff1673ffffffffffffffffffffffffffffffffffffffff168152505081526020019060010190611200565b50505050905090565b60008061150e836109bb565b905060008160a0015114156115275760009150506115e5565b604051602001611536906139f6565b604051602081830303815290604052805190602001208160e001516040516020016115619190613a3c565b6040516020818303038152906040528051906020012014806115d0575060405160200161158d90613a9f565b604051602081830303815290604052805190602001208160e001516040516020016115b89190613a3c565b60405160208183030381529060405280519060200120145b156115df5760009150506115e5565b60019150505b919050565b60008054906101000a900473ffffffffffffffffffffffffffffffffffffffff1673ffffffffffffffffffffffffffffffffffffffff163373ffffffffffffffffffffffffffffffffffffffff1614611678576040517f08c379a000000000000000000000000000000000000000000000000000000000815260040161166f906138b2565b60405180910390fd5b6040518060400160405280600981526020017f416e6e756c6c61746f0000000000000000000000000000000000000000000000815250600382815481106116c2576116c1613707565b5b906000526020600020906009020160070190805190602001906116e6929190612b28565b5060008054906101000a900473ffffffffffffffffffffffffffffffffffffffff1673ffffffffffffffffffffffffffffffffffffffff16817f9ab588958c126cb0274213719f45aca396603352447383188a81e29c1269029a60405160405180910390a350565b606060008054906101000a900473ffffffffffffffffffffffffffffffffffffffff1673ffffffffffffffffffffffffffffffffffffffff163373ffffffffffffffffffffffffffffffffffffffff16146117de576040517f08c379a00000000000000000000000000000000000000000000000000000000081526004016117d5906138b2565b60405180910390fd5b6004805480602002602001604051908101604052809291908181526020016000905b828210156119f657838290600052602060002090600502016040518060e00160405290816000820180546118339061396d565b80601f016020809104026020016040519081016040528092919081815260200182805461185f9061396d565b80156118ac5780601f10611881576101008083540402835291602001916118ac565b820191906000526020600020905b81548152906001019060200180831161188f57829003601f168201915b505050505081526020016001820180546118c59061396d565b80601f01602080910402602001604051908101604052809291908181526020018280546118f19061396d565b801561193e5780601f106119135761010080835404028352916020019161193e565b820191906000526020600020905b81548152906001019060200180831161192157829003601f168201915b5050505050815260200160028201548152602001600382015481526020016004820160009054906101000a900460ff161515151581526020016004820160019054906101000a900460ff161515151581526020016004820160029054906101000a900473ffffffffffffffffffffffffffffffffffffffff1673ffffffffffffffffffffffffffffffffffffffff1673ffffffffffffffffffffffffffffffffffffffff168152505081526020019060010190611800565b50505050905090565b606081600260009054906101000a900473ffffffffffffffffffffffffffffffffffffffff1673ffffffffffffffffffffffffffffffffffffffff168173ffffffffffffffffffffffffffffffffffffffff1614611a92576040517f08c379a0000000000000000000000000000000000000000000000000000000008152600401611a89906136e7565b60405180910390fd5b6000805b611a9e612349565b811015611b06576001151560048281548110611abd57611abc613707565b5b906000526020600020906005020160040160009054906101000a900460ff1615151415611af3578180611aef90613765565b9250505b8080611afe90613765565b915050611a96565b5060008167ffffffffffffffff811115611b2357611b226133db565b5b604051908082528060200260200182016040528015611b5c57816020015b611b49612c10565b815260200190600190039081611b415790505b5090506000805b611b6b612349565b811015611e8b576001151560048281548110611b8a57611b89613707565b5b906000526020600020906005020160040160009054906101000a900460ff1615151415611e78576040518060e0016040528060048381548110611bd057611bcf613707565b5b90600052602060002090600502016000018054611bec9061396d565b80601f0160208091040260200160405190810160405280929190818152602001828054611c189061396d565b8015611c655780601f10611c3a57610100808354040283529160200191611c65565b820191906000526020600020905b815481529060010190602001808311611c4857829003601f168201915b5050505050815260200160048381548110611c8357611c82613707565b5b90600052602060002090600502016001018054611c9f9061396d565b80601f0160208091040260200160405190810160405280929190818152602001828054611ccb9061396d565b8015611d185780601f10611ced57610100808354040283529160200191611d18565b820191906000526020600020905b815481529060010190602001808311611cfb57829003601f168201915b5050505050815260200160048381548110611d3657611d35613707565b5b906000526020600020906005020160020154815260200160048381548110611d6157611d60613707565b5b906000526020600020906005020160030154815260200160048381548110611d8c57611d8b613707565b5b906000526020600020906005020160040160009054906101000a900460ff161515815260200160048381548110611dc657611dc5613707565b5b906000526020600020906005020160040160019054906101000a900460ff161515815260200160048381548110611e0057611dff613707565b5b906000526020600020906005020160040160029054906101000a900473ffffffffffffffffffffffffffffffffffffffff1673ffffffffffffffffffffffffffffffffffffffff16815250838381518110611e5e57611e5d613707565b5b60200260200101819052508180611e7490613765565b9250505b8080611e8390613765565b915050611b63565b5081945050505050919050565b600060038281548110611eae57611ead613707565b5b9060005260206000209060090201600601549050919050565b60008060009054906101000a900473ffffffffffffffffffffffffffffffffffffffff1673ffffffffffffffffffffffffffffffffffffffff1631905090565b600160009054906101000a900473ffffffffffffffffffffffffffffffffffffffff1681565b60008060009054906101000a900473ffffffffffffffffffffffffffffffffffffffff1673ffffffffffffffffffffffffffffffffffffffff163373ffffffffffffffffffffffffffffffffffffffff1614611fbe576040517f08c379a0000000000000000000000000000000000000000000000000000000008152600401611fb5906138b2565b60405180910390fd5b6003604051806101200160405280600081526020018a81526020018981526020018881526020018781526020018781526020018681526020016040518060400160405280600c81526020017f4e6f6e20636f6e636c75736f0000000000000000000000000000000000000000815250815260200160008054906101000a900473ffffffffffffffffffffffffffffffffffffffff1673ffffffffffffffffffffffffffffffffffffffff1681525090806001815401808255809150506001900390600052602060002090600902016000909190919091506000820151816000015560208201518160010190805190602001906120bb929190612b28565b5060408201518160020190805190602001906120d8929190612b28565b5060608201518160030190805190602001906120f5929190612b28565b506080820151816004015560a0820151816005015560c0820151816006015560e0820151816007019080519060200190612130929190612b28565b506101008201518160080160006101000a81548173ffffffffffffffffffffffffffffffffffffffff021916908373ffffffffffffffffffffffffffffffffffffffff160217905550505060006001612187612356565b6121919190613ab4565b905080600382815481106121a8576121a7613707565b5b90600052602060002090600902016000018190555060008054906101000a900473ffffffffffffffffffffffffffffffffffffffff1673ffffffffffffffffffffffffffffffffffffffff16817fe43349c008949cf6b65249356e6f918d4aaa0ca79f2b1166df4a4a98c9c16de260405160405180910390a383600160006101000a81548173ffffffffffffffffffffffffffffffffffffffff021916908373ffffffffffffffffffffffffffffffffffffffff16021790555082600260006101000a81548173ffffffffffffffffffffffffffffffffffffffff021916908373ffffffffffffffffffffffffffffffffffffffff1602179055506122ae818786612363565b5080915050979650505050505050565b6000806122ca8561263a565b90506122dc81604001518585896128e0565b506122e685612aea565b8573ffffffffffffffffffffffffffffffffffffffff16857fc41bbb54d04f2268c7895b9330f18468c306a3f92698a92c4c86b29787397848836040015160405161233191906133b6565b60405180910390a38060400151915050949350505050565b6000600480549050905090565b6000600380549050905090565b600081600160009054906101000a900473ffffffffffffffffffffffffffffffffffffffff1673ffffffffffffffffffffffffffffffffffffffff168173ffffffffffffffffffffffffffffffffffffffff16146123f6576040517f08c379a00000000000000000000000000000000000000000000000000000000081526004016123ed90613b5a565b60405180910390fd5b60008085612402612349565b61240c9190613b7a565b90506000612418612349565b90505b818110156125e75760046040518060e00160405280604051806020016040528060008152508152602001604051806020016040528060008152508152602001600081526020018a8152602001600015158152602001600015158152602001600073ffffffffffffffffffffffffffffffffffffffff16815250908060018154018082558091505060019003906000526020600020906005020160009091909190915060008201518160000190805190602001906124d9929190612b28565b5060208201518160010190805190602001906124f6929190612b28565b50604082015181600201556060820151816003015560808201518160040160006101000a81548160ff02191690831515021790555060a08201518160040160016101000a81548160ff02191690831515021790555060c08201518160040160026101000a81548173ffffffffffffffffffffffffffffffffffffffff021916908373ffffffffffffffffffffffffffffffffffffffff1602179055505050600161259e612349565b6125a89190613ab4565b925082600482815481106125bf576125be613707565b5b90600052602060002090600502016002018190555080806125df90613765565b91505061241b565b508473ffffffffffffffffffffffffffffffffffffffff1686887f6567ab497f12a760d234e0684de86536dce884c904386957d5877e165bfb32fa60405160405180910390a48593505050509392505050565b612642612c10565b61264a612c10565b60005b612655612349565b8110156128d657836004828154811061267157612670613707565b5b9060005260206000209060050201600301541480156126c6575060001515600482815481106126a3576126a2613707565b5b906000526020600020906005020160040160009054906101000a900460ff161515145b156128c357600481815481106126df576126de613707565b5b90600052602060002090600502016040518060e00160405290816000820180546127089061396d565b80601f01602080910402602001604051908101604052809291908181526020018280546127349061396d565b80156127815780601f1061275657610100808354040283529160200191612781565b820191906000526020600020905b81548152906001019060200180831161276457829003601f168201915b5050505050815260200160018201805461279a9061396d565b80601f01602080910402602001604051908101604052809291908181526020018280546127c69061396d565b80156128135780601f106127e857610100808354040283529160200191612813565b820191906000526020600020905b8154815290600101906020018083116127f657829003601f168201915b5050505050815260200160028201548152602001600382015481526020016004820160009054906101000a900460ff161515151581526020016004820160019054906101000a900460ff161515151581526020016004820160029054906101000a900473ffffffffffffffffffffffffffffffffffffffff1673ffffffffffffffffffffffffffffffffffffffff1673ffffffffffffffffffffffffffffffffffffffff168152505091506128d6565b80806128ce90613765565b91505061264d565b5080915050919050565b6000806000905060005b6128f2612349565b811015612a9657866004828154811061290e5761290d613707565b5b906000526020600020906005020160020154148015612963575060001515600482815481106129405761293f613707565b5b906000526020600020906005020160040160009054906101000a900460ff161515145b15612a835760016004828154811061297e5761297d613707565b5b906000526020600020906005020160040160006101000a81548160ff02191690831515021790555085600482815481106129bb576129ba613707565b5b906000526020600020906005020160000190805190602001906129df929190612b28565b5084600482815481106129f5576129f4613707565b5b90600052602060002090600502016001019080519060200190612a19929190612b28565b508360048281548110612a2f57612a2e613707565b5b906000526020600020906005020160040160026101000a81548173ffffffffffffffffffffffffffffffffffffffff021916908373ffffffffffffffffffffffffffffffffffffffff160217905550600191505b8080612a8e90613765565b9150506128ea565b506001151581151514612ade576040517f08c379a0000000000000000000000000000000000000000000000000000000008152600401612ad590613c1c565b60405180910390fd5b80915050949350505050565b60038181548110612afe57612afd613707565b5b90600052602060002090600902016005016000815480929190612b2090613c3c565b919050555050565b828054612b349061396d565b90600052602060002090601f016020900481019282612b565760008555612b9d565b82601f10612b6f57805160ff1916838001178555612b9d565b82800160010185558215612b9d579182015b82811115612b9c578251825591602001919060010190612b81565b5b509050612baa9190612c67565b5090565b6040518061012001604052806000815260200160608152602001606081526020016060815260200160008152602001600081526020016000815260200160608152602001600073ffffffffffffffffffffffffffffffffffffffff1681525090565b6040518060e0016040528060608152602001606081526020016000815260200160008152602001600015158152602001600015158152602001600073ffffffffffffffffffffffffffffffffffffffff1681525090565b5b80821115612c80576000816000905550600101612c68565b5090565b600073ffffffffffffffffffffffffffffffffffffffff82169050919050565b6000612caf82612c84565b9050919050565b612cbf81612ca4565b82525050565b6000602082019050612cda6000830184612cb6565b92915050565b6000604051905090565b600080fd5b600080fd5b6000819050919050565b612d0781612cf4565b8114612d1257600080fd5b50565b600081359050612d2481612cfe565b92915050565b612d3381612ca4565b8114612d3e57600080fd5b50565b600081359050612d5081612d2a565b92915050565b60008060408385031215612d6d57612d6c612cea565b5b6000612d7b85828601612d15565b9250506020612d8c85828601612d41565b9150509250929050565b60008115159050919050565b612dab81612d96565b82525050565b6000602082019050612dc66000830184612da2565b92915050565b600060208284031215612de257612de1612cea565b5b6000612df084828501612d41565b91505092915050565b600081519050919050565b600082825260208201905092915050565b60005b83811015612e33578082015181840152602081019050612e18565b83811115612e42576000848401525b50505050565b6000601f19601f8301169050919050565b6000612e6482612df9565b612e6e8185612e04565b9350612e7e818560208601612e15565b612e8781612e48565b840191505092915050565b60006040820190508181036000830152612eac8185612e59565b9050612ebb6020830184612cb6565b9392505050565b600060208284031215612ed857612ed7612cea565b5b6000612ee684828501612d15565b91505092915050565b612ef881612cf4565b82525050565b600082825260208201905092915050565b6000612f1a82612df9565b612f248185612efe565b9350612f34818560208601612e15565b612f3d81612e48565b840191505092915050565b612f5181612ca4565b82525050565b600061012083016000830151612f706000860182612eef565b5060208301518482036020860152612f888282612f0f565b91505060408301518482036040860152612fa28282612f0f565b91505060608301518482036060860152612fbc8282612f0f565b9150506080830151612fd16080860182612eef565b5060a0830151612fe460a0860182612eef565b5060c0830151612ff760c0860182612eef565b5060e083015184820360e086015261300f8282612f0f565b915050610100830151613026610100860182612f48565b508091505092915050565b6000602082019050818103600083015261304b8184612f57565b905092915050565b600081519050919050565b600082825260208201905092915050565b6000819050602082019050919050565b61308881612d96565b82525050565b600060e08301600083015184820360008601526130ab8282612f0f565b915050602083015184820360208601526130c58282612f0f565b91505060408301516130da6040860182612eef565b5060608301516130ed6060860182612eef565b506080830151613100608086018261307f565b5060a083015161311360a086018261307f565b5060c083015161312660c0860182612f48565b508091505092915050565b600061313d838361308e565b905092915050565b6000602082019050919050565b600061315d82613053565b613167818561305e565b9350836020820285016131798561306f565b8060005b858110156131b557848403895281516131968582613131565b94506131a183613145565b925060208a0199505060018101905061317d565b50829750879550505050505092915050565b600060208201905081810360008301526131e18184613152565b905092915050565b600081519050919050565b600082825260208201905092915050565b6000819050602082019050919050565b60006101208301600083015161322e6000860182612eef565b50602083015184820360208601526132468282612f0f565b915050604083015184820360408601526132608282612f0f565b9150506060830151848203606086015261327a8282612f0f565b915050608083015161328f6080860182612eef565b5060a08301516132a260a0860182612eef565b5060c08301516132b560c0860182612eef565b5060e083015184820360e08601526132cd8282612f0f565b9150506101008301516132e4610100860182612f48565b508091505092915050565b60006132fb8383613215565b905092915050565b6000602082019050919050565b600061331b826131e9565b61332581856131f4565b93508360208202850161333785613205565b8060005b85811015613373578484038952815161335485826132ef565b945061335f83613303565b925060208a0199505060018101905061333b565b50829750879550505050505092915050565b6000602082019050818103600083015261339f8184613310565b905092915050565b6133b081612cf4565b82525050565b60006020820190506133cb60008301846133a7565b92915050565b600080fd5b600080fd5b7f4e487b7100000000000000000000000000000000000000000000000000000000600052604160045260246000fd5b61341382612e48565b810181811067ffffffffffffffff82111715613432576134316133db565b5b80604052505050565b6000613445612ce0565b9050613451828261340a565b919050565b600067ffffffffffffffff821115613471576134706133db565b5b61347a82612e48565b9050602081019050919050565b82818337600083830152505050565b60006134a96134a484613456565b61343b565b9050828152602081018484840111156134c5576134c46133d6565b5b6134d0848285613487565b509392505050565b600082601f8301126134ed576134ec6133d1565b5b81356134fd848260208601613496565b91505092915050565b600080600080600080600060e0888a03121561352557613524612cea565b5b600088013567ffffffffffffffff81111561354357613542612cef565b5b61354f8a828b016134d8565b975050602088013567ffffffffffffffff8111156135705761356f612cef565b5b61357c8a828b016134d8565b965050604088013567ffffffffffffffff81111561359d5761359c612cef565b5b6135a98a828b016134d8565b95505060606135ba8a828b01612d15565b94505060806135cb8a828b01612d15565b93505060a06135dc8a828b01612d41565b92505060c06135ed8a828b01612d41565b91505092959891949750929550565b6000806000806080858703121561361657613615612cea565b5b600061362487828801612d41565b945050602061363587828801612d15565b935050604085013567ffffffffffffffff81111561365657613655612cef565b5b613662878288016134d8565b925050606085013567ffffffffffffffff81111561368357613682612cef565b5b61368f878288016134d8565b91505092959194509250565b7f4e6f6e2073656920696c2076616c696461746f72000000000000000000000000600082015250565b60006136d1601483612e04565b91506136dc8261369b565b602082019050919050565b60006020820190508181036000830152613700816136c4565b9050919050565b7f4e487b7100000000000000000000000000000000000000000000000000000000600052603260045260246000fd5b7f4e487b7100000000000000000000000000000000000000000000000000000000600052601160045260246000fd5b600061377082612cf4565b91507fffffffffffffffffffffffffffffffffffffffffffffffffffffffffffffffff8214156137a3576137a2613736565b5b600182019050919050565b7f4269676c696574746f20676961272076616c696461746f206f20696e76616c6960008201527f646162696c650000000000000000000000000000000000000000000000000000602082015250565b600061380a602683612e04565b9150613815826137ae565b604082019050919050565b60006020820190508181036000830152613839816137fd565b9050919050565b7f4e6f6e20736569206175746f72697a7a61746f2061642065736567756972652060008201527f71756573746120617a696f6e6500000000000000000000000000000000000000602082015250565b600061389c602d83612e04565b91506138a782613840565b604082019050919050565b600060208201905081810360008301526138cb8161388f565b9050919050565b7f4c276576656e746f206e6f6e2065736973746500000000000000000000000000600082015250565b6000613908601383612e04565b9150613913826138d2565b602082019050919050565b60006020820190508181036000830152613937816138fb565b9050919050565b7f4e487b7100000000000000000000000000000000000000000000000000000000600052602260045260246000fd5b6000600282049050600182168061398557607f821691505b602082108114156139995761399861393e565b5b50919050565b600081905092915050565b7f436f6e636c75736f000000000000000000000000000000000000000000000000600082015250565b60006139e060088361399f565b91506139eb826139aa565b600882019050919050565b6000613a01826139d3565b9150819050919050565b6000613a1682612df9565b613a20818561399f565b9350613a30818560208601612e15565b80840191505092915050565b6000613a488284613a0b565b915081905092915050565b7f416e6e756c6c61746f0000000000000000000000000000000000000000000000600082015250565b6000613a8960098361399f565b9150613a9482613a53565b600982019050919050565b6000613aaa82613a7c565b9150819050919050565b6000613abf82612cf4565b9150613aca83612cf4565b925082821015613add57613adc613736565b5b828203905092915050565b7f496c20726573656c6c657220737065636966696361746f20652720657272617460008201527f6f00000000000000000000000000000000000000000000000000000000000000602082015250565b6000613b44602183612e04565b9150613b4f82613ae8565b604082019050919050565b60006020820190508181036000830152613b7381613b37565b9050919050565b6000613b8582612cf4565b9150613b9083612cf4565b9250827fffffffffffffffffffffffffffffffffffffffffffffffffffffffffffffffff03821115613bc557613bc4613736565b5b828201905092915050565b7f4572726f7265206e656c6c61206661736520646920616371756973746f000000600082015250565b6000613c06601d83612e04565b9150613c1182613bd0565b602082019050919050565b60006020820190508181036000830152613c3581613bf9565b9050919050565b6000613c4782612cf4565b91506000821415613c5b57613c5a613736565b5b60018203905091905056fea264697066735822122029949253c8a68deaf15bade04f88a5eff176eac4b17c7c3f2e2a859f8285561764736f6c634300080a0033",
  "immutableReferences": {},
  "source": "// SPDX-License-Identifier: GPL-3.0\r\npragma solidity >=0.7.0 <0.9.0;\r\n\r\n\r\n\r\ncontract Event {\r\n    \r\n    address private owner=msg.sender;\r\n    \r\n    address public reseller;\r\n    \r\n    address private validator;\r\n    \r\n    \r\n    struct EventData{ //event data structure\r\n    \r\n        uint id;\r\n    \r\n        string title;\r\n        \r\n        string luogo;\r\n        \r\n        string date;\r\n        \r\n        uint seats;\r\n        \r\n        uint remaining_tickets;\r\n        \r\n        uint256 price;\r\n        \r\n        string state;\r\n        \r\n        address owner;\r\n    } \r\n    \r\n    \r\n    \r\n    struct TicketData{ //ticket data structure\r\n        \r\n        string name;\r\n        \r\n        string surname;\r\n        \r\n        uint ticketid;\r\n        \r\n        uint eventid;\r\n        \r\n        bool sell;\r\n        \r\n        bool validate;\r\n\r\n        address customer;\r\n    }\r\n    \r\n    \r\n    \r\n    EventData[] private events; //all events\r\n    TicketData[] private tickets; //all tickets\r\n    \r\n    modifier only_owner() {\r\n        require(msg.sender == owner, \"Non sei autorizzato ad eseguire questa azione\");\r\n        _;\r\n    }\r\n    \r\n    modifier only_reseller(address res) {\r\n        require(res == reseller, \"Il reseller specificato e' errato\");\r\n        _;\r\n    }\r\n    \r\n    modifier only_validator(address val) {\r\n        require(val == validator, \"Non sei il validator\");\r\n        _;\r\n    }\r\n\r\n    \r\n    event EventCreated(uint indexed eventid, address indexed creator);\r\n    event EventOverrlue(uint indexed eventid, address indexed creator);\r\n    event EventFinished(uint indexed eventid, address indexed creator);\r\n    event TicketsGenerated(uint indexed eventid, uint indexed totalticket, address indexed creator);\r\n    event TicketSold(uint indexed eventid, uint ticketid, address indexed customer);\r\n    \r\n    \r\n    function  create_event(string memory title, string memory  luogo, string memory  date, uint seats, uint256 price, address res, address val) public only_owner returns(uint) {\r\n        {\r\n            events.push(EventData(0, title, luogo,  date, seats, seats, price, \"Non concluso\" , owner));\r\n            uint id=get_event_length() - 1;\r\n            events[id].id=id;\r\n            emit EventCreated(id, owner);\r\n            reseller=res;\r\n            validator=val;\r\n            generate_tickets(id, seats, res);\r\n            return id;\r\n        }\r\n    }\r\n    \r\n    function overrlue_event(uint id) public only_owner {\r\n            events[id].state=\"Annullato\";\r\n            emit EventOverrlue(id, owner);\r\n    }\r\n    \r\n    function finish_event(uint id) public only_owner {\r\n        events[id].state=\"Concluso\";\r\n        emit EventFinished(id, owner);\r\n    }\r\n    \r\n     function get_events() public view returns (EventData[] memory){\r\n         return events;\r\n     } \r\n\r\n\r\n    \r\n    function generate_tickets(uint eventid, uint totalticket , address res) internal only_reseller(res) returns(uint){\r\n        uint ticketid=0;\r\n        uint array_len=get_ticket_lenght()+totalticket;\r\n        for(uint i=get_ticket_lenght(); i < array_len  ; i++){\r\n            tickets.push(TicketData(\"\", \"\", 0, eventid, false, false, 0x0000000000000000000000000000000000000000));\r\n            ticketid=get_ticket_lenght() - 1;\r\n            tickets[i].ticketid=ticketid;\r\n        }\r\n        emit TicketsGenerated(eventid, totalticket , res);\r\n        return totalticket;\r\n    }\r\n    \r\n    function get_event_ticket(uint eventid) internal view returns (TicketData memory){\r\n        TicketData memory biglietto;\r\n        for(uint i=0; i < get_ticket_lenght(); i++){ \r\n            if(tickets[i].eventid==eventid && tickets[i].sell==false){\r\n                biglietto=tickets[i];\r\n                break;\r\n            }\r\n        }\r\n        return biglietto;\r\n    }\r\n    \r\n    function set_ticket_sold(uint ticketid, string memory name, string memory surname, address customer) internal returns(bool){\r\n        bool flag=false;\r\n        for(uint i=0; i < get_ticket_lenght(); i++){\r\n            if(tickets[i].ticketid==ticketid && tickets[i].sell==false){\r\n                tickets[i].sell=true;\r\n                tickets[i].name=name;\r\n                tickets[i].surname=surname;\r\n                tickets[i].customer=customer;\r\n                flag=true;\r\n            }\r\n            \r\n        }\r\n        require(flag==true, \"Errore nella fase di acquisto\");\r\n        return flag;\r\n        \r\n    }\r\n    \r\n    function check_ticket(uint eventid) external view returns(bool){\r\n        EventData memory evento= get_event(eventid);\r\n        if(evento.remaining_tickets == 0)\r\n            return false;\r\n        else if(keccak256(abi.encodePacked(evento.state))==keccak256(abi.encodePacked(\"Concluso\")) || keccak256(abi.encodePacked(evento.state))==keccak256(abi.encodePacked(\"Annullato\")) )\r\n            return false;\r\n        else \r\n            return true;\r\n    }\r\n    \r\n    function buy_ticket( address customer, uint eventid, string memory name, string memory surname) external returns(uint){\r\n        TicketData memory biglietto=get_event_ticket(eventid);\r\n        set_ticket_sold(biglietto.ticketid, name, surname, customer);\r\n        reduce_remaining_tickets(eventid);\r\n        emit TicketSold(eventid, biglietto.ticketid, customer);\r\n        return  biglietto.ticketid;      \r\n    }\r\n    \r\n    function reduce_remaining_tickets(uint eventid) internal{\r\n        events[eventid].remaining_tickets --;\r\n    }\r\n\r\n\r\n    function get_ticket_to_validate(address val) public view only_validator(val) returns(TicketData[] memory){\r\n        uint j=0;\r\n        for(uint i=0; i < get_ticket_lenght(); i++){ \r\n            if(tickets[i].sell==true){\r\n                j++;\r\n            }\r\n        }\r\n        TicketData[] memory biglietti=new TicketData[](j);\r\n        uint l=0;\r\n        for(uint i=0; i < get_ticket_lenght(); i++){ \r\n            if(tickets[i].sell==true){\r\n                biglietti[l]=TicketData(tickets[i].name,tickets[i].surname,tickets[i].ticketid,tickets[i].eventid,tickets[i].sell,tickets[i].validate,tickets[i].customer);\r\n                l++;\r\n            }\r\n        }\r\n        return biglietti;\r\n\r\n    }\r\n\r\n\r\n    function validate_ticket(uint ticketid, address val) external only_validator(val)returns(bool){\r\n        bool flag=false;\r\n        for(uint i=0; i < get_ticket_lenght(); i++){\r\n            if(tickets[i].ticketid==ticketid && tickets[i].validate==false && tickets[i].sell==true){\r\n                tickets[i].validate=true;\r\n                flag=true;\r\n            }\r\n        }\r\n        require(flag==true, \"Biglietto gia' validato o invalidabile\");\r\n        return flag;\r\n\r\n   }\r\n    /*function set_event_sold(uint ticketid) internal returns (bool){\r\n        bool flag=false;\r\n        for(uint i=0; i < get_ticket_lenght(); i++){\r\n            if(tickets[i].ticketid==ticketid){\r\n                tickets[i].sell=true;\r\n                flag=true;\r\n            }\r\n        }\r\n        return flag;\r\n    } */\r\n    \r\n    \r\n    function get_tickets() public only_owner view returns(TicketData[] memory){\r\n        return tickets;\r\n    }\r\n\r\n    function get_personal_tickets(address cliente) public view returns(TicketData[] memory big){\r\n        uint j=0;\r\n        for(uint i=0; i < get_ticket_lenght(); i++){ \r\n            if(tickets[i].customer==cliente){\r\n                j++;\r\n            }\r\n        }\r\n        TicketData[] memory biglietti=new TicketData[](j);\r\n        uint l=0;\r\n        for(uint i=0; i < get_ticket_lenght(); i++){ \r\n            if(tickets[i].customer==cliente){\r\n                biglietti[l]=TicketData(tickets[i].name,tickets[i].surname,tickets[i].ticketid,tickets[i].eventid,tickets[i].sell,tickets[i].validate,tickets[i].customer);\r\n                l++;\r\n            }\r\n        }\r\n        return biglietti;\r\n    }\r\n\r\n    \r\n\r\n    function get_event_price(uint eventid) public view returns(uint) {\r\n        return events[eventid].price;\r\n    }\r\n    /*function delete_event_list(uint id) public only_owner {\r\n        bool deletable=false;\r\n        string memory an=\"Annullato\";\r\n        string memory cn=\"Concluso\";\r\n        for(uint i=0; i < get_event_length(); i++){\r\n            if(keccak256(abi.encodePacked(events[i]))==keccak256(abi.encodePacked(an)))\r\n                deletable=true;\r\n        }\r\n        \r\n        if(deletable)\r\n            delete events;\r\n    } */\r\n  \r\n     \r\n     function get_event(uint id) public view returns(EventData memory evento){\r\n         require(id < get_event_length(), \"L'evento non esiste\");\r\n         for(uint i=0; i < get_event_length(); i++){\r\n             if(events[i].id==id)\r\n                return events[i];\r\n         }\r\n     }\r\n     \r\n     function get_event_length() internal view returns (uint){\r\n         return events.length;\r\n     }\r\n     \r\n     function get_ticket_lenght() internal view returns (uint){\r\n         return tickets.length;\r\n     }\r\n     \r\n     function set_reseller(address r) only_owner public returns(string memory, address){\r\n         reseller=r;\r\n         return(\"Reseller impostato\", reseller);\r\n     }\r\n\r\n     function set_validator(address v) only_owner public returns(string memory, address){\r\n         validator=v;\r\n         return(\"Validator impostato\", validator);\r\n     }\r\n     \r\n     function get_balance() public view returns (uint256){\r\n        return owner.balance;\r\n    }\r\n\r\n    function get_address() public view returns(address){\r\n        return owner;\r\n    }\r\n\r\n    \r\n}  ",
  "sourcePath": "C:\\Users\\Denil\\Desktop\\Progetto cyberesecurity\\Software-Cybersecurity-Project\\contracts\\Event.sol",
  "compiler": {
    "name": "solc",
    "version": "0.8.10+commit.fc410830.Emscripten.clang"
  },
  "schemaVersion": "3.4.3",
  "updatedAt": "2021-11-09T20:13:49.858Z",
  "networkType": "ethereum",
  "devdoc": {
    "kind": "dev",
    "methods": {},
    "version": 1
  },
  "userdoc": {
    "kind": "user",
    "methods": {},
    "version": 1
  }
}