{
  "contractName": "Event",
  "abi": [
    {
      "anonymous": false,
      "inputs": [
        {
          "indexed": true,
          "internalType": "uint256",
          "name": "eventid",
          "type": "uint256"
        },
        {
          "indexed": true,
          "internalType": "address",
          "name": "creator",
          "type": "address"
        }
      ],
      "name": "EventCreated",
      "type": "event"
    },
    {
      "anonymous": false,
      "inputs": [
        {
          "indexed": true,
          "internalType": "uint256",
          "name": "eventid",
          "type": "uint256"
        },
        {
          "indexed": true,
          "internalType": "address",
          "name": "creator",
          "type": "address"
        }
      ],
      "name": "EventFinished",
      "type": "event"
    },
    {
      "anonymous": false,
      "inputs": [
        {
          "indexed": true,
          "internalType": "uint256",
          "name": "eventid",
          "type": "uint256"
        },
        {
          "indexed": true,
          "internalType": "address",
          "name": "creator",
          "type": "address"
        }
      ],
      "name": "EventOverrlue",
      "type": "event"
    },
    {
      "anonymous": false,
      "inputs": [
        {
          "indexed": true,
          "internalType": "uint256",
          "name": "eventid",
          "type": "uint256"
        },
        {
          "indexed": false,
          "internalType": "uint256",
          "name": "ticketid",
          "type": "uint256"
        },
        {
          "indexed": true,
          "internalType": "address",
          "name": "customer",
          "type": "address"
        }
      ],
      "name": "TicketSold",
      "type": "event"
    },
    {
      "anonymous": false,
      "inputs": [
        {
          "indexed": true,
          "internalType": "uint256",
          "name": "eventid",
          "type": "uint256"
        },
        {
          "indexed": true,
          "internalType": "uint256",
          "name": "totalticket",
          "type": "uint256"
        },
        {
          "indexed": true,
          "internalType": "address",
          "name": "creator",
          "type": "address"
        }
      ],
      "name": "TicketsGenerated",
      "type": "event"
    },
    {
      "inputs": [],
      "name": "reseller",
      "outputs": [
        {
          "internalType": "address",
          "name": "",
          "type": "address"
        }
      ],
      "stateMutability": "view",
      "type": "function",
      "constant": true
    },
    {
      "inputs": [
        {
          "internalType": "string",
          "name": "title",
          "type": "string"
        },
        {
          "internalType": "string",
          "name": "luogo",
          "type": "string"
        },
        {
          "internalType": "string",
          "name": "date",
          "type": "string"
        },
        {
          "internalType": "uint256",
          "name": "seats",
          "type": "uint256"
        },
        {
          "internalType": "uint256",
          "name": "price",
          "type": "uint256"
        },
        {
          "internalType": "address",
          "name": "res",
          "type": "address"
        },
        {
          "internalType": "address",
          "name": "val",
          "type": "address"
        }
      ],
      "name": "create_event",
      "outputs": [
        {
          "internalType": "uint256",
          "name": "",
          "type": "uint256"
        }
      ],
      "stateMutability": "nonpayable",
      "type": "function"
    },
    {
      "inputs": [
        {
          "internalType": "uint256",
          "name": "id",
          "type": "uint256"
        }
      ],
      "name": "overrlue_event",
      "outputs": [],
      "stateMutability": "nonpayable",
      "type": "function"
    },
    {
      "inputs": [
        {
          "internalType": "uint256",
          "name": "id",
          "type": "uint256"
        }
      ],
      "name": "finish_event",
      "outputs": [],
      "stateMutability": "nonpayable",
      "type": "function"
    },
    {
      "inputs": [],
      "name": "get_events",
      "outputs": [
        {
          "components": [
            {
              "internalType": "uint256",
              "name": "id",
              "type": "uint256"
            },
            {
              "internalType": "string",
              "name": "title",
              "type": "string"
            },
            {
              "internalType": "string",
              "name": "luogo",
              "type": "string"
            },
            {
              "internalType": "string",
              "name": "date",
              "type": "string"
            },
            {
              "internalType": "uint256",
              "name": "seats",
              "type": "uint256"
            },
            {
              "internalType": "uint256",
              "name": "remaining_tickets",
              "type": "uint256"
            },
            {
              "internalType": "uint256",
              "name": "price",
              "type": "uint256"
            },
            {
              "internalType": "string",
              "name": "state",
              "type": "string"
            },
            {
              "internalType": "address",
              "name": "owner",
              "type": "address"
            }
          ],
          "internalType": "struct Event.EventData[]",
          "name": "",
          "type": "tuple[]"
        }
      ],
      "stateMutability": "view",
      "type": "function",
      "constant": true
    },
    {
      "inputs": [
        {
          "internalType": "uint256",
          "name": "eventid",
          "type": "uint256"
        }
      ],
      "name": "check_ticket",
      "outputs": [
        {
          "internalType": "bool",
          "name": "",
          "type": "bool"
        }
      ],
      "stateMutability": "view",
      "type": "function",
      "constant": true
    },
    {
      "inputs": [
        {
          "internalType": "address",
          "name": "customer",
          "type": "address"
        },
        {
          "internalType": "uint256",
          "name": "eventid",
          "type": "uint256"
        },
        {
          "internalType": "string",
          "name": "name",
          "type": "string"
        },
        {
          "internalType": "string",
          "name": "surname",
          "type": "string"
        }
      ],
      "name": "buy_ticket",
      "outputs": [
        {
          "internalType": "string",
          "name": "",
          "type": "string"
        },
        {
          "internalType": "bool",
          "name": "",
          "type": "bool"
        },
        {
          "internalType": "address",
          "name": "",
          "type": "address"
        }
      ],
      "stateMutability": "nonpayable",
      "type": "function"
    },
    {
      "inputs": [
        {
          "internalType": "address",
          "name": "val",
          "type": "address"
        }
      ],
      "name": "get_ticket_to_validate",
      "outputs": [
        {
          "components": [
            {
              "internalType": "string",
              "name": "name",
              "type": "string"
            },
            {
              "internalType": "string",
              "name": "surname",
              "type": "string"
            },
            {
              "internalType": "uint256",
              "name": "ticketid",
              "type": "uint256"
            },
            {
              "internalType": "uint256",
              "name": "eventid",
              "type": "uint256"
            },
            {
              "internalType": "bool",
              "name": "sell",
              "type": "bool"
            },
            {
              "internalType": "bool",
              "name": "validate",
              "type": "bool"
            },
            {
              "internalType": "address",
              "name": "customer",
              "type": "address"
            }
          ],
          "internalType": "struct Event.TicketData[]",
          "name": "",
          "type": "tuple[]"
        }
      ],
      "stateMutability": "view",
      "type": "function",
      "constant": true
    },
    {
      "inputs": [
        {
          "internalType": "uint256",
          "name": "ticketid",
          "type": "uint256"
        },
        {
          "internalType": "address",
          "name": "val",
          "type": "address"
        }
      ],
      "name": "validate_ticket",
      "outputs": [
        {
          "internalType": "string",
          "name": "",
          "type": "string"
        },
        {
          "internalType": "address",
          "name": "",
          "type": "address"
        }
      ],
      "stateMutability": "nonpayable",
      "type": "function"
    },
    {
      "inputs": [],
      "name": "get_tickets",
      "outputs": [
        {
          "components": [
            {
              "internalType": "string",
              "name": "name",
              "type": "string"
            },
            {
              "internalType": "string",
              "name": "surname",
              "type": "string"
            },
            {
              "internalType": "uint256",
              "name": "ticketid",
              "type": "uint256"
            },
            {
              "internalType": "uint256",
              "name": "eventid",
              "type": "uint256"
            },
            {
              "internalType": "bool",
              "name": "sell",
              "type": "bool"
            },
            {
              "internalType": "bool",
              "name": "validate",
              "type": "bool"
            },
            {
              "internalType": "address",
              "name": "customer",
              "type": "address"
            }
          ],
          "internalType": "struct Event.TicketData[]",
          "name": "",
          "type": "tuple[]"
        }
      ],
      "stateMutability": "view",
      "type": "function",
      "constant": true
    },
    {
      "inputs": [
        {
          "internalType": "address",
          "name": "cliente",
          "type": "address"
        }
      ],
      "name": "get_personal_tickets",
      "outputs": [
        {
          "components": [
            {
              "internalType": "string",
              "name": "name",
              "type": "string"
            },
            {
              "internalType": "string",
              "name": "surname",
              "type": "string"
            },
            {
              "internalType": "uint256",
              "name": "ticketid",
              "type": "uint256"
            },
            {
              "internalType": "uint256",
              "name": "eventid",
              "type": "uint256"
            },
            {
              "internalType": "bool",
              "name": "sell",
              "type": "bool"
            },
            {
              "internalType": "bool",
              "name": "validate",
              "type": "bool"
            },
            {
              "internalType": "address",
              "name": "customer",
              "type": "address"
            }
          ],
          "internalType": "struct Event.TicketData[]",
          "name": "big",
          "type": "tuple[]"
        }
      ],
      "stateMutability": "view",
      "type": "function",
      "constant": true
    },
    {
      "inputs": [
        {
          "internalType": "uint256",
          "name": "eventid",
          "type": "uint256"
        }
      ],
      "name": "get_event_price",
      "outputs": [
        {
          "internalType": "uint256",
          "name": "",
          "type": "uint256"
        }
      ],
      "stateMutability": "view",
      "type": "function",
      "constant": true
    },
    {
      "inputs": [
        {
          "internalType": "uint256",
          "name": "id",
          "type": "uint256"
        }
      ],
      "name": "get_event",
      "outputs": [
        {
          "components": [
            {
              "internalType": "uint256",
              "name": "id",
              "type": "uint256"
            },
            {
              "internalType": "string",
              "name": "title",
              "type": "string"
            },
            {
              "internalType": "string",
              "name": "luogo",
              "type": "string"
            },
            {
              "internalType": "string",
              "name": "date",
              "type": "string"
            },
            {
              "internalType": "uint256",
              "name": "seats",
              "type": "uint256"
            },
            {
              "internalType": "uint256",
              "name": "remaining_tickets",
              "type": "uint256"
            },
            {
              "internalType": "uint256",
              "name": "price",
              "type": "uint256"
            },
            {
              "internalType": "string",
              "name": "state",
              "type": "string"
            },
            {
              "internalType": "address",
              "name": "owner",
              "type": "address"
            }
          ],
          "internalType": "struct Event.EventData",
          "name": "evento",
          "type": "tuple"
        }
      ],
      "stateMutability": "view",
      "type": "function",
      "constant": true
    },
    {
      "inputs": [
        {
          "internalType": "address",
          "name": "r",
          "type": "address"
        }
      ],
      "name": "set_reseller",
      "outputs": [
        {
          "internalType": "string",
          "name": "",
          "type": "string"
        },
        {
          "internalType": "address",
          "name": "",
          "type": "address"
        }
      ],
      "stateMutability": "nonpayable",
      "type": "function"
    },
    {
      "inputs": [
        {
          "internalType": "address",
          "name": "v",
          "type": "address"
        }
      ],
      "name": "set_validator",
      "outputs": [
        {
          "internalType": "string",
          "name": "",
          "type": "string"
        },
        {
          "internalType": "address",
          "name": "",
          "type": "address"
        }
      ],
      "stateMutability": "nonpayable",
      "type": "function"
    },
    {
      "inputs": [],
      "name": "get_balance",
      "outputs": [
        {
          "internalType": "uint256",
          "name": "",
          "type": "uint256"
        }
      ],
      "stateMutability": "view",
      "type": "function",
      "constant": true
    },
    {
      "inputs": [],
      "name": "get_address",
      "outputs": [
        {
          "internalType": "address",
          "name": "",
          "type": "address"
        }
      ],
      "stateMutability": "view",
      "type": "function",
      "constant": true
    }
  ],
  "bytecode": "0x6080604052336000806101000a81548173ffffffffffffffffffffffffffffffffffffffff021916908373ffffffffffffffffffffffffffffffffffffffff16021790555034801561005057600080fd5b50613d59806100606000396000f3fe608060405234801561001057600080fd5b506004361061010b5760003560e01c80635c34a5de116100a2578063a15cb47b11610071578063a15cb47b146102f5578063c1cfb99a14610325578063c74d97cd14610343578063c9b46fef14610361578063f06f75cc146103915761010b565b80635c34a5de1461025b5780638c59a0851461028b578063957bdf60146102a7578063a143fc0b146102c55761010b565b806338ae8be4116100de57806338ae8be4146101c157806347a828b3146101dd5780634c6882451461020d5780635b3929cb1461023d5761010b565b80630131222f14610110578063214638cc1461012e578063226ee47c1461015f57806330449c8014610190575b600080fd5b6101186103c3565b6040516101259190612d44565b60405180910390f35b61014860048036038101906101439190612dd5565b6103ec565b604051610156929190612eae565b60405180910390f35b61017960048036038101906101749190612ede565b610628565b604051610187929190612eae565b60405180910390f35b6101aa60048036038101906101a59190612ede565b61075f565b6040516101b8929190612eae565b60405180910390f35b6101db60048036038101906101d69190612f0b565b610896565b005b6101f760048036038101906101f29190612f0b565b6109fa565b604051610204919061307a565b60405180910390f35b61022760048036038101906102229190612ede565b610da0565b604051610234919061321c565b60405180910390f35b61024561121b565b60405161025291906133da565b60405180910390f35b61027560048036038101906102709190612f0b565b611541565b604051610282919061340b565b60405180910390f35b6102a560048036038101906102a09190612f0b565b611629565b005b6102af61178d565b6040516102bc919061321c565b60405180910390f35b6102df60048036038101906102da9190612ede565b611a3e565b6040516102ec919061321c565b60405180910390f35b61030f600480360381019061030a9190612f0b565b611ed7565b60405161031c9190613435565b60405180910390f35b61032d611f06565b60405161033a9190613435565b60405180910390f35b61034b611f46565b6040516103589190612d44565b60405180910390f35b61037b60048036038101906103769190613585565b611f6c565b6040516103889190613435565b60405180910390f35b6103ab60048036038101906103a6919061367b565b6122fd565b6040516103ba9392919061371a565b60405180910390f35b60008060009054906101000a900473ffffffffffffffffffffffffffffffffffffffff16905090565b6060600082600260009054906101000a900473ffffffffffffffffffffffffffffffffffffffff1673ffffffffffffffffffffffffffffffffffffffff168173ffffffffffffffffffffffffffffffffffffffff1614610481576040517f08c379a0000000000000000000000000000000000000000000000000000000008152600401610478906137a4565b60405180910390fd5b6000805b61048d6123c8565b81101561059b5786600482815481106104a9576104a86137c4565b5b9060005260206000209060050201600201541480156104fe575060001515600482815481106104db576104da6137c4565b5b906000526020600020906005020160040160019054906101000a900460ff161515145b80156105405750600115156004828154811061051d5761051c6137c4565b5b906000526020600020906005020160040160009054906101000a900460ff161515145b156105885760016004828154811061055b5761055a6137c4565b5b906000526020600020906005020160040160016101000a81548160ff021916908315150217905550600191505b808061059390613822565b915050610485565b5060011515811515146105e3576040517f08c379a00000000000000000000000000000000000000000000000000000000081526004016105da906138dd565b60405180910390fd5b846040518060400160405280601081526020017f4269676c696574746f2076616c69646f00000000000000000000000000000000815250909350935050509250929050565b606060008060009054906101000a900473ffffffffffffffffffffffffffffffffffffffff1673ffffffffffffffffffffffffffffffffffffffff163373ffffffffffffffffffffffffffffffffffffffff16146106bb576040517f08c379a00000000000000000000000000000000000000000000000000000000081526004016106b29061396f565b60405180910390fd5b82600260006101000a81548173ffffffffffffffffffffffffffffffffffffffff021916908373ffffffffffffffffffffffffffffffffffffffff160217905550600260009054906101000a900473ffffffffffffffffffffffffffffffffffffffff166040518060400160405280601381526020017f56616c696461746f7220696d706f737461746f000000000000000000000000008152509091509150915091565b606060008060009054906101000a900473ffffffffffffffffffffffffffffffffffffffff1673ffffffffffffffffffffffffffffffffffffffff163373ffffffffffffffffffffffffffffffffffffffff16146107f2576040517f08c379a00000000000000000000000000000000000000000000000000000000081526004016107e99061396f565b60405180910390fd5b82600160006101000a81548173ffffffffffffffffffffffffffffffffffffffff021916908373ffffffffffffffffffffffffffffffffffffffff160217905550600160009054906101000a900473ffffffffffffffffffffffffffffffffffffffff166040518060400160405280601281526020017f526573656c6c657220696d706f737461746f00000000000000000000000000008152509091509150915091565b60008054906101000a900473ffffffffffffffffffffffffffffffffffffffff1673ffffffffffffffffffffffffffffffffffffffff163373ffffffffffffffffffffffffffffffffffffffff1614610924576040517f08c379a000000000000000000000000000000000000000000000000000000000815260040161091b9061396f565b60405180910390fd5b6040518060400160405280600881526020017f436f6e636c75736f0000000000000000000000000000000000000000000000008152506003828154811061096e5761096d6137c4565b5b90600052602060002090600902016007019080519060200190610992929190612ba7565b5060008054906101000a900473ffffffffffffffffffffffffffffffffffffffff1673ffffffffffffffffffffffffffffffffffffffff16817fb15d3899a0a77e20f0c368865d76be846e277b8cac84cddf244f45748709720a60405160405180910390a350565b610a02612c2d565b610a0a6123d5565b8210610a4b576040517f08c379a0000000000000000000000000000000000000000000000000000000008152600401610a42906139db565b60405180910390fd5b60005b610a566123d5565b811015610d99578260038281548110610a7257610a716137c4565b5b9060005260206000209060090201600001541415610d865760038181548110610a9e57610a9d6137c4565b5b90600052602060002090600902016040518061012001604052908160008201548152602001600182018054610ad290613a2a565b80601f0160208091040260200160405190810160405280929190818152602001828054610afe90613a2a565b8015610b4b5780601f10610b2057610100808354040283529160200191610b4b565b820191906000526020600020905b815481529060010190602001808311610b2e57829003601f168201915b50505050508152602001600282018054610b6490613a2a565b80601f0160208091040260200160405190810160405280929190818152602001828054610b9090613a2a565b8015610bdd5780601f10610bb257610100808354040283529160200191610bdd565b820191906000526020600020905b815481529060010190602001808311610bc057829003601f168201915b50505050508152602001600382018054610bf690613a2a565b80601f0160208091040260200160405190810160405280929190818152602001828054610c2290613a2a565b8015610c6f5780601f10610c4457610100808354040283529160200191610c6f565b820191906000526020600020905b815481529060010190602001808311610c5257829003601f168201915b50505050508152602001600482015481526020016005820154815260200160068201548152602001600782018054610ca690613a2a565b80601f0160208091040260200160405190810160405280929190818152602001828054610cd290613a2a565b8015610d1f5780601f10610cf457610100808354040283529160200191610d1f565b820191906000526020600020905b815481529060010190602001808311610d0257829003601f168201915b505050505081526020016008820160009054906101000a900473ffffffffffffffffffffffffffffffffffffffff1673ffffffffffffffffffffffffffffffffffffffff1673ffffffffffffffffffffffffffffffffffffffff1681525050915050610d9b565b8080610d9190613822565b915050610a4e565b505b919050565b60606000805b610dae6123c8565b811015610e50578373ffffffffffffffffffffffffffffffffffffffff1660048281548110610de057610ddf6137c4565b5b906000526020600020906005020160040160029054906101000a900473ffffffffffffffffffffffffffffffffffffffff1673ffffffffffffffffffffffffffffffffffffffff161415610e3d578180610e3990613822565b9250505b8080610e4890613822565b915050610da6565b5060008167ffffffffffffffff811115610e6d57610e6c61345a565b5b604051908082528060200260200182016040528015610ea657816020015b610e93612c8f565b815260200190600190039081610e8b5790505b5090506000805b610eb56123c8565b81101561120f578573ffffffffffffffffffffffffffffffffffffffff1660048281548110610ee757610ee66137c4565b5b906000526020600020906005020160040160029054906101000a900473ffffffffffffffffffffffffffffffffffffffff1673ffffffffffffffffffffffffffffffffffffffff1614156111fc576040518060e0016040528060048381548110610f5457610f536137c4565b5b90600052602060002090600502016000018054610f7090613a2a565b80601f0160208091040260200160405190810160405280929190818152602001828054610f9c90613a2a565b8015610fe95780601f10610fbe57610100808354040283529160200191610fe9565b820191906000526020600020905b815481529060010190602001808311610fcc57829003601f168201915b5050505050815260200160048381548110611007576110066137c4565b5b9060005260206000209060050201600101805461102390613a2a565b80601f016020809104026020016040519081016040528092919081815260200182805461104f90613a2a565b801561109c5780601f106110715761010080835404028352916020019161109c565b820191906000526020600020905b81548152906001019060200180831161107f57829003601f168201915b50505050508152602001600483815481106110ba576110b96137c4565b5b9060005260206000209060050201600201548152602001600483815481106110e5576110e46137c4565b5b9060005260206000209060050201600301548152602001600483815481106111105761110f6137c4565b5b906000526020600020906005020160040160009054906101000a900460ff16151581526020016004838154811061114a576111496137c4565b5b906000526020600020906005020160040160019054906101000a900460ff161515815260200160048381548110611184576111836137c4565b5b906000526020600020906005020160040160029054906101000a900473ffffffffffffffffffffffffffffffffffffffff1673ffffffffffffffffffffffffffffffffffffffff168152508383815181106111e2576111e16137c4565b5b602002602001018190525081806111f890613822565b9250505b808061120790613822565b915050610ead565b50819350505050919050565b60606003805480602002602001604051908101604052809291908181526020016000905b828210156115385783829060005260206000209060090201604051806101200160405290816000820154815260200160018201805461127d90613a2a565b80601f01602080910402602001604051908101604052809291908181526020018280546112a990613a2a565b80156112f65780601f106112cb576101008083540402835291602001916112f6565b820191906000526020600020905b8154815290600101906020018083116112d957829003601f168201915b5050505050815260200160028201805461130f90613a2a565b80601f016020809104026020016040519081016040528092919081815260200182805461133b90613a2a565b80156113885780601f1061135d57610100808354040283529160200191611388565b820191906000526020600020905b81548152906001019060200180831161136b57829003601f168201915b505050505081526020016003820180546113a190613a2a565b80601f01602080910402602001604051908101604052809291908181526020018280546113cd90613a2a565b801561141a5780601f106113ef5761010080835404028352916020019161141a565b820191906000526020600020905b8154815290600101906020018083116113fd57829003601f168201915b5050505050815260200160048201548152602001600582015481526020016006820154815260200160078201805461145190613a2a565b80601f016020809104026020016040519081016040528092919081815260200182805461147d90613a2a565b80156114ca5780601f1061149f576101008083540402835291602001916114ca565b820191906000526020600020905b8154815290600101906020018083116114ad57829003601f168201915b505050505081526020016008820160009054906101000a900473ffffffffffffffffffffffffffffffffffffffff1673ffffffffffffffffffffffffffffffffffffffff1673ffffffffffffffffffffffffffffffffffffffff16815250508152602001906001019061123f565b50505050905090565b60008061154d836109fa565b905060008160a001511415611566576000915050611624565b60405160200161157590613ab3565b604051602081830303815290604052805190602001208160e001516040516020016115a09190613af9565b60405160208183030381529060405280519060200120148061160f57506040516020016115cc90613b5c565b604051602081830303815290604052805190602001208160e001516040516020016115f79190613af9565b60405160208183030381529060405280519060200120145b1561161e576000915050611624565b60019150505b919050565b60008054906101000a900473ffffffffffffffffffffffffffffffffffffffff1673ffffffffffffffffffffffffffffffffffffffff163373ffffffffffffffffffffffffffffffffffffffff16146116b7576040517f08c379a00000000000000000000000000000000000000000000000000000000081526004016116ae9061396f565b60405180910390fd5b6040518060400160405280600981526020017f416e6e756c6c61746f000000000000000000000000000000000000000000000081525060038281548110611701576117006137c4565b5b90600052602060002090600902016007019080519060200190611725929190612ba7565b5060008054906101000a900473ffffffffffffffffffffffffffffffffffffffff1673ffffffffffffffffffffffffffffffffffffffff16817f9ab588958c126cb0274213719f45aca396603352447383188a81e29c1269029a60405160405180910390a350565b606060008054906101000a900473ffffffffffffffffffffffffffffffffffffffff1673ffffffffffffffffffffffffffffffffffffffff163373ffffffffffffffffffffffffffffffffffffffff161461181d576040517f08c379a00000000000000000000000000000000000000000000000000000000081526004016118149061396f565b60405180910390fd5b6004805480602002602001604051908101604052809291908181526020016000905b82821015611a3557838290600052602060002090600502016040518060e001604052908160008201805461187290613a2a565b80601f016020809104026020016040519081016040528092919081815260200182805461189e90613a2a565b80156118eb5780601f106118c0576101008083540402835291602001916118eb565b820191906000526020600020905b8154815290600101906020018083116118ce57829003601f168201915b5050505050815260200160018201805461190490613a2a565b80601f016020809104026020016040519081016040528092919081815260200182805461193090613a2a565b801561197d5780601f106119525761010080835404028352916020019161197d565b820191906000526020600020905b81548152906001019060200180831161196057829003601f168201915b5050505050815260200160028201548152602001600382015481526020016004820160009054906101000a900460ff161515151581526020016004820160019054906101000a900460ff161515151581526020016004820160029054906101000a900473ffffffffffffffffffffffffffffffffffffffff1673ffffffffffffffffffffffffffffffffffffffff1673ffffffffffffffffffffffffffffffffffffffff16815250508152602001906001019061183f565b50505050905090565b606081600260009054906101000a900473ffffffffffffffffffffffffffffffffffffffff1673ffffffffffffffffffffffffffffffffffffffff168173ffffffffffffffffffffffffffffffffffffffff1614611ad1576040517f08c379a0000000000000000000000000000000000000000000000000000000008152600401611ac8906137a4565b60405180910390fd5b6000805b611add6123c8565b811015611b45576001151560048281548110611afc57611afb6137c4565b5b906000526020600020906005020160040160009054906101000a900460ff1615151415611b32578180611b2e90613822565b9250505b8080611b3d90613822565b915050611ad5565b5060008167ffffffffffffffff811115611b6257611b6161345a565b5b604051908082528060200260200182016040528015611b9b57816020015b611b88612c8f565b815260200190600190039081611b805790505b5090506000805b611baa6123c8565b811015611eca576001151560048281548110611bc957611bc86137c4565b5b906000526020600020906005020160040160009054906101000a900460ff1615151415611eb7576040518060e0016040528060048381548110611c0f57611c0e6137c4565b5b90600052602060002090600502016000018054611c2b90613a2a565b80601f0160208091040260200160405190810160405280929190818152602001828054611c5790613a2a565b8015611ca45780601f10611c7957610100808354040283529160200191611ca4565b820191906000526020600020905b815481529060010190602001808311611c8757829003601f168201915b5050505050815260200160048381548110611cc257611cc16137c4565b5b90600052602060002090600502016001018054611cde90613a2a565b80601f0160208091040260200160405190810160405280929190818152602001828054611d0a90613a2a565b8015611d575780601f10611d2c57610100808354040283529160200191611d57565b820191906000526020600020905b815481529060010190602001808311611d3a57829003601f168201915b5050505050815260200160048381548110611d7557611d746137c4565b5b906000526020600020906005020160020154815260200160048381548110611da057611d9f6137c4565b5b906000526020600020906005020160030154815260200160048381548110611dcb57611dca6137c4565b5b906000526020600020906005020160040160009054906101000a900460ff161515815260200160048381548110611e0557611e046137c4565b5b906000526020600020906005020160040160019054906101000a900460ff161515815260200160048381548110611e3f57611e3e6137c4565b5b906000526020600020906005020160040160029054906101000a900473ffffffffffffffffffffffffffffffffffffffff1673ffffffffffffffffffffffffffffffffffffffff16815250838381518110611e9d57611e9c6137c4565b5b60200260200101819052508180611eb390613822565b9250505b8080611ec290613822565b915050611ba2565b5081945050505050919050565b600060038281548110611eed57611eec6137c4565b5b9060005260206000209060090201600601549050919050565b60008060009054906101000a900473ffffffffffffffffffffffffffffffffffffffff1673ffffffffffffffffffffffffffffffffffffffff1631905090565b600160009054906101000a900473ffffffffffffffffffffffffffffffffffffffff1681565b60008060009054906101000a900473ffffffffffffffffffffffffffffffffffffffff1673ffffffffffffffffffffffffffffffffffffffff163373ffffffffffffffffffffffffffffffffffffffff1614611ffd576040517f08c379a0000000000000000000000000000000000000000000000000000000008152600401611ff49061396f565b60405180910390fd5b6003604051806101200160405280600081526020018a81526020018981526020018881526020018781526020018781526020018681526020016040518060400160405280600c81526020017f4e6f6e20636f6e636c75736f0000000000000000000000000000000000000000815250815260200160008054906101000a900473ffffffffffffffffffffffffffffffffffffffff1673ffffffffffffffffffffffffffffffffffffffff1681525090806001815401808255809150506001900390600052602060002090600902016000909190919091506000820151816000015560208201518160010190805190602001906120fa929190612ba7565b506040820151816002019080519060200190612117929190612ba7565b506060820151816003019080519060200190612134929190612ba7565b506080820151816004015560a0820151816005015560c0820151816006015560e082015181600701908051906020019061216f929190612ba7565b506101008201518160080160006101000a81548173ffffffffffffffffffffffffffffffffffffffff021916908373ffffffffffffffffffffffffffffffffffffffff1602179055505050600060016121c66123d5565b6121d09190613b71565b905080600382815481106121e7576121e66137c4565b5b90600052602060002090600902016000018190555060008054906101000a900473ffffffffffffffffffffffffffffffffffffffff1673ffffffffffffffffffffffffffffffffffffffff16817fe43349c008949cf6b65249356e6f918d4aaa0ca79f2b1166df4a4a98c9c16de260405160405180910390a383600160006101000a81548173ffffffffffffffffffffffffffffffffffffffff021916908373ffffffffffffffffffffffffffffffffffffffff16021790555082600260006101000a81548173ffffffffffffffffffffffffffffffffffffffff021916908373ffffffffffffffffffffffffffffffffffffffff1602179055506122ed8187866123e2565b5080915050979650505050505050565b6060600080600061230d876126b9565b905061231f816040015187878b61295f565b5061232987612b69565b8773ffffffffffffffffffffffffffffffffffffffff16877fc41bbb54d04f2268c7895b9330f18468c306a3f92698a92c4c86b2978739784883604001516040516123749190613435565b60405180910390a36001886040518060400160405280601481526020017f4269676c696574746f206163717569737461746f0000000000000000000000008152509190935093509350509450945094915050565b6000600480549050905090565b6000600380549050905090565b600081600160009054906101000a900473ffffffffffffffffffffffffffffffffffffffff1673ffffffffffffffffffffffffffffffffffffffff168173ffffffffffffffffffffffffffffffffffffffff1614612475576040517f08c379a000000000000000000000000000000000000000000000000000000000815260040161246c90613c17565b60405180910390fd5b600080856124816123c8565b61248b9190613c37565b905060006124976123c8565b90505b818110156126665760046040518060e00160405280604051806020016040528060008152508152602001604051806020016040528060008152508152602001600081526020018a8152602001600015158152602001600015158152602001600073ffffffffffffffffffffffffffffffffffffffff1681525090806001815401808255809150506001900390600052602060002090600502016000909190919091506000820151816000019080519060200190612558929190612ba7565b506020820151816001019080519060200190612575929190612ba7565b50604082015181600201556060820151816003015560808201518160040160006101000a81548160ff02191690831515021790555060a08201518160040160016101000a81548160ff02191690831515021790555060c08201518160040160026101000a81548173ffffffffffffffffffffffffffffffffffffffff021916908373ffffffffffffffffffffffffffffffffffffffff1602179055505050600161261d6123c8565b6126279190613b71565b9250826004828154811061263e5761263d6137c4565b5b906000526020600020906005020160020181905550808061265e90613822565b91505061249a565b508473ffffffffffffffffffffffffffffffffffffffff1686887f6567ab497f12a760d234e0684de86536dce884c904386957d5877e165bfb32fa60405160405180910390a48593505050509392505050565b6126c1612c8f565b6126c9612c8f565b60005b6126d46123c8565b8110156129555783600482815481106126f0576126ef6137c4565b5b90600052602060002090600502016003015414801561274557506000151560048281548110612722576127216137c4565b5b906000526020600020906005020160040160009054906101000a900460ff161515145b15612942576004818154811061275e5761275d6137c4565b5b90600052602060002090600502016040518060e001604052908160008201805461278790613a2a565b80601f01602080910402602001604051908101604052809291908181526020018280546127b390613a2a565b80156128005780601f106127d557610100808354040283529160200191612800565b820191906000526020600020905b8154815290600101906020018083116127e357829003601f168201915b5050505050815260200160018201805461281990613a2a565b80601f016020809104026020016040519081016040528092919081815260200182805461284590613a2a565b80156128925780601f1061286757610100808354040283529160200191612892565b820191906000526020600020905b81548152906001019060200180831161287557829003601f168201915b5050505050815260200160028201548152602001600382015481526020016004820160009054906101000a900460ff161515151581526020016004820160019054906101000a900460ff161515151581526020016004820160029054906101000a900473ffffffffffffffffffffffffffffffffffffffff1673ffffffffffffffffffffffffffffffffffffffff1673ffffffffffffffffffffffffffffffffffffffff16815250509150612955565b808061294d90613822565b9150506126cc565b5080915050919050565b6000806000905060005b6129716123c8565b811015612b1557866004828154811061298d5761298c6137c4565b5b9060005260206000209060050201600201541480156129e2575060001515600482815481106129bf576129be6137c4565b5b906000526020600020906005020160040160009054906101000a900460ff161515145b15612b02576001600482815481106129fd576129fc6137c4565b5b906000526020600020906005020160040160006101000a81548160ff0219169083151502179055508560048281548110612a3a57612a396137c4565b5b90600052602060002090600502016000019080519060200190612a5e929190612ba7565b508460048281548110612a7457612a736137c4565b5b90600052602060002090600502016001019080519060200190612a98929190612ba7565b508360048281548110612aae57612aad6137c4565b5b906000526020600020906005020160040160026101000a81548173ffffffffffffffffffffffffffffffffffffffff021916908373ffffffffffffffffffffffffffffffffffffffff160217905550600191505b8080612b0d90613822565b915050612969565b506001151581151514612b5d576040517f08c379a0000000000000000000000000000000000000000000000000000000008152600401612b5490613cd9565b60405180910390fd5b80915050949350505050565b60038181548110612b7d57612b7c6137c4565b5b90600052602060002090600902016005016000815480929190612b9f90613cf9565b919050555050565b828054612bb390613a2a565b90600052602060002090601f016020900481019282612bd55760008555612c1c565b82601f10612bee57805160ff1916838001178555612c1c565b82800160010185558215612c1c579182015b82811115612c1b578251825591602001919060010190612c00565b5b509050612c299190612ce6565b5090565b6040518061012001604052806000815260200160608152602001606081526020016060815260200160008152602001600081526020016000815260200160608152602001600073ffffffffffffffffffffffffffffffffffffffff1681525090565b6040518060e0016040528060608152602001606081526020016000815260200160008152602001600015158152602001600015158152602001600073ffffffffffffffffffffffffffffffffffffffff1681525090565b5b80821115612cff576000816000905550600101612ce7565b5090565b600073ffffffffffffffffffffffffffffffffffffffff82169050919050565b6000612d2e82612d03565b9050919050565b612d3e81612d23565b82525050565b6000602082019050612d596000830184612d35565b92915050565b6000604051905090565b600080fd5b600080fd5b6000819050919050565b612d8681612d73565b8114612d9157600080fd5b50565b600081359050612da381612d7d565b92915050565b612db281612d23565b8114612dbd57600080fd5b50565b600081359050612dcf81612da9565b92915050565b60008060408385031215612dec57612deb612d69565b5b6000612dfa85828601612d94565b9250506020612e0b85828601612dc0565b9150509250929050565b600081519050919050565b600082825260208201905092915050565b60005b83811015612e4f578082015181840152602081019050612e34565b83811115612e5e576000848401525b50505050565b6000601f19601f8301169050919050565b6000612e8082612e15565b612e8a8185612e20565b9350612e9a818560208601612e31565b612ea381612e64565b840191505092915050565b60006040820190508181036000830152612ec88185612e75565b9050612ed76020830184612d35565b9392505050565b600060208284031215612ef457612ef3612d69565b5b6000612f0284828501612dc0565b91505092915050565b600060208284031215612f2157612f20612d69565b5b6000612f2f84828501612d94565b91505092915050565b612f4181612d73565b82525050565b600082825260208201905092915050565b6000612f6382612e15565b612f6d8185612f47565b9350612f7d818560208601612e31565b612f8681612e64565b840191505092915050565b612f9a81612d23565b82525050565b600061012083016000830151612fb96000860182612f38565b5060208301518482036020860152612fd18282612f58565b91505060408301518482036040860152612feb8282612f58565b915050606083015184820360608601526130058282612f58565b915050608083015161301a6080860182612f38565b5060a083015161302d60a0860182612f38565b5060c083015161304060c0860182612f38565b5060e083015184820360e08601526130588282612f58565b91505061010083015161306f610100860182612f91565b508091505092915050565b600060208201905081810360008301526130948184612fa0565b905092915050565b600081519050919050565b600082825260208201905092915050565b6000819050602082019050919050565b60008115159050919050565b6130dd816130c8565b82525050565b600060e08301600083015184820360008601526131008282612f58565b9150506020830151848203602086015261311a8282612f58565b915050604083015161312f6040860182612f38565b5060608301516131426060860182612f38565b50608083015161315560808601826130d4565b5060a083015161316860a08601826130d4565b5060c083015161317b60c0860182612f91565b508091505092915050565b600061319283836130e3565b905092915050565b6000602082019050919050565b60006131b28261309c565b6131bc81856130a7565b9350836020820285016131ce856130b8565b8060005b8581101561320a57848403895281516131eb8582613186565b94506131f68361319a565b925060208a019950506001810190506131d2565b50829750879550505050505092915050565b6000602082019050818103600083015261323681846131a7565b905092915050565b600081519050919050565b600082825260208201905092915050565b6000819050602082019050919050565b6000610120830160008301516132836000860182612f38565b506020830151848203602086015261329b8282612f58565b915050604083015184820360408601526132b58282612f58565b915050606083015184820360608601526132cf8282612f58565b91505060808301516132e46080860182612f38565b5060a08301516132f760a0860182612f38565b5060c083015161330a60c0860182612f38565b5060e083015184820360e08601526133228282612f58565b915050610100830151613339610100860182612f91565b508091505092915050565b6000613350838361326a565b905092915050565b6000602082019050919050565b60006133708261323e565b61337a8185613249565b93508360208202850161338c8561325a565b8060005b858110156133c857848403895281516133a98582613344565b94506133b483613358565b925060208a01995050600181019050613390565b50829750879550505050505092915050565b600060208201905081810360008301526133f48184613365565b905092915050565b613405816130c8565b82525050565b600060208201905061342060008301846133fc565b92915050565b61342f81612d73565b82525050565b600060208201905061344a6000830184613426565b92915050565b600080fd5b600080fd5b7f4e487b7100000000000000000000000000000000000000000000000000000000600052604160045260246000fd5b61349282612e64565b810181811067ffffffffffffffff821117156134b1576134b061345a565b5b80604052505050565b60006134c4612d5f565b90506134d08282613489565b919050565b600067ffffffffffffffff8211156134f0576134ef61345a565b5b6134f982612e64565b9050602081019050919050565b82818337600083830152505050565b6000613528613523846134d5565b6134ba565b90508281526020810184848401111561354457613543613455565b5b61354f848285613506565b509392505050565b600082601f83011261356c5761356b613450565b5b813561357c848260208601613515565b91505092915050565b600080600080600080600060e0888a0312156135a4576135a3612d69565b5b600088013567ffffffffffffffff8111156135c2576135c1612d6e565b5b6135ce8a828b01613557565b975050602088013567ffffffffffffffff8111156135ef576135ee612d6e565b5b6135fb8a828b01613557565b965050604088013567ffffffffffffffff81111561361c5761361b612d6e565b5b6136288a828b01613557565b95505060606136398a828b01612d94565b945050608061364a8a828b01612d94565b93505060a061365b8a828b01612dc0565b92505060c061366c8a828b01612dc0565b91505092959891949750929550565b6000806000806080858703121561369557613694612d69565b5b60006136a387828801612dc0565b94505060206136b487828801612d94565b935050604085013567ffffffffffffffff8111156136d5576136d4612d6e565b5b6136e187828801613557565b925050606085013567ffffffffffffffff81111561370257613701612d6e565b5b61370e87828801613557565b91505092959194509250565b600060608201905081810360008301526137348186612e75565b905061374360208301856133fc565b6137506040830184612d35565b949350505050565b7f4e6f6e2073656920696c2076616c696461746f72000000000000000000000000600082015250565b600061378e601483612e20565b915061379982613758565b602082019050919050565b600060208201905081810360008301526137bd81613781565b9050919050565b7f4e487b7100000000000000000000000000000000000000000000000000000000600052603260045260246000fd5b7f4e487b7100000000000000000000000000000000000000000000000000000000600052601160045260246000fd5b600061382d82612d73565b91507fffffffffffffffffffffffffffffffffffffffffffffffffffffffffffffffff8214156138605761385f6137f3565b5b600182019050919050565b7f4269676c696574746f20676961272076616c696461746f206f20696e76616c6960008201527f646162696c650000000000000000000000000000000000000000000000000000602082015250565b60006138c7602683612e20565b91506138d28261386b565b604082019050919050565b600060208201905081810360008301526138f6816138ba565b9050919050565b7f4e6f6e20736569206175746f72697a7a61746f2061642065736567756972652060008201527f71756573746120617a696f6e6500000000000000000000000000000000000000602082015250565b6000613959602d83612e20565b9150613964826138fd565b604082019050919050565b600060208201905081810360008301526139888161394c565b9050919050565b7f4c276576656e746f206e6f6e2065736973746500000000000000000000000000600082015250565b60006139c5601383612e20565b91506139d08261398f565b602082019050919050565b600060208201905081810360008301526139f4816139b8565b9050919050565b7f4e487b7100000000000000000000000000000000000000000000000000000000600052602260045260246000fd5b60006002820490506001821680613a4257607f821691505b60208210811415613a5657613a556139fb565b5b50919050565b600081905092915050565b7f436f6e636c75736f000000000000000000000000000000000000000000000000600082015250565b6000613a9d600883613a5c565b9150613aa882613a67565b600882019050919050565b6000613abe82613a90565b9150819050919050565b6000613ad382612e15565b613add8185613a5c565b9350613aed818560208601612e31565b80840191505092915050565b6000613b058284613ac8565b915081905092915050565b7f416e6e756c6c61746f0000000000000000000000000000000000000000000000600082015250565b6000613b46600983613a5c565b9150613b5182613b10565b600982019050919050565b6000613b6782613b39565b9150819050919050565b6000613b7c82612d73565b9150613b8783612d73565b925082821015613b9a57613b996137f3565b5b828203905092915050565b7f496c20726573656c6c657220737065636966696361746f20652720657272617460008201527f6f00000000000000000000000000000000000000000000000000000000000000602082015250565b6000613c01602183612e20565b9150613c0c82613ba5565b604082019050919050565b60006020820190508181036000830152613c3081613bf4565b9050919050565b6000613c4282612d73565b9150613c4d83612d73565b9250827fffffffffffffffffffffffffffffffffffffffffffffffffffffffffffffffff03821115613c8257613c816137f3565b5b828201905092915050565b7f4572726f7265206e656c6c61206661736520646920616371756973746f000000600082015250565b6000613cc3601d83612e20565b9150613cce82613c8d565b602082019050919050565b60006020820190508181036000830152613cf281613cb6565b9050919050565b6000613d0482612d73565b91506000821415613d1857613d176137f3565b5b60018203905091905056fea264697066735822122075ad0b1e3ea155054ee220e8d339f2050ec3bedae95bf76dbc7d64c572d4342164736f6c63430008090033",
  "immutableReferences": {},
  "source": "// SPDX-License-Identifier: GPL-3.0\r\npragma solidity >=0.7.0 <0.9.0;\r\n\r\n\r\n\r\ncontract Event {\r\n    \r\n    address private owner=msg.sender;\r\n    \r\n    address public reseller;\r\n    \r\n    address private validator;\r\n    \r\n    \r\n    struct EventData{ //event data structure\r\n    \r\n        uint id;\r\n    \r\n        string title;\r\n        \r\n        string luogo;\r\n        \r\n        string date;\r\n        \r\n        uint seats;\r\n        \r\n        uint remaining_tickets;\r\n        \r\n        uint256 price;\r\n        \r\n        string state;\r\n        \r\n        address owner;\r\n    } \r\n    \r\n    \r\n    \r\n    struct TicketData{ //ticket data structure\r\n        \r\n        string name;\r\n        \r\n        string surname;\r\n        \r\n        uint ticketid;\r\n        \r\n        uint eventid;\r\n        \r\n        bool sell;\r\n        \r\n        bool validate;\r\n\r\n        address customer;\r\n    }\r\n    \r\n    \r\n    \r\n    EventData[] private events; //all events\r\n    TicketData[] private tickets; //all tickets\r\n    \r\n    modifier only_owner() {\r\n        require(msg.sender == owner, \"Non sei autorizzato ad eseguire questa azione\");\r\n        _;\r\n    }\r\n    \r\n    modifier only_reseller(address res) {\r\n        require(res == reseller, \"Il reseller specificato e' errato\");\r\n        _;\r\n    }\r\n    \r\n    modifier only_validator(address val) {\r\n        require(val == validator, \"Non sei il validator\");\r\n        _;\r\n    }\r\n\r\n    \r\n    event EventCreated(uint indexed eventid, address indexed creator);\r\n    event EventOverrlue(uint indexed eventid, address indexed creator);\r\n    event EventFinished(uint indexed eventid, address indexed creator);\r\n    event TicketsGenerated(uint indexed eventid, uint indexed totalticket, address indexed creator);\r\n    event TicketSold(uint indexed eventid, uint ticketid, address indexed customer);\r\n    \r\n    \r\n    function  create_event(string memory title, string memory  luogo, string memory  date, uint seats, uint256 price, address res, address val) public only_owner returns(uint) {\r\n        {\r\n            events.push(EventData(0, title, luogo,  date, seats, seats, price, \"Non concluso\" , owner));\r\n            uint id=get_event_length() - 1;\r\n            events[id].id=id;\r\n            emit EventCreated(id, owner);\r\n            reseller=res;\r\n            validator=val;\r\n            generate_tickets(id, seats, res);\r\n            return id;\r\n        }\r\n    }\r\n    \r\n    function overrlue_event(uint id) public only_owner {\r\n            events[id].state=\"Annullato\";\r\n            emit EventOverrlue(id, owner);\r\n    }\r\n    \r\n    function finish_event(uint id) public only_owner {\r\n        events[id].state=\"Concluso\";\r\n        emit EventFinished(id, owner);\r\n    }\r\n    \r\n     function get_events() public view returns (EventData[] memory){\r\n         return events;\r\n     } \r\n\r\n\r\n    \r\n    function generate_tickets(uint eventid, uint totalticket , address res) internal only_reseller(res) returns(uint){\r\n        uint ticketid=0;\r\n        uint array_len=get_ticket_lenght()+totalticket;\r\n        for(uint i=get_ticket_lenght(); i < array_len  ; i++){\r\n            tickets.push(TicketData(\"\", \"\", 0, eventid, false, false, 0x0000000000000000000000000000000000000000));\r\n            ticketid=get_ticket_lenght() - 1;\r\n            tickets[i].ticketid=ticketid;\r\n        }\r\n        emit TicketsGenerated(eventid, totalticket , res);\r\n        return totalticket;\r\n    }\r\n    \r\n    function get_event_ticket(uint eventid) internal view returns (TicketData memory){\r\n        TicketData memory biglietto;\r\n        for(uint i=0; i < get_ticket_lenght(); i++){ \r\n            if(tickets[i].eventid==eventid && tickets[i].sell==false){\r\n                biglietto=tickets[i];\r\n                break;\r\n            }\r\n        }\r\n        return biglietto;\r\n    }\r\n    \r\n    function set_ticket_sold(uint ticketid, string memory name, string memory surname, address customer) internal returns(bool){\r\n        bool flag=false;\r\n        for(uint i=0; i < get_ticket_lenght(); i++){\r\n            if(tickets[i].ticketid==ticketid && tickets[i].sell==false){\r\n                tickets[i].sell=true;\r\n                tickets[i].name=name;\r\n                tickets[i].surname=surname;\r\n                tickets[i].customer=customer;\r\n                flag=true;\r\n            }\r\n            \r\n        }\r\n        require(flag==true, \"Errore nella fase di acquisto\");\r\n        return flag;\r\n        \r\n    }\r\n    \r\n    function check_ticket(uint eventid) external view returns(bool){\r\n        EventData memory evento= get_event(eventid);\r\n        if(evento.remaining_tickets == 0)\r\n            return false;\r\n        else if(keccak256(abi.encodePacked(evento.state))==keccak256(abi.encodePacked(\"Concluso\")) || keccak256(abi.encodePacked(evento.state))==keccak256(abi.encodePacked(\"Annullato\")) )\r\n            return false;\r\n        else \r\n            return true;\r\n    }\r\n    \r\n    function buy_ticket( address customer, uint eventid, string memory name, string memory surname) external returns(string memory, bool, address){\r\n        TicketData memory biglietto=get_event_ticket(eventid);\r\n        set_ticket_sold(biglietto.ticketid, name, surname, customer);\r\n        reduce_remaining_tickets(eventid);\r\n        emit TicketSold(eventid, biglietto.ticketid, customer);\r\n        return (\"Biglietto acquistato\", true , customer);      \r\n    }\r\n    \r\n    function reduce_remaining_tickets(uint eventid) internal{\r\n        events[eventid].remaining_tickets --;\r\n    }\r\n\r\n\r\n    function get_ticket_to_validate(address val) public view only_validator(val) returns(TicketData[] memory){\r\n        uint j=0;\r\n        for(uint i=0; i < get_ticket_lenght(); i++){ \r\n            if(tickets[i].sell==true){\r\n                j++;\r\n            }\r\n        }\r\n        TicketData[] memory biglietti=new TicketData[](j);\r\n        uint l=0;\r\n        for(uint i=0; i < get_ticket_lenght(); i++){ \r\n            if(tickets[i].sell==true){\r\n                biglietti[l]=TicketData(tickets[i].name,tickets[i].surname,tickets[i].ticketid,tickets[i].eventid,tickets[i].sell,tickets[i].validate,tickets[i].customer);\r\n                l++;\r\n            }\r\n        }\r\n        return biglietti;\r\n\r\n    }\r\n\r\n\r\n    function validate_ticket(uint ticketid, address val) external only_validator(val)returns(string memory, address){\r\n        bool flag=false;\r\n        for(uint i=0; i < get_ticket_lenght(); i++){\r\n            if(tickets[i].ticketid==ticketid && tickets[i].validate==false && tickets[i].sell==true){\r\n                tickets[i].validate=true;\r\n                flag=true;\r\n            }\r\n        }\r\n        require(flag==true, \"Biglietto gia' validato o invalidabile\");\r\n        return(\"Biglietto valido\", val);\r\n\r\n   }\r\n    /*function set_event_sold(uint ticketid) internal returns (bool){\r\n        bool flag=false;\r\n        for(uint i=0; i < get_ticket_lenght(); i++){\r\n            if(tickets[i].ticketid==ticketid){\r\n                tickets[i].sell=true;\r\n                flag=true;\r\n            }\r\n        }\r\n        return flag;\r\n    } */\r\n    \r\n    \r\n    function get_tickets() public only_owner view returns(TicketData[] memory){\r\n        return tickets;\r\n    }\r\n\r\n    function get_personal_tickets(address cliente) public view returns(TicketData[] memory big){\r\n        uint j=0;\r\n        for(uint i=0; i < get_ticket_lenght(); i++){ \r\n            if(tickets[i].customer==cliente){\r\n                j++;\r\n            }\r\n        }\r\n        TicketData[] memory biglietti=new TicketData[](j);\r\n        uint l=0;\r\n        for(uint i=0; i < get_ticket_lenght(); i++){ \r\n            if(tickets[i].customer==cliente){\r\n                biglietti[l]=TicketData(tickets[i].name,tickets[i].surname,tickets[i].ticketid,tickets[i].eventid,tickets[i].sell,tickets[i].validate,tickets[i].customer);\r\n                l++;\r\n            }\r\n        }\r\n        return biglietti;\r\n    }\r\n\r\n    \r\n\r\n    function get_event_price(uint eventid) public view returns(uint) {\r\n        return events[eventid].price;\r\n    }\r\n    /*function delete_event_list(uint id) public only_owner {\r\n        bool deletable=false;\r\n        string memory an=\"Annullato\";\r\n        string memory cn=\"Concluso\";\r\n        for(uint i=0; i < get_event_length(); i++){\r\n            if(keccak256(abi.encodePacked(events[i]))==keccak256(abi.encodePacked(an)))\r\n                deletable=true;\r\n        }\r\n        \r\n        if(deletable)\r\n            delete events;\r\n    } */\r\n  \r\n     \r\n     function get_event(uint id) public view returns(EventData memory evento){\r\n         require(id < get_event_length(), \"L'evento non esiste\");\r\n         for(uint i=0; i < get_event_length(); i++){\r\n             if(events[i].id==id)\r\n                return events[i];\r\n         }\r\n     }\r\n     \r\n     function get_event_length() internal view returns (uint){\r\n         return events.length;\r\n     }\r\n     \r\n     function get_ticket_lenght() internal view returns (uint){\r\n         return tickets.length;\r\n     }\r\n     \r\n     function set_reseller(address r) only_owner public returns(string memory, address){\r\n         reseller=r;\r\n         return(\"Reseller impostato\", reseller);\r\n     }\r\n\r\n     function set_validator(address v) only_owner public returns(string memory, address){\r\n         validator=v;\r\n         return(\"Validator impostato\", validator);\r\n     }\r\n     \r\n     function get_balance() public view returns (uint256){\r\n        return owner.balance;\r\n    }\r\n\r\n    function get_address() public view returns(address){\r\n        return owner;\r\n    }\r\n\r\n    \r\n}  ",
  "sourcePath": "C:\\Users\\Denil\\Desktop\\Progetto cyberesecurity\\Software-Cybersecurity-Project\\contracts\\Event.sol",
  "compiler": {
    "name": "solc",
    "version": "0.8.9+commit.e5eed63a.Emscripten.clang"
  },
  "schemaVersion": "3.4.3",
  "updatedAt": "2021-11-03T17:06:46.082Z",
  "networkType": "ethereum",
  "devdoc": {
    "kind": "dev",
    "methods": {},
    "version": 1
  },
  "userdoc": {
    "kind": "user",
    "methods": {},
    "version": 1
  }
}