{
  "contractName": "Event",
  "abi": [
    {
      "anonymous": false,
      "inputs": [
        {
          "indexed": true,
          "internalType": "uint256",
          "name": "eventid",
          "type": "uint256"
        },
        {
          "indexed": true,
          "internalType": "address",
          "name": "creator",
          "type": "address"
        }
      ],
      "name": "EventCreated",
      "type": "event"
    },
    {
      "anonymous": false,
      "inputs": [
        {
          "indexed": true,
          "internalType": "uint256",
          "name": "eventid",
          "type": "uint256"
        },
        {
          "indexed": true,
          "internalType": "address",
          "name": "creator",
          "type": "address"
        }
      ],
      "name": "EventFinished",
      "type": "event"
    },
    {
      "anonymous": false,
      "inputs": [
        {
          "indexed": true,
          "internalType": "uint256",
          "name": "eventid",
          "type": "uint256"
        },
        {
          "indexed": true,
          "internalType": "address",
          "name": "creator",
          "type": "address"
        }
      ],
      "name": "EventModified",
      "type": "event"
    },
    {
      "anonymous": false,
      "inputs": [
        {
          "indexed": true,
          "internalType": "uint256",
          "name": "eventid",
          "type": "uint256"
        },
        {
          "indexed": true,
          "internalType": "address",
          "name": "creator",
          "type": "address"
        }
      ],
      "name": "EventOverrlue",
      "type": "event"
    },
    {
      "anonymous": false,
      "inputs": [
        {
          "indexed": true,
          "internalType": "uint256",
          "name": "ticketid",
          "type": "uint256"
        },
        {
          "indexed": true,
          "internalType": "address",
          "name": "customer",
          "type": "address"
        }
      ],
      "name": "TicketModified",
      "type": "event"
    },
    {
      "anonymous": false,
      "inputs": [
        {
          "indexed": true,
          "internalType": "uint256",
          "name": "eventid",
          "type": "uint256"
        },
        {
          "indexed": false,
          "internalType": "uint256",
          "name": "ticketid",
          "type": "uint256"
        },
        {
          "indexed": true,
          "internalType": "address",
          "name": "customer",
          "type": "address"
        }
      ],
      "name": "TicketSold",
      "type": "event"
    },
    {
      "anonymous": false,
      "inputs": [
        {
          "indexed": true,
          "internalType": "uint256",
          "name": "eventid",
          "type": "uint256"
        },
        {
          "indexed": true,
          "internalType": "uint256",
          "name": "totalticket",
          "type": "uint256"
        },
        {
          "indexed": true,
          "internalType": "address",
          "name": "creator",
          "type": "address"
        }
      ],
      "name": "TicketsGenerated",
      "type": "event"
    },
    {
      "anonymous": false,
      "inputs": [
        {
          "indexed": true,
          "internalType": "address",
          "name": "creator",
          "type": "address"
        }
      ],
      "name": "WithDraw",
      "type": "event"
    },
    {
      "inputs": [
        {
          "internalType": "string",
          "name": "title",
          "type": "string"
        },
        {
          "internalType": "string",
          "name": "luogo",
          "type": "string"
        },
        {
          "internalType": "string",
          "name": "date",
          "type": "string"
        },
        {
          "internalType": "uint256",
          "name": "seats",
          "type": "uint256"
        },
        {
          "internalType": "uint256",
          "name": "price",
          "type": "uint256"
        },
        {
          "internalType": "address",
          "name": "res",
          "type": "address"
        },
        {
          "internalType": "address",
          "name": "val",
          "type": "address"
        }
      ],
      "name": "create_event",
      "outputs": [
        {
          "internalType": "uint256",
          "name": "",
          "type": "uint256"
        }
      ],
      "stateMutability": "nonpayable",
      "type": "function"
    },
    {
      "inputs": [
        {
          "internalType": "uint256",
          "name": "id",
          "type": "uint256"
        }
      ],
      "name": "overrlue_event",
      "outputs": [],
      "stateMutability": "nonpayable",
      "type": "function"
    },
    {
      "inputs": [
        {
          "internalType": "uint256",
          "name": "id",
          "type": "uint256"
        }
      ],
      "name": "finish_event",
      "outputs": [],
      "stateMutability": "nonpayable",
      "type": "function"
    },
    {
      "inputs": [],
      "name": "get_events",
      "outputs": [
        {
          "components": [
            {
              "internalType": "uint256",
              "name": "id",
              "type": "uint256"
            },
            {
              "internalType": "string",
              "name": "title",
              "type": "string"
            },
            {
              "internalType": "string",
              "name": "luogo",
              "type": "string"
            },
            {
              "internalType": "string",
              "name": "date",
              "type": "string"
            },
            {
              "internalType": "uint256",
              "name": "seats",
              "type": "uint256"
            },
            {
              "internalType": "uint256",
              "name": "remaining_tickets",
              "type": "uint256"
            },
            {
              "internalType": "uint256",
              "name": "price",
              "type": "uint256"
            },
            {
              "internalType": "string",
              "name": "state",
              "type": "string"
            },
            {
              "internalType": "address",
              "name": "owner",
              "type": "address"
            }
          ],
          "internalType": "struct Event.EventData[]",
          "name": "",
          "type": "tuple[]"
        }
      ],
      "stateMutability": "view",
      "type": "function",
      "constant": true
    },
    {
      "inputs": [
        {
          "internalType": "uint256",
          "name": "eventid",
          "type": "uint256"
        }
      ],
      "name": "check_ticket",
      "outputs": [
        {
          "internalType": "bool",
          "name": "",
          "type": "bool"
        }
      ],
      "stateMutability": "view",
      "type": "function",
      "constant": true
    },
    {
      "inputs": [
        {
          "internalType": "address payable",
          "name": "customer",
          "type": "address"
        },
        {
          "internalType": "uint256",
          "name": "eventid",
          "type": "uint256"
        },
        {
          "internalType": "string",
          "name": "name",
          "type": "string"
        },
        {
          "internalType": "string",
          "name": "surname",
          "type": "string"
        }
      ],
      "name": "buy_ticket",
      "outputs": [
        {
          "internalType": "uint256",
          "name": "",
          "type": "uint256"
        }
      ],
      "stateMutability": "payable",
      "type": "function",
      "payable": true
    },
    {
      "inputs": [],
      "name": "withdraw",
      "outputs": [],
      "stateMutability": "nonpayable",
      "type": "function"
    },
    {
      "inputs": [
        {
          "internalType": "uint256",
          "name": "eventid",
          "type": "uint256"
        },
        {
          "internalType": "string",
          "name": "title",
          "type": "string"
        },
        {
          "internalType": "string",
          "name": "place",
          "type": "string"
        },
        {
          "internalType": "string",
          "name": "date",
          "type": "string"
        },
        {
          "internalType": "uint256",
          "name": "new_tickets",
          "type": "uint256"
        },
        {
          "internalType": "address",
          "name": "res",
          "type": "address"
        }
      ],
      "name": "modify_event",
      "outputs": [
        {
          "internalType": "bool",
          "name": "",
          "type": "bool"
        }
      ],
      "stateMutability": "nonpayable",
      "type": "function"
    },
    {
      "inputs": [
        {
          "internalType": "string",
          "name": "name",
          "type": "string"
        },
        {
          "internalType": "string",
          "name": "surname",
          "type": "string"
        },
        {
          "internalType": "uint256",
          "name": "ticketid",
          "type": "uint256"
        }
      ],
      "name": "modify_ticket",
      "outputs": [
        {
          "internalType": "bool",
          "name": "",
          "type": "bool"
        }
      ],
      "stateMutability": "nonpayable",
      "type": "function"
    },
    {
      "inputs": [],
      "name": "get_ticket_to_validate",
      "outputs": [
        {
          "components": [
            {
              "internalType": "string",
              "name": "name",
              "type": "string"
            },
            {
              "internalType": "string",
              "name": "surname",
              "type": "string"
            },
            {
              "internalType": "uint256",
              "name": "ticketid",
              "type": "uint256"
            },
            {
              "internalType": "uint256",
              "name": "eventid",
              "type": "uint256"
            },
            {
              "internalType": "bool",
              "name": "sell",
              "type": "bool"
            },
            {
              "internalType": "bool",
              "name": "validate",
              "type": "bool"
            },
            {
              "internalType": "address",
              "name": "customer",
              "type": "address"
            }
          ],
          "internalType": "struct Event.TicketData[]",
          "name": "",
          "type": "tuple[]"
        }
      ],
      "stateMutability": "view",
      "type": "function",
      "constant": true
    },
    {
      "inputs": [
        {
          "internalType": "uint256",
          "name": "ticketid",
          "type": "uint256"
        },
        {
          "internalType": "address",
          "name": "val",
          "type": "address"
        }
      ],
      "name": "validate_ticket",
      "outputs": [
        {
          "internalType": "bool",
          "name": "",
          "type": "bool"
        }
      ],
      "stateMutability": "nonpayable",
      "type": "function"
    },
    {
      "inputs": [],
      "name": "get_tickets",
      "outputs": [
        {
          "components": [
            {
              "internalType": "string",
              "name": "name",
              "type": "string"
            },
            {
              "internalType": "string",
              "name": "surname",
              "type": "string"
            },
            {
              "internalType": "uint256",
              "name": "ticketid",
              "type": "uint256"
            },
            {
              "internalType": "uint256",
              "name": "eventid",
              "type": "uint256"
            },
            {
              "internalType": "bool",
              "name": "sell",
              "type": "bool"
            },
            {
              "internalType": "bool",
              "name": "validate",
              "type": "bool"
            },
            {
              "internalType": "address",
              "name": "customer",
              "type": "address"
            }
          ],
          "internalType": "struct Event.TicketData[]",
          "name": "",
          "type": "tuple[]"
        }
      ],
      "stateMutability": "view",
      "type": "function",
      "constant": true
    },
    {
      "inputs": [],
      "name": "get_personal_tickets",
      "outputs": [
        {
          "components": [
            {
              "internalType": "string",
              "name": "name",
              "type": "string"
            },
            {
              "internalType": "string",
              "name": "surname",
              "type": "string"
            },
            {
              "internalType": "uint256",
              "name": "ticketid",
              "type": "uint256"
            },
            {
              "internalType": "uint256",
              "name": "eventid",
              "type": "uint256"
            },
            {
              "internalType": "bool",
              "name": "sell",
              "type": "bool"
            },
            {
              "internalType": "bool",
              "name": "validate",
              "type": "bool"
            },
            {
              "internalType": "address",
              "name": "customer",
              "type": "address"
            }
          ],
          "internalType": "struct Event.TicketData[]",
          "name": "big",
          "type": "tuple[]"
        }
      ],
      "stateMutability": "view",
      "type": "function",
      "constant": true
    },
    {
      "inputs": [
        {
          "internalType": "uint256",
          "name": "eventid",
          "type": "uint256"
        }
      ],
      "name": "get_event_price",
      "outputs": [
        {
          "internalType": "uint256",
          "name": "",
          "type": "uint256"
        }
      ],
      "stateMutability": "view",
      "type": "function",
      "constant": true
    },
    {
      "inputs": [
        {
          "internalType": "uint256",
          "name": "id",
          "type": "uint256"
        }
      ],
      "name": "get_event",
      "outputs": [
        {
          "components": [
            {
              "internalType": "uint256",
              "name": "id",
              "type": "uint256"
            },
            {
              "internalType": "string",
              "name": "title",
              "type": "string"
            },
            {
              "internalType": "string",
              "name": "luogo",
              "type": "string"
            },
            {
              "internalType": "string",
              "name": "date",
              "type": "string"
            },
            {
              "internalType": "uint256",
              "name": "seats",
              "type": "uint256"
            },
            {
              "internalType": "uint256",
              "name": "remaining_tickets",
              "type": "uint256"
            },
            {
              "internalType": "uint256",
              "name": "price",
              "type": "uint256"
            },
            {
              "internalType": "string",
              "name": "state",
              "type": "string"
            },
            {
              "internalType": "address",
              "name": "owner",
              "type": "address"
            }
          ],
          "internalType": "struct Event.EventData",
          "name": "evento",
          "type": "tuple"
        }
      ],
      "stateMutability": "view",
      "type": "function",
      "constant": true
    },
    {
      "inputs": [],
      "name": "getBalance",
      "outputs": [
        {
          "internalType": "uint256",
          "name": "",
          "type": "uint256"
        }
      ],
      "stateMutability": "view",
      "type": "function",
      "constant": true
    }
  ],
  "bytecode": "0x6080604052336000806101000a81548173ffffffffffffffffffffffffffffffffffffffff021916908373ffffffffffffffffffffffffffffffffffffffff16021790555034801561005057600080fd5b50614592806100606000396000f3fe6080604052600436106100f35760003560e01c80635c34a5de1161008a578063957bdf6011610059578063957bdf601461033e578063a15cb47b14610369578063c9b46fef146103a6578063f06f75cc146103e3576100f3565b80635c34a5de146102825780635c74af21146102bf578063890a9e08146102ea5780638c59a08514610315576100f3565b80633f646e64116100c65780633f646e64146101a057806343b5972b146101dd57806347a828b31461021a5780635b3929cb14610257576100f3565b806312065fe0146100f8578063214638cc1461012357806338ae8be4146101605780633ccfd60b14610189575b600080fd5b34801561010457600080fd5b5061010d610413565b60405161011a9190613241565b60405180910390f35b34801561012f57600080fd5b5061014a600480360381019061014591906132fa565b6104aa565b6040516101579190613355565b60405180910390f35b34801561016c57600080fd5b5061018760048036038101906101829190613370565b6106aa565b005b34801561019557600080fd5b5061019e6107ee565b005b3480156101ac57600080fd5b506101c760048036038101906101c291906134e3565b610915565b6040516101d49190613355565b60405180910390f35b3480156101e957600080fd5b5061020460048036038101906101ff919061356e565b610a8d565b6040516102119190613355565b60405180910390f35b34801561022657600080fd5b50610241600480360381019061023c9190613370565b610d2c565b60405161024e91906137cf565b60405180910390f35b34801561026357600080fd5b5061026c6110d2565b604051610279919061398d565b60405180910390f35b34801561028e57600080fd5b506102a960048036038101906102a49190613370565b6113f8565b6040516102b69190613355565b60405180910390f35b3480156102cb57600080fd5b506102d46114e0565b6040516102e19190613b23565b60405180910390f35b3480156102f657600080fd5b506102ff611977565b60405161030c9190613b23565b60405180910390f35b34801561032157600080fd5b5061033c60048036038101906103379190613370565b611df0565b005b34801561034a57600080fd5b50610353611f34565b6040516103609190613b23565b60405180910390f35b34801561037557600080fd5b50610390600480360381019061038b9190613370565b6121e5565b60405161039d9190613241565b60405180910390f35b3480156103b257600080fd5b506103cd60048036038101906103c89190613b45565b612214565b6040516103da9190613241565b60405180910390f35b6103fd60048036038101906103f89190613c79565b6124f9565b60405161040a9190613241565b60405180910390f35b60008060009054906101000a900473ffffffffffffffffffffffffffffffffffffffff1673ffffffffffffffffffffffffffffffffffffffff163373ffffffffffffffffffffffffffffffffffffffff16146104a4576040517f08c379a000000000000000000000000000000000000000000000000000000000815260040161049b90613d9b565b60405180910390fd5b47905090565b600081600260009054906101000a900473ffffffffffffffffffffffffffffffffffffffff1673ffffffffffffffffffffffffffffffffffffffff168173ffffffffffffffffffffffffffffffffffffffff161461053d576040517f08c379a000000000000000000000000000000000000000000000000000000000815260040161053490613e07565b60405180910390fd5b6000805b6105496125d4565b81101561065757856004828154811061056557610564613e27565b5b9060005260206000209060050201600201541480156105ba5750600015156004828154811061059757610596613e27565b5b906000526020600020906005020160040160019054906101000a900460ff161515145b80156105fc575060011515600482815481106105d9576105d8613e27565b5b906000526020600020906005020160040160009054906101000a900460ff161515145b156106445760016004828154811061061757610616613e27565b5b906000526020600020906005020160040160016101000a81548160ff021916908315150217905550600191505b808061064f90613e85565b915050610541565b50600115158115151461069f576040517f08c379a000000000000000000000000000000000000000000000000000000000815260040161069690613f40565b60405180910390fd5b809250505092915050565b60008054906101000a900473ffffffffffffffffffffffffffffffffffffffff1673ffffffffffffffffffffffffffffffffffffffff163373ffffffffffffffffffffffffffffffffffffffff1614610738576040517f08c379a000000000000000000000000000000000000000000000000000000000815260040161072f90613d9b565b60405180910390fd5b6040518060400160405280600881526020017f436f6e636c75736f0000000000000000000000000000000000000000000000008152506003828154811061078257610781613e27565b5b906000526020600020906009020160070190805190602001906107a69291906130cc565b503373ffffffffffffffffffffffffffffffffffffffff16817fb15d3899a0a77e20f0c368865d76be846e277b8cac84cddf244f45748709720a60405160405180910390a350565b60008054906101000a900473ffffffffffffffffffffffffffffffffffffffff1673ffffffffffffffffffffffffffffffffffffffff163373ffffffffffffffffffffffffffffffffffffffff161461087c576040517f08c379a000000000000000000000000000000000000000000000000000000000815260040161087390613d9b565b60405180910390fd5b60003390508073ffffffffffffffffffffffffffffffffffffffff166108fc6108a3610413565b9081150290604051600060405180830381858888f193505050501580156108ce573d6000803e3d6000fd5b508073ffffffffffffffffffffffffffffffffffffffff167fe0d53c5567d2948d02a3d792743b7dd6c704ac09c0f26a319969583ef820761760405160405180910390a250565b60006004828154811061092b5761092a613e27565b5b906000526020600020906005020160040160029054906101000a900473ffffffffffffffffffffffffffffffffffffffff1673ffffffffffffffffffffffffffffffffffffffff163373ffffffffffffffffffffffffffffffffffffffff16146109ca576040517f08c379a00000000000000000000000000000000000000000000000000000000081526004016109c190613fd2565b60405180910390fd5b83600483815481106109df576109de613e27565b5b90600052602060002090600502016000019080519060200190610a039291906130cc565b508260048381548110610a1957610a18613e27565b5b90600052602060002090600502016001019080519060200190610a3d9291906130cc565b503373ffffffffffffffffffffffffffffffffffffffff16827f1f90d374be13ed86a8e4a5ce7ad930bf829c7ae9d29c6929619f44dbd9f8d82760405160405180910390a3600190509392505050565b60008060009054906101000a900473ffffffffffffffffffffffffffffffffffffffff1673ffffffffffffffffffffffffffffffffffffffff163373ffffffffffffffffffffffffffffffffffffffff1614610b1e576040517f08c379a0000000000000000000000000000000000000000000000000000000008152600401610b1590613d9b565b60405180910390fd5b8560038881548110610b3357610b32613e27565b5b90600052602060002090600902016001019080519060200190610b579291906130cc565b508460038881548110610b6d57610b6c613e27565b5b90600052602060002090600902016002019080519060200190610b919291906130cc565b508360038881548110610ba757610ba6613e27565b5b90600052602060002090600902016003019080519060200190610bcb9291906130cc565b506000831015610c10576040517f08c379a0000000000000000000000000000000000000000000000000000000008152600401610c079061403e565b60405180910390fd5b6000831115610cda57610c248784846125e1565b508260038881548110610c3a57610c39613e27565b5b906000526020600020906009020160040154610c56919061405e565b60038881548110610c6a57610c69613e27565b5b9060005260206000209060090201600401819055508260038881548110610c9457610c93613e27565b5b906000526020600020906009020160050154610cb0919061405e565b60038881548110610cc457610cc3613e27565b5b9060005260206000209060090201600501819055505b3373ffffffffffffffffffffffffffffffffffffffff16877f2fad1b3c650071b237f12cc4f1e4e3a53079f5d0fc632e7a644271868e72db1f60405160405180910390a3600190509695505050505050565b610d34613152565b610d3c6128fb565b8210610d7d576040517f08c379a0000000000000000000000000000000000000000000000000000000008152600401610d7490614100565b60405180910390fd5b60005b610d886128fb565b8110156110cb578260038281548110610da457610da3613e27565b5b90600052602060002090600902016000015414156110b85760038181548110610dd057610dcf613e27565b5b90600052602060002090600902016040518061012001604052908160008201548152602001600182018054610e049061414f565b80601f0160208091040260200160405190810160405280929190818152602001828054610e309061414f565b8015610e7d5780601f10610e5257610100808354040283529160200191610e7d565b820191906000526020600020905b815481529060010190602001808311610e6057829003601f168201915b50505050508152602001600282018054610e969061414f565b80601f0160208091040260200160405190810160405280929190818152602001828054610ec29061414f565b8015610f0f5780601f10610ee457610100808354040283529160200191610f0f565b820191906000526020600020905b815481529060010190602001808311610ef257829003601f168201915b50505050508152602001600382018054610f289061414f565b80601f0160208091040260200160405190810160405280929190818152602001828054610f549061414f565b8015610fa15780601f10610f7657610100808354040283529160200191610fa1565b820191906000526020600020905b815481529060010190602001808311610f8457829003601f168201915b50505050508152602001600482015481526020016005820154815260200160068201548152602001600782018054610fd89061414f565b80601f01602080910402602001604051908101604052809291908181526020018280546110049061414f565b80156110515780601f1061102657610100808354040283529160200191611051565b820191906000526020600020905b81548152906001019060200180831161103457829003601f168201915b505050505081526020016008820160009054906101000a900473ffffffffffffffffffffffffffffffffffffffff1673ffffffffffffffffffffffffffffffffffffffff1673ffffffffffffffffffffffffffffffffffffffff16815250509150506110cd565b80806110c390613e85565b915050610d80565b505b919050565b60606003805480602002602001604051908101604052809291908181526020016000905b828210156113ef578382906000526020600020906009020160405180610120016040529081600082015481526020016001820180546111349061414f565b80601f01602080910402602001604051908101604052809291908181526020018280546111609061414f565b80156111ad5780601f10611182576101008083540402835291602001916111ad565b820191906000526020600020905b81548152906001019060200180831161119057829003601f168201915b505050505081526020016002820180546111c69061414f565b80601f01602080910402602001604051908101604052809291908181526020018280546111f29061414f565b801561123f5780601f106112145761010080835404028352916020019161123f565b820191906000526020600020905b81548152906001019060200180831161122257829003601f168201915b505050505081526020016003820180546112589061414f565b80601f01602080910402602001604051908101604052809291908181526020018280546112849061414f565b80156112d15780601f106112a6576101008083540402835291602001916112d1565b820191906000526020600020905b8154815290600101906020018083116112b457829003601f168201915b505050505081526020016004820154815260200160058201548152602001600682015481526020016007820180546113089061414f565b80601f01602080910402602001604051908101604052809291908181526020018280546113349061414f565b80156113815780601f1061135657610100808354040283529160200191611381565b820191906000526020600020905b81548152906001019060200180831161136457829003601f168201915b505050505081526020016008820160009054906101000a900473ffffffffffffffffffffffffffffffffffffffff1673ffffffffffffffffffffffffffffffffffffffff1673ffffffffffffffffffffffffffffffffffffffff1681525050815260200190600101906110f6565b50505050905090565b60008061140483610d2c565b905060008160a00151141561141d5760009150506114db565b60405160200161142c906141d8565b604051602081830303815290604052805190602001208160e00151604051602001611457919061421e565b6040516020818303038152906040528051906020012014806114c6575060405160200161148390614281565b604051602081830303815290604052805190602001208160e001516040516020016114ae919061421e565b60405160208183030381529060405280519060200120145b156114d55760009150506114db565b60019150505b919050565b606033600260009054906101000a900473ffffffffffffffffffffffffffffffffffffffff1673ffffffffffffffffffffffffffffffffffffffff168173ffffffffffffffffffffffffffffffffffffffff1614611573576040517f08c379a000000000000000000000000000000000000000000000000000000000815260040161156a90613e07565b60405180910390fd5b6000805b61157f6125d4565b8110156115e757600115156004828154811061159e5761159d613e27565b5b906000526020600020906005020160040160009054906101000a900460ff16151514156115d45781806115d090613e85565b9250505b80806115df90613e85565b915050611577565b5060008167ffffffffffffffff811115611604576116036133b8565b5b60405190808252806020026020018201604052801561163d57816020015b61162a6131b4565b8152602001906001900390816116225790505b5090506000805b61164c6125d4565b81101561196c57600115156004828154811061166b5761166a613e27565b5b906000526020600020906005020160040160009054906101000a900460ff1615151415611959576040518060e00160405280600483815481106116b1576116b0613e27565b5b906000526020600020906005020160000180546116cd9061414f565b80601f01602080910402602001604051908101604052809291908181526020018280546116f99061414f565b80156117465780601f1061171b57610100808354040283529160200191611746565b820191906000526020600020905b81548152906001019060200180831161172957829003601f168201915b505050505081526020016004838154811061176457611763613e27565b5b906000526020600020906005020160010180546117809061414f565b80601f01602080910402602001604051908101604052809291908181526020018280546117ac9061414f565b80156117f95780601f106117ce576101008083540402835291602001916117f9565b820191906000526020600020905b8154815290600101906020018083116117dc57829003601f168201915b505050505081526020016004838154811061181757611816613e27565b5b90600052602060002090600502016002015481526020016004838154811061184257611841613e27565b5b90600052602060002090600502016003015481526020016004838154811061186d5761186c613e27565b5b906000526020600020906005020160040160009054906101000a900460ff1615158152602001600483815481106118a7576118a6613e27565b5b906000526020600020906005020160040160019054906101000a900460ff1615158152602001600483815481106118e1576118e0613e27565b5b906000526020600020906005020160040160029054906101000a900473ffffffffffffffffffffffffffffffffffffffff1673ffffffffffffffffffffffffffffffffffffffff1681525083838151811061193f5761193e613e27565b5b6020026020010181905250818061195590613e85565b9250505b808061196490613e85565b915050611644565b508194505050505090565b60606000805b6119856125d4565b811015611a27573373ffffffffffffffffffffffffffffffffffffffff16600482815481106119b7576119b6613e27565b5b906000526020600020906005020160040160029054906101000a900473ffffffffffffffffffffffffffffffffffffffff1673ffffffffffffffffffffffffffffffffffffffff161415611a14578180611a1090613e85565b9250505b8080611a1f90613e85565b91505061197d565b5060008167ffffffffffffffff811115611a4457611a436133b8565b5b604051908082528060200260200182016040528015611a7d57816020015b611a6a6131b4565b815260200190600190039081611a625790505b5090506000805b611a8c6125d4565b811015611de6573373ffffffffffffffffffffffffffffffffffffffff1660048281548110611abe57611abd613e27565b5b906000526020600020906005020160040160029054906101000a900473ffffffffffffffffffffffffffffffffffffffff1673ffffffffffffffffffffffffffffffffffffffff161415611dd3576040518060e0016040528060048381548110611b2b57611b2a613e27565b5b90600052602060002090600502016000018054611b479061414f565b80601f0160208091040260200160405190810160405280929190818152602001828054611b739061414f565b8015611bc05780601f10611b9557610100808354040283529160200191611bc0565b820191906000526020600020905b815481529060010190602001808311611ba357829003601f168201915b5050505050815260200160048381548110611bde57611bdd613e27565b5b90600052602060002090600502016001018054611bfa9061414f565b80601f0160208091040260200160405190810160405280929190818152602001828054611c269061414f565b8015611c735780601f10611c4857610100808354040283529160200191611c73565b820191906000526020600020905b815481529060010190602001808311611c5657829003601f168201915b5050505050815260200160048381548110611c9157611c90613e27565b5b906000526020600020906005020160020154815260200160048381548110611cbc57611cbb613e27565b5b906000526020600020906005020160030154815260200160048381548110611ce757611ce6613e27565b5b906000526020600020906005020160040160009054906101000a900460ff161515815260200160048381548110611d2157611d20613e27565b5b906000526020600020906005020160040160019054906101000a900460ff161515815260200160048381548110611d5b57611d5a613e27565b5b906000526020600020906005020160040160029054906101000a900473ffffffffffffffffffffffffffffffffffffffff1673ffffffffffffffffffffffffffffffffffffffff16815250838381518110611db957611db8613e27565b5b60200260200101819052508180611dcf90613e85565b9250505b8080611dde90613e85565b915050611a84565b5081935050505090565b60008054906101000a900473ffffffffffffffffffffffffffffffffffffffff1673ffffffffffffffffffffffffffffffffffffffff163373ffffffffffffffffffffffffffffffffffffffff1614611e7e576040517f08c379a0000000000000000000000000000000000000000000000000000000008152600401611e7590613d9b565b60405180910390fd5b6040518060400160405280600981526020017f416e6e756c6c61746f000000000000000000000000000000000000000000000081525060038281548110611ec857611ec7613e27565b5b90600052602060002090600902016007019080519060200190611eec9291906130cc565b503373ffffffffffffffffffffffffffffffffffffffff16817f9ab588958c126cb0274213719f45aca396603352447383188a81e29c1269029a60405160405180910390a350565b606060008054906101000a900473ffffffffffffffffffffffffffffffffffffffff1673ffffffffffffffffffffffffffffffffffffffff163373ffffffffffffffffffffffffffffffffffffffff1614611fc4576040517f08c379a0000000000000000000000000000000000000000000000000000000008152600401611fbb90613d9b565b60405180910390fd5b6004805480602002602001604051908101604052809291908181526020016000905b828210156121dc57838290600052602060002090600502016040518060e00160405290816000820180546120199061414f565b80601f01602080910402602001604051908101604052809291908181526020018280546120459061414f565b80156120925780601f1061206757610100808354040283529160200191612092565b820191906000526020600020905b81548152906001019060200180831161207557829003601f168201915b505050505081526020016001820180546120ab9061414f565b80601f01602080910402602001604051908101604052809291908181526020018280546120d79061414f565b80156121245780601f106120f957610100808354040283529160200191612124565b820191906000526020600020905b81548152906001019060200180831161210757829003601f168201915b5050505050815260200160028201548152602001600382015481526020016004820160009054906101000a900460ff161515151581526020016004820160019054906101000a900460ff161515151581526020016004820160029054906101000a900473ffffffffffffffffffffffffffffffffffffffff1673ffffffffffffffffffffffffffffffffffffffff1673ffffffffffffffffffffffffffffffffffffffff168152505081526020019060010190611fe6565b50505050905090565b6000600382815481106121fb576121fa613e27565b5b9060005260206000209060090201600601549050919050565b60008060009054906101000a900473ffffffffffffffffffffffffffffffffffffffff1673ffffffffffffffffffffffffffffffffffffffff163373ffffffffffffffffffffffffffffffffffffffff16146122a5576040517f08c379a000000000000000000000000000000000000000000000000000000000815260040161229c90613d9b565b60405180910390fd5b6003604051806101200160405280600081526020018a81526020018981526020018881526020018781526020018781526020018681526020016040518060400160405280600c81526020017f4e6f6e20636f6e636c75736f000000000000000000000000000000000000000081525081526020013373ffffffffffffffffffffffffffffffffffffffff1681525090806001815401808255809150506001900390600052602060002090600902016000909190919091506000820151816000015560208201518160010190805190602001906123829291906130cc565b50604082015181600201908051906020019061239f9291906130cc565b5060608201518160030190805190602001906123bc9291906130cc565b506080820151816004015560a0820151816005015560c0820151816006015560e08201518160070190805190602001906123f79291906130cc565b506101008201518160080160006101000a81548173ffffffffffffffffffffffffffffffffffffffff021916908373ffffffffffffffffffffffffffffffffffffffff16021790555050506000600161244e6128fb565b6124589190614296565b9050806003828154811061246f5761246e613e27565b5b9060005260206000209060090201600001819055503373ffffffffffffffffffffffffffffffffffffffff16817fe43349c008949cf6b65249356e6f918d4aaa0ca79f2b1166df4a4a98c9c16de260405160405180910390a36124d184612908565b50506124dc83612a3f565b50506124e98187866125e1565b5080915050979650505050505050565b600080612505856121e5565b9050803414612549576040517f08c379a000000000000000000000000000000000000000000000000000000000815260040161254090614316565b60405180910390fd5b600061255486612b76565b9050612566816040015186868a612e1c565b5061257086613026565b8673ffffffffffffffffffffffffffffffffffffffff16867fc41bbb54d04f2268c7895b9330f18468c306a3f92698a92c4c86b2978739784883604001516040516125bb9190613241565b60405180910390a3806040015192505050949350505050565b6000600480549050905090565b600081600160009054906101000a900473ffffffffffffffffffffffffffffffffffffffff1673ffffffffffffffffffffffffffffffffffffffff168173ffffffffffffffffffffffffffffffffffffffff1614612674576040517f08c379a000000000000000000000000000000000000000000000000000000000815260040161266b906143a8565b60405180910390fd5b600084116126b7576040517f08c379a00000000000000000000000000000000000000000000000000000000081526004016126ae9061443a565b60405180910390fd5b600080856126c36125d4565b6126cd919061405e565b905060006126d96125d4565b90505b818110156128a85760046040518060e00160405280604051806020016040528060008152508152602001604051806020016040528060008152508152602001600081526020018a8152602001600015158152602001600015158152602001600073ffffffffffffffffffffffffffffffffffffffff168152509080600181540180825580915050600190039060005260206000209060050201600090919091909150600082015181600001908051906020019061279a9291906130cc565b5060208201518160010190805190602001906127b79291906130cc565b50604082015181600201556060820151816003015560808201518160040160006101000a81548160ff02191690831515021790555060a08201518160040160016101000a81548160ff02191690831515021790555060c08201518160040160026101000a81548173ffffffffffffffffffffffffffffffffffffffff021916908373ffffffffffffffffffffffffffffffffffffffff1602179055505050600161285f6125d4565b6128699190614296565b925082600482815481106128805761287f613e27565b5b90600052602060002090600502016002018190555080806128a090613e85565b9150506126dc565b508473ffffffffffffffffffffffffffffffffffffffff1686887f6567ab497f12a760d234e0684de86536dce884c904386957d5877e165bfb32fa60405160405180910390a48593505050509392505050565b6000600380549050905090565b606060008060009054906101000a900473ffffffffffffffffffffffffffffffffffffffff1673ffffffffffffffffffffffffffffffffffffffff163373ffffffffffffffffffffffffffffffffffffffff161461299b576040517f08c379a000000000000000000000000000000000000000000000000000000000815260040161299290613d9b565b60405180910390fd5b82600160006101000a81548173ffffffffffffffffffffffffffffffffffffffff021916908373ffffffffffffffffffffffffffffffffffffffff160217905550600160009054906101000a900473ffffffffffffffffffffffffffffffffffffffff166040518060400160405280601281526020017f526573656c6c657220696d706f737461746f00000000000000000000000000008152509091509150915091565b606060008060009054906101000a900473ffffffffffffffffffffffffffffffffffffffff1673ffffffffffffffffffffffffffffffffffffffff163373ffffffffffffffffffffffffffffffffffffffff1614612ad2576040517f08c379a0000000000000000000000000000000000000000000000000000000008152600401612ac990613d9b565b60405180910390fd5b82600260006101000a81548173ffffffffffffffffffffffffffffffffffffffff021916908373ffffffffffffffffffffffffffffffffffffffff160217905550600260009054906101000a900473ffffffffffffffffffffffffffffffffffffffff166040518060400160405280601381526020017f56616c696461746f7220696d706f737461746f000000000000000000000000008152509091509150915091565b612b7e6131b4565b612b866131b4565b60005b612b916125d4565b811015612e12578360048281548110612bad57612bac613e27565b5b906000526020600020906005020160030154148015612c0257506000151560048281548110612bdf57612bde613e27565b5b906000526020600020906005020160040160009054906101000a900460ff161515145b15612dff5760048181548110612c1b57612c1a613e27565b5b90600052602060002090600502016040518060e0016040529081600082018054612c449061414f565b80601f0160208091040260200160405190810160405280929190818152602001828054612c709061414f565b8015612cbd5780601f10612c9257610100808354040283529160200191612cbd565b820191906000526020600020905b815481529060010190602001808311612ca057829003601f168201915b50505050508152602001600182018054612cd69061414f565b80601f0160208091040260200160405190810160405280929190818152602001828054612d029061414f565b8015612d4f5780601f10612d2457610100808354040283529160200191612d4f565b820191906000526020600020905b815481529060010190602001808311612d3257829003601f168201915b5050505050815260200160028201548152602001600382015481526020016004820160009054906101000a900460ff161515151581526020016004820160019054906101000a900460ff161515151581526020016004820160029054906101000a900473ffffffffffffffffffffffffffffffffffffffff1673ffffffffffffffffffffffffffffffffffffffff1673ffffffffffffffffffffffffffffffffffffffff16815250509150612e12565b8080612e0a90613e85565b915050612b89565b5080915050919050565b6000806000905060005b612e2e6125d4565b811015612fd2578660048281548110612e4a57612e49613e27565b5b906000526020600020906005020160020154148015612e9f57506000151560048281548110612e7c57612e7b613e27565b5b906000526020600020906005020160040160009054906101000a900460ff161515145b15612fbf57600160048281548110612eba57612eb9613e27565b5b906000526020600020906005020160040160006101000a81548160ff0219169083151502179055508560048281548110612ef757612ef6613e27565b5b90600052602060002090600502016000019080519060200190612f1b9291906130cc565b508460048281548110612f3157612f30613e27565b5b90600052602060002090600502016001019080519060200190612f559291906130cc565b508360048281548110612f6b57612f6a613e27565b5b906000526020600020906005020160040160026101000a81548173ffffffffffffffffffffffffffffffffffffffff021916908373ffffffffffffffffffffffffffffffffffffffff160217905550600191505b8080612fca90613e85565b915050612e26565b50600115158115151461301a576040517f08c379a0000000000000000000000000000000000000000000000000000000008152600401613011906144a6565b60405180910390fd5b80915050949350505050565b60006003828154811061303c5761303b613e27565b5b9060005260206000209060090201600501541161308e576040517f08c379a000000000000000000000000000000000000000000000000000000000815260040161308590614512565b60405180910390fd5b600381815481106130a2576130a1613e27565b5b906000526020600020906009020160050160008154809291906130c490614532565b919050555050565b8280546130d89061414f565b90600052602060002090601f0160209004810192826130fa5760008555613141565b82601f1061311357805160ff1916838001178555613141565b82800160010185558215613141579182015b82811115613140578251825591602001919060010190613125565b5b50905061314e919061320b565b5090565b6040518061012001604052806000815260200160608152602001606081526020016060815260200160008152602001600081526020016000815260200160608152602001600073ffffffffffffffffffffffffffffffffffffffff1681525090565b6040518060e0016040528060608152602001606081526020016000815260200160008152602001600015158152602001600015158152602001600073ffffffffffffffffffffffffffffffffffffffff1681525090565b5b8082111561322457600081600090555060010161320c565b5090565b6000819050919050565b61323b81613228565b82525050565b60006020820190506132566000830184613232565b92915050565b6000604051905090565b600080fd5b600080fd5b61327981613228565b811461328457600080fd5b50565b60008135905061329681613270565b92915050565b600073ffffffffffffffffffffffffffffffffffffffff82169050919050565b60006132c78261329c565b9050919050565b6132d7816132bc565b81146132e257600080fd5b50565b6000813590506132f4816132ce565b92915050565b6000806040838503121561331157613310613266565b5b600061331f85828601613287565b9250506020613330858286016132e5565b9150509250929050565b60008115159050919050565b61334f8161333a565b82525050565b600060208201905061336a6000830184613346565b92915050565b60006020828403121561338657613385613266565b5b600061339484828501613287565b91505092915050565b600080fd5b600080fd5b6000601f19601f8301169050919050565b7f4e487b7100000000000000000000000000000000000000000000000000000000600052604160045260246000fd5b6133f0826133a7565b810181811067ffffffffffffffff8211171561340f5761340e6133b8565b5b80604052505050565b600061342261325c565b905061342e82826133e7565b919050565b600067ffffffffffffffff82111561344e5761344d6133b8565b5b613457826133a7565b9050602081019050919050565b82818337600083830152505050565b600061348661348184613433565b613418565b9050828152602081018484840111156134a2576134a16133a2565b5b6134ad848285613464565b509392505050565b600082601f8301126134ca576134c961339d565b5b81356134da848260208601613473565b91505092915050565b6000806000606084860312156134fc576134fb613266565b5b600084013567ffffffffffffffff81111561351a5761351961326b565b5b613526868287016134b5565b935050602084013567ffffffffffffffff8111156135475761354661326b565b5b613553868287016134b5565b925050604061356486828701613287565b9150509250925092565b60008060008060008060c0878903121561358b5761358a613266565b5b600061359989828a01613287565b965050602087013567ffffffffffffffff8111156135ba576135b961326b565b5b6135c689828a016134b5565b955050604087013567ffffffffffffffff8111156135e7576135e661326b565b5b6135f389828a016134b5565b945050606087013567ffffffffffffffff8111156136145761361361326b565b5b61362089828a016134b5565b935050608061363189828a01613287565b92505060a061364289828a016132e5565b9150509295509295509295565b61365881613228565b82525050565b600081519050919050565b600082825260208201905092915050565b60005b8381101561369857808201518184015260208101905061367d565b838111156136a7576000848401525b50505050565b60006136b88261365e565b6136c28185613669565b93506136d281856020860161367a565b6136db816133a7565b840191505092915050565b6136ef816132bc565b82525050565b60006101208301600083015161370e600086018261364f565b506020830151848203602086015261372682826136ad565b9150506040830151848203604086015261374082826136ad565b9150506060830151848203606086015261375a82826136ad565b915050608083015161376f608086018261364f565b5060a083015161378260a086018261364f565b5060c083015161379560c086018261364f565b5060e083015184820360e08601526137ad82826136ad565b9150506101008301516137c46101008601826136e6565b508091505092915050565b600060208201905081810360008301526137e981846136f5565b905092915050565b600081519050919050565b600082825260208201905092915050565b6000819050602082019050919050565b600061012083016000830151613836600086018261364f565b506020830151848203602086015261384e82826136ad565b9150506040830151848203604086015261386882826136ad565b9150506060830151848203606086015261388282826136ad565b9150506080830151613897608086018261364f565b5060a08301516138aa60a086018261364f565b5060c08301516138bd60c086018261364f565b5060e083015184820360e08601526138d582826136ad565b9150506101008301516138ec6101008601826136e6565b508091505092915050565b6000613903838361381d565b905092915050565b6000602082019050919050565b6000613923826137f1565b61392d81856137fc565b93508360208202850161393f8561380d565b8060005b8581101561397b578484038952815161395c85826138f7565b94506139678361390b565b925060208a01995050600181019050613943565b50829750879550505050505092915050565b600060208201905081810360008301526139a78184613918565b905092915050565b600081519050919050565b600082825260208201905092915050565b6000819050602082019050919050565b6139e48161333a565b82525050565b600060e0830160008301518482036000860152613a0782826136ad565b91505060208301518482036020860152613a2182826136ad565b9150506040830151613a36604086018261364f565b506060830151613a49606086018261364f565b506080830151613a5c60808601826139db565b5060a0830151613a6f60a08601826139db565b5060c0830151613a8260c08601826136e6565b508091505092915050565b6000613a9983836139ea565b905092915050565b6000602082019050919050565b6000613ab9826139af565b613ac381856139ba565b935083602082028501613ad5856139cb565b8060005b85811015613b115784840389528151613af28582613a8d565b9450613afd83613aa1565b925060208a01995050600181019050613ad9565b50829750879550505050505092915050565b60006020820190508181036000830152613b3d8184613aae565b905092915050565b600080600080600080600060e0888a031215613b6457613b63613266565b5b600088013567ffffffffffffffff811115613b8257613b8161326b565b5b613b8e8a828b016134b5565b975050602088013567ffffffffffffffff811115613baf57613bae61326b565b5b613bbb8a828b016134b5565b965050604088013567ffffffffffffffff811115613bdc57613bdb61326b565b5b613be88a828b016134b5565b9550506060613bf98a828b01613287565b9450506080613c0a8a828b01613287565b93505060a0613c1b8a828b016132e5565b92505060c0613c2c8a828b016132e5565b91505092959891949750929550565b6000613c468261329c565b9050919050565b613c5681613c3b565b8114613c6157600080fd5b50565b600081359050613c7381613c4d565b92915050565b60008060008060808587031215613c9357613c92613266565b5b6000613ca187828801613c64565b9450506020613cb287828801613287565b935050604085013567ffffffffffffffff811115613cd357613cd261326b565b5b613cdf878288016134b5565b925050606085013567ffffffffffffffff811115613d0057613cff61326b565b5b613d0c878288016134b5565b91505092959194509250565b600082825260208201905092915050565b7f4e6f6e20736569206175746f72697a7a61746f2061642065736567756972652060008201527f71756573746120617a696f6e6500000000000000000000000000000000000000602082015250565b6000613d85602d83613d18565b9150613d9082613d29565b604082019050919050565b60006020820190508181036000830152613db481613d78565b9050919050565b7f4e6f6e2073656920696c2076616c696461746f72000000000000000000000000600082015250565b6000613df1601483613d18565b9150613dfc82613dbb565b602082019050919050565b60006020820190508181036000830152613e2081613de4565b9050919050565b7f4e487b7100000000000000000000000000000000000000000000000000000000600052603260045260246000fd5b7f4e487b7100000000000000000000000000000000000000000000000000000000600052601160045260246000fd5b6000613e9082613228565b91507fffffffffffffffffffffffffffffffffffffffffffffffffffffffffffffffff821415613ec357613ec2613e56565b5b600182019050919050565b7f4269676c696574746f20676961272076616c696461746f206f20696e76616c6960008201527f646162696c650000000000000000000000000000000000000000000000000000602082015250565b6000613f2a602683613d18565b9150613f3582613ece565b604082019050919050565b60006020820190508181036000830152613f5981613f1d565b9050919050565b7f4e6f6e20736569206175746f72697a7a61746f2061206d6f646966696361726560008201527f206c6520696e666f726d617a696f6e692064656c206269676c696574746f0000602082015250565b6000613fbc603e83613d18565b9150613fc782613f60565b604082019050919050565b60006020820190508181036000830152613feb81613faf565b9050919050565b7f56616c6f726520696e73657269746f206e6f6e2076616c69646f000000000000600082015250565b6000614028601a83613d18565b915061403382613ff2565b602082019050919050565b600060208201905081810360008301526140578161401b565b9050919050565b600061406982613228565b915061407483613228565b9250827fffffffffffffffffffffffffffffffffffffffffffffffffffffffffffffffff038211156140a9576140a8613e56565b5b828201905092915050565b7f4c276576656e746f206e6f6e2065736973746500000000000000000000000000600082015250565b60006140ea601383613d18565b91506140f5826140b4565b602082019050919050565b60006020820190508181036000830152614119816140dd565b9050919050565b7f4e487b7100000000000000000000000000000000000000000000000000000000600052602260045260246000fd5b6000600282049050600182168061416757607f821691505b6020821081141561417b5761417a614120565b5b50919050565b600081905092915050565b7f436f6e636c75736f000000000000000000000000000000000000000000000000600082015250565b60006141c2600883614181565b91506141cd8261418c565b600882019050919050565b60006141e3826141b5565b9150819050919050565b60006141f88261365e565b6142028185614181565b935061421281856020860161367a565b80840191505092915050565b600061422a82846141ed565b915081905092915050565b7f416e6e756c6c61746f0000000000000000000000000000000000000000000000600082015250565b600061426b600983614181565b915061427682614235565b600982019050919050565b600061428c8261425e565b9150819050919050565b60006142a182613228565b91506142ac83613228565b9250828210156142bf576142be613e56565b5b828203905092915050565b7f466f6e6469206e6f6e20737566666963656e7469000000000000000000000000600082015250565b6000614300601483613d18565b915061430b826142ca565b602082019050919050565b6000602082019050818103600083015261432f816142f3565b9050919050565b7f496c20726573656c6c657220737065636966696361746f20652720657272617460008201527f6f00000000000000000000000000000000000000000000000000000000000000602082015250565b6000614392602183613d18565b915061439d82614336565b604082019050919050565b600060208201905081810360008301526143c181614385565b9050919050565b7f4e6f6e20636920736f6e6f206269676c69657474692064612067656e6572617260008201527f6500000000000000000000000000000000000000000000000000000000000000602082015250565b6000614424602183613d18565b915061442f826143c8565b604082019050919050565b6000602082019050818103600083015261445381614417565b9050919050565b7f4572726f7265206e656c6c61206661736520646920616371756973746f000000600082015250565b6000614490601d83613d18565b915061449b8261445a565b602082019050919050565b600060208201905081810360008301526144bf81614483565b9050919050565b7f49206269676c696574746920736f6e6f207465726d696e617469000000000000600082015250565b60006144fc601a83613d18565b9150614507826144c6565b602082019050919050565b6000602082019050818103600083015261452b816144ef565b9050919050565b600061453d82613228565b9150600082141561455157614550613e56565b5b60018203905091905056fea26469706673582212208f10bbb5f307ca09c8e920ed7845fa1bd3d5f78af5a690ed294283e0ec55bb4064736f6c634300080a0033",
  "immutableReferences": {},
  "source": "// SPDX-License-Identifier: GPL-3.0\r\npragma solidity >=0.7.0 <0.9.0;\r\n\r\n\r\n\r\ncontract Event {\r\n    \r\n    address private owner=msg.sender;\r\n    \r\n    address private reseller;\r\n    \r\n    address private validator;\r\n    \r\n    \r\n    struct EventData{ //event data structure\r\n    \r\n        uint id;\r\n    \r\n        string title;\r\n        \r\n        string luogo;\r\n        \r\n        string date;\r\n        \r\n        uint seats;\r\n        \r\n        uint remaining_tickets;\r\n        \r\n        uint256 price;\r\n        \r\n        string state;\r\n        \r\n        address owner;\r\n    } \r\n    \r\n    \r\n    \r\n    struct TicketData{ //ticket data structure\r\n        \r\n        string name;\r\n        \r\n        string surname;\r\n        \r\n        uint ticketid;\r\n        \r\n        uint eventid;\r\n        \r\n        bool sell;\r\n        \r\n        bool validate;\r\n\r\n        address customer;\r\n    }\r\n    \r\n    \r\n    \r\n    EventData[] private events; //all events\r\n    TicketData[] private tickets; //all tickets\r\n    \r\n    modifier only_owner() {\r\n        require(msg.sender == owner, \"Non sei autorizzato ad eseguire questa azione\");\r\n        _;\r\n    }\r\n    \r\n    modifier only_reseller(address res) {\r\n        require(res == reseller, \"Il reseller specificato e' errato\");\r\n        _;\r\n    }\r\n    \r\n    modifier only_validator(address val) {\r\n        require(val == validator, \"Non sei il validator\");\r\n        _;\r\n    }\r\n\r\n    \r\n    event EventCreated(uint indexed eventid, address indexed creator);\r\n    event EventOverrlue(uint indexed eventid, address indexed creator);\r\n    event EventFinished(uint indexed eventid, address indexed creator);\r\n    event TicketsGenerated(uint indexed eventid, uint indexed totalticket, address indexed creator);\r\n    event TicketSold(uint indexed eventid, uint ticketid, address indexed customer);\r\n    event EventModified(uint indexed eventid, address indexed creator);\r\n    event TicketModified(uint indexed ticketid, address indexed customer);\r\n    event WithDraw(address indexed creator);\r\n    \r\n    \r\n    function  create_event(string memory title, string memory  luogo, string memory  date, uint seats, uint256 price, address res, address val) public only_owner returns(uint) {\r\n        events.push(EventData(0, title, luogo,  date, seats, seats, price, \"Non concluso\" , msg.sender));\r\n        uint id=get_event_length() - 1;\r\n        events[id].id=id;\r\n        emit EventCreated(id, msg.sender);\r\n        set_reseller(res);\r\n        set_validator(val);\r\n        generate_tickets(id, seats, res);\r\n        return id;\r\n    }\r\n    \r\n    function overrlue_event(uint id) public only_owner {\r\n        events[id].state=\"Annullato\";\r\n        emit EventOverrlue(id, msg.sender);\r\n    }\r\n    \r\n    function finish_event(uint id) public only_owner {\r\n        events[id].state=\"Concluso\";\r\n        emit EventFinished(id, msg.sender);\r\n    }\r\n    \r\n     function get_events() public view returns (EventData[] memory){\r\n        return events;\r\n     } \r\n\r\n\r\n    \r\n    function generate_tickets(uint eventid, uint totalticket , address res) internal only_reseller(res) returns(uint){\r\n        require(totalticket>0, \"Non ci sono biglietti da generare\");\r\n        uint ticketid=0;\r\n        uint array_len=get_ticket_lenght()+totalticket;\r\n        for(uint i=get_ticket_lenght(); i < array_len  ; i++){\r\n            tickets.push(TicketData(\"\", \"\", 0, eventid, false, false, 0x0000000000000000000000000000000000000000));\r\n            ticketid=get_ticket_lenght() - 1;\r\n            tickets[i].ticketid=ticketid;\r\n        }\r\n        emit TicketsGenerated(eventid, totalticket , res);\r\n        return totalticket;\r\n    }\r\n    \r\n    function get_event_ticket(uint eventid) internal view returns (TicketData memory){\r\n        TicketData memory biglietto;\r\n        for(uint i=0; i < get_ticket_lenght(); i++){ \r\n            if(tickets[i].eventid==eventid && tickets[i].sell==false){\r\n                biglietto=tickets[i];\r\n                break;\r\n            }\r\n        }\r\n        return biglietto;\r\n    }\r\n    \r\n    function set_ticket_sold(uint ticketid, string memory name, string memory surname, address customer) internal returns(bool){\r\n        bool flag=false;\r\n        for(uint i=0; i < get_ticket_lenght(); i++){\r\n            if(tickets[i].ticketid==ticketid && tickets[i].sell==false){\r\n                tickets[i].sell=true;\r\n                tickets[i].name=name;\r\n                tickets[i].surname=surname;\r\n                tickets[i].customer=customer;\r\n                flag=true;\r\n            }\r\n            \r\n        }\r\n        require(flag==true, \"Errore nella fase di acquisto\");\r\n        return flag;\r\n        \r\n    }\r\n    \r\n    function check_ticket(uint eventid) external view returns(bool){\r\n        EventData memory evento= get_event(eventid);\r\n        if(evento.remaining_tickets == 0)\r\n            return false;\r\n        else if(keccak256(abi.encodePacked(evento.state))==keccak256(abi.encodePacked(\"Concluso\")) || keccak256(abi.encodePacked(evento.state))==keccak256(abi.encodePacked(\"Annullato\")) )\r\n            return false;\r\n        else \r\n            return true;\r\n    }\r\n    \r\n    function buy_ticket(address payable customer, uint eventid, string memory name, string memory surname) external payable returns(uint){\r\n        uint price=get_event_price(eventid);\r\n        require(msg.value==price, \"Fondi non sufficenti\");\r\n        TicketData memory biglietto=get_event_ticket(eventid);\r\n        set_ticket_sold(biglietto.ticketid, name, surname, customer);\r\n        reduce_remaining_tickets(eventid);\r\n        emit TicketSold(eventid, biglietto.ticketid, customer);\r\n        return  biglietto.ticketid;      \r\n    }\r\n\r\n    function withdraw() public only_owner {\r\n        address payable indirizzo= payable(msg.sender);\r\n        indirizzo.transfer(getBalance());\r\n        emit WithDraw(indirizzo);\r\n    }\r\n\r\n    function modify_event(uint eventid,string memory title, string memory place, string memory date, uint new_tickets, address res) public only_owner returns(bool){\r\n        events[eventid].title=title;\r\n        events[eventid].luogo=place;\r\n        events[eventid].date=date;\r\n        require(new_tickets>=0,\"Valore inserito non valido\");\r\n        if(new_tickets>0){\r\n            generate_tickets(eventid,new_tickets,res);\r\n            events[eventid].seats=events[eventid].seats+new_tickets;\r\n            events[eventid].remaining_tickets=events[eventid].remaining_tickets+new_tickets;\r\n        }\r\n        emit EventModified(eventid, msg.sender);\r\n        return true;\r\n    }\r\n    \r\n\r\n    function modify_ticket(string memory name, string memory surname, uint ticketid) public returns (bool){\r\n        require(msg.sender==tickets[ticketid].customer, \"Non sei autorizzato a modificare le informazioni del biglietto\");\r\n        tickets[ticketid].name=name;\r\n        tickets[ticketid].surname=surname;\r\n        emit TicketModified(ticketid, msg.sender);\r\n        return true;\r\n    }\r\n\r\n    function reduce_remaining_tickets(uint eventid) internal{\r\n        require(events[eventid].remaining_tickets>0, \"I biglietti sono terminati\");\r\n        events[eventid].remaining_tickets --;\r\n    }\r\n\r\n\r\n    function get_ticket_to_validate() public view only_validator(msg.sender) returns(TicketData[] memory){\r\n        uint j=0;\r\n        for(uint i=0; i < get_ticket_lenght(); i++){ \r\n            if(tickets[i].sell==true){\r\n                j++;\r\n            }\r\n        }\r\n        TicketData[] memory biglietti=new TicketData[](j);\r\n        uint l=0;\r\n        for(uint i=0; i < get_ticket_lenght(); i++){ \r\n            if(tickets[i].sell==true){\r\n                biglietti[l]=TicketData(tickets[i].name,tickets[i].surname,tickets[i].ticketid,tickets[i].eventid,tickets[i].sell,tickets[i].validate,tickets[i].customer);\r\n                l++;\r\n            }\r\n        }\r\n        return biglietti;\r\n\r\n    }\r\n\r\n\r\n    function validate_ticket(uint ticketid, address val) external only_validator(val)returns(bool){\r\n        bool flag=false;\r\n        for(uint i=0; i < get_ticket_lenght(); i++){\r\n            if(tickets[i].ticketid==ticketid && tickets[i].validate==false && tickets[i].sell==true){\r\n                tickets[i].validate=true;\r\n                flag=true;\r\n            }\r\n        }\r\n        require(flag==true, \"Biglietto gia' validato o invalidabile\");\r\n        return flag;\r\n\r\n   }\r\n    \r\n    \r\n    function get_tickets() public only_owner view returns(TicketData[] memory){\r\n        return tickets;\r\n    }\r\n\r\n    function get_personal_tickets() public view returns(TicketData[] memory big){\r\n        uint j=0;\r\n        for(uint i=0; i < get_ticket_lenght(); i++){ \r\n            if(tickets[i].customer==msg.sender){\r\n                j++;\r\n            }\r\n        }\r\n        TicketData[] memory biglietti=new TicketData[](j);\r\n        uint l=0;\r\n        for(uint i=0; i < get_ticket_lenght(); i++){ \r\n            if(tickets[i].customer==msg.sender){\r\n                biglietti[l]=TicketData(tickets[i].name,tickets[i].surname,tickets[i].ticketid,tickets[i].eventid,tickets[i].sell,tickets[i].validate,tickets[i].customer);\r\n                l++;\r\n            }\r\n        }\r\n        return biglietti;\r\n    }\r\n\r\n    \r\n\r\n    function get_event_price(uint eventid) public view returns(uint) {\r\n        return events[eventid].price;\r\n    }\r\n      \r\n     \r\n    function get_event(uint id) public view returns(EventData memory evento){\r\n        require(id < get_event_length(), \"L'evento non esiste\");\r\n        for(uint i=0; i < get_event_length(); i++){\r\n            if(events[i].id==id)\r\n            return events[i];\r\n        }\r\n     }\r\n     \r\n     function get_event_length() internal view returns (uint){\r\n         return events.length;\r\n     }\r\n     \r\n     function get_ticket_lenght() internal view returns (uint){\r\n         return tickets.length;\r\n     }\r\n     \r\n     function set_reseller(address r) only_owner internal returns(string memory, address){\r\n         reseller=r;\r\n         return(\"Reseller impostato\", reseller);\r\n     }\r\n\r\n     function set_validator(address v) only_owner internal returns(string memory, address){\r\n         validator=v;\r\n         return(\"Validator impostato\", validator);\r\n     }\r\n     \r\n     function getBalance() public view only_owner returns (uint) {\r\n         return address(this).balance;\r\n     }\r\n    \r\n}  ",
  "sourcePath": "C:\\Users\\Denil\\Desktop\\Progetto cyberesecurity\\Software-Cybersecurity-Project\\contracts\\Event.sol",
  "compiler": {
    "name": "solc",
    "version": "0.8.10+commit.fc410830.Emscripten.clang"
  },
  "schemaVersion": "3.4.3",
  "updatedAt": "2021-11-23T15:28:37.592Z",
  "networkType": "ethereum",
  "devdoc": {
    "kind": "dev",
    "methods": {},
    "version": 1
  },
  "userdoc": {
    "kind": "user",
    "methods": {},
    "version": 1
  }
}