{
  "contractName": "Event",
  "abi": [
    {
      "anonymous": false,
      "inputs": [
        {
          "indexed": true,
          "internalType": "uint256",
          "name": "eventid",
          "type": "uint256"
        },
        {
          "indexed": true,
          "internalType": "address",
          "name": "creator",
          "type": "address"
        }
      ],
      "name": "EventCreated",
      "type": "event"
    },
    {
      "anonymous": false,
      "inputs": [
        {
          "indexed": true,
          "internalType": "uint256",
          "name": "eventid",
          "type": "uint256"
        },
        {
          "indexed": true,
          "internalType": "address",
          "name": "creator",
          "type": "address"
        }
      ],
      "name": "EventFinished",
      "type": "event"
    },
    {
      "anonymous": false,
      "inputs": [
        {
          "indexed": true,
          "internalType": "uint256",
          "name": "eventid",
          "type": "uint256"
        },
        {
          "indexed": true,
          "internalType": "address",
          "name": "creator",
          "type": "address"
        }
      ],
      "name": "EventOverrlue",
      "type": "event"
    },
    {
      "anonymous": false,
      "inputs": [
        {
          "indexed": true,
          "internalType": "uint256",
          "name": "eventid",
          "type": "uint256"
        },
        {
          "indexed": false,
          "internalType": "uint256",
          "name": "ticketid",
          "type": "uint256"
        },
        {
          "indexed": true,
          "internalType": "address",
          "name": "customer",
          "type": "address"
        }
      ],
      "name": "TicketSold",
      "type": "event"
    },
    {
      "anonymous": false,
      "inputs": [
        {
          "indexed": true,
          "internalType": "uint256",
          "name": "eventid",
          "type": "uint256"
        },
        {
          "indexed": true,
          "internalType": "uint256",
          "name": "totalticket",
          "type": "uint256"
        },
        {
          "indexed": true,
          "internalType": "address",
          "name": "creator",
          "type": "address"
        }
      ],
      "name": "TicketsGenerated",
      "type": "event"
    },
    {
      "inputs": [],
      "name": "reseller",
      "outputs": [
        {
          "internalType": "address",
          "name": "",
          "type": "address"
        }
      ],
      "stateMutability": "view",
      "type": "function",
      "constant": true
    },
    {
      "inputs": [
        {
          "internalType": "string",
          "name": "title",
          "type": "string"
        },
        {
          "internalType": "string",
          "name": "luogo",
          "type": "string"
        },
        {
          "internalType": "string",
          "name": "date",
          "type": "string"
        },
        {
          "internalType": "uint256",
          "name": "seats",
          "type": "uint256"
        },
        {
          "internalType": "uint256",
          "name": "price",
          "type": "uint256"
        },
        {
          "internalType": "address",
          "name": "res",
          "type": "address"
        }
      ],
      "name": "create_event",
      "outputs": [
        {
          "internalType": "uint256",
          "name": "",
          "type": "uint256"
        }
      ],
      "stateMutability": "nonpayable",
      "type": "function"
    },
    {
      "inputs": [
        {
          "internalType": "uint256",
          "name": "id",
          "type": "uint256"
        }
      ],
      "name": "overrlue_event",
      "outputs": [],
      "stateMutability": "nonpayable",
      "type": "function"
    },
    {
      "inputs": [
        {
          "internalType": "uint256",
          "name": "id",
          "type": "uint256"
        }
      ],
      "name": "finish_event",
      "outputs": [],
      "stateMutability": "nonpayable",
      "type": "function"
    },
    {
      "inputs": [],
      "name": "get_events",
      "outputs": [
        {
          "components": [
            {
              "internalType": "uint256",
              "name": "id",
              "type": "uint256"
            },
            {
              "internalType": "string",
              "name": "title",
              "type": "string"
            },
            {
              "internalType": "string",
              "name": "luogo",
              "type": "string"
            },
            {
              "internalType": "string",
              "name": "date",
              "type": "string"
            },
            {
              "internalType": "uint256",
              "name": "seats",
              "type": "uint256"
            },
            {
              "internalType": "uint256",
              "name": "remaining_tickets",
              "type": "uint256"
            },
            {
              "internalType": "uint256",
              "name": "price",
              "type": "uint256"
            },
            {
              "internalType": "string",
              "name": "state",
              "type": "string"
            },
            {
              "internalType": "address",
              "name": "owner",
              "type": "address"
            }
          ],
          "internalType": "struct Event.EventData[]",
          "name": "",
          "type": "tuple[]"
        }
      ],
      "stateMutability": "view",
      "type": "function",
      "constant": true
    },
    {
      "inputs": [
        {
          "internalType": "uint256",
          "name": "eventid",
          "type": "uint256"
        }
      ],
      "name": "check_ticket",
      "outputs": [
        {
          "internalType": "bool",
          "name": "",
          "type": "bool"
        }
      ],
      "stateMutability": "view",
      "type": "function",
      "constant": true
    },
    {
      "inputs": [
        {
          "internalType": "uint256",
          "name": "eventid",
          "type": "uint256"
        },
        {
          "internalType": "string",
          "name": "name",
          "type": "string"
        },
        {
          "internalType": "string",
          "name": "surname",
          "type": "string"
        },
        {
          "internalType": "address",
          "name": "customer",
          "type": "address"
        }
      ],
      "name": "buy_ticket",
      "outputs": [
        {
          "internalType": "string",
          "name": "",
          "type": "string"
        },
        {
          "internalType": "bool",
          "name": "",
          "type": "bool"
        },
        {
          "internalType": "address",
          "name": "",
          "type": "address"
        }
      ],
      "stateMutability": "nonpayable",
      "type": "function"
    },
    {
      "inputs": [
        {
          "internalType": "uint256",
          "name": "ticketid",
          "type": "uint256"
        },
        {
          "internalType": "address",
          "name": "val",
          "type": "address"
        }
      ],
      "name": "validate_ticket",
      "outputs": [
        {
          "internalType": "string",
          "name": "",
          "type": "string"
        }
      ],
      "stateMutability": "nonpayable",
      "type": "function"
    },
    {
      "inputs": [],
      "name": "get_tickets",
      "outputs": [
        {
          "components": [
            {
              "internalType": "string",
              "name": "name",
              "type": "string"
            },
            {
              "internalType": "string",
              "name": "surname",
              "type": "string"
            },
            {
              "internalType": "uint256",
              "name": "ticketid",
              "type": "uint256"
            },
            {
              "internalType": "uint256",
              "name": "eventid",
              "type": "uint256"
            },
            {
              "internalType": "bool",
              "name": "sell",
              "type": "bool"
            },
            {
              "internalType": "bool",
              "name": "validate",
              "type": "bool"
            }
          ],
          "internalType": "struct Event.TicketData[]",
          "name": "",
          "type": "tuple[]"
        }
      ],
      "stateMutability": "view",
      "type": "function",
      "constant": true
    },
    {
      "inputs": [
        {
          "internalType": "uint256",
          "name": "eventid",
          "type": "uint256"
        }
      ],
      "name": "get_event_price",
      "outputs": [
        {
          "internalType": "uint256",
          "name": "",
          "type": "uint256"
        }
      ],
      "stateMutability": "view",
      "type": "function",
      "constant": true
    },
    {
      "inputs": [
        {
          "internalType": "uint256",
          "name": "id",
          "type": "uint256"
        }
      ],
      "name": "get_event",
      "outputs": [
        {
          "components": [
            {
              "internalType": "uint256",
              "name": "id",
              "type": "uint256"
            },
            {
              "internalType": "string",
              "name": "title",
              "type": "string"
            },
            {
              "internalType": "string",
              "name": "luogo",
              "type": "string"
            },
            {
              "internalType": "string",
              "name": "date",
              "type": "string"
            },
            {
              "internalType": "uint256",
              "name": "seats",
              "type": "uint256"
            },
            {
              "internalType": "uint256",
              "name": "remaining_tickets",
              "type": "uint256"
            },
            {
              "internalType": "uint256",
              "name": "price",
              "type": "uint256"
            },
            {
              "internalType": "string",
              "name": "state",
              "type": "string"
            },
            {
              "internalType": "address",
              "name": "owner",
              "type": "address"
            }
          ],
          "internalType": "struct Event.EventData",
          "name": "evento",
          "type": "tuple"
        }
      ],
      "stateMutability": "view",
      "type": "function",
      "constant": true
    },
    {
      "inputs": [
        {
          "internalType": "address",
          "name": "r",
          "type": "address"
        }
      ],
      "name": "set_reseller",
      "outputs": [
        {
          "internalType": "string",
          "name": "",
          "type": "string"
        },
        {
          "internalType": "address",
          "name": "",
          "type": "address"
        }
      ],
      "stateMutability": "nonpayable",
      "type": "function"
    },
    {
      "inputs": [
        {
          "internalType": "address",
          "name": "v",
          "type": "address"
        }
      ],
      "name": "set_validator",
      "outputs": [
        {
          "internalType": "string",
          "name": "",
          "type": "string"
        },
        {
          "internalType": "address",
          "name": "",
          "type": "address"
        }
      ],
      "stateMutability": "nonpayable",
      "type": "function"
    },
    {
      "inputs": [],
      "name": "get_balance",
      "outputs": [
        {
          "internalType": "uint256",
          "name": "",
          "type": "uint256"
        }
      ],
      "stateMutability": "view",
      "type": "function",
      "constant": true
    },
    {
      "inputs": [],
      "name": "get_address",
      "outputs": [
        {
          "internalType": "address",
          "name": "",
          "type": "address"
        }
      ],
      "stateMutability": "view",
      "type": "function",
      "constant": true
    }
  ],
  "bytecode": "0x6080604052336000806101000a81548173ffffffffffffffffffffffffffffffffffffffff021916908373ffffffffffffffffffffffffffffffffffffffff16021790555034801561005057600080fd5b5061306e806100606000396000f3fe608060405234801561001057600080fd5b50600436106100f55760003560e01c80635c34a5de11610097578063a15cb47b11610066578063a15cb47b146102b0578063c1cfb99a146102e0578063c74d97cd146102fe578063c91e2dcf1461031c576100f5565b80635c34a5de14610214578063847fc1d1146102445780638c59a08514610276578063957bdf6014610292576100f5565b806330449c80116100d357806330449c801461017957806338ae8be4146101aa57806347a828b3146101c65780635b3929cb146101f6576100f5565b80630131222f146100fa578063214638cc14610118578063226ee47c14610148575b600080fd5b61010261034c565b60405161010f9190612136565b60405180910390f35b610132600480360381019061012d91906121c7565b610375565b60405161013f91906122a0565b60405180910390f35b610162600480360381019061015d91906122c2565b61058b565b6040516101709291906122ef565b60405180910390f35b610193600480360381019061018e91906122c2565b6106c2565b6040516101a19291906122ef565b60405180910390f35b6101c460048036038101906101bf919061231f565b6107f9565b005b6101e060048036038101906101db919061231f565b61095d565b6040516101ed919061248e565b60405180910390f35b6101fe610d03565b60405161020b919061264c565b60405180910390f35b61022e6004803603810190610229919061231f565b611029565b60405161023b9190612689565b60405180910390f35b61025e600480360381019061025991906127d9565b611111565b60405161026d93929190612878565b60405180910390f35b610290600480360381019061028b919061231f565b6111db565b005b61029a61133f565b6040516102a79190612a17565b60405180910390f35b6102ca60048036038101906102c5919061231f565b61159a565b6040516102d79190612a48565b60405180910390f35b6102e86115c9565b6040516102f59190612a48565b60405180910390f35b610306611609565b6040516103139190612136565b60405180910390f35b61033660048036038101906103319190612a63565b61162f565b6040516103439190612a48565b60405180910390f35b60008060009054906101000a900473ffffffffffffffffffffffffffffffffffffffff16905090565b606081600260009054906101000a900473ffffffffffffffffffffffffffffffffffffffff1673ffffffffffffffffffffffffffffffffffffffff168173ffffffffffffffffffffffffffffffffffffffff1614610408576040517f08c379a00000000000000000000000000000000000000000000000000000000081526004016103ff90612b90565b60405180910390fd5b6000805b61041461193d565b8110156105225785600482815481106104305761042f612bb0565b5b9060005260206000209060050201600201541480156104855750600015156004828154811061046257610461612bb0565b5b906000526020600020906005020160040160019054906101000a900460ff161515145b80156104c7575060011515600482815481106104a4576104a3612bb0565b5b906000526020600020906005020160040160009054906101000a900460ff161515145b1561050f576001600482815481106104e2576104e1612bb0565b5b906000526020600020906005020160040160016101000a81548160ff021916908315150217905550600191505b808061051a90612c0e565b91505061040c565b508015610567576040518060400160405280601081526020017f4269676c696574746f2076616c69646f00000000000000000000000000000000815250925050610584565b604051806060016040528060278152602001613012602791399250505b5092915050565b606060008060009054906101000a900473ffffffffffffffffffffffffffffffffffffffff1673ffffffffffffffffffffffffffffffffffffffff163373ffffffffffffffffffffffffffffffffffffffff161461061e576040517f08c379a000000000000000000000000000000000000000000000000000000000815260040161061590612cc9565b60405180910390fd5b82600260006101000a81548173ffffffffffffffffffffffffffffffffffffffff021916908373ffffffffffffffffffffffffffffffffffffffff160217905550600260009054906101000a900473ffffffffffffffffffffffffffffffffffffffff166040518060400160405280601381526020017f56616c696461746f7220696d706f737461746f000000000000000000000000008152509091509150915091565b606060008060009054906101000a900473ffffffffffffffffffffffffffffffffffffffff1673ffffffffffffffffffffffffffffffffffffffff163373ffffffffffffffffffffffffffffffffffffffff1614610755576040517f08c379a000000000000000000000000000000000000000000000000000000000815260040161074c90612cc9565b60405180910390fd5b82600160006101000a81548173ffffffffffffffffffffffffffffffffffffffff021916908373ffffffffffffffffffffffffffffffffffffffff160217905550600160009054906101000a900473ffffffffffffffffffffffffffffffffffffffff166040518060400160405280601281526020017f526573656c6c657220696d706f737461746f00000000000000000000000000008152509091509150915091565b60008054906101000a900473ffffffffffffffffffffffffffffffffffffffff1673ffffffffffffffffffffffffffffffffffffffff163373ffffffffffffffffffffffffffffffffffffffff1614610887576040517f08c379a000000000000000000000000000000000000000000000000000000000815260040161087e90612cc9565b60405180910390fd5b6040518060400160405280600881526020017f436f6e636c75736f000000000000000000000000000000000000000000000000815250600382815481106108d1576108d0612bb0565b5b906000526020600020906009020160070190805190602001906108f5929190611fb6565b5060008054906101000a900473ffffffffffffffffffffffffffffffffffffffff1673ffffffffffffffffffffffffffffffffffffffff16817fb15d3899a0a77e20f0c368865d76be846e277b8cac84cddf244f45748709720a60405160405180910390a350565b61096561203c565b61096d61194a565b82106109ae576040517f08c379a00000000000000000000000000000000000000000000000000000000081526004016109a590612d35565b60405180910390fd5b60005b6109b961194a565b811015610cfc5782600382815481106109d5576109d4612bb0565b5b9060005260206000209060090201600001541415610ce95760038181548110610a0157610a00612bb0565b5b90600052602060002090600902016040518061012001604052908160008201548152602001600182018054610a3590612d84565b80601f0160208091040260200160405190810160405280929190818152602001828054610a6190612d84565b8015610aae5780601f10610a8357610100808354040283529160200191610aae565b820191906000526020600020905b815481529060010190602001808311610a9157829003601f168201915b50505050508152602001600282018054610ac790612d84565b80601f0160208091040260200160405190810160405280929190818152602001828054610af390612d84565b8015610b405780601f10610b1557610100808354040283529160200191610b40565b820191906000526020600020905b815481529060010190602001808311610b2357829003601f168201915b50505050508152602001600382018054610b5990612d84565b80601f0160208091040260200160405190810160405280929190818152602001828054610b8590612d84565b8015610bd25780601f10610ba757610100808354040283529160200191610bd2565b820191906000526020600020905b815481529060010190602001808311610bb557829003601f168201915b50505050508152602001600482015481526020016005820154815260200160068201548152602001600782018054610c0990612d84565b80601f0160208091040260200160405190810160405280929190818152602001828054610c3590612d84565b8015610c825780601f10610c5757610100808354040283529160200191610c82565b820191906000526020600020905b815481529060010190602001808311610c6557829003601f168201915b505050505081526020016008820160009054906101000a900473ffffffffffffffffffffffffffffffffffffffff1673ffffffffffffffffffffffffffffffffffffffff1673ffffffffffffffffffffffffffffffffffffffff1681525050915050610cfe565b8080610cf490612c0e565b9150506109b1565b505b919050565b60606003805480602002602001604051908101604052809291908181526020016000905b8282101561102057838290600052602060002090600902016040518061012001604052908160008201548152602001600182018054610d6590612d84565b80601f0160208091040260200160405190810160405280929190818152602001828054610d9190612d84565b8015610dde5780601f10610db357610100808354040283529160200191610dde565b820191906000526020600020905b815481529060010190602001808311610dc157829003601f168201915b50505050508152602001600282018054610df790612d84565b80601f0160208091040260200160405190810160405280929190818152602001828054610e2390612d84565b8015610e705780601f10610e4557610100808354040283529160200191610e70565b820191906000526020600020905b815481529060010190602001808311610e5357829003601f168201915b50505050508152602001600382018054610e8990612d84565b80601f0160208091040260200160405190810160405280929190818152602001828054610eb590612d84565b8015610f025780601f10610ed757610100808354040283529160200191610f02565b820191906000526020600020905b815481529060010190602001808311610ee557829003601f168201915b50505050508152602001600482015481526020016005820154815260200160068201548152602001600782018054610f3990612d84565b80601f0160208091040260200160405190810160405280929190818152602001828054610f6590612d84565b8015610fb25780601f10610f8757610100808354040283529160200191610fb2565b820191906000526020600020905b815481529060010190602001808311610f9557829003601f168201915b505050505081526020016008820160009054906101000a900473ffffffffffffffffffffffffffffffffffffffff1673ffffffffffffffffffffffffffffffffffffffff1673ffffffffffffffffffffffffffffffffffffffff168152505081526020019060010190610d27565b50505050905090565b6000806110358361095d565b905060008160a00151141561104e57600091505061110c565b60405160200161105d90612e0d565b604051602081830303815290604052805190602001208160e001516040516020016110889190612e53565b6040516020818303038152906040528051906020012014806110f757506040516020016110b490612eb6565b604051602081830303815290604052805190602001208160e001516040516020016110df9190612e53565b60405160208183030381529060405280519060200120145b1561110657600091505061110c565b60019150505b919050565b6060600080600061112188611957565b905061113281604001518888611ba7565b5061113c88611d05565b8473ffffffffffffffffffffffffffffffffffffffff16887fc41bbb54d04f2268c7895b9330f18468c306a3f92698a92c4c86b2978739784883604001516040516111879190612a48565b60405180910390a36001856040518060400160405280601481526020017f4269676c696574746f206163717569737461746f0000000000000000000000008152509190935093509350509450945094915050565b60008054906101000a900473ffffffffffffffffffffffffffffffffffffffff1673ffffffffffffffffffffffffffffffffffffffff163373ffffffffffffffffffffffffffffffffffffffff1614611269576040517f08c379a000000000000000000000000000000000000000000000000000000000815260040161126090612cc9565b60405180910390fd5b6040518060400160405280600981526020017f416e6e756c6c61746f0000000000000000000000000000000000000000000000815250600382815481106112b3576112b2612bb0565b5b906000526020600020906009020160070190805190602001906112d7929190611fb6565b5060008054906101000a900473ffffffffffffffffffffffffffffffffffffffff1673ffffffffffffffffffffffffffffffffffffffff16817f9ab588958c126cb0274213719f45aca396603352447383188a81e29c1269029a60405160405180910390a350565b606060008054906101000a900473ffffffffffffffffffffffffffffffffffffffff1673ffffffffffffffffffffffffffffffffffffffff163373ffffffffffffffffffffffffffffffffffffffff16146113cf576040517f08c379a00000000000000000000000000000000000000000000000000000000081526004016113c690612cc9565b60405180910390fd5b6004805480602002602001604051908101604052809291908181526020016000905b8282101561159157838290600052602060002090600502016040518060c001604052908160008201805461142490612d84565b80601f016020809104026020016040519081016040528092919081815260200182805461145090612d84565b801561149d5780601f106114725761010080835404028352916020019161149d565b820191906000526020600020905b81548152906001019060200180831161148057829003601f168201915b505050505081526020016001820180546114b690612d84565b80601f01602080910402602001604051908101604052809291908181526020018280546114e290612d84565b801561152f5780601f106115045761010080835404028352916020019161152f565b820191906000526020600020905b81548152906001019060200180831161151257829003601f168201915b5050505050815260200160028201548152602001600382015481526020016004820160009054906101000a900460ff161515151581526020016004820160019054906101000a900460ff161515151581525050815260200190600101906113f1565b50505050905090565b6000600382815481106115b0576115af612bb0565b5b9060005260206000209060090201600601549050919050565b60008060009054906101000a900473ffffffffffffffffffffffffffffffffffffffff1673ffffffffffffffffffffffffffffffffffffffff1631905090565b600160009054906101000a900473ffffffffffffffffffffffffffffffffffffffff1681565b60008060009054906101000a900473ffffffffffffffffffffffffffffffffffffffff1673ffffffffffffffffffffffffffffffffffffffff163373ffffffffffffffffffffffffffffffffffffffff16146116c0576040517f08c379a00000000000000000000000000000000000000000000000000000000081526004016116b790612cc9565b60405180910390fd5b6003604051806101200160405280600081526020018981526020018881526020018781526020018681526020018681526020018581526020016040518060400160405280600c81526020017f4e6f6e20636f6e636c75736f0000000000000000000000000000000000000000815250815260200160008054906101000a900473ffffffffffffffffffffffffffffffffffffffff1673ffffffffffffffffffffffffffffffffffffffff1681525090806001815401808255809150506001900390600052602060002090600902016000909190919091506000820151816000015560208201518160010190805190602001906117bd929190611fb6565b5060408201518160020190805190602001906117da929190611fb6565b5060608201518160030190805190602001906117f7929190611fb6565b506080820151816004015560a0820151816005015560c0820151816006015560e0820151816007019080519060200190611832929190611fb6565b506101008201518160080160006101000a81548173ffffffffffffffffffffffffffffffffffffffff021916908373ffffffffffffffffffffffffffffffffffffffff16021790555050506000600161188961194a565b6118939190612ecb565b905080600382815481106118aa576118a9612bb0565b5b90600052602060002090600902016000018190555060008054906101000a900473ffffffffffffffffffffffffffffffffffffffff1673ffffffffffffffffffffffffffffffffffffffff16817fe43349c008949cf6b65249356e6f918d4aaa0ca79f2b1166df4a4a98c9c16de260405160405180910390a361192e818685611d43565b50809150509695505050505050565b6000600480549050905090565b6000600380549050905090565b61195f61209e565b61196761209e565b60005b61197261193d565b811015611b9d57836004828154811061198e5761198d612bb0565b5b9060005260206000209060050201600301541480156119e3575060001515600482815481106119c0576119bf612bb0565b5b906000526020600020906005020160040160009054906101000a900460ff161515145b15611b8a57600481815481106119fc576119fb612bb0565b5b90600052602060002090600502016040518060c0016040529081600082018054611a2590612d84565b80601f0160208091040260200160405190810160405280929190818152602001828054611a5190612d84565b8015611a9e5780601f10611a7357610100808354040283529160200191611a9e565b820191906000526020600020905b815481529060010190602001808311611a8157829003601f168201915b50505050508152602001600182018054611ab790612d84565b80601f0160208091040260200160405190810160405280929190818152602001828054611ae390612d84565b8015611b305780601f10611b0557610100808354040283529160200191611b30565b820191906000526020600020905b815481529060010190602001808311611b1357829003601f168201915b5050505050815260200160028201548152602001600382015481526020016004820160009054906101000a900460ff161515151581526020016004820160019054906101000a900460ff1615151515815250509150611b9d565b8080611b9590612c0e565b91505061196a565b5080915050919050565b6000806000905060005b611bb961193d565b811015611cf9578560048281548110611bd557611bd4612bb0565b5b906000526020600020906005020160020154148015611c2a57506000151560048281548110611c0757611c06612bb0565b5b906000526020600020906005020160040160009054906101000a900460ff161515145b15611ce657600160048281548110611c4557611c44612bb0565b5b906000526020600020906005020160040160006101000a81548160ff0219169083151502179055508460048281548110611c8257611c81612bb0565b5b90600052602060002090600502016000019080519060200190611ca6929190611fb6565b508360048281548110611cbc57611cbb612bb0565b5b90600052602060002090600502016001019080519060200190611ce0929190611fb6565b50600191505b8080611cf190612c0e565b915050611bb1565b50809150509392505050565b60038181548110611d1957611d18612bb0565b5b90600052602060002090600902016005016000815480929190611d3b90612eff565b919050555050565b600081600160009054906101000a900473ffffffffffffffffffffffffffffffffffffffff1673ffffffffffffffffffffffffffffffffffffffff168173ffffffffffffffffffffffffffffffffffffffff1614611dd6576040517f08c379a0000000000000000000000000000000000000000000000000000000008152600401611dcd90612f9b565b60405180910390fd5b60008085611de261193d565b611dec9190612fbb565b90506000611df861193d565b90505b81811015611f635760046040518060c00160405280604051806020016040528060008152508152602001604051806020016040528060008152508152602001600081526020018a81526020016000151581526020016000151581525090806001815401808255809150506001900390600052602060002090600502016000909190919091506000820151816000019080519060200190611e9c929190611fb6565b506020820151816001019080519060200190611eb9929190611fb6565b50604082015181600201556060820151816003015560808201518160040160006101000a81548160ff02191690831515021790555060a08201518160040160016101000a81548160ff02191690831515021790555050506001611f1a61193d565b611f249190612ecb565b92508260048281548110611f3b57611f3a612bb0565b5b9060005260206000209060050201600201819055508080611f5b90612c0e565b915050611dfb565b508473ffffffffffffffffffffffffffffffffffffffff1686887f6567ab497f12a760d234e0684de86536dce884c904386957d5877e165bfb32fa60405160405180910390a48593505050509392505050565b828054611fc290612d84565b90600052602060002090601f016020900481019282611fe4576000855561202b565b82601f10611ffd57805160ff191683800117855561202b565b8280016001018555821561202b579182015b8281111561202a57825182559160200191906001019061200f565b5b50905061203891906120d8565b5090565b6040518061012001604052806000815260200160608152602001606081526020016060815260200160008152602001600081526020016000815260200160608152602001600073ffffffffffffffffffffffffffffffffffffffff1681525090565b6040518060c00160405280606081526020016060815260200160008152602001600081526020016000151581526020016000151581525090565b5b808211156120f15760008160009055506001016120d9565b5090565b600073ffffffffffffffffffffffffffffffffffffffff82169050919050565b6000612120826120f5565b9050919050565b61213081612115565b82525050565b600060208201905061214b6000830184612127565b92915050565b6000604051905090565b600080fd5b600080fd5b6000819050919050565b61217881612165565b811461218357600080fd5b50565b6000813590506121958161216f565b92915050565b6121a481612115565b81146121af57600080fd5b50565b6000813590506121c18161219b565b92915050565b600080604083850312156121de576121dd61215b565b5b60006121ec85828601612186565b92505060206121fd858286016121b2565b9150509250929050565b600081519050919050565b600082825260208201905092915050565b60005b83811015612241578082015181840152602081019050612226565b83811115612250576000848401525b50505050565b6000601f19601f8301169050919050565b600061227282612207565b61227c8185612212565b935061228c818560208601612223565b61229581612256565b840191505092915050565b600060208201905081810360008301526122ba8184612267565b905092915050565b6000602082840312156122d8576122d761215b565b5b60006122e6848285016121b2565b91505092915050565b600060408201905081810360008301526123098185612267565b90506123186020830184612127565b9392505050565b6000602082840312156123355761233461215b565b5b600061234384828501612186565b91505092915050565b61235581612165565b82525050565b600082825260208201905092915050565b600061237782612207565b612381818561235b565b9350612391818560208601612223565b61239a81612256565b840191505092915050565b6123ae81612115565b82525050565b6000610120830160008301516123cd600086018261234c565b50602083015184820360208601526123e5828261236c565b915050604083015184820360408601526123ff828261236c565b91505060608301518482036060860152612419828261236c565b915050608083015161242e608086018261234c565b5060a083015161244160a086018261234c565b5060c083015161245460c086018261234c565b5060e083015184820360e086015261246c828261236c565b9150506101008301516124836101008601826123a5565b508091505092915050565b600060208201905081810360008301526124a881846123b4565b905092915050565b600081519050919050565b600082825260208201905092915050565b6000819050602082019050919050565b6000610120830160008301516124f5600086018261234c565b506020830151848203602086015261250d828261236c565b91505060408301518482036040860152612527828261236c565b91505060608301518482036060860152612541828261236c565b9150506080830151612556608086018261234c565b5060a083015161256960a086018261234c565b5060c083015161257c60c086018261234c565b5060e083015184820360e0860152612594828261236c565b9150506101008301516125ab6101008601826123a5565b508091505092915050565b60006125c283836124dc565b905092915050565b6000602082019050919050565b60006125e2826124b0565b6125ec81856124bb565b9350836020820285016125fe856124cc565b8060005b8581101561263a578484038952815161261b85826125b6565b9450612626836125ca565b925060208a01995050600181019050612602565b50829750879550505050505092915050565b6000602082019050818103600083015261266681846125d7565b905092915050565b60008115159050919050565b6126838161266e565b82525050565b600060208201905061269e600083018461267a565b92915050565b600080fd5b600080fd5b7f4e487b7100000000000000000000000000000000000000000000000000000000600052604160045260246000fd5b6126e682612256565b810181811067ffffffffffffffff82111715612705576127046126ae565b5b80604052505050565b6000612718612151565b905061272482826126dd565b919050565b600067ffffffffffffffff821115612744576127436126ae565b5b61274d82612256565b9050602081019050919050565b82818337600083830152505050565b600061277c61277784612729565b61270e565b905082815260208101848484011115612798576127976126a9565b5b6127a384828561275a565b509392505050565b600082601f8301126127c0576127bf6126a4565b5b81356127d0848260208601612769565b91505092915050565b600080600080608085870312156127f3576127f261215b565b5b600061280187828801612186565b945050602085013567ffffffffffffffff81111561282257612821612160565b5b61282e878288016127ab565b935050604085013567ffffffffffffffff81111561284f5761284e612160565b5b61285b878288016127ab565b925050606061286c878288016121b2565b91505092959194509250565b600060608201905081810360008301526128928186612267565b90506128a1602083018561267a565b6128ae6040830184612127565b949350505050565b600081519050919050565b600082825260208201905092915050565b6000819050602082019050919050565b6128eb8161266e565b82525050565b600060c083016000830151848203600086015261290e828261236c565b91505060208301518482036020860152612928828261236c565b915050604083015161293d604086018261234c565b506060830151612950606086018261234c565b50608083015161296360808601826128e2565b5060a083015161297660a08601826128e2565b508091505092915050565b600061298d83836128f1565b905092915050565b6000602082019050919050565b60006129ad826128b6565b6129b781856128c1565b9350836020820285016129c9856128d2565b8060005b85811015612a0557848403895281516129e68582612981565b94506129f183612995565b925060208a019950506001810190506129cd565b50829750879550505050505092915050565b60006020820190508181036000830152612a3181846129a2565b905092915050565b612a4281612165565b82525050565b6000602082019050612a5d6000830184612a39565b92915050565b60008060008060008060c08789031215612a8057612a7f61215b565b5b600087013567ffffffffffffffff811115612a9e57612a9d612160565b5b612aaa89828a016127ab565b965050602087013567ffffffffffffffff811115612acb57612aca612160565b5b612ad789828a016127ab565b955050604087013567ffffffffffffffff811115612af857612af7612160565b5b612b0489828a016127ab565b9450506060612b1589828a01612186565b9350506080612b2689828a01612186565b92505060a0612b3789828a016121b2565b9150509295509295509295565b7f4e6f6e2073656920696c2076616c696461746f72000000000000000000000000600082015250565b6000612b7a601483612212565b9150612b8582612b44565b602082019050919050565b60006020820190508181036000830152612ba981612b6d565b9050919050565b7f4e487b7100000000000000000000000000000000000000000000000000000000600052603260045260246000fd5b7f4e487b7100000000000000000000000000000000000000000000000000000000600052601160045260246000fd5b6000612c1982612165565b91507fffffffffffffffffffffffffffffffffffffffffffffffffffffffffffffffff821415612c4c57612c4b612bdf565b5b600182019050919050565b7f4e6f6e20736569206175746f72697a7a61746f2061642065736567756972652060008201527f71756573746120617a696f6e6500000000000000000000000000000000000000602082015250565b6000612cb3602d83612212565b9150612cbe82612c57565b604082019050919050565b60006020820190508181036000830152612ce281612ca6565b9050919050565b7f4c276576656e746f206e6f6e2065736973746500000000000000000000000000600082015250565b6000612d1f601383612212565b9150612d2a82612ce9565b602082019050919050565b60006020820190508181036000830152612d4e81612d12565b9050919050565b7f4e487b7100000000000000000000000000000000000000000000000000000000600052602260045260246000fd5b60006002820490506001821680612d9c57607f821691505b60208210811415612db057612daf612d55565b5b50919050565b600081905092915050565b7f436f6e636c75736f000000000000000000000000000000000000000000000000600082015250565b6000612df7600883612db6565b9150612e0282612dc1565b600882019050919050565b6000612e1882612dea565b9150819050919050565b6000612e2d82612207565b612e378185612db6565b9350612e47818560208601612223565b80840191505092915050565b6000612e5f8284612e22565b915081905092915050565b7f416e6e756c6c61746f0000000000000000000000000000000000000000000000600082015250565b6000612ea0600983612db6565b9150612eab82612e6a565b600982019050919050565b6000612ec182612e93565b9150819050919050565b6000612ed682612165565b9150612ee183612165565b925082821015612ef457612ef3612bdf565b5b828203905092915050565b6000612f0a82612165565b91506000821415612f1e57612f1d612bdf565b5b600182039050919050565b7f496c20726573656c6c657220737065636966696361746f20652720657272617460008201527f6f00000000000000000000000000000000000000000000000000000000000000602082015250565b6000612f85602183612212565b9150612f9082612f29565b604082019050919050565b60006020820190508181036000830152612fb481612f78565b9050919050565b6000612fc682612165565b9150612fd183612165565b9250827fffffffffffffffffffffffffffffffffffffffffffffffffffffffffffffffff0382111561300657613005612bdf565b5b82820190509291505056fe4269676c6974746f20676961272076616c696461746f206f206e6f6e2076616c69646162696c65a26469706673582212204b6e6c5f0e76dc41fe98d0e14af3d9de6b29753a17d17183c0532567bc1edeb964736f6c63430008090033",
  "immutableReferences": {},
  "source": "// SPDX-License-Identifier: GPL-3.0\r\npragma solidity >=0.7.0 <0.9.0;\r\n\r\n\r\n\r\ncontract Event {\r\n    \r\n    address private owner=msg.sender;\r\n    \r\n    address public reseller;\r\n    \r\n    address private validator;\r\n    \r\n    \r\n    struct EventData{ //event data structure\r\n    \r\n        uint id;\r\n    \r\n        string title;\r\n        \r\n        string luogo;\r\n        \r\n        string date;\r\n        \r\n        uint seats;\r\n        \r\n        uint remaining_tickets;\r\n        \r\n        uint256 price;\r\n        \r\n        string state;\r\n        \r\n        address owner;\r\n    } \r\n    \r\n    \r\n    \r\n    struct TicketData{ //ticket data structure\r\n        \r\n        string name;\r\n        \r\n        string surname;\r\n        \r\n        uint ticketid;\r\n        \r\n        uint eventid;\r\n        \r\n        bool sell;\r\n        \r\n        bool validate;\r\n    }\r\n    \r\n    \r\n    \r\n    EventData[] private events; //all events\r\n    TicketData[] private tickets; //all tickets\r\n    \r\n    modifier only_owner() {\r\n        require(msg.sender == owner, \"Non sei autorizzato ad eseguire questa azione\");\r\n        _;\r\n    }\r\n    \r\n    modifier only_reseller(address res) {\r\n        require(res == reseller, \"Il reseller specificato e' errato\");\r\n        _;\r\n    }\r\n    \r\n    modifier only_validator(address val) {\r\n        require(val == validator, \"Non sei il validator\");\r\n        _;\r\n    }\r\n\r\n    \r\n    event EventCreated(uint indexed eventid, address indexed creator);\r\n    event EventOverrlue(uint indexed eventid, address indexed creator);\r\n    event EventFinished(uint indexed eventid, address indexed creator);\r\n    event TicketsGenerated(uint indexed eventid, uint indexed totalticket, address indexed creator);\r\n    event TicketSold(uint indexed eventid, uint ticketid, address indexed customer);\r\n    \r\n    \r\n    function  create_event(string memory title, string memory  luogo, string memory  date, uint seats, uint256 price, address res) public only_owner returns(uint) {\r\n        {\r\n            events.push(EventData(0, title, luogo,  date, seats, seats, price, \"Non concluso\" , owner));\r\n            uint id=get_event_length() - 1;\r\n            events[id].id=id;\r\n            emit EventCreated(id, owner);\r\n            generate_tickets(id, seats, res);\r\n            return id;\r\n        }\r\n    }\r\n    \r\n    function overrlue_event(uint id) public only_owner {\r\n            events[id].state=\"Annullato\";\r\n            emit EventOverrlue(id, owner);\r\n    }\r\n    \r\n    function finish_event(uint id) public only_owner {\r\n        events[id].state=\"Concluso\";\r\n        emit EventFinished(id, owner);\r\n    }\r\n    \r\n     function get_events() public view returns (EventData[] memory){\r\n         return events;\r\n     } \r\n\r\n\r\n    \r\n    function generate_tickets(uint eventid, uint totalticket , address res) internal only_reseller(res) returns(uint){\r\n        uint ticketid=0;\r\n        uint array_len=get_ticket_lenght()+totalticket;\r\n        for(uint i=get_ticket_lenght(); i < array_len  ; i++){\r\n            tickets.push(TicketData(\"\", \"\", 0, eventid, false, false));\r\n            ticketid=get_ticket_lenght() - 1;\r\n            tickets[i].ticketid=ticketid;\r\n        }\r\n        emit TicketsGenerated(eventid, totalticket , res);\r\n        return totalticket;\r\n    }\r\n    \r\n    function get_event_ticket(uint eventid) internal view returns (TicketData memory){\r\n        TicketData memory biglietto;\r\n        for(uint i=0; i < get_ticket_lenght(); i++){ \r\n            if(tickets[i].eventid==eventid && tickets[i].sell==false){\r\n                biglietto=tickets[i];\r\n                break;\r\n            }\r\n        }\r\n        return biglietto;\r\n    }\r\n    \r\n    function set_ticket_sold(uint ticketid, string memory name, string memory surname) internal returns(bool){\r\n        bool flag=false;\r\n        for(uint i=0; i < get_ticket_lenght(); i++){\r\n            if(tickets[i].ticketid==ticketid && tickets[i].sell==false){\r\n                tickets[i].sell=true;\r\n                tickets[i].name=name;\r\n                tickets[i].surname=surname;\r\n                flag=true;\r\n            }\r\n            \r\n        }\r\n        return flag;\r\n        \r\n    }\r\n    \r\n    function check_ticket(uint eventid) external view returns(bool){\r\n        EventData memory evento= get_event(eventid);\r\n        if(evento.remaining_tickets == 0)\r\n            return false;\r\n        else if(keccak256(abi.encodePacked(evento.state))==keccak256(abi.encodePacked(\"Concluso\")) || keccak256(abi.encodePacked(evento.state))==keccak256(abi.encodePacked(\"Annullato\")) )\r\n            return false;\r\n        else \r\n            return true;\r\n    }\r\n    \r\n    function buy_ticket(uint eventid, string memory name, string memory surname, address customer) external returns(string memory, bool, address){\r\n        TicketData memory biglietto=get_event_ticket(eventid);\r\n        set_ticket_sold(biglietto.ticketid, name, surname);\r\n        reduce_remaining_tickets(eventid);\r\n        emit TicketSold(eventid, biglietto.ticketid, customer);\r\n        return (\"Biglietto acquistato\", true , customer);      \r\n    }\r\n    \r\n    function reduce_remaining_tickets(uint eventid) internal{\r\n        events[eventid].remaining_tickets --;\r\n    }\r\n\r\n\r\n    function validate_ticket(uint ticketid, address val) external only_validator(val)returns(string memory){\r\n        bool flag=false;\r\n        for(uint i=0; i < get_ticket_lenght(); i++){\r\n            if(tickets[i].ticketid==ticketid && tickets[i].validate==false && tickets[i].sell==true){\r\n                tickets[i].validate=true;\r\n                flag=true;\r\n            }\r\n        }\r\n        if(flag)\r\n            return(\"Biglietto valido\");\r\n        else\r\n            return(\"Biglitto gia' validato o non validabile\");\r\n\r\n   }\r\n    /*function set_event_sold(uint ticketid) internal returns (bool){\r\n        bool flag=false;\r\n        for(uint i=0; i < get_ticket_lenght(); i++){\r\n            if(tickets[i].ticketid==ticketid){\r\n                tickets[i].sell=true;\r\n                flag=true;\r\n            }\r\n        }\r\n        return flag;\r\n    } */\r\n    \r\n    \r\n    function get_tickets() public only_owner view returns(TicketData[] memory){\r\n        return tickets;\r\n    }\r\n\r\n    \r\n\r\n    function get_event_price(uint eventid) public view returns(uint) {\r\n        return events[eventid].price;\r\n    }\r\n    /*function delete_event_list(uint id) public only_owner {\r\n        bool deletable=false;\r\n        string memory an=\"Annullato\";\r\n        string memory cn=\"Concluso\";\r\n        for(uint i=0; i < get_event_length(); i++){\r\n            if(keccak256(abi.encodePacked(events[i]))==keccak256(abi.encodePacked(an)))\r\n                deletable=true;\r\n        }\r\n        \r\n        if(deletable)\r\n            delete events;\r\n    } */\r\n  \r\n     \r\n     function get_event(uint id) public view returns(EventData memory evento){\r\n         require(id < get_event_length(), \"L'evento non esiste\");\r\n         for(uint i=0; i < get_event_length(); i++){\r\n             if(events[i].id==id)\r\n                return events[i];\r\n         }\r\n     }\r\n     \r\n     function get_event_length() internal view returns (uint){\r\n         return events.length;\r\n     }\r\n     \r\n     function get_ticket_lenght() internal view returns (uint){\r\n         return tickets.length;\r\n     }\r\n     \r\n     function set_reseller(address r) only_owner public returns(string memory, address){\r\n         reseller=r;\r\n         return(\"Reseller impostato\", reseller);\r\n     }\r\n\r\n     function set_validator(address v) only_owner public returns(string memory, address){\r\n         validator=v;\r\n         return(\"Validator impostato\", validator);\r\n     }\r\n     \r\n     function get_balance() public view returns (uint256){\r\n        return owner.balance;\r\n    }\r\n\r\n    function get_address() public view returns(address){\r\n        return owner;\r\n    }\r\n\r\n    \r\n}  ",
  "sourcePath": "C:\\Users\\Utente\\Desktop\\Universita\\Laurea Magistrale\\Software Cybersecurity\\Progetto\\Repository\\Software-Cybersecurity-Project\\contracts\\Event.sol",
  "compiler": {
    "name": "solc",
    "version": "0.8.9+commit.e5eed63a.Emscripten.clang"
  },
  "schemaVersion": "3.4.3",
  "updatedAt": "2021-10-20T16:05:05.255Z",
  "networkType": "ethereum",
  "devdoc": {
    "kind": "dev",
    "methods": {},
    "version": 1
  },
  "userdoc": {
    "kind": "user",
    "methods": {},
    "version": 1
  }
}