{
  "contractName": "Event",
  "abi": [
    {
      "anonymous": false,
      "inputs": [
        {
          "indexed": true,
          "internalType": "uint256",
          "name": "eventid",
          "type": "uint256"
        },
        {
          "indexed": true,
          "internalType": "address",
          "name": "creator",
          "type": "address"
        }
      ],
      "name": "EventCreated",
      "type": "event"
    },
    {
      "anonymous": false,
      "inputs": [
        {
          "indexed": true,
          "internalType": "uint256",
          "name": "eventid",
          "type": "uint256"
        },
        {
          "indexed": true,
          "internalType": "address",
          "name": "creator",
          "type": "address"
        }
      ],
      "name": "EventFinished",
      "type": "event"
    },
    {
      "anonymous": false,
      "inputs": [
        {
          "indexed": true,
          "internalType": "uint256",
          "name": "eventid",
          "type": "uint256"
        },
        {
          "indexed": true,
          "internalType": "address",
          "name": "creator",
          "type": "address"
        }
      ],
      "name": "EventOverrlue",
      "type": "event"
    },
    {
      "anonymous": false,
      "inputs": [
        {
          "indexed": true,
          "internalType": "uint256",
          "name": "eventid",
          "type": "uint256"
        },
        {
          "indexed": false,
          "internalType": "uint256",
          "name": "ticketid",
          "type": "uint256"
        },
        {
          "indexed": true,
          "internalType": "address",
          "name": "customer",
          "type": "address"
        }
      ],
      "name": "TicketSold",
      "type": "event"
    },
    {
      "anonymous": false,
      "inputs": [
        {
          "indexed": true,
          "internalType": "uint256",
          "name": "eventid",
          "type": "uint256"
        },
        {
          "indexed": true,
          "internalType": "uint256",
          "name": "totalticket",
          "type": "uint256"
        },
        {
          "indexed": true,
          "internalType": "address",
          "name": "creator",
          "type": "address"
        }
      ],
      "name": "TicketsGenerated",
      "type": "event"
    },
    {
      "anonymous": false,
      "inputs": [
        {
          "indexed": true,
          "internalType": "address",
          "name": "creator",
          "type": "address"
        }
      ],
      "name": "WithDraw",
      "type": "event"
    },
    {
      "inputs": [],
      "name": "reseller",
      "outputs": [
        {
          "internalType": "address",
          "name": "",
          "type": "address"
        }
      ],
      "stateMutability": "view",
      "type": "function",
      "constant": true
    },
    {
      "inputs": [
        {
          "internalType": "string",
          "name": "title",
          "type": "string"
        },
        {
          "internalType": "string",
          "name": "luogo",
          "type": "string"
        },
        {
          "internalType": "string",
          "name": "date",
          "type": "string"
        },
        {
          "internalType": "uint256",
          "name": "seats",
          "type": "uint256"
        },
        {
          "internalType": "uint256",
          "name": "price",
          "type": "uint256"
        },
        {
          "internalType": "address",
          "name": "res",
          "type": "address"
        },
        {
          "internalType": "address",
          "name": "val",
          "type": "address"
        }
      ],
      "name": "create_event",
      "outputs": [
        {
          "internalType": "uint256",
          "name": "",
          "type": "uint256"
        }
      ],
      "stateMutability": "nonpayable",
      "type": "function"
    },
    {
      "inputs": [
        {
          "internalType": "uint256",
          "name": "id",
          "type": "uint256"
        }
      ],
      "name": "overrlue_event",
      "outputs": [],
      "stateMutability": "nonpayable",
      "type": "function"
    },
    {
      "inputs": [
        {
          "internalType": "uint256",
          "name": "id",
          "type": "uint256"
        }
      ],
      "name": "finish_event",
      "outputs": [],
      "stateMutability": "nonpayable",
      "type": "function"
    },
    {
      "inputs": [],
      "name": "get_events",
      "outputs": [
        {
          "components": [
            {
              "internalType": "uint256",
              "name": "id",
              "type": "uint256"
            },
            {
              "internalType": "string",
              "name": "title",
              "type": "string"
            },
            {
              "internalType": "string",
              "name": "luogo",
              "type": "string"
            },
            {
              "internalType": "string",
              "name": "date",
              "type": "string"
            },
            {
              "internalType": "uint256",
              "name": "seats",
              "type": "uint256"
            },
            {
              "internalType": "uint256",
              "name": "remaining_tickets",
              "type": "uint256"
            },
            {
              "internalType": "uint256",
              "name": "price",
              "type": "uint256"
            },
            {
              "internalType": "string",
              "name": "state",
              "type": "string"
            },
            {
              "internalType": "address",
              "name": "owner",
              "type": "address"
            }
          ],
          "internalType": "struct Event.EventData[]",
          "name": "",
          "type": "tuple[]"
        }
      ],
      "stateMutability": "view",
      "type": "function",
      "constant": true
    },
    {
      "inputs": [
        {
          "internalType": "uint256",
          "name": "eventid",
          "type": "uint256"
        }
      ],
      "name": "check_ticket",
      "outputs": [
        {
          "internalType": "bool",
          "name": "",
          "type": "bool"
        }
      ],
      "stateMutability": "view",
      "type": "function",
      "constant": true
    },
    {
      "inputs": [
        {
          "internalType": "address payable",
          "name": "customer",
          "type": "address"
        },
        {
          "internalType": "uint256",
          "name": "eventid",
          "type": "uint256"
        },
        {
          "internalType": "string",
          "name": "name",
          "type": "string"
        },
        {
          "internalType": "string",
          "name": "surname",
          "type": "string"
        }
      ],
      "name": "buy_ticket",
      "outputs": [
        {
          "internalType": "uint256",
          "name": "",
          "type": "uint256"
        }
      ],
      "stateMutability": "payable",
      "type": "function",
      "payable": true
    },
    {
      "inputs": [],
      "name": "withdraw",
      "outputs": [],
      "stateMutability": "nonpayable",
      "type": "function"
    },
    {
      "inputs": [
        {
          "internalType": "address",
          "name": "val",
          "type": "address"
        }
      ],
      "name": "get_ticket_to_validate",
      "outputs": [
        {
          "components": [
            {
              "internalType": "string",
              "name": "name",
              "type": "string"
            },
            {
              "internalType": "string",
              "name": "surname",
              "type": "string"
            },
            {
              "internalType": "uint256",
              "name": "ticketid",
              "type": "uint256"
            },
            {
              "internalType": "uint256",
              "name": "eventid",
              "type": "uint256"
            },
            {
              "internalType": "bool",
              "name": "sell",
              "type": "bool"
            },
            {
              "internalType": "bool",
              "name": "validate",
              "type": "bool"
            },
            {
              "internalType": "address",
              "name": "customer",
              "type": "address"
            }
          ],
          "internalType": "struct Event.TicketData[]",
          "name": "",
          "type": "tuple[]"
        }
      ],
      "stateMutability": "view",
      "type": "function",
      "constant": true
    },
    {
      "inputs": [
        {
          "internalType": "uint256",
          "name": "ticketid",
          "type": "uint256"
        },
        {
          "internalType": "address",
          "name": "val",
          "type": "address"
        }
      ],
      "name": "validate_ticket",
      "outputs": [
        {
          "internalType": "bool",
          "name": "",
          "type": "bool"
        }
      ],
      "stateMutability": "nonpayable",
      "type": "function"
    },
    {
      "inputs": [],
      "name": "get_tickets",
      "outputs": [
        {
          "components": [
            {
              "internalType": "string",
              "name": "name",
              "type": "string"
            },
            {
              "internalType": "string",
              "name": "surname",
              "type": "string"
            },
            {
              "internalType": "uint256",
              "name": "ticketid",
              "type": "uint256"
            },
            {
              "internalType": "uint256",
              "name": "eventid",
              "type": "uint256"
            },
            {
              "internalType": "bool",
              "name": "sell",
              "type": "bool"
            },
            {
              "internalType": "bool",
              "name": "validate",
              "type": "bool"
            },
            {
              "internalType": "address",
              "name": "customer",
              "type": "address"
            }
          ],
          "internalType": "struct Event.TicketData[]",
          "name": "",
          "type": "tuple[]"
        }
      ],
      "stateMutability": "view",
      "type": "function",
      "constant": true
    },
    {
      "inputs": [
        {
          "internalType": "address",
          "name": "cliente",
          "type": "address"
        }
      ],
      "name": "get_personal_tickets",
      "outputs": [
        {
          "components": [
            {
              "internalType": "string",
              "name": "name",
              "type": "string"
            },
            {
              "internalType": "string",
              "name": "surname",
              "type": "string"
            },
            {
              "internalType": "uint256",
              "name": "ticketid",
              "type": "uint256"
            },
            {
              "internalType": "uint256",
              "name": "eventid",
              "type": "uint256"
            },
            {
              "internalType": "bool",
              "name": "sell",
              "type": "bool"
            },
            {
              "internalType": "bool",
              "name": "validate",
              "type": "bool"
            },
            {
              "internalType": "address",
              "name": "customer",
              "type": "address"
            }
          ],
          "internalType": "struct Event.TicketData[]",
          "name": "big",
          "type": "tuple[]"
        }
      ],
      "stateMutability": "view",
      "type": "function",
      "constant": true
    },
    {
      "inputs": [
        {
          "internalType": "uint256",
          "name": "eventid",
          "type": "uint256"
        }
      ],
      "name": "get_event_price",
      "outputs": [
        {
          "internalType": "uint256",
          "name": "",
          "type": "uint256"
        }
      ],
      "stateMutability": "view",
      "type": "function",
      "constant": true
    },
    {
      "inputs": [
        {
          "internalType": "uint256",
          "name": "id",
          "type": "uint256"
        }
      ],
      "name": "get_event",
      "outputs": [
        {
          "components": [
            {
              "internalType": "uint256",
              "name": "id",
              "type": "uint256"
            },
            {
              "internalType": "string",
              "name": "title",
              "type": "string"
            },
            {
              "internalType": "string",
              "name": "luogo",
              "type": "string"
            },
            {
              "internalType": "string",
              "name": "date",
              "type": "string"
            },
            {
              "internalType": "uint256",
              "name": "seats",
              "type": "uint256"
            },
            {
              "internalType": "uint256",
              "name": "remaining_tickets",
              "type": "uint256"
            },
            {
              "internalType": "uint256",
              "name": "price",
              "type": "uint256"
            },
            {
              "internalType": "string",
              "name": "state",
              "type": "string"
            },
            {
              "internalType": "address",
              "name": "owner",
              "type": "address"
            }
          ],
          "internalType": "struct Event.EventData",
          "name": "evento",
          "type": "tuple"
        }
      ],
      "stateMutability": "view",
      "type": "function",
      "constant": true
    },
    {
      "inputs": [
        {
          "internalType": "address",
          "name": "r",
          "type": "address"
        }
      ],
      "name": "set_reseller",
      "outputs": [
        {
          "internalType": "string",
          "name": "",
          "type": "string"
        },
        {
          "internalType": "address",
          "name": "",
          "type": "address"
        }
      ],
      "stateMutability": "nonpayable",
      "type": "function"
    },
    {
      "inputs": [
        {
          "internalType": "address",
          "name": "v",
          "type": "address"
        }
      ],
      "name": "set_validator",
      "outputs": [
        {
          "internalType": "string",
          "name": "",
          "type": "string"
        },
        {
          "internalType": "address",
          "name": "",
          "type": "address"
        }
      ],
      "stateMutability": "nonpayable",
      "type": "function"
    },
    {
      "inputs": [],
      "name": "getBalance",
      "outputs": [
        {
          "internalType": "uint256",
          "name": "",
          "type": "uint256"
        }
      ],
      "stateMutability": "view",
      "type": "function",
      "constant": true
    }
  ],
  "bytecode": "0x6080604052336000806101000a81548173ffffffffffffffffffffffffffffffffffffffff021916908373ffffffffffffffffffffffffffffffffffffffff16021790555034801561005057600080fd5b50613f0b806100606000396000f3fe6080604052600436106100fe5760003560e01c80635b3929cb11610095578063a143fc0b11610064578063a143fc0b1461035d578063a15cb47b1461039a578063c74d97cd146103d7578063c9b46fef14610402578063f06f75cc1461043f576100fe565b80635b3929cb146102a15780635c34a5de146102cc5780638c59a08514610309578063957bdf6014610332576100fe565b806338ae8be4116100d157806338ae8be4146101e75780633ccfd60b1461021057806347a828b3146102275780634c68824514610264576100fe565b806312065fe014610103578063214638cc1461012e578063226ee47c1461016b57806330449c80146101a9575b600080fd5b34801561010f57600080fd5b5061011861046f565b6040516101259190612e62565b60405180910390f35b34801561013a57600080fd5b5061015560048036038101906101509190612f1b565b610477565b6040516101629190612f76565b60405180910390f35b34801561017757600080fd5b50610192600480360381019061018d9190612f91565b610677565b6040516101a0929190613066565b60405180910390f35b3480156101b557600080fd5b506101d060048036038101906101cb9190612f91565b6107ae565b6040516101de929190613066565b60405180910390f35b3480156101f357600080fd5b5061020e60048036038101906102099190613096565b6108e5565b005b34801561021c57600080fd5b50610225610a49565b005b34801561023357600080fd5b5061024e60048036038101906102499190613096565b610b70565b60405161025b9190613205565b60405180910390f35b34801561027057600080fd5b5061028b60048036038101906102869190612f91565b610f16565b604051610298919061339b565b60405180910390f35b3480156102ad57600080fd5b506102b6611391565b6040516102c39190613559565b60405180910390f35b3480156102d857600080fd5b506102f360048036038101906102ee9190613096565b6116b7565b6040516103009190612f76565b60405180910390f35b34801561031557600080fd5b50610330600480360381019061032b9190613096565b61179f565b005b34801561033e57600080fd5b50610347611903565b604051610354919061339b565b60405180910390f35b34801561036957600080fd5b50610384600480360381019061037f9190612f91565b611bb4565b604051610391919061339b565b60405180910390f35b3480156103a657600080fd5b506103c160048036038101906103bc9190613096565b61204d565b6040516103ce9190612e62565b60405180910390f35b3480156103e357600080fd5b506103ec61207c565b6040516103f9919061357b565b60405180910390f35b34801561040e57600080fd5b50610429600480360381019061042491906136cb565b6120a2565b6040516104369190612e62565b60405180910390f35b610459600480360381019061045491906137ff565b612433565b6040516104669190612e62565b60405180910390f35b600047905090565b600081600260009054906101000a900473ffffffffffffffffffffffffffffffffffffffff1673ffffffffffffffffffffffffffffffffffffffff168173ffffffffffffffffffffffffffffffffffffffff161461050a576040517f08c379a0000000000000000000000000000000000000000000000000000000008152600401610501906138ea565b60405180910390fd5b6000805b61051661250e565b8110156106245785600482815481106105325761053161390a565b5b906000526020600020906005020160020154148015610587575060001515600482815481106105645761056361390a565b5b906000526020600020906005020160040160019054906101000a900460ff161515145b80156105c9575060011515600482815481106105a6576105a561390a565b5b906000526020600020906005020160040160009054906101000a900460ff161515145b15610611576001600482815481106105e4576105e361390a565b5b906000526020600020906005020160040160016101000a81548160ff021916908315150217905550600191505b808061061c90613968565b91505061050e565b50600115158115151461066c576040517f08c379a000000000000000000000000000000000000000000000000000000000815260040161066390613a23565b60405180910390fd5b809250505092915050565b606060008060009054906101000a900473ffffffffffffffffffffffffffffffffffffffff1673ffffffffffffffffffffffffffffffffffffffff163373ffffffffffffffffffffffffffffffffffffffff161461070a576040517f08c379a000000000000000000000000000000000000000000000000000000000815260040161070190613ab5565b60405180910390fd5b82600260006101000a81548173ffffffffffffffffffffffffffffffffffffffff021916908373ffffffffffffffffffffffffffffffffffffffff160217905550600260009054906101000a900473ffffffffffffffffffffffffffffffffffffffff166040518060400160405280601381526020017f56616c696461746f7220696d706f737461746f000000000000000000000000008152509091509150915091565b606060008060009054906101000a900473ffffffffffffffffffffffffffffffffffffffff1673ffffffffffffffffffffffffffffffffffffffff163373ffffffffffffffffffffffffffffffffffffffff1614610841576040517f08c379a000000000000000000000000000000000000000000000000000000000815260040161083890613ab5565b60405180910390fd5b82600160006101000a81548173ffffffffffffffffffffffffffffffffffffffff021916908373ffffffffffffffffffffffffffffffffffffffff160217905550600160009054906101000a900473ffffffffffffffffffffffffffffffffffffffff166040518060400160405280601281526020017f526573656c6c657220696d706f737461746f00000000000000000000000000008152509091509150915091565b60008054906101000a900473ffffffffffffffffffffffffffffffffffffffff1673ffffffffffffffffffffffffffffffffffffffff163373ffffffffffffffffffffffffffffffffffffffff1614610973576040517f08c379a000000000000000000000000000000000000000000000000000000000815260040161096a90613ab5565b60405180910390fd5b6040518060400160405280600881526020017f436f6e636c75736f000000000000000000000000000000000000000000000000815250600382815481106109bd576109bc61390a565b5b906000526020600020906009020160070190805190602001906109e1929190612ced565b5060008054906101000a900473ffffffffffffffffffffffffffffffffffffffff1673ffffffffffffffffffffffffffffffffffffffff16817fb15d3899a0a77e20f0c368865d76be846e277b8cac84cddf244f45748709720a60405160405180910390a350565b60008054906101000a900473ffffffffffffffffffffffffffffffffffffffff1673ffffffffffffffffffffffffffffffffffffffff163373ffffffffffffffffffffffffffffffffffffffff1614610ad7576040517f08c379a0000000000000000000000000000000000000000000000000000000008152600401610ace90613ab5565b60405180910390fd5b60003390508073ffffffffffffffffffffffffffffffffffffffff166108fc610afe61046f565b9081150290604051600060405180830381858888f19350505050158015610b29573d6000803e3d6000fd5b508073ffffffffffffffffffffffffffffffffffffffff167fe0d53c5567d2948d02a3d792743b7dd6c704ac09c0f26a319969583ef820761760405160405180910390a250565b610b78612d73565b610b8061251b565b8210610bc1576040517f08c379a0000000000000000000000000000000000000000000000000000000008152600401610bb890613b21565b60405180910390fd5b60005b610bcc61251b565b811015610f0f578260038281548110610be857610be761390a565b5b9060005260206000209060090201600001541415610efc5760038181548110610c1457610c1361390a565b5b90600052602060002090600902016040518061012001604052908160008201548152602001600182018054610c4890613b70565b80601f0160208091040260200160405190810160405280929190818152602001828054610c7490613b70565b8015610cc15780601f10610c9657610100808354040283529160200191610cc1565b820191906000526020600020905b815481529060010190602001808311610ca457829003601f168201915b50505050508152602001600282018054610cda90613b70565b80601f0160208091040260200160405190810160405280929190818152602001828054610d0690613b70565b8015610d535780601f10610d2857610100808354040283529160200191610d53565b820191906000526020600020905b815481529060010190602001808311610d3657829003601f168201915b50505050508152602001600382018054610d6c90613b70565b80601f0160208091040260200160405190810160405280929190818152602001828054610d9890613b70565b8015610de55780601f10610dba57610100808354040283529160200191610de5565b820191906000526020600020905b815481529060010190602001808311610dc857829003601f168201915b50505050508152602001600482015481526020016005820154815260200160068201548152602001600782018054610e1c90613b70565b80601f0160208091040260200160405190810160405280929190818152602001828054610e4890613b70565b8015610e955780601f10610e6a57610100808354040283529160200191610e95565b820191906000526020600020905b815481529060010190602001808311610e7857829003601f168201915b505050505081526020016008820160009054906101000a900473ffffffffffffffffffffffffffffffffffffffff1673ffffffffffffffffffffffffffffffffffffffff1673ffffffffffffffffffffffffffffffffffffffff1681525050915050610f11565b8080610f0790613968565b915050610bc4565b505b919050565b60606000805b610f2461250e565b811015610fc6578373ffffffffffffffffffffffffffffffffffffffff1660048281548110610f5657610f5561390a565b5b906000526020600020906005020160040160029054906101000a900473ffffffffffffffffffffffffffffffffffffffff1673ffffffffffffffffffffffffffffffffffffffff161415610fb3578180610faf90613968565b9250505b8080610fbe90613968565b915050610f1c565b5060008167ffffffffffffffff811115610fe357610fe26135a0565b5b60405190808252806020026020018201604052801561101c57816020015b611009612dd5565b8152602001906001900390816110015790505b5090506000805b61102b61250e565b811015611385578573ffffffffffffffffffffffffffffffffffffffff166004828154811061105d5761105c61390a565b5b906000526020600020906005020160040160029054906101000a900473ffffffffffffffffffffffffffffffffffffffff1673ffffffffffffffffffffffffffffffffffffffff161415611372576040518060e00160405280600483815481106110ca576110c961390a565b5b906000526020600020906005020160000180546110e690613b70565b80601f016020809104026020016040519081016040528092919081815260200182805461111290613b70565b801561115f5780601f106111345761010080835404028352916020019161115f565b820191906000526020600020905b81548152906001019060200180831161114257829003601f168201915b505050505081526020016004838154811061117d5761117c61390a565b5b9060005260206000209060050201600101805461119990613b70565b80601f01602080910402602001604051908101604052809291908181526020018280546111c590613b70565b80156112125780601f106111e757610100808354040283529160200191611212565b820191906000526020600020905b8154815290600101906020018083116111f557829003601f168201915b50505050508152602001600483815481106112305761122f61390a565b5b90600052602060002090600502016002015481526020016004838154811061125b5761125a61390a565b5b9060005260206000209060050201600301548152602001600483815481106112865761128561390a565b5b906000526020600020906005020160040160009054906101000a900460ff1615158152602001600483815481106112c0576112bf61390a565b5b906000526020600020906005020160040160019054906101000a900460ff1615158152602001600483815481106112fa576112f961390a565b5b906000526020600020906005020160040160029054906101000a900473ffffffffffffffffffffffffffffffffffffffff1673ffffffffffffffffffffffffffffffffffffffff168152508383815181106113585761135761390a565b5b6020026020010181905250818061136e90613968565b9250505b808061137d90613968565b915050611023565b50819350505050919050565b60606003805480602002602001604051908101604052809291908181526020016000905b828210156116ae578382906000526020600020906009020160405180610120016040529081600082015481526020016001820180546113f390613b70565b80601f016020809104026020016040519081016040528092919081815260200182805461141f90613b70565b801561146c5780601f106114415761010080835404028352916020019161146c565b820191906000526020600020905b81548152906001019060200180831161144f57829003601f168201915b5050505050815260200160028201805461148590613b70565b80601f01602080910402602001604051908101604052809291908181526020018280546114b190613b70565b80156114fe5780601f106114d3576101008083540402835291602001916114fe565b820191906000526020600020905b8154815290600101906020018083116114e157829003601f168201915b5050505050815260200160038201805461151790613b70565b80601f016020809104026020016040519081016040528092919081815260200182805461154390613b70565b80156115905780601f1061156557610100808354040283529160200191611590565b820191906000526020600020905b81548152906001019060200180831161157357829003601f168201915b505050505081526020016004820154815260200160058201548152602001600682015481526020016007820180546115c790613b70565b80601f01602080910402602001604051908101604052809291908181526020018280546115f390613b70565b80156116405780601f1061161557610100808354040283529160200191611640565b820191906000526020600020905b81548152906001019060200180831161162357829003601f168201915b505050505081526020016008820160009054906101000a900473ffffffffffffffffffffffffffffffffffffffff1673ffffffffffffffffffffffffffffffffffffffff1673ffffffffffffffffffffffffffffffffffffffff1681525050815260200190600101906113b5565b50505050905090565b6000806116c383610b70565b905060008160a0015114156116dc57600091505061179a565b6040516020016116eb90613bf9565b604051602081830303815290604052805190602001208160e001516040516020016117169190613c3f565b604051602081830303815290604052805190602001201480611785575060405160200161174290613ca2565b604051602081830303815290604052805190602001208160e0015160405160200161176d9190613c3f565b60405160208183030381529060405280519060200120145b1561179457600091505061179a565b60019150505b919050565b60008054906101000a900473ffffffffffffffffffffffffffffffffffffffff1673ffffffffffffffffffffffffffffffffffffffff163373ffffffffffffffffffffffffffffffffffffffff161461182d576040517f08c379a000000000000000000000000000000000000000000000000000000000815260040161182490613ab5565b60405180910390fd5b6040518060400160405280600981526020017f416e6e756c6c61746f0000000000000000000000000000000000000000000000815250600382815481106118775761187661390a565b5b9060005260206000209060090201600701908051906020019061189b929190612ced565b5060008054906101000a900473ffffffffffffffffffffffffffffffffffffffff1673ffffffffffffffffffffffffffffffffffffffff16817f9ab588958c126cb0274213719f45aca396603352447383188a81e29c1269029a60405160405180910390a350565b606060008054906101000a900473ffffffffffffffffffffffffffffffffffffffff1673ffffffffffffffffffffffffffffffffffffffff163373ffffffffffffffffffffffffffffffffffffffff1614611993576040517f08c379a000000000000000000000000000000000000000000000000000000000815260040161198a90613ab5565b60405180910390fd5b6004805480602002602001604051908101604052809291908181526020016000905b82821015611bab57838290600052602060002090600502016040518060e00160405290816000820180546119e890613b70565b80601f0160208091040260200160405190810160405280929190818152602001828054611a1490613b70565b8015611a615780601f10611a3657610100808354040283529160200191611a61565b820191906000526020600020905b815481529060010190602001808311611a4457829003601f168201915b50505050508152602001600182018054611a7a90613b70565b80601f0160208091040260200160405190810160405280929190818152602001828054611aa690613b70565b8015611af35780601f10611ac857610100808354040283529160200191611af3565b820191906000526020600020905b815481529060010190602001808311611ad657829003601f168201915b5050505050815260200160028201548152602001600382015481526020016004820160009054906101000a900460ff161515151581526020016004820160019054906101000a900460ff161515151581526020016004820160029054906101000a900473ffffffffffffffffffffffffffffffffffffffff1673ffffffffffffffffffffffffffffffffffffffff1673ffffffffffffffffffffffffffffffffffffffff1681525050815260200190600101906119b5565b50505050905090565b606081600260009054906101000a900473ffffffffffffffffffffffffffffffffffffffff1673ffffffffffffffffffffffffffffffffffffffff168173ffffffffffffffffffffffffffffffffffffffff1614611c47576040517f08c379a0000000000000000000000000000000000000000000000000000000008152600401611c3e906138ea565b60405180910390fd5b6000805b611c5361250e565b811015611cbb576001151560048281548110611c7257611c7161390a565b5b906000526020600020906005020160040160009054906101000a900460ff1615151415611ca8578180611ca490613968565b9250505b8080611cb390613968565b915050611c4b565b5060008167ffffffffffffffff811115611cd857611cd76135a0565b5b604051908082528060200260200182016040528015611d1157816020015b611cfe612dd5565b815260200190600190039081611cf65790505b5090506000805b611d2061250e565b811015612040576001151560048281548110611d3f57611d3e61390a565b5b906000526020600020906005020160040160009054906101000a900460ff161515141561202d576040518060e0016040528060048381548110611d8557611d8461390a565b5b90600052602060002090600502016000018054611da190613b70565b80601f0160208091040260200160405190810160405280929190818152602001828054611dcd90613b70565b8015611e1a5780601f10611def57610100808354040283529160200191611e1a565b820191906000526020600020905b815481529060010190602001808311611dfd57829003601f168201915b5050505050815260200160048381548110611e3857611e3761390a565b5b90600052602060002090600502016001018054611e5490613b70565b80601f0160208091040260200160405190810160405280929190818152602001828054611e8090613b70565b8015611ecd5780601f10611ea257610100808354040283529160200191611ecd565b820191906000526020600020905b815481529060010190602001808311611eb057829003601f168201915b5050505050815260200160048381548110611eeb57611eea61390a565b5b906000526020600020906005020160020154815260200160048381548110611f1657611f1561390a565b5b906000526020600020906005020160030154815260200160048381548110611f4157611f4061390a565b5b906000526020600020906005020160040160009054906101000a900460ff161515815260200160048381548110611f7b57611f7a61390a565b5b906000526020600020906005020160040160019054906101000a900460ff161515815260200160048381548110611fb557611fb461390a565b5b906000526020600020906005020160040160029054906101000a900473ffffffffffffffffffffffffffffffffffffffff1673ffffffffffffffffffffffffffffffffffffffff168152508383815181106120135761201261390a565b5b6020026020010181905250818061202990613968565b9250505b808061203890613968565b915050611d18565b5081945050505050919050565b6000600382815481106120635761206261390a565b5b9060005260206000209060090201600601549050919050565b600160009054906101000a900473ffffffffffffffffffffffffffffffffffffffff1681565b60008060009054906101000a900473ffffffffffffffffffffffffffffffffffffffff1673ffffffffffffffffffffffffffffffffffffffff163373ffffffffffffffffffffffffffffffffffffffff1614612133576040517f08c379a000000000000000000000000000000000000000000000000000000000815260040161212a90613ab5565b60405180910390fd5b6003604051806101200160405280600081526020018a81526020018981526020018881526020018781526020018781526020018681526020016040518060400160405280600c81526020017f4e6f6e20636f6e636c75736f0000000000000000000000000000000000000000815250815260200160008054906101000a900473ffffffffffffffffffffffffffffffffffffffff1673ffffffffffffffffffffffffffffffffffffffff168152509080600181540180825580915050600190039060005260206000209060090201600090919091909150600082015181600001556020820151816001019080519060200190612230929190612ced565b50604082015181600201908051906020019061224d929190612ced565b50606082015181600301908051906020019061226a929190612ced565b506080820151816004015560a0820151816005015560c0820151816006015560e08201518160070190805190602001906122a5929190612ced565b506101008201518160080160006101000a81548173ffffffffffffffffffffffffffffffffffffffff021916908373ffffffffffffffffffffffffffffffffffffffff1602179055505050600060016122fc61251b565b6123069190613cb7565b9050806003828154811061231d5761231c61390a565b5b90600052602060002090600902016000018190555060008054906101000a900473ffffffffffffffffffffffffffffffffffffffff1673ffffffffffffffffffffffffffffffffffffffff16817fe43349c008949cf6b65249356e6f918d4aaa0ca79f2b1166df4a4a98c9c16de260405160405180910390a383600160006101000a81548173ffffffffffffffffffffffffffffffffffffffff021916908373ffffffffffffffffffffffffffffffffffffffff16021790555082600260006101000a81548173ffffffffffffffffffffffffffffffffffffffff021916908373ffffffffffffffffffffffffffffffffffffffff160217905550612423818786612528565b5080915050979650505050505050565b60008061243f8561204d565b9050803414612483576040517f08c379a000000000000000000000000000000000000000000000000000000000815260040161247a90613d37565b60405180910390fd5b600061248e866127ff565b90506124a0816040015186868a612aa5565b506124aa86612caf565b8673ffffffffffffffffffffffffffffffffffffffff16867fc41bbb54d04f2268c7895b9330f18468c306a3f92698a92c4c86b2978739784883604001516040516124f59190612e62565b60405180910390a3806040015192505050949350505050565b6000600480549050905090565b6000600380549050905090565b600081600160009054906101000a900473ffffffffffffffffffffffffffffffffffffffff1673ffffffffffffffffffffffffffffffffffffffff168173ffffffffffffffffffffffffffffffffffffffff16146125bb576040517f08c379a00000000000000000000000000000000000000000000000000000000081526004016125b290613dc9565b60405180910390fd5b600080856125c761250e565b6125d19190613de9565b905060006125dd61250e565b90505b818110156127ac5760046040518060e00160405280604051806020016040528060008152508152602001604051806020016040528060008152508152602001600081526020018a8152602001600015158152602001600015158152602001600073ffffffffffffffffffffffffffffffffffffffff168152509080600181540180825580915050600190039060005260206000209060050201600090919091909150600082015181600001908051906020019061269e929190612ced565b5060208201518160010190805190602001906126bb929190612ced565b50604082015181600201556060820151816003015560808201518160040160006101000a81548160ff02191690831515021790555060a08201518160040160016101000a81548160ff02191690831515021790555060c08201518160040160026101000a81548173ffffffffffffffffffffffffffffffffffffffff021916908373ffffffffffffffffffffffffffffffffffffffff1602179055505050600161276361250e565b61276d9190613cb7565b925082600482815481106127845761278361390a565b5b90600052602060002090600502016002018190555080806127a490613968565b9150506125e0565b508473ffffffffffffffffffffffffffffffffffffffff1686887f6567ab497f12a760d234e0684de86536dce884c904386957d5877e165bfb32fa60405160405180910390a48593505050509392505050565b612807612dd5565b61280f612dd5565b60005b61281a61250e565b811015612a9b5783600482815481106128365761283561390a565b5b90600052602060002090600502016003015414801561288b575060001515600482815481106128685761286761390a565b5b906000526020600020906005020160040160009054906101000a900460ff161515145b15612a8857600481815481106128a4576128a361390a565b5b90600052602060002090600502016040518060e00160405290816000820180546128cd90613b70565b80601f01602080910402602001604051908101604052809291908181526020018280546128f990613b70565b80156129465780601f1061291b57610100808354040283529160200191612946565b820191906000526020600020905b81548152906001019060200180831161292957829003601f168201915b5050505050815260200160018201805461295f90613b70565b80601f016020809104026020016040519081016040528092919081815260200182805461298b90613b70565b80156129d85780601f106129ad576101008083540402835291602001916129d8565b820191906000526020600020905b8154815290600101906020018083116129bb57829003601f168201915b5050505050815260200160028201548152602001600382015481526020016004820160009054906101000a900460ff161515151581526020016004820160019054906101000a900460ff161515151581526020016004820160029054906101000a900473ffffffffffffffffffffffffffffffffffffffff1673ffffffffffffffffffffffffffffffffffffffff1673ffffffffffffffffffffffffffffffffffffffff16815250509150612a9b565b8080612a9390613968565b915050612812565b5080915050919050565b6000806000905060005b612ab761250e565b811015612c5b578660048281548110612ad357612ad261390a565b5b906000526020600020906005020160020154148015612b2857506000151560048281548110612b0557612b0461390a565b5b906000526020600020906005020160040160009054906101000a900460ff161515145b15612c4857600160048281548110612b4357612b4261390a565b5b906000526020600020906005020160040160006101000a81548160ff0219169083151502179055508560048281548110612b8057612b7f61390a565b5b90600052602060002090600502016000019080519060200190612ba4929190612ced565b508460048281548110612bba57612bb961390a565b5b90600052602060002090600502016001019080519060200190612bde929190612ced565b508360048281548110612bf457612bf361390a565b5b906000526020600020906005020160040160026101000a81548173ffffffffffffffffffffffffffffffffffffffff021916908373ffffffffffffffffffffffffffffffffffffffff160217905550600191505b8080612c5390613968565b915050612aaf565b506001151581151514612ca3576040517f08c379a0000000000000000000000000000000000000000000000000000000008152600401612c9a90613e8b565b60405180910390fd5b80915050949350505050565b60038181548110612cc357612cc261390a565b5b90600052602060002090600902016005016000815480929190612ce590613eab565b919050555050565b828054612cf990613b70565b90600052602060002090601f016020900481019282612d1b5760008555612d62565b82601f10612d3457805160ff1916838001178555612d62565b82800160010185558215612d62579182015b82811115612d61578251825591602001919060010190612d46565b5b509050612d6f9190612e2c565b5090565b6040518061012001604052806000815260200160608152602001606081526020016060815260200160008152602001600081526020016000815260200160608152602001600073ffffffffffffffffffffffffffffffffffffffff1681525090565b6040518060e0016040528060608152602001606081526020016000815260200160008152602001600015158152602001600015158152602001600073ffffffffffffffffffffffffffffffffffffffff1681525090565b5b80821115612e45576000816000905550600101612e2d565b5090565b6000819050919050565b612e5c81612e49565b82525050565b6000602082019050612e776000830184612e53565b92915050565b6000604051905090565b600080fd5b600080fd5b612e9a81612e49565b8114612ea557600080fd5b50565b600081359050612eb781612e91565b92915050565b600073ffffffffffffffffffffffffffffffffffffffff82169050919050565b6000612ee882612ebd565b9050919050565b612ef881612edd565b8114612f0357600080fd5b50565b600081359050612f1581612eef565b92915050565b60008060408385031215612f3257612f31612e87565b5b6000612f4085828601612ea8565b9250506020612f5185828601612f06565b9150509250929050565b60008115159050919050565b612f7081612f5b565b82525050565b6000602082019050612f8b6000830184612f67565b92915050565b600060208284031215612fa757612fa6612e87565b5b6000612fb584828501612f06565b91505092915050565b600081519050919050565b600082825260208201905092915050565b60005b83811015612ff8578082015181840152602081019050612fdd565b83811115613007576000848401525b50505050565b6000601f19601f8301169050919050565b600061302982612fbe565b6130338185612fc9565b9350613043818560208601612fda565b61304c8161300d565b840191505092915050565b61306081612edd565b82525050565b60006040820190508181036000830152613080818561301e565b905061308f6020830184613057565b9392505050565b6000602082840312156130ac576130ab612e87565b5b60006130ba84828501612ea8565b91505092915050565b6130cc81612e49565b82525050565b600082825260208201905092915050565b60006130ee82612fbe565b6130f881856130d2565b9350613108818560208601612fda565b6131118161300d565b840191505092915050565b61312581612edd565b82525050565b60006101208301600083015161314460008601826130c3565b506020830151848203602086015261315c82826130e3565b9150506040830151848203604086015261317682826130e3565b9150506060830151848203606086015261319082826130e3565b91505060808301516131a560808601826130c3565b5060a08301516131b860a08601826130c3565b5060c08301516131cb60c08601826130c3565b5060e083015184820360e08601526131e382826130e3565b9150506101008301516131fa61010086018261311c565b508091505092915050565b6000602082019050818103600083015261321f818461312b565b905092915050565b600081519050919050565b600082825260208201905092915050565b6000819050602082019050919050565b61325c81612f5b565b82525050565b600060e083016000830151848203600086015261327f82826130e3565b9150506020830151848203602086015261329982826130e3565b91505060408301516132ae60408601826130c3565b5060608301516132c160608601826130c3565b5060808301516132d46080860182613253565b5060a08301516132e760a0860182613253565b5060c08301516132fa60c086018261311c565b508091505092915050565b60006133118383613262565b905092915050565b6000602082019050919050565b600061333182613227565b61333b8185613232565b93508360208202850161334d85613243565b8060005b85811015613389578484038952815161336a8582613305565b945061337583613319565b925060208a01995050600181019050613351565b50829750879550505050505092915050565b600060208201905081810360008301526133b58184613326565b905092915050565b600081519050919050565b600082825260208201905092915050565b6000819050602082019050919050565b60006101208301600083015161340260008601826130c3565b506020830151848203602086015261341a82826130e3565b9150506040830151848203604086015261343482826130e3565b9150506060830151848203606086015261344e82826130e3565b915050608083015161346360808601826130c3565b5060a083015161347660a08601826130c3565b5060c083015161348960c08601826130c3565b5060e083015184820360e08601526134a182826130e3565b9150506101008301516134b861010086018261311c565b508091505092915050565b60006134cf83836133e9565b905092915050565b6000602082019050919050565b60006134ef826133bd565b6134f981856133c8565b93508360208202850161350b856133d9565b8060005b85811015613547578484038952815161352885826134c3565b9450613533836134d7565b925060208a0199505060018101905061350f565b50829750879550505050505092915050565b6000602082019050818103600083015261357381846134e4565b905092915050565b60006020820190506135906000830184613057565b92915050565b600080fd5b600080fd5b7f4e487b7100000000000000000000000000000000000000000000000000000000600052604160045260246000fd5b6135d88261300d565b810181811067ffffffffffffffff821117156135f7576135f66135a0565b5b80604052505050565b600061360a612e7d565b905061361682826135cf565b919050565b600067ffffffffffffffff821115613636576136356135a0565b5b61363f8261300d565b9050602081019050919050565b82818337600083830152505050565b600061366e6136698461361b565b613600565b90508281526020810184848401111561368a5761368961359b565b5b61369584828561364c565b509392505050565b600082601f8301126136b2576136b1613596565b5b81356136c284826020860161365b565b91505092915050565b600080600080600080600060e0888a0312156136ea576136e9612e87565b5b600088013567ffffffffffffffff81111561370857613707612e8c565b5b6137148a828b0161369d565b975050602088013567ffffffffffffffff81111561373557613734612e8c565b5b6137418a828b0161369d565b965050604088013567ffffffffffffffff81111561376257613761612e8c565b5b61376e8a828b0161369d565b955050606061377f8a828b01612ea8565b94505060806137908a828b01612ea8565b93505060a06137a18a828b01612f06565b92505060c06137b28a828b01612f06565b91505092959891949750929550565b60006137cc82612ebd565b9050919050565b6137dc816137c1565b81146137e757600080fd5b50565b6000813590506137f9816137d3565b92915050565b6000806000806080858703121561381957613818612e87565b5b6000613827878288016137ea565b945050602061383887828801612ea8565b935050604085013567ffffffffffffffff81111561385957613858612e8c565b5b6138658782880161369d565b925050606085013567ffffffffffffffff81111561388657613885612e8c565b5b6138928782880161369d565b91505092959194509250565b7f4e6f6e2073656920696c2076616c696461746f72000000000000000000000000600082015250565b60006138d4601483612fc9565b91506138df8261389e565b602082019050919050565b60006020820190508181036000830152613903816138c7565b9050919050565b7f4e487b7100000000000000000000000000000000000000000000000000000000600052603260045260246000fd5b7f4e487b7100000000000000000000000000000000000000000000000000000000600052601160045260246000fd5b600061397382612e49565b91507fffffffffffffffffffffffffffffffffffffffffffffffffffffffffffffffff8214156139a6576139a5613939565b5b600182019050919050565b7f4269676c696574746f20676961272076616c696461746f206f20696e76616c6960008201527f646162696c650000000000000000000000000000000000000000000000000000602082015250565b6000613a0d602683612fc9565b9150613a18826139b1565b604082019050919050565b60006020820190508181036000830152613a3c81613a00565b9050919050565b7f4e6f6e20736569206175746f72697a7a61746f2061642065736567756972652060008201527f71756573746120617a696f6e6500000000000000000000000000000000000000602082015250565b6000613a9f602d83612fc9565b9150613aaa82613a43565b604082019050919050565b60006020820190508181036000830152613ace81613a92565b9050919050565b7f4c276576656e746f206e6f6e2065736973746500000000000000000000000000600082015250565b6000613b0b601383612fc9565b9150613b1682613ad5565b602082019050919050565b60006020820190508181036000830152613b3a81613afe565b9050919050565b7f4e487b7100000000000000000000000000000000000000000000000000000000600052602260045260246000fd5b60006002820490506001821680613b8857607f821691505b60208210811415613b9c57613b9b613b41565b5b50919050565b600081905092915050565b7f436f6e636c75736f000000000000000000000000000000000000000000000000600082015250565b6000613be3600883613ba2565b9150613bee82613bad565b600882019050919050565b6000613c0482613bd6565b9150819050919050565b6000613c1982612fbe565b613c238185613ba2565b9350613c33818560208601612fda565b80840191505092915050565b6000613c4b8284613c0e565b915081905092915050565b7f416e6e756c6c61746f0000000000000000000000000000000000000000000000600082015250565b6000613c8c600983613ba2565b9150613c9782613c56565b600982019050919050565b6000613cad82613c7f565b9150819050919050565b6000613cc282612e49565b9150613ccd83612e49565b925082821015613ce057613cdf613939565b5b828203905092915050565b7f466f6e6469206e6f6e20737566666963656e7469000000000000000000000000600082015250565b6000613d21601483612fc9565b9150613d2c82613ceb565b602082019050919050565b60006020820190508181036000830152613d5081613d14565b9050919050565b7f496c20726573656c6c657220737065636966696361746f20652720657272617460008201527f6f00000000000000000000000000000000000000000000000000000000000000602082015250565b6000613db3602183612fc9565b9150613dbe82613d57565b604082019050919050565b60006020820190508181036000830152613de281613da6565b9050919050565b6000613df482612e49565b9150613dff83612e49565b9250827fffffffffffffffffffffffffffffffffffffffffffffffffffffffffffffffff03821115613e3457613e33613939565b5b828201905092915050565b7f4572726f7265206e656c6c61206661736520646920616371756973746f000000600082015250565b6000613e75601d83612fc9565b9150613e8082613e3f565b602082019050919050565b60006020820190508181036000830152613ea481613e68565b9050919050565b6000613eb682612e49565b91506000821415613eca57613ec9613939565b5b60018203905091905056fea2646970667358221220f88f4f1fe9dd0553a421751c72fa907faae886392cf64d0a44cd57983cf6a4b964736f6c634300080a0033",
  "immutableReferences": {},
  "source": "// SPDX-License-Identifier: GPL-3.0\r\npragma solidity >=0.7.0 <0.9.0;\r\n\r\n\r\n\r\ncontract Event {\r\n    \r\n    address private owner=msg.sender;\r\n    \r\n    address public reseller;\r\n    \r\n    address private validator;\r\n    \r\n    \r\n    struct EventData{ //event data structure\r\n    \r\n        uint id;\r\n    \r\n        string title;\r\n        \r\n        string luogo;\r\n        \r\n        string date;\r\n        \r\n        uint seats;\r\n        \r\n        uint remaining_tickets;\r\n        \r\n        uint256 price;\r\n        \r\n        string state;\r\n        \r\n        address owner;\r\n    } \r\n    \r\n    \r\n    \r\n    struct TicketData{ //ticket data structure\r\n        \r\n        string name;\r\n        \r\n        string surname;\r\n        \r\n        uint ticketid;\r\n        \r\n        uint eventid;\r\n        \r\n        bool sell;\r\n        \r\n        bool validate;\r\n\r\n        address customer;\r\n    }\r\n    \r\n    \r\n    \r\n    EventData[] private events; //all events\r\n    TicketData[] private tickets; //all tickets\r\n    \r\n    modifier only_owner() {\r\n        require(msg.sender == owner, \"Non sei autorizzato ad eseguire questa azione\");\r\n        _;\r\n    }\r\n    \r\n    modifier only_reseller(address res) {\r\n        require(res == reseller, \"Il reseller specificato e' errato\");\r\n        _;\r\n    }\r\n    \r\n    modifier only_validator(address val) {\r\n        require(val == validator, \"Non sei il validator\");\r\n        _;\r\n    }\r\n\r\n    \r\n    event EventCreated(uint indexed eventid, address indexed creator);\r\n    event EventOverrlue(uint indexed eventid, address indexed creator);\r\n    event EventFinished(uint indexed eventid, address indexed creator);\r\n    event TicketsGenerated(uint indexed eventid, uint indexed totalticket, address indexed creator);\r\n    event TicketSold(uint indexed eventid, uint ticketid, address indexed customer);\r\n    event WithDraw(address indexed creator);\r\n    \r\n    \r\n    function  create_event(string memory title, string memory  luogo, string memory  date, uint seats, uint256 price, address res, address val) public only_owner returns(uint) {\r\n        {\r\n            events.push(EventData(0, title, luogo,  date, seats, seats, price, \"Non concluso\" , owner));\r\n            uint id=get_event_length() - 1;\r\n            events[id].id=id;\r\n            emit EventCreated(id, owner);\r\n            reseller=res;\r\n            validator=val;\r\n            generate_tickets(id, seats, res);\r\n            return id;\r\n        }\r\n    }\r\n    \r\n    function overrlue_event(uint id) public only_owner {\r\n            events[id].state=\"Annullato\";\r\n            emit EventOverrlue(id, owner);\r\n    }\r\n    \r\n    function finish_event(uint id) public only_owner {\r\n        events[id].state=\"Concluso\";\r\n        emit EventFinished(id, owner);\r\n    }\r\n    \r\n     function get_events() public view returns (EventData[] memory){\r\n         return events;\r\n     } \r\n\r\n\r\n    \r\n    function generate_tickets(uint eventid, uint totalticket , address res) internal only_reseller(res) returns(uint){\r\n        uint ticketid=0;\r\n        uint array_len=get_ticket_lenght()+totalticket;\r\n        for(uint i=get_ticket_lenght(); i < array_len  ; i++){\r\n            tickets.push(TicketData(\"\", \"\", 0, eventid, false, false, 0x0000000000000000000000000000000000000000));\r\n            ticketid=get_ticket_lenght() - 1;\r\n            tickets[i].ticketid=ticketid;\r\n        }\r\n        emit TicketsGenerated(eventid, totalticket , res);\r\n        return totalticket;\r\n    }\r\n    \r\n    function get_event_ticket(uint eventid) internal view returns (TicketData memory){\r\n        TicketData memory biglietto;\r\n        for(uint i=0; i < get_ticket_lenght(); i++){ \r\n            if(tickets[i].eventid==eventid && tickets[i].sell==false){\r\n                biglietto=tickets[i];\r\n                break;\r\n            }\r\n        }\r\n        return biglietto;\r\n    }\r\n    \r\n    function set_ticket_sold(uint ticketid, string memory name, string memory surname, address customer) internal returns(bool){\r\n        bool flag=false;\r\n        for(uint i=0; i < get_ticket_lenght(); i++){\r\n            if(tickets[i].ticketid==ticketid && tickets[i].sell==false){\r\n                tickets[i].sell=true;\r\n                tickets[i].name=name;\r\n                tickets[i].surname=surname;\r\n                tickets[i].customer=customer;\r\n                flag=true;\r\n            }\r\n            \r\n        }\r\n        require(flag==true, \"Errore nella fase di acquisto\");\r\n        return flag;\r\n        \r\n    }\r\n    \r\n    function check_ticket(uint eventid) external view returns(bool){\r\n        EventData memory evento= get_event(eventid);\r\n        if(evento.remaining_tickets == 0)\r\n            return false;\r\n        else if(keccak256(abi.encodePacked(evento.state))==keccak256(abi.encodePacked(\"Concluso\")) || keccak256(abi.encodePacked(evento.state))==keccak256(abi.encodePacked(\"Annullato\")) )\r\n            return false;\r\n        else \r\n            return true;\r\n    }\r\n    \r\n    function buy_ticket( address payable customer, uint eventid, string memory name, string memory surname) external payable returns(uint){\r\n        uint price=get_event_price(eventid);\r\n        require(msg.value==price, \"Fondi non sufficenti\");\r\n        TicketData memory biglietto=get_event_ticket(eventid);\r\n        set_ticket_sold(biglietto.ticketid, name, surname, customer);\r\n        reduce_remaining_tickets(eventid);\r\n        emit TicketSold(eventid, biglietto.ticketid, customer);\r\n        return  biglietto.ticketid;      \r\n    }\r\n\r\n    function withdraw() public only_owner {\r\n        address payable indirizzo= payable(msg.sender);\r\n        indirizzo.transfer(getBalance());\r\n        emit WithDraw(indirizzo);\r\n    }\r\n    \r\n    function reduce_remaining_tickets(uint eventid) internal{\r\n        events[eventid].remaining_tickets --;\r\n    }\r\n\r\n\r\n    function get_ticket_to_validate(address val) public view only_validator(val) returns(TicketData[] memory){\r\n        uint j=0;\r\n        for(uint i=0; i < get_ticket_lenght(); i++){ \r\n            if(tickets[i].sell==true){\r\n                j++;\r\n            }\r\n        }\r\n        TicketData[] memory biglietti=new TicketData[](j);\r\n        uint l=0;\r\n        for(uint i=0; i < get_ticket_lenght(); i++){ \r\n            if(tickets[i].sell==true){\r\n                biglietti[l]=TicketData(tickets[i].name,tickets[i].surname,tickets[i].ticketid,tickets[i].eventid,tickets[i].sell,tickets[i].validate,tickets[i].customer);\r\n                l++;\r\n            }\r\n        }\r\n        return biglietti;\r\n\r\n    }\r\n\r\n\r\n    function validate_ticket(uint ticketid, address val) external only_validator(val)returns(bool){\r\n        bool flag=false;\r\n        for(uint i=0; i < get_ticket_lenght(); i++){\r\n            if(tickets[i].ticketid==ticketid && tickets[i].validate==false && tickets[i].sell==true){\r\n                tickets[i].validate=true;\r\n                flag=true;\r\n            }\r\n        }\r\n        require(flag==true, \"Biglietto gia' validato o invalidabile\");\r\n        return flag;\r\n\r\n   }\r\n    /*function set_event_sold(uint ticketid) internal returns (bool){\r\n        bool flag=false;\r\n        for(uint i=0; i < get_ticket_lenght(); i++){\r\n            if(tickets[i].ticketid==ticketid){\r\n                tickets[i].sell=true;\r\n                flag=true;\r\n            }\r\n        }\r\n        return flag;\r\n    } */\r\n    \r\n    \r\n    function get_tickets() public only_owner view returns(TicketData[] memory){\r\n        return tickets;\r\n    }\r\n\r\n    function get_personal_tickets(address cliente) public view returns(TicketData[] memory big){\r\n        uint j=0;\r\n        for(uint i=0; i < get_ticket_lenght(); i++){ \r\n            if(tickets[i].customer==cliente){\r\n                j++;\r\n            }\r\n        }\r\n        TicketData[] memory biglietti=new TicketData[](j);\r\n        uint l=0;\r\n        for(uint i=0; i < get_ticket_lenght(); i++){ \r\n            if(tickets[i].customer==cliente){\r\n                biglietti[l]=TicketData(tickets[i].name,tickets[i].surname,tickets[i].ticketid,tickets[i].eventid,tickets[i].sell,tickets[i].validate,tickets[i].customer);\r\n                l++;\r\n            }\r\n        }\r\n        return biglietti;\r\n    }\r\n\r\n    \r\n\r\n    function get_event_price(uint eventid) public view returns(uint) {\r\n        return events[eventid].price;\r\n    }\r\n    /*function delete_event_list(uint id) public only_owner {\r\n        bool deletable=false;\r\n        string memory an=\"Annullato\";\r\n        string memory cn=\"Concluso\";\r\n        for(uint i=0; i < get_event_length(); i++){\r\n            if(keccak256(abi.encodePacked(events[i]))==keccak256(abi.encodePacked(an)))\r\n                deletable=true;\r\n        }\r\n        \r\n        if(deletable)\r\n            delete events;\r\n    } */\r\n  \r\n     \r\n     function get_event(uint id) public view returns(EventData memory evento){\r\n         require(id < get_event_length(), \"L'evento non esiste\");\r\n         for(uint i=0; i < get_event_length(); i++){\r\n             if(events[i].id==id)\r\n                return events[i];\r\n         }\r\n     }\r\n     \r\n     function get_event_length() internal view returns (uint){\r\n         return events.length;\r\n     }\r\n     \r\n     function get_ticket_lenght() internal view returns (uint){\r\n         return tickets.length;\r\n     }\r\n     \r\n     function set_reseller(address r) only_owner public returns(string memory, address){\r\n         reseller=r;\r\n         return(\"Reseller impostato\", reseller);\r\n     }\r\n\r\n     function set_validator(address v) only_owner public returns(string memory, address){\r\n         validator=v;\r\n         return(\"Validator impostato\", validator);\r\n     }\r\n     \r\n     function getBalance() public view returns (uint) {\r\n         return address(this).balance;\r\n     }\r\n    \r\n}  ",
  "sourcePath": "C:\\Users\\Utente\\Desktop\\Universita\\Laurea Magistrale\\Software Cybersecurity\\Progetto\\Repository\\Software-Cybersecurity-Project\\contracts\\Event.sol",
  "compiler": {
    "name": "solc",
    "version": "0.8.10+commit.fc410830.Emscripten.clang"
  },
  "schemaVersion": "3.4.3",
  "updatedAt": "2021-11-20T17:37:05.255Z",
  "networkType": "ethereum",
  "devdoc": {
    "kind": "dev",
    "methods": {},
    "version": 1
  },
  "userdoc": {
    "kind": "user",
    "methods": {},
    "version": 1
  }
}