{
  "contractName": "Event",
  "abi": [
    {
      "anonymous": false,
      "inputs": [
        {
          "indexed": true,
          "internalType": "uint256",
          "name": "eventid",
          "type": "uint256"
        },
        {
          "indexed": true,
          "internalType": "address",
          "name": "creator",
          "type": "address"
        }
      ],
      "name": "EventCreated",
      "type": "event"
    },
    {
      "anonymous": false,
      "inputs": [
        {
          "indexed": true,
          "internalType": "uint256",
          "name": "eventid",
          "type": "uint256"
        },
        {
          "indexed": true,
          "internalType": "address",
          "name": "creator",
          "type": "address"
        }
      ],
      "name": "EventFinished",
      "type": "event"
    },
    {
      "anonymous": false,
      "inputs": [
        {
          "indexed": true,
          "internalType": "uint256",
          "name": "eventid",
          "type": "uint256"
        },
        {
          "indexed": true,
          "internalType": "address",
          "name": "creator",
          "type": "address"
        }
      ],
      "name": "EventOverrlue",
      "type": "event"
    },
    {
      "anonymous": false,
      "inputs": [
        {
          "indexed": true,
          "internalType": "uint256",
          "name": "eventid",
          "type": "uint256"
        },
        {
          "indexed": false,
          "internalType": "uint256",
          "name": "ticketid",
          "type": "uint256"
        },
        {
          "indexed": true,
          "internalType": "address",
          "name": "customer",
          "type": "address"
        }
      ],
      "name": "TicketSold",
      "type": "event"
    },
    {
      "anonymous": false,
      "inputs": [
        {
          "indexed": true,
          "internalType": "uint256",
          "name": "eventid",
          "type": "uint256"
        },
        {
          "indexed": true,
          "internalType": "uint256",
          "name": "totalticket",
          "type": "uint256"
        },
        {
          "indexed": true,
          "internalType": "address",
          "name": "creator",
          "type": "address"
        }
      ],
      "name": "TicketsGenerated",
      "type": "event"
    },
    {
      "inputs": [],
      "name": "reseller",
      "outputs": [
        {
          "internalType": "address",
          "name": "",
          "type": "address"
        }
      ],
      "stateMutability": "view",
      "type": "function",
      "constant": true
    },
    {
      "inputs": [
        {
          "internalType": "string",
          "name": "title",
          "type": "string"
        },
        {
          "internalType": "string",
          "name": "luogo",
          "type": "string"
        },
        {
          "internalType": "string",
          "name": "date",
          "type": "string"
        },
        {
          "internalType": "uint256",
          "name": "seats",
          "type": "uint256"
        },
        {
          "internalType": "uint256",
          "name": "price",
          "type": "uint256"
        },
        {
          "internalType": "address",
          "name": "res",
          "type": "address"
        },
        {
          "internalType": "address",
          "name": "val",
          "type": "address"
        }
      ],
      "name": "create_event",
      "outputs": [
        {
          "internalType": "uint256",
          "name": "",
          "type": "uint256"
        }
      ],
      "stateMutability": "nonpayable",
      "type": "function"
    },
    {
      "inputs": [
        {
          "internalType": "uint256",
          "name": "id",
          "type": "uint256"
        }
      ],
      "name": "overrlue_event",
      "outputs": [],
      "stateMutability": "nonpayable",
      "type": "function"
    },
    {
      "inputs": [
        {
          "internalType": "uint256",
          "name": "id",
          "type": "uint256"
        }
      ],
      "name": "finish_event",
      "outputs": [],
      "stateMutability": "nonpayable",
      "type": "function"
    },
    {
      "inputs": [],
      "name": "get_events",
      "outputs": [
        {
          "components": [
            {
              "internalType": "uint256",
              "name": "id",
              "type": "uint256"
            },
            {
              "internalType": "string",
              "name": "title",
              "type": "string"
            },
            {
              "internalType": "string",
              "name": "luogo",
              "type": "string"
            },
            {
              "internalType": "string",
              "name": "date",
              "type": "string"
            },
            {
              "internalType": "uint256",
              "name": "seats",
              "type": "uint256"
            },
            {
              "internalType": "uint256",
              "name": "remaining_tickets",
              "type": "uint256"
            },
            {
              "internalType": "uint256",
              "name": "price",
              "type": "uint256"
            },
            {
              "internalType": "string",
              "name": "state",
              "type": "string"
            },
            {
              "internalType": "address",
              "name": "owner",
              "type": "address"
            }
          ],
          "internalType": "struct Event.EventData[]",
          "name": "",
          "type": "tuple[]"
        }
      ],
      "stateMutability": "view",
      "type": "function",
      "constant": true
    },
    {
      "inputs": [
        {
          "internalType": "uint256",
          "name": "eventid",
          "type": "uint256"
        }
      ],
      "name": "check_ticket",
      "outputs": [
        {
          "internalType": "bool",
          "name": "",
          "type": "bool"
        }
      ],
      "stateMutability": "view",
      "type": "function",
      "constant": true
    },
    {
      "inputs": [
        {
          "internalType": "address",
          "name": "customer",
          "type": "address"
        },
        {
          "internalType": "uint256",
          "name": "eventid",
          "type": "uint256"
        },
        {
          "internalType": "string",
          "name": "name",
          "type": "string"
        },
        {
          "internalType": "string",
          "name": "surname",
          "type": "string"
        }
      ],
      "name": "buy_ticket",
      "outputs": [
        {
          "internalType": "string",
          "name": "",
          "type": "string"
        },
        {
          "internalType": "bool",
          "name": "",
          "type": "bool"
        },
        {
          "internalType": "address",
          "name": "",
          "type": "address"
        }
      ],
      "stateMutability": "nonpayable",
      "type": "function"
    },
    {
      "inputs": [
        {
          "internalType": "uint256",
          "name": "ticketid",
          "type": "uint256"
        },
        {
          "internalType": "address",
          "name": "val",
          "type": "address"
        }
      ],
      "name": "validate_ticket",
      "outputs": [
        {
          "internalType": "string",
          "name": "",
          "type": "string"
        },
        {
          "internalType": "address",
          "name": "",
          "type": "address"
        }
      ],
      "stateMutability": "nonpayable",
      "type": "function"
    },
    {
      "inputs": [],
      "name": "get_tickets",
      "outputs": [
        {
          "components": [
            {
              "internalType": "string",
              "name": "name",
              "type": "string"
            },
            {
              "internalType": "string",
              "name": "surname",
              "type": "string"
            },
            {
              "internalType": "uint256",
              "name": "ticketid",
              "type": "uint256"
            },
            {
              "internalType": "uint256",
              "name": "eventid",
              "type": "uint256"
            },
            {
              "internalType": "bool",
              "name": "sell",
              "type": "bool"
            },
            {
              "internalType": "bool",
              "name": "validate",
              "type": "bool"
            }
          ],
          "internalType": "struct Event.TicketData[]",
          "name": "",
          "type": "tuple[]"
        }
      ],
      "stateMutability": "view",
      "type": "function",
      "constant": true
    },
    {
      "inputs": [
        {
          "internalType": "uint256",
          "name": "eventid",
          "type": "uint256"
        }
      ],
      "name": "get_event_price",
      "outputs": [
        {
          "internalType": "uint256",
          "name": "",
          "type": "uint256"
        }
      ],
      "stateMutability": "view",
      "type": "function",
      "constant": true
    },
    {
      "inputs": [
        {
          "internalType": "uint256",
          "name": "id",
          "type": "uint256"
        }
      ],
      "name": "get_event",
      "outputs": [
        {
          "components": [
            {
              "internalType": "uint256",
              "name": "id",
              "type": "uint256"
            },
            {
              "internalType": "string",
              "name": "title",
              "type": "string"
            },
            {
              "internalType": "string",
              "name": "luogo",
              "type": "string"
            },
            {
              "internalType": "string",
              "name": "date",
              "type": "string"
            },
            {
              "internalType": "uint256",
              "name": "seats",
              "type": "uint256"
            },
            {
              "internalType": "uint256",
              "name": "remaining_tickets",
              "type": "uint256"
            },
            {
              "internalType": "uint256",
              "name": "price",
              "type": "uint256"
            },
            {
              "internalType": "string",
              "name": "state",
              "type": "string"
            },
            {
              "internalType": "address",
              "name": "owner",
              "type": "address"
            }
          ],
          "internalType": "struct Event.EventData",
          "name": "evento",
          "type": "tuple"
        }
      ],
      "stateMutability": "view",
      "type": "function",
      "constant": true
    },
    {
      "inputs": [
        {
          "internalType": "address",
          "name": "r",
          "type": "address"
        }
      ],
      "name": "set_reseller",
      "outputs": [
        {
          "internalType": "string",
          "name": "",
          "type": "string"
        },
        {
          "internalType": "address",
          "name": "",
          "type": "address"
        }
      ],
      "stateMutability": "nonpayable",
      "type": "function"
    },
    {
      "inputs": [
        {
          "internalType": "address",
          "name": "v",
          "type": "address"
        }
      ],
      "name": "set_validator",
      "outputs": [
        {
          "internalType": "string",
          "name": "",
          "type": "string"
        },
        {
          "internalType": "address",
          "name": "",
          "type": "address"
        }
      ],
      "stateMutability": "nonpayable",
      "type": "function"
    },
    {
      "inputs": [],
      "name": "get_balance",
      "outputs": [
        {
          "internalType": "uint256",
          "name": "",
          "type": "uint256"
        }
      ],
      "stateMutability": "view",
      "type": "function",
      "constant": true
    },
    {
      "inputs": [],
      "name": "get_address",
      "outputs": [
        {
          "internalType": "address",
          "name": "",
          "type": "address"
        }
      ],
      "stateMutability": "view",
      "type": "function",
      "constant": true
    }
  ],
  "bytecode": "0x6080604052336000806101000a81548173ffffffffffffffffffffffffffffffffffffffff021916908373ffffffffffffffffffffffffffffffffffffffff16021790555034801561005057600080fd5b506130f0806100606000396000f3fe608060405234801561001057600080fd5b50600436106100f55760003560e01c80635c34a5de11610097578063c1cfb99a11610066578063c1cfb99a146102af578063c74d97cd146102cd578063c9b46fef146102eb578063f06f75cc1461031b576100f5565b80635c34a5de146102155780638c59a08514610245578063957bdf6014610261578063a15cb47b1461027f576100f5565b806330449c80116100d357806330449c801461017a57806338ae8be4146101ab57806347a828b3146101c75780635b3929cb146101f7576100f5565b80630131222f146100fa578063214638cc14610118578063226ee47c14610149575b600080fd5b61010261034d565b60405161010f91906121c5565b60405180910390f35b610132600480360381019061012d9190612256565b610376565b60405161014092919061232f565b60405180910390f35b610163600480360381019061015e919061235f565b610597565b60405161017192919061232f565b60405180910390f35b610194600480360381019061018f919061235f565b6106ce565b6040516101a292919061232f565b60405180910390f35b6101c560048036038101906101c0919061238c565b610805565b005b6101e160048036038101906101dc919061238c565b610969565b6040516101ee91906124fb565b60405180910390f35b6101ff610d0f565b60405161020c91906126b9565b60405180910390f35b61022f600480360381019061022a919061238c565b611035565b60405161023c91906126f6565b60405180910390f35b61025f600480360381019061025a919061238c565b61111d565b005b610269611281565b6040516102769190612872565b60405180910390f35b6102996004803603810190610294919061238c565b6114dc565b6040516102a691906128a3565b60405180910390f35b6102b761150b565b6040516102c491906128a3565b60405180910390f35b6102d561154b565b6040516102e291906121c5565b60405180910390f35b610305600480360381019061030091906129f3565b611571565b60405161031291906128a3565b60405180910390f35b61033560048036038101906103309190612ae9565b611902565b60405161034493929190612b88565b60405180910390f35b60008060009054906101000a900473ffffffffffffffffffffffffffffffffffffffff16905090565b6060600082600260009054906101000a900473ffffffffffffffffffffffffffffffffffffffff1673ffffffffffffffffffffffffffffffffffffffff168173ffffffffffffffffffffffffffffffffffffffff161461040b576040517f08c379a000000000000000000000000000000000000000000000000000000000815260040161040290612c12565b60405180910390fd5b6000805b6104176119cc565b81101561052557866004828154811061043357610432612c32565b5b9060005260206000209060050201600201541480156104885750600015156004828154811061046557610464612c32565b5b906000526020600020906005020160040160019054906101000a900460ff161515145b80156104ca575060011515600482815481106104a7576104a6612c32565b5b906000526020600020906005020160040160009054906101000a900460ff161515145b15610512576001600482815481106104e5576104e4612c32565b5b906000526020600020906005020160040160016101000a81548160ff021916908315150217905550600191505b808061051d90612c90565b91505061040f565b50801561056e57846040518060400160405280601081526020017f4269676c696574746f2076616c69646f0000000000000000000000000000000081525090935093505061058f565b84604051806060016040528060278152602001613094602791399093509350505b509250929050565b606060008060009054906101000a900473ffffffffffffffffffffffffffffffffffffffff1673ffffffffffffffffffffffffffffffffffffffff163373ffffffffffffffffffffffffffffffffffffffff161461062a576040517f08c379a000000000000000000000000000000000000000000000000000000000815260040161062190612d4b565b60405180910390fd5b82600260006101000a81548173ffffffffffffffffffffffffffffffffffffffff021916908373ffffffffffffffffffffffffffffffffffffffff160217905550600260009054906101000a900473ffffffffffffffffffffffffffffffffffffffff166040518060400160405280601381526020017f56616c696461746f7220696d706f737461746f000000000000000000000000008152509091509150915091565b606060008060009054906101000a900473ffffffffffffffffffffffffffffffffffffffff1673ffffffffffffffffffffffffffffffffffffffff163373ffffffffffffffffffffffffffffffffffffffff1614610761576040517f08c379a000000000000000000000000000000000000000000000000000000000815260040161075890612d4b565b60405180910390fd5b82600160006101000a81548173ffffffffffffffffffffffffffffffffffffffff021916908373ffffffffffffffffffffffffffffffffffffffff160217905550600160009054906101000a900473ffffffffffffffffffffffffffffffffffffffff166040518060400160405280601281526020017f526573656c6c657220696d706f737461746f00000000000000000000000000008152509091509150915091565b60008054906101000a900473ffffffffffffffffffffffffffffffffffffffff1673ffffffffffffffffffffffffffffffffffffffff163373ffffffffffffffffffffffffffffffffffffffff1614610893576040517f08c379a000000000000000000000000000000000000000000000000000000000815260040161088a90612d4b565b60405180910390fd5b6040518060400160405280600881526020017f436f6e636c75736f000000000000000000000000000000000000000000000000815250600382815481106108dd576108dc612c32565b5b90600052602060002090600902016007019080519060200190610901929190612045565b5060008054906101000a900473ffffffffffffffffffffffffffffffffffffffff1673ffffffffffffffffffffffffffffffffffffffff16817fb15d3899a0a77e20f0c368865d76be846e277b8cac84cddf244f45748709720a60405160405180910390a350565b6109716120cb565b6109796119d9565b82106109ba576040517f08c379a00000000000000000000000000000000000000000000000000000000081526004016109b190612db7565b60405180910390fd5b60005b6109c56119d9565b811015610d085782600382815481106109e1576109e0612c32565b5b9060005260206000209060090201600001541415610cf55760038181548110610a0d57610a0c612c32565b5b90600052602060002090600902016040518061012001604052908160008201548152602001600182018054610a4190612e06565b80601f0160208091040260200160405190810160405280929190818152602001828054610a6d90612e06565b8015610aba5780601f10610a8f57610100808354040283529160200191610aba565b820191906000526020600020905b815481529060010190602001808311610a9d57829003601f168201915b50505050508152602001600282018054610ad390612e06565b80601f0160208091040260200160405190810160405280929190818152602001828054610aff90612e06565b8015610b4c5780601f10610b2157610100808354040283529160200191610b4c565b820191906000526020600020905b815481529060010190602001808311610b2f57829003601f168201915b50505050508152602001600382018054610b6590612e06565b80601f0160208091040260200160405190810160405280929190818152602001828054610b9190612e06565b8015610bde5780601f10610bb357610100808354040283529160200191610bde565b820191906000526020600020905b815481529060010190602001808311610bc157829003601f168201915b50505050508152602001600482015481526020016005820154815260200160068201548152602001600782018054610c1590612e06565b80601f0160208091040260200160405190810160405280929190818152602001828054610c4190612e06565b8015610c8e5780601f10610c6357610100808354040283529160200191610c8e565b820191906000526020600020905b815481529060010190602001808311610c7157829003601f168201915b505050505081526020016008820160009054906101000a900473ffffffffffffffffffffffffffffffffffffffff1673ffffffffffffffffffffffffffffffffffffffff1673ffffffffffffffffffffffffffffffffffffffff1681525050915050610d0a565b8080610d0090612c90565b9150506109bd565b505b919050565b60606003805480602002602001604051908101604052809291908181526020016000905b8282101561102c57838290600052602060002090600902016040518061012001604052908160008201548152602001600182018054610d7190612e06565b80601f0160208091040260200160405190810160405280929190818152602001828054610d9d90612e06565b8015610dea5780601f10610dbf57610100808354040283529160200191610dea565b820191906000526020600020905b815481529060010190602001808311610dcd57829003601f168201915b50505050508152602001600282018054610e0390612e06565b80601f0160208091040260200160405190810160405280929190818152602001828054610e2f90612e06565b8015610e7c5780601f10610e5157610100808354040283529160200191610e7c565b820191906000526020600020905b815481529060010190602001808311610e5f57829003601f168201915b50505050508152602001600382018054610e9590612e06565b80601f0160208091040260200160405190810160405280929190818152602001828054610ec190612e06565b8015610f0e5780601f10610ee357610100808354040283529160200191610f0e565b820191906000526020600020905b815481529060010190602001808311610ef157829003601f168201915b50505050508152602001600482015481526020016005820154815260200160068201548152602001600782018054610f4590612e06565b80601f0160208091040260200160405190810160405280929190818152602001828054610f7190612e06565b8015610fbe5780601f10610f9357610100808354040283529160200191610fbe565b820191906000526020600020905b815481529060010190602001808311610fa157829003601f168201915b505050505081526020016008820160009054906101000a900473ffffffffffffffffffffffffffffffffffffffff1673ffffffffffffffffffffffffffffffffffffffff1673ffffffffffffffffffffffffffffffffffffffff168152505081526020019060010190610d33565b50505050905090565b60008061104183610969565b905060008160a00151141561105a576000915050611118565b60405160200161106990612e8f565b604051602081830303815290604052805190602001208160e001516040516020016110949190612ed5565b60405160208183030381529060405280519060200120148061110357506040516020016110c090612f38565b604051602081830303815290604052805190602001208160e001516040516020016110eb9190612ed5565b60405160208183030381529060405280519060200120145b15611112576000915050611118565b60019150505b919050565b60008054906101000a900473ffffffffffffffffffffffffffffffffffffffff1673ffffffffffffffffffffffffffffffffffffffff163373ffffffffffffffffffffffffffffffffffffffff16146111ab576040517f08c379a00000000000000000000000000000000000000000000000000000000081526004016111a290612d4b565b60405180910390fd5b6040518060400160405280600981526020017f416e6e756c6c61746f0000000000000000000000000000000000000000000000815250600382815481106111f5576111f4612c32565b5b90600052602060002090600902016007019080519060200190611219929190612045565b5060008054906101000a900473ffffffffffffffffffffffffffffffffffffffff1673ffffffffffffffffffffffffffffffffffffffff16817f9ab588958c126cb0274213719f45aca396603352447383188a81e29c1269029a60405160405180910390a350565b606060008054906101000a900473ffffffffffffffffffffffffffffffffffffffff1673ffffffffffffffffffffffffffffffffffffffff163373ffffffffffffffffffffffffffffffffffffffff1614611311576040517f08c379a000000000000000000000000000000000000000000000000000000000815260040161130890612d4b565b60405180910390fd5b6004805480602002602001604051908101604052809291908181526020016000905b828210156114d357838290600052602060002090600502016040518060c001604052908160008201805461136690612e06565b80601f016020809104026020016040519081016040528092919081815260200182805461139290612e06565b80156113df5780601f106113b4576101008083540402835291602001916113df565b820191906000526020600020905b8154815290600101906020018083116113c257829003601f168201915b505050505081526020016001820180546113f890612e06565b80601f016020809104026020016040519081016040528092919081815260200182805461142490612e06565b80156114715780601f1061144657610100808354040283529160200191611471565b820191906000526020600020905b81548152906001019060200180831161145457829003601f168201915b5050505050815260200160028201548152602001600382015481526020016004820160009054906101000a900460ff161515151581526020016004820160019054906101000a900460ff16151515158152505081526020019060010190611333565b50505050905090565b6000600382815481106114f2576114f1612c32565b5b9060005260206000209060090201600601549050919050565b60008060009054906101000a900473ffffffffffffffffffffffffffffffffffffffff1673ffffffffffffffffffffffffffffffffffffffff1631905090565b600160009054906101000a900473ffffffffffffffffffffffffffffffffffffffff1681565b60008060009054906101000a900473ffffffffffffffffffffffffffffffffffffffff1673ffffffffffffffffffffffffffffffffffffffff163373ffffffffffffffffffffffffffffffffffffffff1614611602576040517f08c379a00000000000000000000000000000000000000000000000000000000081526004016115f990612d4b565b60405180910390fd5b6003604051806101200160405280600081526020018a81526020018981526020018881526020018781526020018781526020018681526020016040518060400160405280600c81526020017f4e6f6e20636f6e636c75736f0000000000000000000000000000000000000000815250815260200160008054906101000a900473ffffffffffffffffffffffffffffffffffffffff1673ffffffffffffffffffffffffffffffffffffffff1681525090806001815401808255809150506001900390600052602060002090600902016000909190919091506000820151816000015560208201518160010190805190602001906116ff929190612045565b50604082015181600201908051906020019061171c929190612045565b506060820151816003019080519060200190611739929190612045565b506080820151816004015560a0820151816005015560c0820151816006015560e0820151816007019080519060200190611774929190612045565b506101008201518160080160006101000a81548173ffffffffffffffffffffffffffffffffffffffff021916908373ffffffffffffffffffffffffffffffffffffffff1602179055505050600060016117cb6119d9565b6117d59190612f4d565b905080600382815481106117ec576117eb612c32565b5b90600052602060002090600902016000018190555060008054906101000a900473ffffffffffffffffffffffffffffffffffffffff1673ffffffffffffffffffffffffffffffffffffffff16817fe43349c008949cf6b65249356e6f918d4aaa0ca79f2b1166df4a4a98c9c16de260405160405180910390a383600160006101000a81548173ffffffffffffffffffffffffffffffffffffffff021916908373ffffffffffffffffffffffffffffffffffffffff16021790555082600260006101000a81548173ffffffffffffffffffffffffffffffffffffffff021916908373ffffffffffffffffffffffffffffffffffffffff1602179055506118f28187866119e6565b5080915050979650505050505050565b6060600080600061191287611c59565b905061192381604001518787611ea9565b5061192d87612007565b8773ffffffffffffffffffffffffffffffffffffffff16877fc41bbb54d04f2268c7895b9330f18468c306a3f92698a92c4c86b29787397848836040015160405161197891906128a3565b60405180910390a36001886040518060400160405280601481526020017f4269676c696574746f206163717569737461746f0000000000000000000000008152509190935093509350509450945094915050565b6000600480549050905090565b6000600380549050905090565b600081600160009054906101000a900473ffffffffffffffffffffffffffffffffffffffff1673ffffffffffffffffffffffffffffffffffffffff168173ffffffffffffffffffffffffffffffffffffffff1614611a79576040517f08c379a0000000000000000000000000000000000000000000000000000000008152600401611a7090612ff3565b60405180910390fd5b60008085611a856119cc565b611a8f9190613013565b90506000611a9b6119cc565b90505b81811015611c065760046040518060c00160405280604051806020016040528060008152508152602001604051806020016040528060008152508152602001600081526020018a81526020016000151581526020016000151581525090806001815401808255809150506001900390600052602060002090600502016000909190919091506000820151816000019080519060200190611b3f929190612045565b506020820151816001019080519060200190611b5c929190612045565b50604082015181600201556060820151816003015560808201518160040160006101000a81548160ff02191690831515021790555060a08201518160040160016101000a81548160ff02191690831515021790555050506001611bbd6119cc565b611bc79190612f4d565b92508260048281548110611bde57611bdd612c32565b5b9060005260206000209060050201600201819055508080611bfe90612c90565b915050611a9e565b508473ffffffffffffffffffffffffffffffffffffffff1686887f6567ab497f12a760d234e0684de86536dce884c904386957d5877e165bfb32fa60405160405180910390a48593505050509392505050565b611c6161212d565b611c6961212d565b60005b611c746119cc565b811015611e9f578360048281548110611c9057611c8f612c32565b5b906000526020600020906005020160030154148015611ce557506000151560048281548110611cc257611cc1612c32565b5b906000526020600020906005020160040160009054906101000a900460ff161515145b15611e8c5760048181548110611cfe57611cfd612c32565b5b90600052602060002090600502016040518060c0016040529081600082018054611d2790612e06565b80601f0160208091040260200160405190810160405280929190818152602001828054611d5390612e06565b8015611da05780601f10611d7557610100808354040283529160200191611da0565b820191906000526020600020905b815481529060010190602001808311611d8357829003601f168201915b50505050508152602001600182018054611db990612e06565b80601f0160208091040260200160405190810160405280929190818152602001828054611de590612e06565b8015611e325780601f10611e0757610100808354040283529160200191611e32565b820191906000526020600020905b815481529060010190602001808311611e1557829003601f168201915b5050505050815260200160028201548152602001600382015481526020016004820160009054906101000a900460ff161515151581526020016004820160019054906101000a900460ff1615151515815250509150611e9f565b8080611e9790612c90565b915050611c6c565b5080915050919050565b6000806000905060005b611ebb6119cc565b811015611ffb578560048281548110611ed757611ed6612c32565b5b906000526020600020906005020160020154148015611f2c57506000151560048281548110611f0957611f08612c32565b5b906000526020600020906005020160040160009054906101000a900460ff161515145b15611fe857600160048281548110611f4757611f46612c32565b5b906000526020600020906005020160040160006101000a81548160ff0219169083151502179055508460048281548110611f8457611f83612c32565b5b90600052602060002090600502016000019080519060200190611fa8929190612045565b508360048281548110611fbe57611fbd612c32565b5b90600052602060002090600502016001019080519060200190611fe2929190612045565b50600191505b8080611ff390612c90565b915050611eb3565b50809150509392505050565b6003818154811061201b5761201a612c32565b5b9060005260206000209060090201600501600081548092919061203d90613069565b919050555050565b82805461205190612e06565b90600052602060002090601f01602090048101928261207357600085556120ba565b82601f1061208c57805160ff19168380011785556120ba565b828001600101855582156120ba579182015b828111156120b957825182559160200191906001019061209e565b5b5090506120c79190612167565b5090565b6040518061012001604052806000815260200160608152602001606081526020016060815260200160008152602001600081526020016000815260200160608152602001600073ffffffffffffffffffffffffffffffffffffffff1681525090565b6040518060c00160405280606081526020016060815260200160008152602001600081526020016000151581526020016000151581525090565b5b80821115612180576000816000905550600101612168565b5090565b600073ffffffffffffffffffffffffffffffffffffffff82169050919050565b60006121af82612184565b9050919050565b6121bf816121a4565b82525050565b60006020820190506121da60008301846121b6565b92915050565b6000604051905090565b600080fd5b600080fd5b6000819050919050565b612207816121f4565b811461221257600080fd5b50565b600081359050612224816121fe565b92915050565b612233816121a4565b811461223e57600080fd5b50565b6000813590506122508161222a565b92915050565b6000806040838503121561226d5761226c6121ea565b5b600061227b85828601612215565b925050602061228c85828601612241565b9150509250929050565b600081519050919050565b600082825260208201905092915050565b60005b838110156122d05780820151818401526020810190506122b5565b838111156122df576000848401525b50505050565b6000601f19601f8301169050919050565b600061230182612296565b61230b81856122a1565b935061231b8185602086016122b2565b612324816122e5565b840191505092915050565b6000604082019050818103600083015261234981856122f6565b905061235860208301846121b6565b9392505050565b600060208284031215612375576123746121ea565b5b600061238384828501612241565b91505092915050565b6000602082840312156123a2576123a16121ea565b5b60006123b084828501612215565b91505092915050565b6123c2816121f4565b82525050565b600082825260208201905092915050565b60006123e482612296565b6123ee81856123c8565b93506123fe8185602086016122b2565b612407816122e5565b840191505092915050565b61241b816121a4565b82525050565b60006101208301600083015161243a60008601826123b9565b506020830151848203602086015261245282826123d9565b9150506040830151848203604086015261246c82826123d9565b9150506060830151848203606086015261248682826123d9565b915050608083015161249b60808601826123b9565b5060a08301516124ae60a08601826123b9565b5060c08301516124c160c08601826123b9565b5060e083015184820360e08601526124d982826123d9565b9150506101008301516124f0610100860182612412565b508091505092915050565b600060208201905081810360008301526125158184612421565b905092915050565b600081519050919050565b600082825260208201905092915050565b6000819050602082019050919050565b60006101208301600083015161256260008601826123b9565b506020830151848203602086015261257a82826123d9565b9150506040830151848203604086015261259482826123d9565b915050606083015184820360608601526125ae82826123d9565b91505060808301516125c360808601826123b9565b5060a08301516125d660a08601826123b9565b5060c08301516125e960c08601826123b9565b5060e083015184820360e086015261260182826123d9565b915050610100830151612618610100860182612412565b508091505092915050565b600061262f8383612549565b905092915050565b6000602082019050919050565b600061264f8261251d565b6126598185612528565b93508360208202850161266b85612539565b8060005b858110156126a757848403895281516126888582612623565b945061269383612637565b925060208a0199505060018101905061266f565b50829750879550505050505092915050565b600060208201905081810360008301526126d38184612644565b905092915050565b60008115159050919050565b6126f0816126db565b82525050565b600060208201905061270b60008301846126e7565b92915050565b600081519050919050565b600082825260208201905092915050565b6000819050602082019050919050565b612746816126db565b82525050565b600060c083016000830151848203600086015261276982826123d9565b9150506020830151848203602086015261278382826123d9565b915050604083015161279860408601826123b9565b5060608301516127ab60608601826123b9565b5060808301516127be608086018261273d565b5060a08301516127d160a086018261273d565b508091505092915050565b60006127e8838361274c565b905092915050565b6000602082019050919050565b600061280882612711565b612812818561271c565b9350836020820285016128248561272d565b8060005b85811015612860578484038952815161284185826127dc565b945061284c836127f0565b925060208a01995050600181019050612828565b50829750879550505050505092915050565b6000602082019050818103600083015261288c81846127fd565b905092915050565b61289d816121f4565b82525050565b60006020820190506128b86000830184612894565b92915050565b600080fd5b600080fd5b7f4e487b7100000000000000000000000000000000000000000000000000000000600052604160045260246000fd5b612900826122e5565b810181811067ffffffffffffffff8211171561291f5761291e6128c8565b5b80604052505050565b60006129326121e0565b905061293e82826128f7565b919050565b600067ffffffffffffffff82111561295e5761295d6128c8565b5b612967826122e5565b9050602081019050919050565b82818337600083830152505050565b600061299661299184612943565b612928565b9050828152602081018484840111156129b2576129b16128c3565b5b6129bd848285612974565b509392505050565b600082601f8301126129da576129d96128be565b5b81356129ea848260208601612983565b91505092915050565b600080600080600080600060e0888a031215612a1257612a116121ea565b5b600088013567ffffffffffffffff811115612a3057612a2f6121ef565b5b612a3c8a828b016129c5565b975050602088013567ffffffffffffffff811115612a5d57612a5c6121ef565b5b612a698a828b016129c5565b965050604088013567ffffffffffffffff811115612a8a57612a896121ef565b5b612a968a828b016129c5565b9550506060612aa78a828b01612215565b9450506080612ab88a828b01612215565b93505060a0612ac98a828b01612241565b92505060c0612ada8a828b01612241565b91505092959891949750929550565b60008060008060808587031215612b0357612b026121ea565b5b6000612b1187828801612241565b9450506020612b2287828801612215565b935050604085013567ffffffffffffffff811115612b4357612b426121ef565b5b612b4f878288016129c5565b925050606085013567ffffffffffffffff811115612b7057612b6f6121ef565b5b612b7c878288016129c5565b91505092959194509250565b60006060820190508181036000830152612ba281866122f6565b9050612bb160208301856126e7565b612bbe60408301846121b6565b949350505050565b7f4e6f6e2073656920696c2076616c696461746f72000000000000000000000000600082015250565b6000612bfc6014836122a1565b9150612c0782612bc6565b602082019050919050565b60006020820190508181036000830152612c2b81612bef565b9050919050565b7f4e487b7100000000000000000000000000000000000000000000000000000000600052603260045260246000fd5b7f4e487b7100000000000000000000000000000000000000000000000000000000600052601160045260246000fd5b6000612c9b826121f4565b91507fffffffffffffffffffffffffffffffffffffffffffffffffffffffffffffffff821415612cce57612ccd612c61565b5b600182019050919050565b7f4e6f6e20736569206175746f72697a7a61746f2061642065736567756972652060008201527f71756573746120617a696f6e6500000000000000000000000000000000000000602082015250565b6000612d35602d836122a1565b9150612d4082612cd9565b604082019050919050565b60006020820190508181036000830152612d6481612d28565b9050919050565b7f4c276576656e746f206e6f6e2065736973746500000000000000000000000000600082015250565b6000612da16013836122a1565b9150612dac82612d6b565b602082019050919050565b60006020820190508181036000830152612dd081612d94565b9050919050565b7f4e487b7100000000000000000000000000000000000000000000000000000000600052602260045260246000fd5b60006002820490506001821680612e1e57607f821691505b60208210811415612e3257612e31612dd7565b5b50919050565b600081905092915050565b7f436f6e636c75736f000000000000000000000000000000000000000000000000600082015250565b6000612e79600883612e38565b9150612e8482612e43565b600882019050919050565b6000612e9a82612e6c565b9150819050919050565b6000612eaf82612296565b612eb98185612e38565b9350612ec98185602086016122b2565b80840191505092915050565b6000612ee18284612ea4565b915081905092915050565b7f416e6e756c6c61746f0000000000000000000000000000000000000000000000600082015250565b6000612f22600983612e38565b9150612f2d82612eec565b600982019050919050565b6000612f4382612f15565b9150819050919050565b6000612f58826121f4565b9150612f63836121f4565b925082821015612f7657612f75612c61565b5b828203905092915050565b7f496c20726573656c6c657220737065636966696361746f20652720657272617460008201527f6f00000000000000000000000000000000000000000000000000000000000000602082015250565b6000612fdd6021836122a1565b9150612fe882612f81565b604082019050919050565b6000602082019050818103600083015261300c81612fd0565b9050919050565b600061301e826121f4565b9150613029836121f4565b9250827fffffffffffffffffffffffffffffffffffffffffffffffffffffffffffffffff0382111561305e5761305d612c61565b5b828201905092915050565b6000613074826121f4565b9150600082141561308857613087612c61565b5b60018203905091905056fe4269676c6974746f20676961272076616c696461746f206f206e6f6e2076616c69646162696c65a26469706673582212202de5b4be2b46e8801f4fefa30254a545b2b1258ae6095c2342dbc5e5e158161d64736f6c63430008090033",
  "immutableReferences": {},
  "source": "// SPDX-License-Identifier: GPL-3.0\r\npragma solidity >=0.7.0 <0.9.0;\r\n\r\n\r\n\r\ncontract Event {\r\n    \r\n    address private owner=msg.sender;\r\n    \r\n    address public reseller;\r\n    \r\n    address private validator;\r\n    \r\n    \r\n    struct EventData{ //event data structure\r\n    \r\n        uint id;\r\n    \r\n        string title;\r\n        \r\n        string luogo;\r\n        \r\n        string date;\r\n        \r\n        uint seats;\r\n        \r\n        uint remaining_tickets;\r\n        \r\n        uint256 price;\r\n        \r\n        string state;\r\n        \r\n        address owner;\r\n    } \r\n    \r\n    \r\n    \r\n    struct TicketData{ //ticket data structure\r\n        \r\n        string name;\r\n        \r\n        string surname;\r\n        \r\n        uint ticketid;\r\n        \r\n        uint eventid;\r\n        \r\n        bool sell;\r\n        \r\n        bool validate;\r\n    }\r\n    \r\n    \r\n    \r\n    EventData[] private events; //all events\r\n    TicketData[] private tickets; //all tickets\r\n    \r\n    modifier only_owner() {\r\n        require(msg.sender == owner, \"Non sei autorizzato ad eseguire questa azione\");\r\n        _;\r\n    }\r\n    \r\n    modifier only_reseller(address res) {\r\n        require(res == reseller, \"Il reseller specificato e' errato\");\r\n        _;\r\n    }\r\n    \r\n    modifier only_validator(address val) {\r\n        require(val == validator, \"Non sei il validator\");\r\n        _;\r\n    }\r\n\r\n    \r\n    event EventCreated(uint indexed eventid, address indexed creator);\r\n    event EventOverrlue(uint indexed eventid, address indexed creator);\r\n    event EventFinished(uint indexed eventid, address indexed creator);\r\n    event TicketsGenerated(uint indexed eventid, uint indexed totalticket, address indexed creator);\r\n    event TicketSold(uint indexed eventid, uint ticketid, address indexed customer);\r\n    \r\n    \r\n    function  create_event(string memory title, string memory  luogo, string memory  date, uint seats, uint256 price, address res, address val) public only_owner returns(uint) {\r\n        {\r\n            events.push(EventData(0, title, luogo,  date, seats, seats, price, \"Non concluso\" , owner));\r\n            uint id=get_event_length() - 1;\r\n            events[id].id=id;\r\n            emit EventCreated(id, owner);\r\n            reseller=res;\r\n            validator=val;\r\n            generate_tickets(id, seats, res);\r\n            return id;\r\n        }\r\n    }\r\n    \r\n    function overrlue_event(uint id) public only_owner {\r\n            events[id].state=\"Annullato\";\r\n            emit EventOverrlue(id, owner);\r\n    }\r\n    \r\n    function finish_event(uint id) public only_owner {\r\n        events[id].state=\"Concluso\";\r\n        emit EventFinished(id, owner);\r\n    }\r\n    \r\n     function get_events() public view returns (EventData[] memory){\r\n         return events;\r\n     } \r\n\r\n\r\n    \r\n    function generate_tickets(uint eventid, uint totalticket , address res) internal only_reseller(res) returns(uint){\r\n        uint ticketid=0;\r\n        uint array_len=get_ticket_lenght()+totalticket;\r\n        for(uint i=get_ticket_lenght(); i < array_len  ; i++){\r\n            tickets.push(TicketData(\"\", \"\", 0, eventid, false, false));\r\n            ticketid=get_ticket_lenght() - 1;\r\n            tickets[i].ticketid=ticketid;\r\n        }\r\n        emit TicketsGenerated(eventid, totalticket , res);\r\n        return totalticket;\r\n    }\r\n    \r\n    function get_event_ticket(uint eventid) internal view returns (TicketData memory){\r\n        TicketData memory biglietto;\r\n        for(uint i=0; i < get_ticket_lenght(); i++){ \r\n            if(tickets[i].eventid==eventid && tickets[i].sell==false){\r\n                biglietto=tickets[i];\r\n                break;\r\n            }\r\n        }\r\n        return biglietto;\r\n    }\r\n    \r\n    function set_ticket_sold(uint ticketid, string memory name, string memory surname) internal returns(bool){\r\n        bool flag=false;\r\n        for(uint i=0; i < get_ticket_lenght(); i++){\r\n            if(tickets[i].ticketid==ticketid && tickets[i].sell==false){\r\n                tickets[i].sell=true;\r\n                tickets[i].name=name;\r\n                tickets[i].surname=surname;\r\n                flag=true;\r\n            }\r\n            \r\n        }\r\n        return flag;\r\n        \r\n    }\r\n    \r\n    function check_ticket(uint eventid) external view returns(bool){\r\n        EventData memory evento= get_event(eventid);\r\n        if(evento.remaining_tickets == 0)\r\n            return false;\r\n        else if(keccak256(abi.encodePacked(evento.state))==keccak256(abi.encodePacked(\"Concluso\")) || keccak256(abi.encodePacked(evento.state))==keccak256(abi.encodePacked(\"Annullato\")) )\r\n            return false;\r\n        else \r\n            return true;\r\n    }\r\n    \r\n    function buy_ticket( address customer, uint eventid, string memory name, string memory surname) external returns(string memory, bool, address){\r\n        TicketData memory biglietto=get_event_ticket(eventid);\r\n        set_ticket_sold(biglietto.ticketid, name, surname);\r\n        reduce_remaining_tickets(eventid);\r\n        emit TicketSold(eventid, biglietto.ticketid, customer);\r\n        return (\"Biglietto acquistato\", true , customer);      \r\n    }\r\n    \r\n    function reduce_remaining_tickets(uint eventid) internal{\r\n        events[eventid].remaining_tickets --;\r\n    }\r\n\r\n\r\n    function validate_ticket(uint ticketid, address val) external only_validator(val)returns(string memory, address){\r\n        bool flag=false;\r\n        for(uint i=0; i < get_ticket_lenght(); i++){\r\n            if(tickets[i].ticketid==ticketid && tickets[i].validate==false && tickets[i].sell==true){\r\n                tickets[i].validate=true;\r\n                flag=true;\r\n            }\r\n        }\r\n        if(flag)\r\n            return(\"Biglietto valido\", val);\r\n        else\r\n            return(\"Biglitto gia' validato o non validabile\", val);\r\n\r\n   }\r\n    /*function set_event_sold(uint ticketid) internal returns (bool){\r\n        bool flag=false;\r\n        for(uint i=0; i < get_ticket_lenght(); i++){\r\n            if(tickets[i].ticketid==ticketid){\r\n                tickets[i].sell=true;\r\n                flag=true;\r\n            }\r\n        }\r\n        return flag;\r\n    } */\r\n    \r\n    \r\n    function get_tickets() public only_owner view returns(TicketData[] memory){\r\n        return tickets;\r\n    }\r\n\r\n    \r\n\r\n    function get_event_price(uint eventid) public view returns(uint) {\r\n        return events[eventid].price;\r\n    }\r\n    /*function delete_event_list(uint id) public only_owner {\r\n        bool deletable=false;\r\n        string memory an=\"Annullato\";\r\n        string memory cn=\"Concluso\";\r\n        for(uint i=0; i < get_event_length(); i++){\r\n            if(keccak256(abi.encodePacked(events[i]))==keccak256(abi.encodePacked(an)))\r\n                deletable=true;\r\n        }\r\n        \r\n        if(deletable)\r\n            delete events;\r\n    } */\r\n  \r\n     \r\n     function get_event(uint id) public view returns(EventData memory evento){\r\n         require(id < get_event_length(), \"L'evento non esiste\");\r\n         for(uint i=0; i < get_event_length(); i++){\r\n             if(events[i].id==id)\r\n                return events[i];\r\n         }\r\n     }\r\n     \r\n     function get_event_length() internal view returns (uint){\r\n         return events.length;\r\n     }\r\n     \r\n     function get_ticket_lenght() internal view returns (uint){\r\n         return tickets.length;\r\n     }\r\n     \r\n     function set_reseller(address r) only_owner public returns(string memory, address){\r\n         reseller=r;\r\n         return(\"Reseller impostato\", reseller);\r\n     }\r\n\r\n     function set_validator(address v) only_owner public returns(string memory, address){\r\n         validator=v;\r\n         return(\"Validator impostato\", validator);\r\n     }\r\n     \r\n     function get_balance() public view returns (uint256){\r\n        return owner.balance;\r\n    }\r\n\r\n    function get_address() public view returns(address){\r\n        return owner;\r\n    }\r\n\r\n    \r\n}  ",
  "sourcePath": "C:\\Users\\Denil\\Desktop\\Progetto cyberesecurity\\Software-Cybersecurity-Project\\contracts\\Event.sol",
  "compiler": {
    "name": "solc",
    "version": "0.8.9+commit.e5eed63a.Emscripten.clang"
  },
  "schemaVersion": "3.4.3",
  "updatedAt": "2021-10-29T16:54:40.395Z",
  "networkType": "ethereum",
  "devdoc": {
    "kind": "dev",
    "methods": {},
    "version": 1
  },
  "userdoc": {
    "kind": "user",
    "methods": {},
    "version": 1
  }
}