{
  "contractName": "Event",
  "abi": [
    {
      "anonymous": false,
      "inputs": [
        {
          "indexed": true,
          "internalType": "uint256",
          "name": "eventid",
          "type": "uint256"
        },
        {
          "indexed": true,
          "internalType": "address",
          "name": "creator",
          "type": "address"
        }
      ],
      "name": "EventCreated",
      "type": "event"
    },
    {
      "anonymous": false,
      "inputs": [
        {
          "indexed": true,
          "internalType": "uint256",
          "name": "eventid",
          "type": "uint256"
        },
        {
          "indexed": true,
          "internalType": "address",
          "name": "creator",
          "type": "address"
        }
      ],
      "name": "EventFinished",
      "type": "event"
    },
    {
      "anonymous": false,
      "inputs": [
        {
          "indexed": true,
          "internalType": "uint256",
          "name": "eventid",
          "type": "uint256"
        },
        {
          "indexed": true,
          "internalType": "address",
          "name": "creator",
          "type": "address"
        }
      ],
      "name": "EventOverrlue",
      "type": "event"
    },
    {
      "anonymous": false,
      "inputs": [
        {
          "indexed": true,
          "internalType": "uint256",
          "name": "eventid",
          "type": "uint256"
        },
        {
          "indexed": false,
          "internalType": "uint256",
          "name": "ticketid",
          "type": "uint256"
        },
        {
          "indexed": true,
          "internalType": "address",
          "name": "customer",
          "type": "address"
        }
      ],
      "name": "TicketSold",
      "type": "event"
    },
    {
      "anonymous": false,
      "inputs": [
        {
          "indexed": true,
          "internalType": "uint256",
          "name": "eventid",
          "type": "uint256"
        },
        {
          "indexed": true,
          "internalType": "uint256",
          "name": "totalticket",
          "type": "uint256"
        },
        {
          "indexed": true,
          "internalType": "address",
          "name": "creator",
          "type": "address"
        }
      ],
      "name": "TicketsGenerated",
      "type": "event"
    },
    {
      "inputs": [],
      "name": "reseller",
      "outputs": [
        {
          "internalType": "address",
          "name": "",
          "type": "address"
        }
      ],
      "stateMutability": "view",
      "type": "function",
      "constant": true
    },
    {
      "inputs": [
        {
          "internalType": "string",
          "name": "title",
          "type": "string"
        },
        {
          "internalType": "string",
          "name": "luogo",
          "type": "string"
        },
        {
          "internalType": "string",
          "name": "date",
          "type": "string"
        },
        {
          "internalType": "uint256",
          "name": "seats",
          "type": "uint256"
        },
        {
          "internalType": "uint256",
          "name": "price",
          "type": "uint256"
        },
        {
          "internalType": "address",
          "name": "res",
          "type": "address"
        }
      ],
      "name": "create_event",
      "outputs": [
        {
          "internalType": "uint256",
          "name": "",
          "type": "uint256"
        }
      ],
      "stateMutability": "nonpayable",
      "type": "function"
    },
    {
      "inputs": [
        {
          "internalType": "uint256",
          "name": "id",
          "type": "uint256"
        }
      ],
      "name": "overrlue_event",
      "outputs": [],
      "stateMutability": "nonpayable",
      "type": "function"
    },
    {
      "inputs": [
        {
          "internalType": "uint256",
          "name": "id",
          "type": "uint256"
        }
      ],
      "name": "finish_event",
      "outputs": [],
      "stateMutability": "nonpayable",
      "type": "function"
    },
    {
      "inputs": [],
      "name": "get_events",
      "outputs": [
        {
          "components": [
            {
              "internalType": "uint256",
              "name": "id",
              "type": "uint256"
            },
            {
              "internalType": "string",
              "name": "title",
              "type": "string"
            },
            {
              "internalType": "string",
              "name": "luogo",
              "type": "string"
            },
            {
              "internalType": "string",
              "name": "date",
              "type": "string"
            },
            {
              "internalType": "uint256",
              "name": "seats",
              "type": "uint256"
            },
            {
              "internalType": "uint256",
              "name": "remaining_tickets",
              "type": "uint256"
            },
            {
              "internalType": "uint256",
              "name": "price",
              "type": "uint256"
            },
            {
              "internalType": "string",
              "name": "state",
              "type": "string"
            },
            {
              "internalType": "address",
              "name": "owner",
              "type": "address"
            }
          ],
          "internalType": "struct Event.EventData[]",
          "name": "",
          "type": "tuple[]"
        }
      ],
      "stateMutability": "view",
      "type": "function",
      "constant": true
    },
    {
      "inputs": [
        {
          "internalType": "uint256",
          "name": "eventid",
          "type": "uint256"
        }
      ],
      "name": "check_ticket",
      "outputs": [
        {
          "internalType": "bool",
          "name": "",
          "type": "bool"
        }
      ],
      "stateMutability": "view",
      "type": "function",
      "constant": true
    },
    {
      "inputs": [
        {
          "internalType": "address",
          "name": "customer",
          "type": "address"
        },
        {
          "internalType": "uint256",
          "name": "eventid",
          "type": "uint256"
        },
        {
          "internalType": "string",
          "name": "name",
          "type": "string"
        },
        {
          "internalType": "string",
          "name": "surname",
          "type": "string"
        }
      ],
      "name": "buy_ticket",
      "outputs": [
        {
          "internalType": "string",
          "name": "",
          "type": "string"
        },
        {
          "internalType": "bool",
          "name": "",
          "type": "bool"
        },
        {
          "internalType": "address",
          "name": "",
          "type": "address"
        }
      ],
      "stateMutability": "nonpayable",
      "type": "function"
    },
    {
      "inputs": [
        {
          "internalType": "uint256",
          "name": "ticketid",
          "type": "uint256"
        },
        {
          "internalType": "address",
          "name": "val",
          "type": "address"
        }
      ],
      "name": "validate_ticket",
      "outputs": [
        {
          "internalType": "string",
          "name": "",
          "type": "string"
        },
        {
          "internalType": "address",
          "name": "",
          "type": "address"
        }
      ],
      "stateMutability": "nonpayable",
      "type": "function"
    },
    {
      "inputs": [],
      "name": "get_tickets",
      "outputs": [
        {
          "components": [
            {
              "internalType": "string",
              "name": "name",
              "type": "string"
            },
            {
              "internalType": "string",
              "name": "surname",
              "type": "string"
            },
            {
              "internalType": "uint256",
              "name": "ticketid",
              "type": "uint256"
            },
            {
              "internalType": "uint256",
              "name": "eventid",
              "type": "uint256"
            },
            {
              "internalType": "bool",
              "name": "sell",
              "type": "bool"
            },
            {
              "internalType": "bool",
              "name": "validate",
              "type": "bool"
            }
          ],
          "internalType": "struct Event.TicketData[]",
          "name": "",
          "type": "tuple[]"
        }
      ],
      "stateMutability": "view",
      "type": "function",
      "constant": true
    },
    {
      "inputs": [
        {
          "internalType": "uint256",
          "name": "eventid",
          "type": "uint256"
        }
      ],
      "name": "get_event_price",
      "outputs": [
        {
          "internalType": "uint256",
          "name": "",
          "type": "uint256"
        }
      ],
      "stateMutability": "view",
      "type": "function",
      "constant": true
    },
    {
      "inputs": [
        {
          "internalType": "uint256",
          "name": "id",
          "type": "uint256"
        }
      ],
      "name": "get_event",
      "outputs": [
        {
          "components": [
            {
              "internalType": "uint256",
              "name": "id",
              "type": "uint256"
            },
            {
              "internalType": "string",
              "name": "title",
              "type": "string"
            },
            {
              "internalType": "string",
              "name": "luogo",
              "type": "string"
            },
            {
              "internalType": "string",
              "name": "date",
              "type": "string"
            },
            {
              "internalType": "uint256",
              "name": "seats",
              "type": "uint256"
            },
            {
              "internalType": "uint256",
              "name": "remaining_tickets",
              "type": "uint256"
            },
            {
              "internalType": "uint256",
              "name": "price",
              "type": "uint256"
            },
            {
              "internalType": "string",
              "name": "state",
              "type": "string"
            },
            {
              "internalType": "address",
              "name": "owner",
              "type": "address"
            }
          ],
          "internalType": "struct Event.EventData",
          "name": "evento",
          "type": "tuple"
        }
      ],
      "stateMutability": "view",
      "type": "function",
      "constant": true
    },
    {
      "inputs": [
        {
          "internalType": "address",
          "name": "r",
          "type": "address"
        }
      ],
      "name": "set_reseller",
      "outputs": [
        {
          "internalType": "string",
          "name": "",
          "type": "string"
        },
        {
          "internalType": "address",
          "name": "",
          "type": "address"
        }
      ],
      "stateMutability": "nonpayable",
      "type": "function"
    },
    {
      "inputs": [
        {
          "internalType": "address",
          "name": "v",
          "type": "address"
        }
      ],
      "name": "set_validator",
      "outputs": [
        {
          "internalType": "string",
          "name": "",
          "type": "string"
        },
        {
          "internalType": "address",
          "name": "",
          "type": "address"
        }
      ],
      "stateMutability": "nonpayable",
      "type": "function"
    },
    {
      "inputs": [],
      "name": "get_balance",
      "outputs": [
        {
          "internalType": "uint256",
          "name": "",
          "type": "uint256"
        }
      ],
      "stateMutability": "view",
      "type": "function",
      "constant": true
    },
    {
      "inputs": [],
      "name": "get_address",
      "outputs": [
        {
          "internalType": "address",
          "name": "",
          "type": "address"
        }
      ],
      "stateMutability": "view",
      "type": "function",
      "constant": true
    }
  ],
  "bytecode": "0x6080604052336000806101000a81548173ffffffffffffffffffffffffffffffffffffffff021916908373ffffffffffffffffffffffffffffffffffffffff16021790555034801561005057600080fd5b50613058806100606000396000f3fe608060405234801561001057600080fd5b50600436106100f55760003560e01c80635c34a5de11610097578063c1cfb99a11610066578063c1cfb99a146102af578063c74d97cd146102cd578063c91e2dcf146102eb578063f06f75cc1461031b576100f5565b80635c34a5de146102155780638c59a08514610245578063957bdf6014610261578063a15cb47b1461027f576100f5565b806330449c80116100d357806330449c801461017a57806338ae8be4146101ab57806347a828b3146101c75780635b3929cb146101f7576100f5565b80630131222f146100fa578063214638cc14610118578063226ee47c14610149575b600080fd5b61010261034d565b60405161010f9190612142565b60405180910390f35b610132600480360381019061012d91906121d3565b610376565b6040516101409291906122ac565b60405180910390f35b610163600480360381019061015e91906122dc565b610597565b6040516101719291906122ac565b60405180910390f35b610194600480360381019061018f91906122dc565b6106ce565b6040516101a29291906122ac565b60405180910390f35b6101c560048036038101906101c09190612309565b610805565b005b6101e160048036038101906101dc9190612309565b610969565b6040516101ee9190612478565b60405180910390f35b6101ff610d0f565b60405161020c9190612636565b60405180910390f35b61022f600480360381019061022a9190612309565b611035565b60405161023c9190612673565b60405180910390f35b61025f600480360381019061025a9190612309565b61111d565b005b610269611281565b60405161027691906127ef565b60405180910390f35b61029960048036038101906102949190612309565b6114dc565b6040516102a69190612820565b60405180910390f35b6102b761150b565b6040516102c49190612820565b60405180910390f35b6102d561154b565b6040516102e29190612142565b60405180910390f35b61030560048036038101906103009190612970565b611571565b6040516103129190612820565b60405180910390f35b61033560048036038101906103309190612a51565b61187f565b60405161034493929190612af0565b60405180910390f35b60008060009054906101000a900473ffffffffffffffffffffffffffffffffffffffff16905090565b6060600082600260009054906101000a900473ffffffffffffffffffffffffffffffffffffffff1673ffffffffffffffffffffffffffffffffffffffff168173ffffffffffffffffffffffffffffffffffffffff161461040b576040517f08c379a000000000000000000000000000000000000000000000000000000000815260040161040290612b7a565b60405180910390fd5b6000805b610417611949565b81101561052557866004828154811061043357610432612b9a565b5b9060005260206000209060050201600201541480156104885750600015156004828154811061046557610464612b9a565b5b906000526020600020906005020160040160019054906101000a900460ff161515145b80156104ca575060011515600482815481106104a7576104a6612b9a565b5b906000526020600020906005020160040160009054906101000a900460ff161515145b15610512576001600482815481106104e5576104e4612b9a565b5b906000526020600020906005020160040160016101000a81548160ff021916908315150217905550600191505b808061051d90612bf8565b91505061040f565b50801561056e57846040518060400160405280601081526020017f4269676c696574746f2076616c69646f0000000000000000000000000000000081525090935093505061058f565b84604051806060016040528060278152602001612ffc602791399093509350505b509250929050565b606060008060009054906101000a900473ffffffffffffffffffffffffffffffffffffffff1673ffffffffffffffffffffffffffffffffffffffff163373ffffffffffffffffffffffffffffffffffffffff161461062a576040517f08c379a000000000000000000000000000000000000000000000000000000000815260040161062190612cb3565b60405180910390fd5b82600260006101000a81548173ffffffffffffffffffffffffffffffffffffffff021916908373ffffffffffffffffffffffffffffffffffffffff160217905550600260009054906101000a900473ffffffffffffffffffffffffffffffffffffffff166040518060400160405280601381526020017f56616c696461746f7220696d706f737461746f000000000000000000000000008152509091509150915091565b606060008060009054906101000a900473ffffffffffffffffffffffffffffffffffffffff1673ffffffffffffffffffffffffffffffffffffffff163373ffffffffffffffffffffffffffffffffffffffff1614610761576040517f08c379a000000000000000000000000000000000000000000000000000000000815260040161075890612cb3565b60405180910390fd5b82600160006101000a81548173ffffffffffffffffffffffffffffffffffffffff021916908373ffffffffffffffffffffffffffffffffffffffff160217905550600160009054906101000a900473ffffffffffffffffffffffffffffffffffffffff166040518060400160405280601281526020017f526573656c6c657220696d706f737461746f00000000000000000000000000008152509091509150915091565b60008054906101000a900473ffffffffffffffffffffffffffffffffffffffff1673ffffffffffffffffffffffffffffffffffffffff163373ffffffffffffffffffffffffffffffffffffffff1614610893576040517f08c379a000000000000000000000000000000000000000000000000000000000815260040161088a90612cb3565b60405180910390fd5b6040518060400160405280600881526020017f436f6e636c75736f000000000000000000000000000000000000000000000000815250600382815481106108dd576108dc612b9a565b5b90600052602060002090600902016007019080519060200190610901929190611fc2565b5060008054906101000a900473ffffffffffffffffffffffffffffffffffffffff1673ffffffffffffffffffffffffffffffffffffffff16817fb15d3899a0a77e20f0c368865d76be846e277b8cac84cddf244f45748709720a60405160405180910390a350565b610971612048565b610979611956565b82106109ba576040517f08c379a00000000000000000000000000000000000000000000000000000000081526004016109b190612d1f565b60405180910390fd5b60005b6109c5611956565b811015610d085782600382815481106109e1576109e0612b9a565b5b9060005260206000209060090201600001541415610cf55760038181548110610a0d57610a0c612b9a565b5b90600052602060002090600902016040518061012001604052908160008201548152602001600182018054610a4190612d6e565b80601f0160208091040260200160405190810160405280929190818152602001828054610a6d90612d6e565b8015610aba5780601f10610a8f57610100808354040283529160200191610aba565b820191906000526020600020905b815481529060010190602001808311610a9d57829003601f168201915b50505050508152602001600282018054610ad390612d6e565b80601f0160208091040260200160405190810160405280929190818152602001828054610aff90612d6e565b8015610b4c5780601f10610b2157610100808354040283529160200191610b4c565b820191906000526020600020905b815481529060010190602001808311610b2f57829003601f168201915b50505050508152602001600382018054610b6590612d6e565b80601f0160208091040260200160405190810160405280929190818152602001828054610b9190612d6e565b8015610bde5780601f10610bb357610100808354040283529160200191610bde565b820191906000526020600020905b815481529060010190602001808311610bc157829003601f168201915b50505050508152602001600482015481526020016005820154815260200160068201548152602001600782018054610c1590612d6e565b80601f0160208091040260200160405190810160405280929190818152602001828054610c4190612d6e565b8015610c8e5780601f10610c6357610100808354040283529160200191610c8e565b820191906000526020600020905b815481529060010190602001808311610c7157829003601f168201915b505050505081526020016008820160009054906101000a900473ffffffffffffffffffffffffffffffffffffffff1673ffffffffffffffffffffffffffffffffffffffff1673ffffffffffffffffffffffffffffffffffffffff1681525050915050610d0a565b8080610d0090612bf8565b9150506109bd565b505b919050565b60606003805480602002602001604051908101604052809291908181526020016000905b8282101561102c57838290600052602060002090600902016040518061012001604052908160008201548152602001600182018054610d7190612d6e565b80601f0160208091040260200160405190810160405280929190818152602001828054610d9d90612d6e565b8015610dea5780601f10610dbf57610100808354040283529160200191610dea565b820191906000526020600020905b815481529060010190602001808311610dcd57829003601f168201915b50505050508152602001600282018054610e0390612d6e565b80601f0160208091040260200160405190810160405280929190818152602001828054610e2f90612d6e565b8015610e7c5780601f10610e5157610100808354040283529160200191610e7c565b820191906000526020600020905b815481529060010190602001808311610e5f57829003601f168201915b50505050508152602001600382018054610e9590612d6e565b80601f0160208091040260200160405190810160405280929190818152602001828054610ec190612d6e565b8015610f0e5780601f10610ee357610100808354040283529160200191610f0e565b820191906000526020600020905b815481529060010190602001808311610ef157829003601f168201915b50505050508152602001600482015481526020016005820154815260200160068201548152602001600782018054610f4590612d6e565b80601f0160208091040260200160405190810160405280929190818152602001828054610f7190612d6e565b8015610fbe5780601f10610f9357610100808354040283529160200191610fbe565b820191906000526020600020905b815481529060010190602001808311610fa157829003601f168201915b505050505081526020016008820160009054906101000a900473ffffffffffffffffffffffffffffffffffffffff1673ffffffffffffffffffffffffffffffffffffffff1673ffffffffffffffffffffffffffffffffffffffff168152505081526020019060010190610d33565b50505050905090565b60008061104183610969565b905060008160a00151141561105a576000915050611118565b60405160200161106990612df7565b604051602081830303815290604052805190602001208160e001516040516020016110949190612e3d565b60405160208183030381529060405280519060200120148061110357506040516020016110c090612ea0565b604051602081830303815290604052805190602001208160e001516040516020016110eb9190612e3d565b60405160208183030381529060405280519060200120145b15611112576000915050611118565b60019150505b919050565b60008054906101000a900473ffffffffffffffffffffffffffffffffffffffff1673ffffffffffffffffffffffffffffffffffffffff163373ffffffffffffffffffffffffffffffffffffffff16146111ab576040517f08c379a00000000000000000000000000000000000000000000000000000000081526004016111a290612cb3565b60405180910390fd5b6040518060400160405280600981526020017f416e6e756c6c61746f0000000000000000000000000000000000000000000000815250600382815481106111f5576111f4612b9a565b5b90600052602060002090600902016007019080519060200190611219929190611fc2565b5060008054906101000a900473ffffffffffffffffffffffffffffffffffffffff1673ffffffffffffffffffffffffffffffffffffffff16817f9ab588958c126cb0274213719f45aca396603352447383188a81e29c1269029a60405160405180910390a350565b606060008054906101000a900473ffffffffffffffffffffffffffffffffffffffff1673ffffffffffffffffffffffffffffffffffffffff163373ffffffffffffffffffffffffffffffffffffffff1614611311576040517f08c379a000000000000000000000000000000000000000000000000000000000815260040161130890612cb3565b60405180910390fd5b6004805480602002602001604051908101604052809291908181526020016000905b828210156114d357838290600052602060002090600502016040518060c001604052908160008201805461136690612d6e565b80601f016020809104026020016040519081016040528092919081815260200182805461139290612d6e565b80156113df5780601f106113b4576101008083540402835291602001916113df565b820191906000526020600020905b8154815290600101906020018083116113c257829003601f168201915b505050505081526020016001820180546113f890612d6e565b80601f016020809104026020016040519081016040528092919081815260200182805461142490612d6e565b80156114715780601f1061144657610100808354040283529160200191611471565b820191906000526020600020905b81548152906001019060200180831161145457829003601f168201915b5050505050815260200160028201548152602001600382015481526020016004820160009054906101000a900460ff161515151581526020016004820160019054906101000a900460ff16151515158152505081526020019060010190611333565b50505050905090565b6000600382815481106114f2576114f1612b9a565b5b9060005260206000209060090201600601549050919050565b60008060009054906101000a900473ffffffffffffffffffffffffffffffffffffffff1673ffffffffffffffffffffffffffffffffffffffff1631905090565b600160009054906101000a900473ffffffffffffffffffffffffffffffffffffffff1681565b60008060009054906101000a900473ffffffffffffffffffffffffffffffffffffffff1673ffffffffffffffffffffffffffffffffffffffff163373ffffffffffffffffffffffffffffffffffffffff1614611602576040517f08c379a00000000000000000000000000000000000000000000000000000000081526004016115f990612cb3565b60405180910390fd5b6003604051806101200160405280600081526020018981526020018881526020018781526020018681526020018681526020018581526020016040518060400160405280600c81526020017f4e6f6e20636f6e636c75736f0000000000000000000000000000000000000000815250815260200160008054906101000a900473ffffffffffffffffffffffffffffffffffffffff1673ffffffffffffffffffffffffffffffffffffffff1681525090806001815401808255809150506001900390600052602060002090600902016000909190919091506000820151816000015560208201518160010190805190602001906116ff929190611fc2565b50604082015181600201908051906020019061171c929190611fc2565b506060820151816003019080519060200190611739929190611fc2565b506080820151816004015560a0820151816005015560c0820151816006015560e0820151816007019080519060200190611774929190611fc2565b506101008201518160080160006101000a81548173ffffffffffffffffffffffffffffffffffffffff021916908373ffffffffffffffffffffffffffffffffffffffff1602179055505050600060016117cb611956565b6117d59190612eb5565b905080600382815481106117ec576117eb612b9a565b5b90600052602060002090600902016000018190555060008054906101000a900473ffffffffffffffffffffffffffffffffffffffff1673ffffffffffffffffffffffffffffffffffffffff16817fe43349c008949cf6b65249356e6f918d4aaa0ca79f2b1166df4a4a98c9c16de260405160405180910390a3611870818685611963565b50809150509695505050505050565b6060600080600061188f87611bd6565b90506118a081604001518787611e26565b506118aa87611f84565b8773ffffffffffffffffffffffffffffffffffffffff16877fc41bbb54d04f2268c7895b9330f18468c306a3f92698a92c4c86b2978739784883604001516040516118f59190612820565b60405180910390a36001886040518060400160405280601481526020017f4269676c696574746f206163717569737461746f0000000000000000000000008152509190935093509350509450945094915050565b6000600480549050905090565b6000600380549050905090565b600081600160009054906101000a900473ffffffffffffffffffffffffffffffffffffffff1673ffffffffffffffffffffffffffffffffffffffff168173ffffffffffffffffffffffffffffffffffffffff16146119f6576040517f08c379a00000000000000000000000000000000000000000000000000000000081526004016119ed90612f5b565b60405180910390fd5b60008085611a02611949565b611a0c9190612f7b565b90506000611a18611949565b90505b81811015611b835760046040518060c00160405280604051806020016040528060008152508152602001604051806020016040528060008152508152602001600081526020018a81526020016000151581526020016000151581525090806001815401808255809150506001900390600052602060002090600502016000909190919091506000820151816000019080519060200190611abc929190611fc2565b506020820151816001019080519060200190611ad9929190611fc2565b50604082015181600201556060820151816003015560808201518160040160006101000a81548160ff02191690831515021790555060a08201518160040160016101000a81548160ff02191690831515021790555050506001611b3a611949565b611b449190612eb5565b92508260048281548110611b5b57611b5a612b9a565b5b9060005260206000209060050201600201819055508080611b7b90612bf8565b915050611a1b565b508473ffffffffffffffffffffffffffffffffffffffff1686887f6567ab497f12a760d234e0684de86536dce884c904386957d5877e165bfb32fa60405160405180910390a48593505050509392505050565b611bde6120aa565b611be66120aa565b60005b611bf1611949565b811015611e1c578360048281548110611c0d57611c0c612b9a565b5b906000526020600020906005020160030154148015611c6257506000151560048281548110611c3f57611c3e612b9a565b5b906000526020600020906005020160040160009054906101000a900460ff161515145b15611e095760048181548110611c7b57611c7a612b9a565b5b90600052602060002090600502016040518060c0016040529081600082018054611ca490612d6e565b80601f0160208091040260200160405190810160405280929190818152602001828054611cd090612d6e565b8015611d1d5780601f10611cf257610100808354040283529160200191611d1d565b820191906000526020600020905b815481529060010190602001808311611d0057829003601f168201915b50505050508152602001600182018054611d3690612d6e565b80601f0160208091040260200160405190810160405280929190818152602001828054611d6290612d6e565b8015611daf5780601f10611d8457610100808354040283529160200191611daf565b820191906000526020600020905b815481529060010190602001808311611d9257829003601f168201915b5050505050815260200160028201548152602001600382015481526020016004820160009054906101000a900460ff161515151581526020016004820160019054906101000a900460ff1615151515815250509150611e1c565b8080611e1490612bf8565b915050611be9565b5080915050919050565b6000806000905060005b611e38611949565b811015611f78578560048281548110611e5457611e53612b9a565b5b906000526020600020906005020160020154148015611ea957506000151560048281548110611e8657611e85612b9a565b5b906000526020600020906005020160040160009054906101000a900460ff161515145b15611f6557600160048281548110611ec457611ec3612b9a565b5b906000526020600020906005020160040160006101000a81548160ff0219169083151502179055508460048281548110611f0157611f00612b9a565b5b90600052602060002090600502016000019080519060200190611f25929190611fc2565b508360048281548110611f3b57611f3a612b9a565b5b90600052602060002090600502016001019080519060200190611f5f929190611fc2565b50600191505b8080611f7090612bf8565b915050611e30565b50809150509392505050565b60038181548110611f9857611f97612b9a565b5b90600052602060002090600902016005016000815480929190611fba90612fd1565b919050555050565b828054611fce90612d6e565b90600052602060002090601f016020900481019282611ff05760008555612037565b82601f1061200957805160ff1916838001178555612037565b82800160010185558215612037579182015b8281111561203657825182559160200191906001019061201b565b5b50905061204491906120e4565b5090565b6040518061012001604052806000815260200160608152602001606081526020016060815260200160008152602001600081526020016000815260200160608152602001600073ffffffffffffffffffffffffffffffffffffffff1681525090565b6040518060c00160405280606081526020016060815260200160008152602001600081526020016000151581526020016000151581525090565b5b808211156120fd5760008160009055506001016120e5565b5090565b600073ffffffffffffffffffffffffffffffffffffffff82169050919050565b600061212c82612101565b9050919050565b61213c81612121565b82525050565b60006020820190506121576000830184612133565b92915050565b6000604051905090565b600080fd5b600080fd5b6000819050919050565b61218481612171565b811461218f57600080fd5b50565b6000813590506121a18161217b565b92915050565b6121b081612121565b81146121bb57600080fd5b50565b6000813590506121cd816121a7565b92915050565b600080604083850312156121ea576121e9612167565b5b60006121f885828601612192565b9250506020612209858286016121be565b9150509250929050565b600081519050919050565b600082825260208201905092915050565b60005b8381101561224d578082015181840152602081019050612232565b8381111561225c576000848401525b50505050565b6000601f19601f8301169050919050565b600061227e82612213565b612288818561221e565b935061229881856020860161222f565b6122a181612262565b840191505092915050565b600060408201905081810360008301526122c68185612273565b90506122d56020830184612133565b9392505050565b6000602082840312156122f2576122f1612167565b5b6000612300848285016121be565b91505092915050565b60006020828403121561231f5761231e612167565b5b600061232d84828501612192565b91505092915050565b61233f81612171565b82525050565b600082825260208201905092915050565b600061236182612213565b61236b8185612345565b935061237b81856020860161222f565b61238481612262565b840191505092915050565b61239881612121565b82525050565b6000610120830160008301516123b76000860182612336565b50602083015184820360208601526123cf8282612356565b915050604083015184820360408601526123e98282612356565b915050606083015184820360608601526124038282612356565b91505060808301516124186080860182612336565b5060a083015161242b60a0860182612336565b5060c083015161243e60c0860182612336565b5060e083015184820360e08601526124568282612356565b91505061010083015161246d61010086018261238f565b508091505092915050565b60006020820190508181036000830152612492818461239e565b905092915050565b600081519050919050565b600082825260208201905092915050565b6000819050602082019050919050565b6000610120830160008301516124df6000860182612336565b50602083015184820360208601526124f78282612356565b915050604083015184820360408601526125118282612356565b9150506060830151848203606086015261252b8282612356565b91505060808301516125406080860182612336565b5060a083015161255360a0860182612336565b5060c083015161256660c0860182612336565b5060e083015184820360e086015261257e8282612356565b91505061010083015161259561010086018261238f565b508091505092915050565b60006125ac83836124c6565b905092915050565b6000602082019050919050565b60006125cc8261249a565b6125d681856124a5565b9350836020820285016125e8856124b6565b8060005b85811015612624578484038952815161260585826125a0565b9450612610836125b4565b925060208a019950506001810190506125ec565b50829750879550505050505092915050565b6000602082019050818103600083015261265081846125c1565b905092915050565b60008115159050919050565b61266d81612658565b82525050565b60006020820190506126886000830184612664565b92915050565b600081519050919050565b600082825260208201905092915050565b6000819050602082019050919050565b6126c381612658565b82525050565b600060c08301600083015184820360008601526126e68282612356565b915050602083015184820360208601526127008282612356565b91505060408301516127156040860182612336565b5060608301516127286060860182612336565b50608083015161273b60808601826126ba565b5060a083015161274e60a08601826126ba565b508091505092915050565b600061276583836126c9565b905092915050565b6000602082019050919050565b60006127858261268e565b61278f8185612699565b9350836020820285016127a1856126aa565b8060005b858110156127dd57848403895281516127be8582612759565b94506127c98361276d565b925060208a019950506001810190506127a5565b50829750879550505050505092915050565b60006020820190508181036000830152612809818461277a565b905092915050565b61281a81612171565b82525050565b60006020820190506128356000830184612811565b92915050565b600080fd5b600080fd5b7f4e487b7100000000000000000000000000000000000000000000000000000000600052604160045260246000fd5b61287d82612262565b810181811067ffffffffffffffff8211171561289c5761289b612845565b5b80604052505050565b60006128af61215d565b90506128bb8282612874565b919050565b600067ffffffffffffffff8211156128db576128da612845565b5b6128e482612262565b9050602081019050919050565b82818337600083830152505050565b600061291361290e846128c0565b6128a5565b90508281526020810184848401111561292f5761292e612840565b5b61293a8482856128f1565b509392505050565b600082601f8301126129575761295661283b565b5b8135612967848260208601612900565b91505092915050565b60008060008060008060c0878903121561298d5761298c612167565b5b600087013567ffffffffffffffff8111156129ab576129aa61216c565b5b6129b789828a01612942565b965050602087013567ffffffffffffffff8111156129d8576129d761216c565b5b6129e489828a01612942565b955050604087013567ffffffffffffffff811115612a0557612a0461216c565b5b612a1189828a01612942565b9450506060612a2289828a01612192565b9350506080612a3389828a01612192565b92505060a0612a4489828a016121be565b9150509295509295509295565b60008060008060808587031215612a6b57612a6a612167565b5b6000612a79878288016121be565b9450506020612a8a87828801612192565b935050604085013567ffffffffffffffff811115612aab57612aaa61216c565b5b612ab787828801612942565b925050606085013567ffffffffffffffff811115612ad857612ad761216c565b5b612ae487828801612942565b91505092959194509250565b60006060820190508181036000830152612b0a8186612273565b9050612b196020830185612664565b612b266040830184612133565b949350505050565b7f4e6f6e2073656920696c2076616c696461746f72000000000000000000000000600082015250565b6000612b6460148361221e565b9150612b6f82612b2e565b602082019050919050565b60006020820190508181036000830152612b9381612b57565b9050919050565b7f4e487b7100000000000000000000000000000000000000000000000000000000600052603260045260246000fd5b7f4e487b7100000000000000000000000000000000000000000000000000000000600052601160045260246000fd5b6000612c0382612171565b91507fffffffffffffffffffffffffffffffffffffffffffffffffffffffffffffffff821415612c3657612c35612bc9565b5b600182019050919050565b7f4e6f6e20736569206175746f72697a7a61746f2061642065736567756972652060008201527f71756573746120617a696f6e6500000000000000000000000000000000000000602082015250565b6000612c9d602d8361221e565b9150612ca882612c41565b604082019050919050565b60006020820190508181036000830152612ccc81612c90565b9050919050565b7f4c276576656e746f206e6f6e2065736973746500000000000000000000000000600082015250565b6000612d0960138361221e565b9150612d1482612cd3565b602082019050919050565b60006020820190508181036000830152612d3881612cfc565b9050919050565b7f4e487b7100000000000000000000000000000000000000000000000000000000600052602260045260246000fd5b60006002820490506001821680612d8657607f821691505b60208210811415612d9a57612d99612d3f565b5b50919050565b600081905092915050565b7f436f6e636c75736f000000000000000000000000000000000000000000000000600082015250565b6000612de1600883612da0565b9150612dec82612dab565b600882019050919050565b6000612e0282612dd4565b9150819050919050565b6000612e1782612213565b612e218185612da0565b9350612e3181856020860161222f565b80840191505092915050565b6000612e498284612e0c565b915081905092915050565b7f416e6e756c6c61746f0000000000000000000000000000000000000000000000600082015250565b6000612e8a600983612da0565b9150612e9582612e54565b600982019050919050565b6000612eab82612e7d565b9150819050919050565b6000612ec082612171565b9150612ecb83612171565b925082821015612ede57612edd612bc9565b5b828203905092915050565b7f496c20726573656c6c657220737065636966696361746f20652720657272617460008201527f6f00000000000000000000000000000000000000000000000000000000000000602082015250565b6000612f4560218361221e565b9150612f5082612ee9565b604082019050919050565b60006020820190508181036000830152612f7481612f38565b9050919050565b6000612f8682612171565b9150612f9183612171565b9250827fffffffffffffffffffffffffffffffffffffffffffffffffffffffffffffffff03821115612fc657612fc5612bc9565b5b828201905092915050565b6000612fdc82612171565b91506000821415612ff057612fef612bc9565b5b60018203905091905056fe4269676c6974746f20676961272076616c696461746f206f206e6f6e2076616c69646162696c65a26469706673582212207141ba72e005466adcf779a021075a95e6ccbc8b002a06f918f4a58bae53328764736f6c63430008090033",
  "immutableReferences": {},
  "source": "// SPDX-License-Identifier: GPL-3.0\r\npragma solidity >=0.7.0 <0.9.0;\r\n\r\n\r\n\r\ncontract Event {\r\n    \r\n    address private owner=msg.sender;\r\n    \r\n    address public reseller;\r\n    \r\n    address private validator;\r\n    \r\n    \r\n    struct EventData{ //event data structure\r\n    \r\n        uint id;\r\n    \r\n        string title;\r\n        \r\n        string luogo;\r\n        \r\n        string date;\r\n        \r\n        uint seats;\r\n        \r\n        uint remaining_tickets;\r\n        \r\n        uint256 price;\r\n        \r\n        string state;\r\n        \r\n        address owner;\r\n    } \r\n    \r\n    \r\n    \r\n    struct TicketData{ //ticket data structure\r\n        \r\n        string name;\r\n        \r\n        string surname;\r\n        \r\n        uint ticketid;\r\n        \r\n        uint eventid;\r\n        \r\n        bool sell;\r\n        \r\n        bool validate;\r\n    }\r\n    \r\n    \r\n    \r\n    EventData[] private events; //all events\r\n    TicketData[] private tickets; //all tickets\r\n    \r\n    modifier only_owner() {\r\n        require(msg.sender == owner, \"Non sei autorizzato ad eseguire questa azione\");\r\n        _;\r\n    }\r\n    \r\n    modifier only_reseller(address res) {\r\n        require(res == reseller, \"Il reseller specificato e' errato\");\r\n        _;\r\n    }\r\n    \r\n    modifier only_validator(address val) {\r\n        require(val == validator, \"Non sei il validator\");\r\n        _;\r\n    }\r\n\r\n    \r\n    event EventCreated(uint indexed eventid, address indexed creator);\r\n    event EventOverrlue(uint indexed eventid, address indexed creator);\r\n    event EventFinished(uint indexed eventid, address indexed creator);\r\n    event TicketsGenerated(uint indexed eventid, uint indexed totalticket, address indexed creator);\r\n    event TicketSold(uint indexed eventid, uint ticketid, address indexed customer);\r\n    \r\n    \r\n    function  create_event(string memory title, string memory  luogo, string memory  date, uint seats, uint256 price, address res) public only_owner returns(uint) {\r\n        {\r\n            events.push(EventData(0, title, luogo,  date, seats, seats, price, \"Non concluso\" , owner));\r\n            uint id=get_event_length() - 1;\r\n            events[id].id=id;\r\n            emit EventCreated(id, owner);\r\n            generate_tickets(id, seats, res);\r\n            return id;\r\n        }\r\n    }\r\n    \r\n    function overrlue_event(uint id) public only_owner {\r\n            events[id].state=\"Annullato\";\r\n            emit EventOverrlue(id, owner);\r\n    }\r\n    \r\n    function finish_event(uint id) public only_owner {\r\n        events[id].state=\"Concluso\";\r\n        emit EventFinished(id, owner);\r\n    }\r\n    \r\n     function get_events() public view returns (EventData[] memory){\r\n         return events;\r\n     } \r\n\r\n\r\n    \r\n    function generate_tickets(uint eventid, uint totalticket , address res) internal only_reseller(res) returns(uint){\r\n        uint ticketid=0;\r\n        uint array_len=get_ticket_lenght()+totalticket;\r\n        for(uint i=get_ticket_lenght(); i < array_len  ; i++){\r\n            tickets.push(TicketData(\"\", \"\", 0, eventid, false, false));\r\n            ticketid=get_ticket_lenght() - 1;\r\n            tickets[i].ticketid=ticketid;\r\n        }\r\n        emit TicketsGenerated(eventid, totalticket , res);\r\n        return totalticket;\r\n    }\r\n    \r\n    function get_event_ticket(uint eventid) internal view returns (TicketData memory){\r\n        TicketData memory biglietto;\r\n        for(uint i=0; i < get_ticket_lenght(); i++){ \r\n            if(tickets[i].eventid==eventid && tickets[i].sell==false){\r\n                biglietto=tickets[i];\r\n                break;\r\n            }\r\n        }\r\n        return biglietto;\r\n    }\r\n    \r\n    function set_ticket_sold(uint ticketid, string memory name, string memory surname) internal returns(bool){\r\n        bool flag=false;\r\n        for(uint i=0; i < get_ticket_lenght(); i++){\r\n            if(tickets[i].ticketid==ticketid && tickets[i].sell==false){\r\n                tickets[i].sell=true;\r\n                tickets[i].name=name;\r\n                tickets[i].surname=surname;\r\n                flag=true;\r\n            }\r\n            \r\n        }\r\n        return flag;\r\n        \r\n    }\r\n    \r\n    function check_ticket(uint eventid) external view returns(bool){\r\n        EventData memory evento= get_event(eventid);\r\n        if(evento.remaining_tickets == 0)\r\n            return false;\r\n        else if(keccak256(abi.encodePacked(evento.state))==keccak256(abi.encodePacked(\"Concluso\")) || keccak256(abi.encodePacked(evento.state))==keccak256(abi.encodePacked(\"Annullato\")) )\r\n            return false;\r\n        else \r\n            return true;\r\n    }\r\n    \r\n    function buy_ticket( address customer, uint eventid, string memory name, string memory surname) external returns(string memory, bool, address){\r\n        TicketData memory biglietto=get_event_ticket(eventid);\r\n        set_ticket_sold(biglietto.ticketid, name, surname);\r\n        reduce_remaining_tickets(eventid);\r\n        emit TicketSold(eventid, biglietto.ticketid, customer);\r\n        return (\"Biglietto acquistato\", true , customer);      \r\n    }\r\n    \r\n    function reduce_remaining_tickets(uint eventid) internal{\r\n        events[eventid].remaining_tickets --;\r\n    }\r\n\r\n\r\n    function validate_ticket(uint ticketid, address val) external only_validator(val)returns(string memory, address){\r\n        bool flag=false;\r\n        for(uint i=0; i < get_ticket_lenght(); i++){\r\n            if(tickets[i].ticketid==ticketid && tickets[i].validate==false && tickets[i].sell==true){\r\n                tickets[i].validate=true;\r\n                flag=true;\r\n            }\r\n        }\r\n        if(flag)\r\n            return(\"Biglietto valido\", val);\r\n        else\r\n            return(\"Biglitto gia' validato o non validabile\", val);\r\n\r\n   }\r\n    /*function set_event_sold(uint ticketid) internal returns (bool){\r\n        bool flag=false;\r\n        for(uint i=0; i < get_ticket_lenght(); i++){\r\n            if(tickets[i].ticketid==ticketid){\r\n                tickets[i].sell=true;\r\n                flag=true;\r\n            }\r\n        }\r\n        return flag;\r\n    } */\r\n    \r\n    \r\n    function get_tickets() public only_owner view returns(TicketData[] memory){\r\n        return tickets;\r\n    }\r\n\r\n    \r\n\r\n    function get_event_price(uint eventid) public view returns(uint) {\r\n        return events[eventid].price;\r\n    }\r\n    /*function delete_event_list(uint id) public only_owner {\r\n        bool deletable=false;\r\n        string memory an=\"Annullato\";\r\n        string memory cn=\"Concluso\";\r\n        for(uint i=0; i < get_event_length(); i++){\r\n            if(keccak256(abi.encodePacked(events[i]))==keccak256(abi.encodePacked(an)))\r\n                deletable=true;\r\n        }\r\n        \r\n        if(deletable)\r\n            delete events;\r\n    } */\r\n  \r\n     \r\n     function get_event(uint id) public view returns(EventData memory evento){\r\n         require(id < get_event_length(), \"L'evento non esiste\");\r\n         for(uint i=0; i < get_event_length(); i++){\r\n             if(events[i].id==id)\r\n                return events[i];\r\n         }\r\n     }\r\n     \r\n     function get_event_length() internal view returns (uint){\r\n         return events.length;\r\n     }\r\n     \r\n     function get_ticket_lenght() internal view returns (uint){\r\n         return tickets.length;\r\n     }\r\n     \r\n     function set_reseller(address r) only_owner public returns(string memory, address){\r\n         reseller=r;\r\n         return(\"Reseller impostato\", reseller);\r\n     }\r\n\r\n     function set_validator(address v) only_owner public returns(string memory, address){\r\n         validator=v;\r\n         return(\"Validator impostato\", validator);\r\n     }\r\n     \r\n     function get_balance() public view returns (uint256){\r\n        return owner.balance;\r\n    }\r\n\r\n    function get_address() public view returns(address){\r\n        return owner;\r\n    }\r\n\r\n    \r\n}  ",
  "sourcePath": "C:\\Users\\Utente\\Desktop\\Universita\\Laurea Magistrale\\Software Cybersecurity\\Progetto\\Repository\\Software-Cybersecurity-Project\\contracts\\Event.sol",
  "compiler": {
    "name": "solc",
    "version": "0.8.9+commit.e5eed63a.Emscripten.clang"
  },
  "schemaVersion": "3.4.3",
  "updatedAt": "2021-10-28T13:13:25.484Z",
  "networkType": "ethereum",
  "devdoc": {
    "kind": "dev",
    "methods": {},
    "version": 1
  },
  "userdoc": {
    "kind": "user",
    "methods": {},
    "version": 1
  }
}