{
  "contractName": "Ticket",
  "abi": [
    {
      "inputs": [
        {
          "internalType": "address",
          "name": "_eventAddress",
          "type": "address"
        }
      ],
      "stateMutability": "nonpayable",
      "type": "constructor"
    },
    {
      "inputs": [],
      "name": "eventAddress",
      "outputs": [
        {
          "internalType": "address",
          "name": "",
          "type": "address"
        }
      ],
      "stateMutability": "view",
      "type": "function",
      "constant": true
    },
    {
      "inputs": [],
      "name": "get_address",
      "outputs": [
        {
          "internalType": "address",
          "name": "",
          "type": "address"
        }
      ],
      "stateMutability": "view",
      "type": "function",
      "constant": true
    },
    {
      "inputs": [
        {
          "internalType": "uint256",
          "name": "eventid",
          "type": "uint256"
        },
        {
          "internalType": "string",
          "name": "nome",
          "type": "string"
        },
        {
          "internalType": "string",
          "name": "cognome",
          "type": "string"
        }
      ],
      "name": "buy_ticket",
      "outputs": [
        {
          "internalType": "string",
          "name": "",
          "type": "string"
        },
        {
          "internalType": "bool",
          "name": "",
          "type": "bool"
        },
        {
          "internalType": "address",
          "name": "",
          "type": "address"
        }
      ],
      "stateMutability": "nonpayable",
      "type": "function"
    },
    {
      "inputs": [
        {
          "internalType": "uint256",
          "name": "ticketid",
          "type": "uint256"
        }
      ],
      "name": "validate_ticket",
      "outputs": [
        {
          "internalType": "string",
          "name": "",
          "type": "string"
        }
      ],
      "stateMutability": "nonpayable",
      "type": "function"
    }
  ],
  "bytecode": "0x608060405260008054906101000a900473ffffffffffffffffffffffffffffffffffffffff1673ffffffffffffffffffffffffffffffffffffffff163160015534801561004b57600080fd5b50604051610c7a380380610c7a833981810160405281019061006d9190610157565b80600260006101000a81548173ffffffffffffffffffffffffffffffffffffffff021916908373ffffffffffffffffffffffffffffffffffffffff160217905550336000806101000a81548173ffffffffffffffffffffffffffffffffffffffff021916908373ffffffffffffffffffffffffffffffffffffffff16021790555050610184565b600080fd5b600073ffffffffffffffffffffffffffffffffffffffff82169050919050565b6000610124826100f9565b9050919050565b61013481610119565b811461013f57600080fd5b50565b6000815190506101518161012b565b92915050565b60006020828403121561016d5761016c6100f4565b5b600061017b84828501610142565b91505092915050565b610ae7806101936000396000f3fe608060405234801561001057600080fd5b506004361061004c5760003560e01c80630131222f146100515780633d48204e1461006f5780636d38b487146100a1578063fad56779146100d1575b600080fd5b6100596100ef565b6040516100669190610461565b60405180910390f35b6100896004803603810190610084919061060c565b610118565b6040516100989392919061073a565b60405180910390f35b6100bb60048036038101906100b69190610778565b6102a9565b6040516100c891906107a5565b60405180910390f35b6100d96103fa565b6040516100e69190610461565b60405180910390f35b60008060009054906101000a900473ffffffffffffffffffffffffffffffffffffffff16905090565b60606000806000600260009054906101000a900473ffffffffffffffffffffffffffffffffffffffff16905060008173ffffffffffffffffffffffffffffffffffffffff16635c34a5de896040518263ffffffff1660e01b815260040161017f91906107d6565b60206040518083038186803b15801561019757600080fd5b505afa1580156101ab573d6000803e3d6000fd5b505050506040513d601f19601f820116820180604052508101906101cf919061081d565b905080610201576000336040518060600160405280602b8152602001610a87602b9139919094509450945050506102a0565b8173ffffffffffffffffffffffffffffffffffffffff1663847fc1d1898989336040518563ffffffff1660e01b8152600401610240949392919061084a565b600060405180830381600087803b15801561025a57600080fd5b505af115801561026e573d6000803e3d6000fd5b505050506040513d6000823e3d601f19601f820116820180604052508101906102979190610939565b94509450945050505b93509350939050565b606060008054906101000a900473ffffffffffffffffffffffffffffffffffffffff1673ffffffffffffffffffffffffffffffffffffffff163373ffffffffffffffffffffffffffffffffffffffff1614610339576040517f08c379a0000000000000000000000000000000000000000000000000000000008152600401610330906109f4565b60405180910390fd5b6000600260009054906101000a900473ffffffffffffffffffffffffffffffffffffffff1690508073ffffffffffffffffffffffffffffffffffffffff1663214638cc84336040518363ffffffff1660e01b815260040161039b929190610a14565b600060405180830381600087803b1580156103b557600080fd5b505af11580156103c9573d6000803e3d6000fd5b505050506040513d6000823e3d601f19601f820116820180604052508101906103f29190610a3d565b915050919050565b600260009054906101000a900473ffffffffffffffffffffffffffffffffffffffff1681565b600073ffffffffffffffffffffffffffffffffffffffff82169050919050565b600061044b82610420565b9050919050565b61045b81610440565b82525050565b60006020820190506104766000830184610452565b92915050565b6000604051905090565b600080fd5b600080fd5b6000819050919050565b6104a381610490565b81146104ae57600080fd5b50565b6000813590506104c08161049a565b92915050565b600080fd5b600080fd5b6000601f19601f8301169050919050565b7f4e487b7100000000000000000000000000000000000000000000000000000000600052604160045260246000fd5b610519826104d0565b810181811067ffffffffffffffff82111715610538576105376104e1565b5b80604052505050565b600061054b61047c565b90506105578282610510565b919050565b600067ffffffffffffffff821115610577576105766104e1565b5b610580826104d0565b9050602081019050919050565b82818337600083830152505050565b60006105af6105aa8461055c565b610541565b9050828152602081018484840111156105cb576105ca6104cb565b5b6105d684828561058d565b509392505050565b600082601f8301126105f3576105f26104c6565b5b813561060384826020860161059c565b91505092915050565b60008060006060848603121561062557610624610486565b5b6000610633868287016104b1565b935050602084013567ffffffffffffffff8111156106545761065361048b565b5b610660868287016105de565b925050604084013567ffffffffffffffff8111156106815761068061048b565b5b61068d868287016105de565b9150509250925092565b600081519050919050565b600082825260208201905092915050565b60005b838110156106d15780820151818401526020810190506106b6565b838111156106e0576000848401525b50505050565b60006106f182610697565b6106fb81856106a2565b935061070b8185602086016106b3565b610714816104d0565b840191505092915050565b60008115159050919050565b6107348161071f565b82525050565b6000606082019050818103600083015261075481866106e6565b9050610763602083018561072b565b6107706040830184610452565b949350505050565b60006020828403121561078e5761078d610486565b5b600061079c848285016104b1565b91505092915050565b600060208201905081810360008301526107bf81846106e6565b905092915050565b6107d081610490565b82525050565b60006020820190506107eb60008301846107c7565b92915050565b6107fa8161071f565b811461080557600080fd5b50565b600081519050610817816107f1565b92915050565b60006020828403121561083357610832610486565b5b600061084184828501610808565b91505092915050565b600060808201905061085f60008301876107c7565b818103602083015261087181866106e6565b9050818103604083015261088581856106e6565b90506108946060830184610452565b95945050505050565b60006108b06108ab8461055c565b610541565b9050828152602081018484840111156108cc576108cb6104cb565b5b6108d78482856106b3565b509392505050565b600082601f8301126108f4576108f36104c6565b5b815161090484826020860161089d565b91505092915050565b61091681610440565b811461092157600080fd5b50565b6000815190506109338161090d565b92915050565b60008060006060848603121561095257610951610486565b5b600084015167ffffffffffffffff8111156109705761096f61048b565b5b61097c868287016108df565b935050602061098d86828701610808565b925050604061099e86828701610924565b9150509250925092565b7f4572726f72650000000000000000000000000000000000000000000000000000600082015250565b60006109de6006836106a2565b91506109e9826109a8565b602082019050919050565b60006020820190508181036000830152610a0d816109d1565b9050919050565b6000604082019050610a2960008301856107c7565b610a366020830184610452565b9392505050565b600060208284031215610a5357610a52610486565b5b600082015167ffffffffffffffff811115610a7157610a7061048b565b5b610a7d848285016108df565b9150509291505056fe4269676c6965747469206e6f6e20646973706f6e6962696c69206f206576656e746f20636f6e636c75736fa264697066735822122012bf442088a7eb8801d2d6ba0abc827d578f31a10144835d062caa34d835226e64736f6c63430008090033",
  "immutableReferences": {},
  "source": "// SPDX-License-Identifier: GPL-3.0\r\npragma solidity >=0.7.0 <0.9.0;\r\n\r\n\r\nimport \"./Event.sol\";\r\n\r\ncontract Ticket {\r\n    \r\n    address private owner;\r\n    uint balance=owner.balance;\r\n    address public eventAddress;\r\n    string private name;\r\n    string private surname;\r\n\r\n    modifier only_owner() {\r\n        require(msg.sender == owner, \"Errore\");\r\n        _;\r\n    }\r\n    \r\n    \r\n    constructor(address _eventAddress) {\r\n        eventAddress = _eventAddress;\r\n        owner=msg.sender;\r\n    }\r\n\r\n    \r\n    function get_address() public view returns(address){\r\n        return owner;\r\n    }\r\n\r\n    \r\n    function buy_ticket(uint eventid, string memory nome, string memory cognome) public returns(string memory, bool, address){\r\n        Event ev= Event(eventAddress);\r\n        bool control=ev.check_ticket(eventid);\r\n        if(!control)\r\n            return (\"Biglietti non disponibili o evento concluso\",false, msg.sender);\r\n        return ev.buy_ticket(eventid, nome, cognome, msg.sender);     \r\n    }\r\n\r\n    function validate_ticket(uint ticketid) public only_owner returns(string memory) {\r\n        Event ev= Event(eventAddress);\r\n        return ev.validate_ticket(ticketid, msg.sender);\r\n    }\r\n\r\n\r\n    \r\n \r\n    \r\n    \r\n    \r\n}",
  "sourcePath": "C:\\Users\\Utente\\Desktop\\Universita\\Laurea Magistrale\\Software Cybersecurity\\Progetto\\Repository\\Software-Cybersecurity-Project\\contracts\\Ticket.sol",
  "compiler": {
    "name": "solc",
    "version": "0.8.9+commit.e5eed63a.Emscripten.clang"
  },
  "schemaVersion": "3.4.3",
  "updatedAt": "2021-10-20T14:19:40.428Z",
  "networkType": "ethereum",
  "devdoc": {
    "kind": "dev",
    "methods": {},
    "version": 1
  },
  "userdoc": {
    "kind": "user",
    "methods": {},
    "version": 1
  }
}