{
  "contractName": "Ticket",
  "abi": [
    {
      "inputs": [
        {
          "internalType": "address",
          "name": "_eventAddress",
          "type": "address"
        }
      ],
      "stateMutability": "nonpayable",
      "type": "constructor"
    },
    {
      "inputs": [],
      "name": "eventAddress",
      "outputs": [
        {
          "internalType": "address",
          "name": "",
          "type": "address"
        }
      ],
      "stateMutability": "view",
      "type": "function",
      "constant": true
    },
    {
      "inputs": [],
      "name": "get_balance",
      "outputs": [
        {
          "internalType": "uint256",
          "name": "",
          "type": "uint256"
        }
      ],
      "stateMutability": "view",
      "type": "function",
      "constant": true
    },
    {
      "inputs": [],
      "name": "get_address",
      "outputs": [
        {
          "internalType": "address",
          "name": "",
          "type": "address"
        }
      ],
      "stateMutability": "view",
      "type": "function",
      "constant": true
    },
    {
      "inputs": [
        {
          "internalType": "uint256",
          "name": "eventid",
          "type": "uint256"
        },
        {
          "internalType": "string",
          "name": "nome",
          "type": "string"
        },
        {
          "internalType": "string",
          "name": "cognome",
          "type": "string"
        }
      ],
      "name": "buy_ticket",
      "outputs": [
        {
          "internalType": "string",
          "name": "",
          "type": "string"
        },
        {
          "internalType": "bool",
          "name": "",
          "type": "bool"
        }
      ],
      "stateMutability": "nonpayable",
      "type": "function"
    }
  ],
  "bytecode": "0x608060405260008054906101000a900473ffffffffffffffffffffffffffffffffffffffff1673ffffffffffffffffffffffffffffffffffffffff163160015534801561004b57600080fd5b506040516108cb3803806108cb833981810160405281019061006d9190610157565b80600260006101000a81548173ffffffffffffffffffffffffffffffffffffffff021916908373ffffffffffffffffffffffffffffffffffffffff160217905550336000806101000a81548173ffffffffffffffffffffffffffffffffffffffff021916908373ffffffffffffffffffffffffffffffffffffffff16021790555050610184565b600080fd5b600073ffffffffffffffffffffffffffffffffffffffff82169050919050565b6000610124826100f9565b9050919050565b61013481610119565b811461013f57600080fd5b50565b6000815190506101518161012b565b92915050565b60006020828403121561016d5761016c6100f4565b5b600061017b84828501610142565b91505092915050565b610738806101936000396000f3fe608060405234801561001057600080fd5b506004361061004c5760003560e01c80630131222f146100515780633d48204e1461006f578063c1cfb99a146100a0578063fad56779146100be575b600080fd5b6100596100dc565b6040516100669190610263565b60405180910390f35b6100896004803603810190610084919061040e565b610105565b60405161009792919061053c565b60405180910390f35b6100a86101f2565b6040516100b5919061057b565b60405180910390f35b6100c66101fc565b6040516100d39190610263565b60405180910390f35b60008060009054906101000a900473ffffffffffffffffffffffffffffffffffffffff16905090565b6060600080600260009054906101000a900473ffffffffffffffffffffffffffffffffffffffff1690508073ffffffffffffffffffffffffffffffffffffffff16630c2517bf8760008054906101000a900473ffffffffffffffffffffffffffffffffffffffff1688886040518563ffffffff1660e01b815260040161018e94939291906105b7565b600060405180830381600087803b1580156101a857600080fd5b505af11580156101bc573d6000803e3d6000fd5b505050506040513d6000823e3d601f19601f820116820180604052508101906101e591906106a6565b9250925050935093915050565b6000600154905090565b600260009054906101000a900473ffffffffffffffffffffffffffffffffffffffff1681565b600073ffffffffffffffffffffffffffffffffffffffff82169050919050565b600061024d82610222565b9050919050565b61025d81610242565b82525050565b60006020820190506102786000830184610254565b92915050565b6000604051905090565b600080fd5b600080fd5b6000819050919050565b6102a581610292565b81146102b057600080fd5b50565b6000813590506102c28161029c565b92915050565b600080fd5b600080fd5b6000601f19601f8301169050919050565b7f4e487b7100000000000000000000000000000000000000000000000000000000600052604160045260246000fd5b61031b826102d2565b810181811067ffffffffffffffff8211171561033a576103396102e3565b5b80604052505050565b600061034d61027e565b90506103598282610312565b919050565b600067ffffffffffffffff821115610379576103786102e3565b5b610382826102d2565b9050602081019050919050565b82818337600083830152505050565b60006103b16103ac8461035e565b610343565b9050828152602081018484840111156103cd576103cc6102cd565b5b6103d884828561038f565b509392505050565b600082601f8301126103f5576103f46102c8565b5b813561040584826020860161039e565b91505092915050565b60008060006060848603121561042757610426610288565b5b6000610435868287016102b3565b935050602084013567ffffffffffffffff8111156104565761045561028d565b5b610462868287016103e0565b925050604084013567ffffffffffffffff8111156104835761048261028d565b5b61048f868287016103e0565b9150509250925092565b600081519050919050565b600082825260208201905092915050565b60005b838110156104d35780820151818401526020810190506104b8565b838111156104e2576000848401525b50505050565b60006104f382610499565b6104fd81856104a4565b935061050d8185602086016104b5565b610516816102d2565b840191505092915050565b60008115159050919050565b61053681610521565b82525050565b6000604082019050818103600083015261055681856104e8565b9050610565602083018461052d565b9392505050565b61057581610292565b82525050565b6000602082019050610590600083018461056c565b92915050565b60006105a182610222565b9050919050565b6105b181610596565b82525050565b60006080820190506105cc600083018761056c565b6105d960208301866105a8565b81810360408301526105eb81856104e8565b905081810360608301526105ff81846104e8565b905095945050505050565b600061061d6106188461035e565b610343565b905082815260208101848484011115610639576106386102cd565b5b6106448482856104b5565b509392505050565b600082601f830112610661576106606102c8565b5b815161067184826020860161060a565b91505092915050565b61068381610521565b811461068e57600080fd5b50565b6000815190506106a08161067a565b92915050565b600080604083850312156106bd576106bc610288565b5b600083015167ffffffffffffffff8111156106db576106da61028d565b5b6106e78582860161064c565b92505060206106f885828601610691565b915050925092905056fea264697066735822122097567bea79ad7b40ab65e4b2742c5fe4097e601da294126706a8a2c16c1647e364736f6c63430008090033",
  "immutableReferences": {},
  "source": "// SPDX-License-Identifier: GPL-3.0\r\npragma solidity >=0.7.0 <0.9.0;\r\n\r\n\r\nimport \"./Event.sol\";\r\n\r\ncontract Ticket {\r\n    \r\n    address private owner;\r\n    uint256 private balance=owner.balance;\r\n    address public eventAddress;\r\n    string private name;\r\n    string private surname;\r\n    \r\n    \r\n    constructor(address _eventAddress) {\r\n        eventAddress = _eventAddress;\r\n        owner=msg.sender;\r\n    }\r\n    \r\n    function get_balance() public view returns (uint256){\r\n        return balance;\r\n    }\r\n    \r\n    function get_address() public view returns(address){\r\n        return owner;\r\n    }\r\n    \r\n    function buy_ticket(uint eventid, string memory nome, string memory cognome) public returns(string memory, bool){\r\n        Event ev= Event(eventAddress);\r\n        return ev.buy_ticket(eventid, payable(owner), nome, cognome);\r\n    }\r\n    \r\n \r\n    \r\n    \r\n    \r\n}",
  "sourcePath": "C:\\Users\\Utente\\Desktop\\Universita\\Laurea Magistrale\\Software Cybersecurity\\Progetto\\Repository\\Software-Cybersecurity-Project\\contracts\\Ticket.sol",
  "compiler": {
    "name": "solc",
    "version": "0.8.9+commit.e5eed63a.Emscripten.clang"
  },
  "schemaVersion": "3.4.3",
  "updatedAt": "2021-10-19T15:07:40.092Z",
  "networkType": "ethereum",
  "devdoc": {
    "kind": "dev",
    "methods": {},
    "version": 1
  },
  "userdoc": {
    "kind": "user",
    "methods": {},
    "version": 1
  }
}