{
  "contractName": "Ticket",
  "abi": [
    {
      "inputs": [
        {
          "internalType": "address",
          "name": "_eventAddress",
          "type": "address"
        }
      ],
      "stateMutability": "nonpayable",
      "type": "constructor"
    },
    {
      "anonymous": false,
      "inputs": [
        {
          "indexed": true,
          "internalType": "uint256",
          "name": "eventid",
          "type": "uint256"
        },
        {
          "indexed": true,
          "internalType": "uint256",
          "name": "ticketid",
          "type": "uint256"
        },
        {
          "indexed": true,
          "internalType": "address",
          "name": "customer",
          "type": "address"
        },
        {
          "indexed": false,
          "internalType": "string",
          "name": "name",
          "type": "string"
        },
        {
          "indexed": false,
          "internalType": "string",
          "name": "surname",
          "type": "string"
        }
      ],
      "name": "TicketBought",
      "type": "event"
    },
    {
      "anonymous": false,
      "inputs": [
        {
          "indexed": true,
          "internalType": "uint256",
          "name": "ticketid",
          "type": "uint256"
        },
        {
          "indexed": true,
          "internalType": "address",
          "name": "validator",
          "type": "address"
        }
      ],
      "name": "TicketValidated",
      "type": "event"
    },
    {
      "inputs": [],
      "name": "eventAddress",
      "outputs": [
        {
          "internalType": "address",
          "name": "",
          "type": "address"
        }
      ],
      "stateMutability": "view",
      "type": "function",
      "constant": true
    },
    {
      "inputs": [],
      "name": "get_address",
      "outputs": [
        {
          "internalType": "address",
          "name": "",
          "type": "address"
        }
      ],
      "stateMutability": "view",
      "type": "function",
      "constant": true
    },
    {
      "inputs": [
        {
          "internalType": "uint256",
          "name": "eventid",
          "type": "uint256"
        },
        {
          "internalType": "string",
          "name": "nome",
          "type": "string"
        },
        {
          "internalType": "string",
          "name": "cognome",
          "type": "string"
        }
      ],
      "name": "buy_ticket",
      "outputs": [
        {
          "internalType": "uint256",
          "name": "",
          "type": "uint256"
        }
      ],
      "stateMutability": "payable",
      "type": "function",
      "payable": true
    },
    {
      "inputs": [
        {
          "internalType": "uint256",
          "name": "ticketid",
          "type": "uint256"
        }
      ],
      "name": "validate_ticket",
      "outputs": [
        {
          "internalType": "bool",
          "name": "",
          "type": "bool"
        }
      ],
      "stateMutability": "nonpayable",
      "type": "function"
    }
  ],
  "bytecode": "0x608060405260008054906101000a900473ffffffffffffffffffffffffffffffffffffffff1673ffffffffffffffffffffffffffffffffffffffff163160015534801561004b57600080fd5b50604051610c79380380610c79833981810160405281019061006d9190610157565b80600260006101000a81548173ffffffffffffffffffffffffffffffffffffffff021916908373ffffffffffffffffffffffffffffffffffffffff160217905550336000806101000a81548173ffffffffffffffffffffffffffffffffffffffff021916908373ffffffffffffffffffffffffffffffffffffffff16021790555050610184565b600080fd5b600073ffffffffffffffffffffffffffffffffffffffff82169050919050565b6000610124826100f9565b9050919050565b61013481610119565b811461013f57600080fd5b50565b6000815190506101518161012b565b92915050565b60006020828403121561016d5761016c6100f4565b5b600061017b84828501610142565b91505092915050565b610ae6806101936000396000f3fe60806040526004361061003f5760003560e01c80630131222f146100445780633d48204e1461006f5780636d38b4871461009f578063fad56779146100dc575b600080fd5b34801561005057600080fd5b50610059610107565b60405161006691906104f8565b60405180910390f35b610089600480360381019061008491906106a3565b610130565b604051610096919061073d565b60405180910390f35b3480156100ab57600080fd5b506100c660048036038101906100c19190610758565b610309565b6040516100d391906107a0565b60405180910390f35b3480156100e857600080fd5b506100f1610491565b6040516100fe91906104f8565b60405180910390f35b60008060009054906101000a900473ffffffffffffffffffffffffffffffffffffffff16905090565b600080600260009054906101000a900473ffffffffffffffffffffffffffffffffffffffff16905060008173ffffffffffffffffffffffffffffffffffffffff16635c34a5de876040518263ffffffff1660e01b8152600401610193919061073d565b602060405180830381865afa1580156101b0573d6000803e3d6000fd5b505050506040513d601f19601f820116820180604052508101906101d491906107e7565b9050600115158115151461021d576040517f08c379a000000000000000000000000000000000000000000000000000000000815260040161021490610897565b60405180910390fd5b600033905060008373ffffffffffffffffffffffffffffffffffffffff1663f06f75cc34848b8b8b6040518663ffffffff1660e01b8152600401610264949392919061094f565b60206040518083038185885af1158015610282573d6000803e3d6000fd5b50505050506040513d601f19601f820116820180604052508101906102a791906109b7565b90508173ffffffffffffffffffffffffffffffffffffffff1681897fc073852439b7cebd8fbfdd12c4924da008c2f62fcf2be27951090ed91d64e5f38a8a6040516102f39291906109e4565b60405180910390a4809450505050509392505050565b60008060009054906101000a900473ffffffffffffffffffffffffffffffffffffffff1673ffffffffffffffffffffffffffffffffffffffff163373ffffffffffffffffffffffffffffffffffffffff161461039a576040517f08c379a000000000000000000000000000000000000000000000000000000000815260040161039190610a67565b60405180910390fd5b6000600260009054906101000a900473ffffffffffffffffffffffffffffffffffffffff16905060008173ffffffffffffffffffffffffffffffffffffffff1663214638cc85336040518363ffffffff1660e01b81526004016103fe929190610a87565b6020604051808303816000875af115801561041d573d6000803e3d6000fd5b505050506040513d601f19601f8201168201806040525081019061044191906107e7565b90503373ffffffffffffffffffffffffffffffffffffffff16847f7523a5038b0221808d5987c7a4c3a6d9074ed76bf247f76665b2ed493e8fd1fb60405160405180910390a38092505050919050565b600260009054906101000a900473ffffffffffffffffffffffffffffffffffffffff1681565b600073ffffffffffffffffffffffffffffffffffffffff82169050919050565b60006104e2826104b7565b9050919050565b6104f2816104d7565b82525050565b600060208201905061050d60008301846104e9565b92915050565b6000604051905090565b600080fd5b600080fd5b6000819050919050565b61053a81610527565b811461054557600080fd5b50565b60008135905061055781610531565b92915050565b600080fd5b600080fd5b6000601f19601f8301169050919050565b7f4e487b7100000000000000000000000000000000000000000000000000000000600052604160045260246000fd5b6105b082610567565b810181811067ffffffffffffffff821117156105cf576105ce610578565b5b80604052505050565b60006105e2610513565b90506105ee82826105a7565b919050565b600067ffffffffffffffff82111561060e5761060d610578565b5b61061782610567565b9050602081019050919050565b82818337600083830152505050565b6000610646610641846105f3565b6105d8565b90508281526020810184848401111561066257610661610562565b5b61066d848285610624565b509392505050565b600082601f83011261068a5761068961055d565b5b813561069a848260208601610633565b91505092915050565b6000806000606084860312156106bc576106bb61051d565b5b60006106ca86828701610548565b935050602084013567ffffffffffffffff8111156106eb576106ea610522565b5b6106f786828701610675565b925050604084013567ffffffffffffffff81111561071857610717610522565b5b61072486828701610675565b9150509250925092565b61073781610527565b82525050565b6000602082019050610752600083018461072e565b92915050565b60006020828403121561076e5761076d61051d565b5b600061077c84828501610548565b91505092915050565b60008115159050919050565b61079a81610785565b82525050565b60006020820190506107b56000830184610791565b92915050565b6107c481610785565b81146107cf57600080fd5b50565b6000815190506107e1816107bb565b92915050565b6000602082840312156107fd576107fc61051d565b5b600061080b848285016107d2565b91505092915050565b600082825260208201905092915050565b7f4269676c69657474692066696e697469206f206576656e746f20636f6e636c7560008201527f736f000000000000000000000000000000000000000000000000000000000000602082015250565b6000610881602283610814565b915061088c82610825565b604082019050919050565b600060208201905081810360008301526108b081610874565b9050919050565b60006108c2826104b7565b9050919050565b6108d2816108b7565b82525050565b600081519050919050565b60005b838110156109015780820151818401526020810190506108e6565b83811115610910576000848401525b50505050565b6000610921826108d8565b61092b8185610814565b935061093b8185602086016108e3565b61094481610567565b840191505092915050565b600060808201905061096460008301876108c9565b610971602083018661072e565b81810360408301526109838185610916565b905081810360608301526109978184610916565b905095945050505050565b6000815190506109b181610531565b92915050565b6000602082840312156109cd576109cc61051d565b5b60006109db848285016109a2565b91505092915050565b600060408201905081810360008301526109fe8185610916565b90508181036020830152610a128184610916565b90509392505050565b7f4572726f72650000000000000000000000000000000000000000000000000000600082015250565b6000610a51600683610814565b9150610a5c82610a1b565b602082019050919050565b60006020820190508181036000830152610a8081610a44565b9050919050565b6000604082019050610a9c600083018561072e565b610aa960208301846104e9565b939250505056fea264697066735822122071318a3f84ec6f871a5218abe2bf495cef35c1dad612637f15c17357adc3309364736f6c634300080a0033",
  "immutableReferences": {},
  "source": "// SPDX-License-Identifier: GPL-3.0\r\npragma solidity >=0.7.0 <0.9.0;\r\n\r\n\r\nimport \"./Event.sol\";\r\n\r\ncontract Ticket {\r\n    \r\n    address private owner;\r\n    uint balance=owner.balance;\r\n    address public eventAddress;\r\n    string private name;\r\n    string private surname;\r\n\r\n    modifier only_owner() {\r\n        require(msg.sender == owner, \"Errore\");\r\n        _;\r\n    }\r\n\r\n    event TicketBought(uint indexed eventid, uint indexed ticketid, address indexed customer, string name, string surname );\r\n    event TicketValidated(uint indexed ticketid, address indexed validator);\r\n    \r\n    \r\n    constructor(address _eventAddress) {\r\n        eventAddress = _eventAddress;\r\n        owner=msg.sender;\r\n    }\r\n\r\n    \r\n    function get_address() public view returns(address){\r\n        return owner;\r\n    }\r\n\r\n    \r\n    function buy_ticket(uint eventid, string memory nome, string memory cognome) public payable returns(uint){\r\n        Event ev= Event(eventAddress);\r\n        bool control=ev.check_ticket(eventid);\r\n        require(control==true, \"Biglietti finiti o evento concluso\");\r\n        address customer=msg.sender;\r\n        uint biglietto=ev.buy_ticket{value: msg.value}(payable(customer),eventid, nome, cognome);\r\n        emit TicketBought(eventid, biglietto,customer, nome, cognome);  \r\n        return biglietto;\r\n    }\r\n\r\n    function validate_ticket(uint ticketid) public only_owner returns(bool) {\r\n        Event ev= Event(eventAddress);\r\n        bool flag= ev.validate_ticket(ticketid, msg.sender);\r\n        emit TicketValidated(ticketid, msg.sender);\r\n        return flag;\r\n    }\r\n\r\n\r\n    \r\n \r\n    \r\n    \r\n    \r\n}",
  "sourcePath": "C:\\Users\\Utente\\Desktop\\Universita\\Laurea Magistrale\\Software Cybersecurity\\Progetto\\Repository\\Software-Cybersecurity-Project\\contracts\\Ticket.sol",
  "compiler": {
    "name": "solc",
    "version": "0.8.10+commit.fc410830.Emscripten.clang"
  },
  "schemaVersion": "3.4.3",
  "updatedAt": "2021-11-20T17:37:05.188Z",
  "networkType": "ethereum",
  "devdoc": {
    "kind": "dev",
    "methods": {},
    "version": 1
  },
  "userdoc": {
    "kind": "user",
    "methods": {},
    "version": 1
  }
}