{
  "contractName": "Validator",
  "abi": [
    {
      "inputs": [
        {
          "internalType": "address",
          "name": "_eventAddress",
          "type": "address"
        }
      ],
      "stateMutability": "nonpayable",
      "type": "constructor"
    },
    {
      "inputs": [],
      "name": "eventAddress",
      "outputs": [
        {
          "internalType": "address",
          "name": "",
          "type": "address"
        }
      ],
      "stateMutability": "view",
      "type": "function"
    },
    {
      "inputs": [],
      "name": "get_address",
      "outputs": [
        {
          "internalType": "address",
          "name": "",
          "type": "address"
        }
      ],
      "stateMutability": "view",
      "type": "function"
    },
    {
      "inputs": [
        {
          "internalType": "uint256",
          "name": "ticketid",
          "type": "uint256"
        }
      ],
      "name": "validate_ticket",
      "outputs": [
        {
          "internalType": "string",
          "name": "",
          "type": "string"
        }
      ],
      "stateMutability": "nonpayable",
      "type": "function"
    }
  ],
  "bytecode": "0x6080604052336000806101000a81548173ffffffffffffffffffffffffffffffffffffffff021916908373ffffffffffffffffffffffffffffffffffffffff16021790555034801561005057600080fd5b506040516106873803806106878339818101604052810190610072919061011c565b80600160006101000a81548173ffffffffffffffffffffffffffffffffffffffff021916908373ffffffffffffffffffffffffffffffffffffffff16021790555050610149565b600080fd5b600073ffffffffffffffffffffffffffffffffffffffff82169050919050565b60006100e9826100be565b9050919050565b6100f9816100de565b811461010457600080fd5b50565b600081519050610116816100f0565b92915050565b600060208284031215610132576101316100b9565b5b600061014084828501610107565b91505092915050565b61052f806101586000396000f3fe608060405234801561001057600080fd5b50600436106100415760003560e01c80630131222f146100465780636d38b48714610064578063fad5677914610094575b600080fd5b61004e6100b2565b60405161005b9190610205565b60405180910390f35b61007e6004803603810190610079919061026a565b6100db565b60405161008b9190610330565b60405180910390f35b61009c61019e565b6040516100a99190610205565b60405180910390f35b60008060009054906101000a900473ffffffffffffffffffffffffffffffffffffffff16905090565b60606000600160009054906101000a900473ffffffffffffffffffffffffffffffffffffffff1690508073ffffffffffffffffffffffffffffffffffffffff1663214638cc84336040518363ffffffff1660e01b815260040161013f929190610361565b600060405180830381600087803b15801561015957600080fd5b505af115801561016d573d6000803e3d6000fd5b505050506040513d6000823e3d601f19601f8201168201806040525081019061019691906104b0565b915050919050565b600160009054906101000a900473ffffffffffffffffffffffffffffffffffffffff1681565b600073ffffffffffffffffffffffffffffffffffffffff82169050919050565b60006101ef826101c4565b9050919050565b6101ff816101e4565b82525050565b600060208201905061021a60008301846101f6565b92915050565b6000604051905090565b600080fd5b600080fd5b6000819050919050565b61024781610234565b811461025257600080fd5b50565b6000813590506102648161023e565b92915050565b6000602082840312156102805761027f61022a565b5b600061028e84828501610255565b91505092915050565b600081519050919050565b600082825260208201905092915050565b60005b838110156102d15780820151818401526020810190506102b6565b838111156102e0576000848401525b50505050565b6000601f19601f8301169050919050565b600061030282610297565b61030c81856102a2565b935061031c8185602086016102b3565b610325816102e6565b840191505092915050565b6000602082019050818103600083015261034a81846102f7565b905092915050565b61035b81610234565b82525050565b60006040820190506103766000830185610352565b61038360208301846101f6565b9392505050565b600080fd5b600080fd5b7f4e487b7100000000000000000000000000000000000000000000000000000000600052604160045260246000fd5b6103cc826102e6565b810181811067ffffffffffffffff821117156103eb576103ea610394565b5b80604052505050565b60006103fe610220565b905061040a82826103c3565b919050565b600067ffffffffffffffff82111561042a57610429610394565b5b610433826102e6565b9050602081019050919050565b600061045361044e8461040f565b6103f4565b90508281526020810184848401111561046f5761046e61038f565b5b61047a8482856102b3565b509392505050565b600082601f8301126104975761049661038a565b5b81516104a7848260208601610440565b91505092915050565b6000602082840312156104c6576104c561022a565b5b600082015167ffffffffffffffff8111156104e4576104e361022f565b5b6104f084828501610482565b9150509291505056fea264697066735822122006ce2ad8c3c72ac4950ef8dc064df1b90692411fda247433c47e2de82a2f116d64736f6c63430008090033",
  "immutableReferences": {},
  "source": "// SPDX-License-Identifier: GPL-3.0\r\npragma solidity >=0.7.0 <0.9.0;\r\n\r\n\r\nimport \"./Event.sol\";\r\n\r\ncontract Validator{\r\n    address private owner=msg.sender;\r\n    address public eventAddress;\r\n\r\n    modifier only_owner() {\r\n        require(msg.sender == owner, \"Errore\");\r\n        _;\r\n    }\r\n\r\n    constructor(address _eventAddress) {\r\n        eventAddress = _eventAddress;\r\n    }\r\n\r\n    function get_address() public view returns(address){\r\n        return owner;\r\n    }\r\n\r\n    function validate_ticket(uint ticketid) public returns(string memory) {\r\n        Event ev= Event(eventAddress);\r\n        return ev.validate_ticket(ticketid, msg.sender);\r\n    }\r\n\r\n\r\n}",
  "sourcePath": "C:\\Users\\Utente\\Desktop\\Universita\\Laurea Magistrale\\Software Cybersecurity\\Progetto\\Repository\\Software-Cybersecurity-Project\\contracts\\Validator.sol",
  "compiler": {
    "name": "solc",
    "version": "0.8.9+commit.e5eed63a.Emscripten.clang"
  },
  "schemaVersion": "3.4.3",
  "updatedAt": "2021-10-20T14:19:28.741Z",
  "devdoc": {
    "kind": "dev",
    "methods": {},
    "version": 1
  },
  "userdoc": {
    "kind": "user",
    "methods": {},
    "version": 1
  }
}